:02000002D0002C
:1040000000400D001CA60D00000006000D0005017B
:084010000401DB0700000000C1
:0440180018930D00EC
:1040200009480A49884208B505D0094A824202D0A7
:10403000121A05F04FF80748074A0021121A05F036
:1040400071F8014808BD00BFD4E20320B4A40D00FC
:1040500010E4032010E40320F0E7032070B5074EBE
:10406000074C03F0C9FCA41BA4080025A54200D1FD
:1040700070BD56F8043B98470135F7E7809C0D006A
:10408000AC9C0D0000F0E0BE08B500F03DFDBDE8C1
:10409000084003F073BC02F0DDBF02F0DBBF02F0AA
:1040A000E1BF000008B5034A00210C2002F088FEA1
:1040B000FEE700BFF16A0D000078B0FA80F0400919
:1040C0007047012303707047014B01221A7070473B
:1040D000B8E5032010B503682F2B044604D9074A1E
:1040E00000210A2002F06CFE23681F2B83BF03F01F
:1040F0001F03034823604FF0A04010BDF16A0D007C
:104100000003005008B5044903F0BDF918B1034B92
:1041100003221A70012008BD6D930D0040E50320B5
:1041200038B50446006928B185680C2104F061FBAC
:104130002846F8E7204638BD10B5034B0360044617
:1041400001F092F9204610BD7C960D0010B5044692
:10415000FFF7F2FF2046382104F04BFB204610BD4C
:1041600010B5034B0360044601F0C4FB204610BDAC
:10417000A4960D0010B50446FFF7F2FF204610216B
:1041800004F037FB204610BD10B50446006818B196
:1041900002F068FF0023236010BD10B50446FFF74E
:1041A000F3FF204610BD0023042202F0E3BE00000E
:1041B000F8B5037D05460F4616468BB10368DB68EC
:1041C00083B19A88012A06D09B68F9E79B684BB1B6
:1041D0009A88012AFAD12BB19A89BA42F6D19E73F4
:1041E0002846F8BD0A49102004F005FB044668B1D2
:1041F0001022002104F096FF064B23600123A380C8
:104200002B69A360A781A6732C61E9E72875E7E70E
:10421000249B0D001000030070B5037D05460E467B
:10422000CBB10368DB6823B19A88042A17D09B6856
:10423000F9E70C49102004F0DEFA044668B11022B8
:10424000002104F06FFF084B23600423A3802B6937
:104250002C61C4E90236284670BD2875FBE7DE6094
:10426000F9E700BF249B0D001000030007B50822EA
:104270000023ADF800204FF47A71012201924143EE
:104280006A461846ADF8023002F0CCFE03B05DF885
:1042900004FB0000F7B5324D324C2B78BFF35B8F37
:1042A000060171B3D80709D42846FFF705FF28B1E6
:1042B00002F0DEFB20602846FFF703FF23689B5DCA
:1042C0005F012B78BFF35B8FD90709D42448FFF730
:1042D000F3FE28B102F0CCFB20602148FFF7F1FE8D
:1042E0002068064401A8737803F01F033B43019341
:1042F000FFF7F0FE019A01239340C0F8083503B0A0
:10430000F0BDDA0709D42846FFF7D6FE28B102F03F
:10431000AFFB20602846FFF7D4FE23689B5D5F015A
:104320002B78BFF35B8FDB0709D40D48FFF7C4FE82
:1043300028B102F09DFB20600948FFF7C2FE20680B
:10434000064401A8737803F01F033B430193FFF772
:10435000C1FE019A01239340C0F80C35CFE700BF9E
:1043600014E4032018E4032037B504689DF81850BE
:104370008DF800308DF80450E4683C23A04703B06A
:1043800030BD000010B50B7892B00C467BB91949CE
:1043900002A804F0FDFE00238DF80030164B1749EB
:1043A0001B78174802AAFFF7DFFF12B010BD0846BE
:1043B00004F06CFEC8280ED1124902A804F0E8FEF1
:1043C00003F05DFA104B9861104B01221A70104BEC
:1043D00000221A70DFE7204604F058FEC928EBD00F
:1043E000204604F053FE0B4A0346402102A802F087
:1043F00051FED0E76F930D0039E40320A6930D0022
:10440000B0E4032077930D004CE5032068E503201A
:1044100074E4032089930D0037B51649054603F06F
:1044200032F8044688B1144B144A15491548012442
:104430005C7200238DF80030134B1B78FFF794FF5C
:10444000124B20461C7003B030BD1149284603F0C2
:104450001AF80028F7D0084B0E4A5C720A4B8DF808
:1044600000401B7806490748FFF77EFF074B0120F5
:104470001870E8E76D930D004CE50320B3930D0031
:10448000D4930D00B0E4032039E4032068E5032051
:104490006B930D00C4930D0037B51849054602F023
:1044A000F2FF0446B8B1164B012258685A70FFF764
:1044B000DDFE02F07FFD48B100238DF80030114B86
:1044C000114A1B7811491248FFF74EFF114B01208A
:1044D000187003B030BD1049284602F0D4FF002800
:1044E000F7D0074B5C7002F065FD0028EED0054B5D
:1044F0008DF800401B78094AE4E700BF6D930D007A
:104500004CE5032039E40320D9930D00D4930D002A
:10451000B0E4032068E503206B930D00EE930D00DB
:1045200010B5C4B000680A2203A904F0EBFEB0F590
:10453000966F1AD80E4C606002F03CFD80B1636843
:104540000C4A4FF4807104A802F0A4FD00238DF8FA
:104550000030094B09491B78094804AAFFF704FFFA
:10456000084B0120187044B010BD0020FBE700BFCD
:104570004CE5032002940D0039E403201B940D0048
:10458000B0E4032068E5032007B502F013FD48B14D
:1045900000238DF800300B4B0B4A1B780B490C485D
:1045A000FFF7E2FE0B4A0C487823536000230121F9
:1045B000537293721C23118003B05DF804EB01F079
:1045C0003CBA00BF39E4032026940D00D4930D00BB
:1045D000B0E403204CE5032078E40320084B5A683C
:1045E000B2F5966F84BF4FF416725A605A69FF2A6B
:1045F00084BF00225A61034B01221A70704700BF2A
:104600004CE5032068E5032008B501210520FFF7EC
:1046100041FE00210520FFF73DFE024B00221A70EB
:1046200008BD00BFB8E5032010B51A4CA6B0236A38
:10463000E0690A9304F04AFACDE90801A06904F0A0
:1046400045FACDE90601606904F040FACDE90401BC
:10465000206904F03BFACDE90201E06804F036FA83
:104660000D4ACDE9000164210DA802F013FD0023DD
:104670008DF80030094B0A491B780A480DAAFFF74C
:1046800073FE094B01221A7002F03AFA074B1860C8
:1046900026B010BD0CE503203E940D0039E4032044
:1046A0009F940D00B0E4032074E40320BCE50320D4
:1046B00030B5114D114C12492A7820788DB01A234B
:1046C00003FB0212009203FB00130E4A282102A8EA
:1046D00002F0E0FC2B78237002F06CFC48B1002360
:1046E0008DF80030084B09491B78094802AAFFF7EA
:1046F0003BFE0DB030BD00BF40E50320AEE403201B
:10470000D8E20320B2940D0039E40320C0940D00D8
:10471000B0E403202DE9F84F1F48DFF888A0406877
:1047200000231A46194602F0F5FB02F03BFC4FF459
:1047300096744FF0000B40F2E7384FF0000900206C
:1047400002F0EEF90546002002F0EAF9461B61EBA3
:104750000B07B94508BFB04505D302F02BFC10B9D3
:1047600002F018FCEFE702F025FC20B102F022FC79
:1047700060B9BDE8F88F02F0C3F9CAF8000002F092
:1047800009FCFFF741FF013CD9D1EFE7034A0123C0
:104790001372034A1370ECE770E603204CE5032024
:1047A00068E50320D4E7032037B52749044602F023
:1047B0006AFE40B32449204602F065FE58BB2349F7
:1047C000204602F060FE00283AD002F0F3FB204CB5
:1047D00018B9FFF79FFF0123237200251D4B8DF8A9
:1047E00000501B781C4A1D491D48FFF7BDFD4FF4C2
:1047F0007A7003F077F81B4A1B4B11689288E572B8
:1048000019609A801CE01149204602F03CFE002805
:10481000D0D103B030BD02F0CDFB48B100238DF8FC
:1048200000300C4B114A1B780C490D48FFF79CFDDA
:10483000074B0F490C480122DA72062204F0D5FC1E
:104840000C4B01201870E4E76D930D006B930D0085
:104850004CE5032039E40320E5940D00D4930D00CA
:10486000B0E40320F7940D0098E40320D1940D00E8
:10487000E0940D0068E5032008B502F09BFB80F092
:104880000100C0B208BD00002DE9F04385B000244E
:1048900001A8CDE901448DF80C4003F04BF9204606
:1048A00002F03EF943F6972805464FF00009002034
:1048B00002F036F9461B61EB0407B94508BFB04565
:1048C00005D3FFF7D9FF10B902F064FBEFE7FFF75C
:1048D000D3FF0A48002319461A46406802F022FB1B
:1048E000074B00221A72074B01244FF4FA601C7028
:1048F00002F0F8FF204605B0BDE8F08370E6032023
:104900004CE5032068E5032030B585B00D46002254
:104910006946009202F06CFAB0B9009C0CB12369B0
:1049200023B90A4A00210A2002F04AFA0023ADF80E
:1049300006300C23ADF80430042303930295236959
:1049400001AA01212046984705B030BDF16A0D004B
:1049500030B50E4D0FCD89B001AC0FC495E80700FE
:1049600084E8070069460720FFF7CEFF0028A8BFAC
:104970000098074A08AB03EB8000102150F81C3C5C
:10498000044802F087FB09B030BD00BFB8960D00A7
:1049900098980D003AE4032007B5032001A9FFF71A
:1049A000B3FF40B9BDF8043000EE103ABBEECC0ABC
:1049B00003B05DF804FBBFEE000AF9E737B5414CE0
:1049C00041480025257001F03BFCB5EE400AF1EEB0
:1049D00010FA74D03C4801F033FC10EE100A84ED5C
:1049E000030A04F073F8394ACDE900011021384870
:1049F00002F050FB344801F031FC10EE100A84ED57
:104A0000040A04F063F8334ACDE90001102132486A
:104A100002F040FB314801F00BF9304884ED050A03
:104A200001F026F92D4884ED060A01F0A0F807EE02
:104A3000900AF8EE677A6069C4ED077A04F046F8E8
:104A4000274ACDE900011021264802F023FBA06986
:104A500004F03CF8244ACDE900011021234802F07B
:104A600019FBE06904F032F8214ACDE90001102178
:104A7000204802F00FFBFFF78FFFFDEEC07A1E4AC1
:104A80001E48C4ED087A17EE903A102102F002FB9E
:104A9000FFF75EFFFFF780FFFDEEC07A184A17EEC2
:104AA000903A1D2BCCBF0023012301259372C2ED48
:104AB000037A257002F0E3FE124B60601D702846F9
:104AC00003B030BD0CE5032034E50320FD940D0058
:104AD00069E5032005950D0088E403207CE50320AB
:104AE0000D950D009EE4032019950D00C0E50320EF
:104AF00027950D001CE4032033950D004AE40320A4
:104B00004CE5032008E5032070B5964C2378013B63
:104B100086B0062B4DD8DFE813F0C50007002D0046
:104B20006E009300ED0053018F4D6B7A2BB18F4BCC
:104B30001B78022B01D0FFF7BBFDEB7A53B101F0DC
:104B4000DFFF8B4B1B68C01A8A4B1B68984284BFDF
:104B500006232370AB7A0BB10723237002F08FFE7C
:104B60004FF4966390FBF3F202FB13030BBB03239A
:104B700023701EE07C4E727A2AB17C4B1B78032B8B
:104B800001D0FFF795FDFFF719FF0546002830D14A
:104B90000123237001F0B4FF774B1860737A43B19F
:104BA000764B8DF800501B78754A76497648FFF7AA
:104BB000DBFB764801F0A4FE754B1B780BB1FFF7C9
:104BC00023FD744C23783BB11C23674A72480121B2
:104BD00000F033FF00232370704C23783BB128236F
:104BE0006F4A6D48A02100F028FF0023237006B013
:104BF00070BD0423BCE75C4D6A7A2AB15B4B1B781D
:104C0000042B01D0FFF754FD2B7A0BB9FFF782FD7F
:104C100002F0D0F968B102F043FE0C2805D102F091
:104C2000C9F910B1002002F0E5F9FFF7FDFC0523FA
:104C30009EE70123237001F063FF4F4B1860B8E734
:104C4000494B5B7A2BB1494B1B78052B01D0FFF701
:104C50002FFD544B1B7843B902232370454B524A16
:104C60001A6001F04DFF424BE8E701F049FF4F4B5E
:104C70001B68C01A4AF6C87398429AD901F040FFDF
:104C80003D4D4B4A286000238DF800303B4B49498D
:104C90001B783D48FFF768FB0123237001F030FFCC
:104CA000286086E7304B5B7A2BB1304B1B78012BA9
:104CB00001D0FFF7FDFC01F023FF2F4B1B6803F52C
:104CC000922303F578738342BFF473AF02F072F955
:104CD00048B100238DF80030284B374A1B7829490A
:104CE0002948FFF741FB4FF4FA6002F0FBFD02F0A8
:104CF0009FFA5EE71C4D6A7A2AB11C4B1B78062B83
:104D000001D0FFF7D5FC2B7A0BB1FFF7BDFD194B96
:104D10004FF47A721A6002F0B2FD4FF4966590FB80
:104D2000F5F303FB1505254BC5F596651A7DB5F51D
:104D3000966FA8BF4FF496650AB102221A7200223C
:104D400004211E48FFF734FA4FF47A716943FFF7E4
:104D500063FA1A4903A802F06FFA03A8FFF714FADE
:104D6000022305E740E503204CE50320AEE40320E1
:104D700048E5032044E50320E8E4032039E4032068
:104D800039950D0053950D00B0E40320ECE40320A9
:104D9000B8E5032068E5032078E4032008E5032054
:104DA0000CE5032074E40320905F0100BCE50320C0
:104DB000449B0D0059950D0072950D005CE4032095
:104DC0001E4D6A7A2AB11E4B1B78072B01D0FFF7C4
:104DD0006FFC2B7A0BB1FFF757FDFFF715FC02F0C4
:104DE0004EFD4FF4966590FBF5F303FB1505154B4F
:104DF000C5F596651A7DB5F5966FA8BF4FF4966513
:104E00000AB102221A72002204210E48FFF7D0F9DB
:104E10004FF47A716943FFF7FFF90A4903A802F0DA
:104E20000BFA03A8FFF7B0F903A8064902F004FA49
:104E3000022303A82370FFF7A7F9BAE64CE5032085
:104E4000AEE403205CE40320F0B500219BB0082011
:104E500003F066FC0121052003F062FC0021042020
:104E600003F05EFCFFF7D0FB0023009301224FF01C
:104E7000FF339749082003F0BDF9964B0AAA03F1C6
:104E80001005164618685968144603C40833AB4227
:104E90002246F7D119889B78A3702D2221800DF12D
:104EA0003B0000218C4C04F03DF9022702A827703A
:104EB00002F088F802A906A8002502F0ADFA874999
:104EC00006A802F0CBFACDE900552A4684490068CD
:104ED0002B4602F087F806A802F030FA02A802F08A
:104EE0002DFA804B80481968FFF75DF97F498048AB
:104EF000FFF759F97F498048FFF755F97F49804806
:104F0000FFF751F97F498048FFF74DF97F49804805
:104F1000FFF749F97F498048FFF745F97F49804805
:104F2000FFF741F97F4980482B463A4602F022F8C4
:104F30002B4601227D497E4802F01CF87D497E48BF
:104F4000FFF731F97D4A7E497E4802F0E2FD7E4A54
:104F50007E497C4802F0DDFD7D4A7E49794802F0B9
:104F6000D8FD734A7C49774802F0D3FD7B4A7C49DF
:104F7000744802F0CEFD7B4801F0BCFB294679481D
:104F800001F0F5FC7848442101F0C2F848B97749AE
:104F9000304604F0FDF80123237001F0B1FD744B9D
:104FA000186003F0F9FB0146724800F084FE60B916
:104FB00001F0A6FD6E4D70492860304604F0E8F817
:104FC0000123237001F09CFD28606A48002100F055
:104FD000E8FD0C21674800F0DBFD664800F0E4FDC9
:104FE000644800F0D8FD634842F2107100F04CFFB5
:104FF000604844F6206100F04BFF01215D4800F05D
:10500000C1FD5E4800F08CFC01235C4806AA00212B
:1050100000F0C8FC9DF81830052B2BD0574800F045
:1050200089FC574A55480423002100F006FD01235E
:10503000524806AA002100F0B5FC9DF81830052B57
:1050400015D0012323704F4DFFF7C8FAFFF762FB1D
:10505000EB7AB3B14C493748062204F0C6F86B78B6
:10506000DBB101F0A7FF98B901F094FFF9E7FFF772
:105070008BFAE8E7434A41481C23012100F092FCE7
:10508000E1E7424A2B4B1168928819609A80E6E763
:1050900001F090FF6868FFF7E9F8042003F051FB86
:1050A00008B9FFF771FAFFF789FC6B7A4BB100235F
:1050B0008DF80030364B37491B7837483246FFF7BA
:1050C00053F923780BB9022323701BB0F0BD00BF46
:1050D000C9400D00D4960D0040E5032086950D00D3
:1050E00085430D00D4E20320A9950D0069E5032056
:1050F000B1950D0088E40320BD950D009EE40320CA
:10510000C6950D00C0E50320CA950D001CE40320E0
:10511000D0950D004AE40320D8950D003AE4032011
:10512000E0950D0050E50320EF950D004DE50320BF
:10513000E0930D0098E40320FE950D000B960D0002
:1051400005410D00E77A0D0017960D0019440D007A
:105150001B940D0021450D0099440D0024960D006F
:10516000A9470D00ECE4032034E5032032960D003E
:10517000E8E403207CE503204F960D0078E403204B
:1051800014970D004CE50320E0940D00F7940D00FA
:1051900039E403206B960D00B0E40320F8B5394BD9
:1051A000394E01271F70394B02251D7003F062FA3A
:1051B00000231A4643F2720103F064FA03F05AFA2C
:1051C00000231A460F2103F065FA0024304BB36028
:1051D0002846304D3460B480B47101F01BFE2A467D
:1051E0002D49304603F000FB2146384601F022FEEF
:1051F0003946042001F0ACFC28482949A0F80940B0
:105200000346021D43F8092B9C70264B43602A4637
:10521000C0E903440775047203F0E6FA2248234EFE
:1052200000F0A4FC224800F050FF03F0B5FA23463A
:1052300001464FF40052304600F068FB1D4B3360CE
:105240002A461D491D4C304603F0CEFA03F0A4FA5D
:105250000146204601F056F92046194C19492A46C4
:1052600003F0C2FA18494FF40062204600F024FA15
:10527000164B23602A4620461549BDE8F84003F046
:10528000B3BA00BF39E403202CE4032038E4032040
:105290000000FFFF10E403209B410D005CE40320AD
:1052A00021410D00100003007CE5032078E4032079
:1052B00034E50320A4960D0061410D00ECE40320C9
:1052C000B0E403208F620D0000F403207C960D00F3
:1052D00039410D00012A034602D1016000207047C8
:1052E000022A04BFD1E90001C3E90001F6E710B5C5
:1052F000012303748368044643B1C06898470123BF
:1053000063740020BDE8104001F062BC0068002812
:10531000F5D083680BB903F072FAC368EEE710B4F6
:1053200042680346541001EB6200D20748BF0A5995
:105330001B685DF8044B48BFD358184710B5836805
:10534000044613B1032201469847204610BD0000D1
:105350000123F7B580F829300646083001F010FC2B
:105360000420FEF798FE054698B31B49142003F06D
:1053700042FA30B10023C0E90033C0E902330374BC
:1053800043742860A0B1154B1549C0E902364FF4AB
:105390000063CDE900030222124B043001F0E0FB70
:1053A00030B92B681B7CA3B9012001F099FBF8E709
:1053B0002C6800232B6064B1276837B13846FFF7AB
:1053C000BDFF1021384603F014FA1421204603F0E3
:1053D00010FA756003B0F0BD249B0D001F560D0040
:1053E00018970D00EF520D000EB410B58DB00FAA36
:1053F000016852F8044B039200232020CDE90403F6
:10540000CDE900421E2004AA01F0EAFC0DB0BDE87F
:10541000104003B07047000047F23051084AC160A5
:10542000084902600022C0E904120749C161074926
:105430004260C0E908228161028580F82A20704715
:10544000DC970D0089570D001F530D00D5520D003C
:1054500010B5044B044640F8103BFFF76FFF2046A1
:1054600010BD00BFDC970D0010B5034B0360044670
:10547000FFF7EEFF204610BD04980D0010B504465E
:10548000FFF7F2FF2046382103F0B3F9204610BDA4
:10549000806801F07DBB806801F082BB10B50446D6
:1054A0000068FFF7F8FF204610BD13B504460190D1
:1054B000FFF7EEFFE36ADC88A4B20CB103F1080445
:1054C00001A8FFF7EBFF204602B010BD13B504465C
:1054D0000190FFF7DDFF94F8283043B9E26A012418
:1054E000D38001A8FFF7DAFF204602B010BD0024E8
:1054F000F7E713B504460190FFF7CAFFE36A01A876
:10550000DC88FFF7CBFF204602B010BD2DE9F04745
:10551000994686B090F829309DF838A09DF83C80D7
:1055200004460F46164613B903689B689847314BEB
:105530003846002E08BF1E4603F04FFE0546304693
:1055400003F04BFE284400F10A05AB071CBF25F011
:10555000030504353346CDE90285CDE9009A264995
:1055600026483A46FFF740FF238E083BAB4212D253
:105570000024204606B0BDE8F087CB88012B36D04A
:1055800005A8FFF78BFF236894F828109B69204635
:1055900098470028ECD020460594FFF779FFE16A90
:1055A000228E636B0A44D21AAA42E6D348EA0A085A
:1055B00083F80480C3F80090636B03F10808394650
:1055C000404603F0E5FD404603F007FE013031465A
:1055D000404403F0DDFD636BE26A1D446563D388DC
:1055E0000133D380012405A8FFF758FFC1E7002449
:1055F000F9E700BF449B0D002A970D00D0E503207A
:1056000008B5044600F11005A3690BB903F0F7F8DB
:10561000E36921462846984701F0AAFAF4E708B55D
:10562000FFF7EEFF68B501F108050646284603F0CE
:10563000D4FD01300544284603F0CFFDF36A013064
:105640002844C31A13F003031CBFC3F10403C0189A
:1056500068BDF7B504460E460190FFF719FFE76AEB
:10566000FB8807F10805E6B1012B22D9294620461F
:10567000FFF7D8FF054629462046FFF7D3FF228EC5
:105680003A44121A0146A0EB050602D0284603F060
:105690002FFD636B9B1B6363FB88013BFB80012633
:1056A00001E0002BE7D101A8FFF7F8FE304603B078
:1056B000F0BD0026F7E700002DE9F0470D4604464F
:1056C0002F461646FFF7A8FE154B57F8082B236008
:1056D000144BE5629A422686984617D1AB889BB256
:1056E000B34213D105EB060A67634FF00009EB885C
:1056F0001FFA89F29BB29A420ED2616B2046FFF7E5
:1057000091FF5045606309F10109F0D90023C5F804
:1057100000806763AE80EB802046BDE8F08700BF65
:1057200004980D0061AB9CD110B5D1E9002386B07F
:105730000021044604910AB9D90705D5CDE9022311
:105740000F4B05930F4B049302AB93E803006A469B
:1057500082E8030094E8030083E8030092E8030072
:10576000049A84E80300A168A260059A049118468F
:10577000E168E2600591FFF7E1FD204606B010BD4B
:105780001F530D00D5520D0007B5054B0093694618
:10579000002310300193FFF7C7FF03B05DF804FB4F
:1057A000D1570D0013B5044601F0AAF9636AC01A77
:1057B000E368984208D3054B00936946002304F13F
:1057C00010000193FFF7B0FF02B010BDD1570D00DC
:1057D0002DE9F04190F82A3086B00446002B64D1C0
:1057E00001F0E8FB002860D001F08AF9636AC01A72
:1057F00040F2F133984258D9236820465B699847B4
:105800000546002851D000F10807012384F828300C
:10581000384603F0E2FC95F80480CDF804800130AE
:105820002B682B4900933E1833462A483A46FFF727
:10583000DBFD2B688DF800803246394602A802F065
:105840006DFA029D6B781BB9012002F04BF8F8E766
:10585000002001F0F7FA20B16B7813B901F09AFB40
:10586000FAE72B78012B23D11B491A48FFF7BCFD1F
:10587000236800219B6920469847002384F828303C
:1058800001F03EF96062039C7CB16368013B636098
:105890005BB9236820469B689847A368013BA360D7
:1058A0001BB923682046DB68984706B0BDE8F08145
:1058B000E2680A490748FFF797FD094B049304A9DA
:1058C000002304F110000593FFF72EFFD5E700BF7A
:1058D0006B970D00D0E503208C970D00A3970D006A
:1058E000A5570D00014B024A1A607047D0E503200E
:1058F000CA970D00704710B51021044602F079FFD9
:10590000204610BD0368C9B29B68184730B5034DE7
:10591000C0E90223C0E9005130BD00BF58980D0016
:10592000406802F0ADBD10B50446006802F0F1FD1C
:10593000204610BD2DE9F0418AB004464068019030
:1059400002F0DEFD1E22002102A8A76803F0EAFB98
:105950000026EFB123681E2FB84628BF4FF01E085F
:10596000DD6802AA434631462046A847054658B995
:105970000A480B493246FFF737FD01A8FFF7D3FF6E
:1059800028460AB0BDE8F081A7EB08074644E0E7E7
:1059900001A8FFF7C8FF0125F2E700BFF4E50320E7
:1059A00024980D002DE9F7430446406801900D4608
:1059B00016461F4602F0A4FDA7B1E168606841F0F9
:1059C000500102F093FD290A6068FFF79BFF29460A
:1059D0006068FFF797FF6068002102F08AFD48B118
:1059E000002400E0012401A8FFF79DFF204603B03A
:1059F000BDE8F083202F217B6068B84628BF4FF0B8
:105A000020080123424641F0500102F056FD02F009
:105A1000C3FE03681B6998474045E1DB06EB0809B4
:105A200002F0BAFE03685B69984706F8010B4E4521
:105A3000F6D14544A7EB0807BEE72DE9F74F04462A
:105A4000406801900E4690461D4602F059FD4FF009
:105A50000109B9F1000F2AD04DB3E168606841F047
:105A6000500102F043FD310A6068FFF74BFF6068A8
:105A70003146FFF747FFA5F11E0A4746A6EB080B84
:105A8000606817F8011B0368013D9B6898475545FE
:105A90000BEB0706B84601D0002DF1D1606801215B
:105AA00002F027FD0028D7D04FF00009D1E701A868
:105AB000FFF739FF484603B0BDE8F08F2DE9F0430A
:105AC0008BB00E4615468046406801901C4602F099
:105AD00017FDAE4229D2264425448CB11E2C274600
:105AE000D8F8003028BF1E27F61BD3F8089002AA6A
:105AF0003B4631464046ED1BC84748B9002400E00C
:105B0000012401A8FFF70FFF20460BB0BDE8F0838A
:105B1000D8F8003002AAD3F80C9029463B464046FC
:105B2000C8470028EAD0E41BD7E7E9D9002CE7D022
:105B3000D8F800301E2C274628BF1E27D3F808901F
:105B400002AA3B4631464046C8470028D6D0D8F87E
:105B5000003002AAD3F80C9029463B464046C8477D
:105B60000028CBD03E443D44E41BDFE7704708B536
:105B7000406800F0D8F980B208BDC06981F0010129
:105B800000F000BA006A00F0FDB9406A00F0FAB90E
:105B9000806A00F0F7B908B5806A00F0E5F9C0B294
:105BA00008BDC06A00F0EEB908B5C06A00F0DCF9C3
:105BB000C0B208BD10B52DED028B0446B0EE408A90
:105BC000FFF7F2FF022818D0032813D0012803D1D1
:105BD000F6EE007A28EE278A2046FFF7DCFF013830
:105BE0000B2814D8DFE800F0181B1E131313131131
:105BF0001313130CF1EE007AECE7F2EE007AE9E70A
:105C0000F1EE007A28EE278A01E038EE088AB0EE3D
:105C1000480ABDEC028B10BDF6EE007AF2E7F5EE15
:105C2000007AEFE7F4EE007AECE7000000000000F5
:105C300010B50446406800F076F907EE900A204659
:105C4000B8EE670AFFF7B6FF10EE100A02F03EFF4B
:105C500005A3D3E9002302F091FF03F0A1F900EEC0
:105C6000100A10BDAFF3008092CB7F48BF7DAD3FDF
:105C700010B50446806800F056F907EE900A2046F9
:105C8000B8EE670AFFF796FF10EE100A02F01EFF4B
:105C900005A3D3E9002302F071FF03F081F900EEC0
:105CA000100A10BDAFF3008092CB7F48BF7DAD3F9F
:105CB000006B00F067B97FB504460C200391FEF736
:105CC000EAF9054618B1039A102100F075F9A563A9
:105CD000284600F08AF90546002800F0D2801020FE
:105CE000FEF7D9F9064638B101230022CDE9002399
:105CF000A16B022300F0D0F826601020FEF7CBF94C
:105D0000064638B100230122CDE90032A16B0223FF
:105D100000F0C2F8E6601020FEF7BDF9064640B17B
:105D200000230122CDE900320223A16B1A4600F0C4
:105D3000B3F826611020FEF7AEF9064648B10023FD
:105D40004FF0010ECDE9003EA16B0223032200F0CB
:105D5000A3F866611020FEF79EF9064648B10023BD
:105D60004FF0010CCDE9003CA16B0223042200F0AE
:105D700093F866601020FEF78EF9064640B10023C6
:105D80000121CDE900310522A16B022300F084F846
:105D9000A6601020FEF77FF9064640B100230122DD
:105DA000CDE90032A16B0223062200F075F8A6614E
:105DB0000820FEF770F9064620B121680023012271
:105DC00000F0CDF8E6610820FEF765F9064620B13F
:105DD000012321681A4600F0C2F826620820FEF767
:105DE0005AF9064620B121680423022200F0B7F8D0
:105DF00066620820FEF74FF9064620B121680623A7
:105E0000042200F0ACF8A6620820FEF744F906462A
:105E100020B121680B23022200F0A1F8E6620820DD
:105E2000FEF739F9064620B161690023012200F02E
:105E300096F826630820FEF72EF9064620B1616920
:105E40000123022200F08BF8002120466663FFF751
:105E500094FE00212046FFF795FE00212046FFF723
:105E600094FE00212046FFF79CFE00212046FFF70C
:105E70008FFE00212046FFF71BFF01212046FFF780
:105E80007CFE284604B070BD0069002200F01EB8F8
:105E9000C068002200F01AB810B5016082809DF839
:105EA0000C109DF80820C1710272837110BD1FB5DE
:105EB0008388ADF80C30C379019303AB009300687D
:105EC000012300F09EF805B05DF804FBF0B40C4629
:105ED00002B98279042A13D800F1090583182946EA
:105EE000834209D0077AE6B227B92E70240A013519
:105EF000013BF5E71E72F9E7F0BC1846FFF7D7BF84
:105F00000020F0BC704713B504460B46818804F8A6
:105F1000091F0021CDE9002101222146006800F07F
:105F2000B9F802B010BD38B500F1090582792946EB
:105F30000446FFF7E8FF78B1A27929462244002001
:105F4000A2420BD00302207A20B9107A1843013AFA
:105F50000131F5E70878F9E74FF0FF3038BD10B5AB
:105F600001600271437110BD10B504460068FFF76F
:105F7000DAFF23795A1C012393406279013BD04018
:105F8000184010BD70B5044600680E46FFF7CBFF01
:105F90002379012201339A40531E627903FA02F5F4
:105FA00020EA050503EA0601206891402943827929
:105FB000BDE87040FFF78ABF4260002201700272A4
:105FC000704710B5037A044653B12178606802F037
:105FD00089FA606802F091FAB0FA80F0400910BDC9
:105FE00000F003F80028F0D1F9E710B50446406846
:105FF00002F046FA012323722046BDE81040FFF765
:10600000E0BF2DE9F843DDE908961F469319202BE0
:1060100004468846154602D90020BDE8F883017879
:10602000406802F05FFA7EB9606803682A46DB6860
:10603000414698478542EFD16068394602F059FAE7
:10604000B0FA80F04009E8E7B9F1000FECD06068E1
:1060500003683246DB6849469847B042DCD1E3E743
:10606000202A70B506460C4615460FD801784068C0
:1060700002F023FAA84209D12518A54208D0706879
:1060800003685B69984704F8010BF6E7002070BDD0
:106090000120FCE773B51D460023CDE900339DF8D0
:1060A0001C30069E0446FFF7ACFF40B10123324688
:1060B0002946204602B0BDE87040FFF7D1BF02B0CC
:1060C00070BD0368C9B29B681847704738B505466C
:1060D0000C4602F061FB297802F004FA02F05CFB46
:1060E000210AFFF7EEFF02F057FBE1B2FFF7E9FFED
:1060F00002F052FBBDE8384002F0FFB908B543F2A8
:10610000A201FFF7E3FFBDE808400A2001F0EABB67
:1061100038B504460D4602F03FFB02F0B1F92046C7
:106120002570FFF7EBFF012038BD0A44FF209142A4
:106130000ED011F8013B5840082310F0800F4FEAB1
:10614000400018BF80F03100013BC0B2F5D1EEE74E
:10615000704700000000000073B54FF41051054671
:10616000FFF7B4FF4FF4FA7001F0BCFB02F014FB30
:106170002978062202F0B3F902F00EFB03681B69CE
:10618000984706284BD16E46044602F005FB03688B
:106190005B699847013C14F0FF0406F8010B69465F
:1061A000F3D102222846FFF7C0FF9DF80260864225
:1061B00035D102220DF103012846FFF7B6FF9DF805
:1061C000056086422BD1BDF80000BDF8034040BAFF
:1061D00080B202F059FC18A3D3E9002302F0CEFCF0
:1061E00011A3D3E9002302F0F3FD114B002202F0CA
:1061F0000DFB02F0D5FEA86060BA80B202F044FC4C
:106200000C4B002202F0BAFC07A3D3E9002302F0F2
:10621000DFFD02F0C5FE6860012002B070BD002005
:10622000FBE700BFAFF3008000000000E0FFEF409D
:1062300000804640000059400000000000E065403A
:1062400010B50446FFF788FF10B194ED020A10BDA7
:106250009FED010AFBE700BF0000C07F10B50446B8
:10626000FFF77AFF10B194ED010A10BD9FED010A0E
:10627000FBE700BF0000C07F402070470020704750
:1062800080207047FF207047704770477047704705
:1062900010B51421044602F0ACFA204610BD10B52A
:1062A0000821044602F0A5FA204610BD10B50821C9
:1062B000044602F09EFA204610BD10B51C2104468B
:1062C00002F097FA204610BD2DE9FF410368DB6814
:1062D0000446984710220146684602F023FF2368CF
:1062E00020469B689847002507462846BD420ED2A7
:1062F0007E1B2368102E28BF1026D3F818806A460C
:10630000334629462046C04708B13544EEE704B07D
:10631000BDE8F0814FF48073438140F20113C36004
:10632000002303827047000008B5064B0360064B4C
:10633000436040F20473038100234374FFF7EAFFD4
:1063400008BD00BF38990D000001020303090A22AD
:1063500000F00F0002FB0300704708B5807AFFF7DA
:10636000F5FF00F5FA6008BDC07A00F01F00FFF7E6
:10637000EDBF007B00F03F00FFF7E8BF08B5817B71
:106380004A060DD501F01F00FFF7E0FF8B0603D58D
:106390000C2800D00C3008BD0C2808BF0020FAE7FC
:1063A000BDE8084001F03F00FFF7D0BFC07B00F020
:1063B0007F00FFF7CBBF007C00F07F00FFF7C6BF78
:1063C00010B58AB024220446002101A802F0AAFEDA
:1063D0002046FFF7C2FFA0F26C7006902046FFF740
:1063E000C3FF013805902046FFF7C3FF0490204605
:1063F000FFF7C4FF03902046FFF7D8FF0290204626
:10640000FFF7D9FF019001A800F07CFE0AB010BD93
:106410000A2190FBF1F292FBF1F301FB13231B0124
:10642000DBB201FB12001843C0B27047642310B501
:10643000044691FBF3F000FB1310FFF7E9FFA07295
:1064400010BD10B504460846FFF7E2FFE07210BD2C
:1064500010B504460846FFF7DBFF237B23F03F031C
:106460001843207310BD10B50446481CFFF7D0FF39
:10647000637B23F007031843607310BD10B5044617
:106480000846FFF7C5FFA07310BD10B504460846C7
:10649000FFF7BEFFE07310BD10B504460846FFF7D6
:1064A000B7FF237C23F07F031843207410BD37B55A
:1064B00004466846CDE9002302F0FAFD054641692D
:1064C0002046FFF7B3FF296920460131FFF7B9FFE6
:1064D000E9682046FFF7BCFFA9692046FFF7C3FF24
:1064E000A9682046FFF7CAFF69682046FFF7CDFF7D
:1064F00029683B29A8BF3B212046FFF7CDFF03B009
:1065000030BD0000054A0061C0E90021044A8260F4
:10651000044AC260044A8061426170476C990D0070
:106520000000010314990D0048990D002DE9F84F62
:1065300004460F469046994600260A9B9E4231D259
:106540006068394601F0CEFF08EB06016068FFF78E
:10655000D9F96068002101F0CCFF0546D0B90A9B4B
:1065600060689A1B202A4FF0010328BF2022394679
:1065700001F0A3FF09EB060B05460BEB000ADA4519
:1065800006D0606803685B6998470BF8010BF6E773
:106590002E44D2E7024604490448FEF725FF284668
:1065A000BDE8F88F0025FAE76C980D00D4E50320CC
:1065B0002DE9F34101EB03081E4603689B6805467D
:1065C0000C461746984780450DD8203468680096D9
:1065D0003B46E2B26F21FFF7A9FFB0FA80F0400915
:1065E00002B0BDE8F0810020FAE72DE9F34101EBAC
:1065F00003081E4603689B6804460D4617469847E5
:1066000080450CD8606800963B46EAB25721FFF7F8
:106610008DFFB0FA80F0400902B0BDE8F0810020A3
:10662000FAE77FB51E1E0CBF07230623009314460E
:1066300002AB0A466F21FFF779FF0546A8B99DF81E
:10664000083023749DF80930E3739DF80A30A37372
:106650009DF80B3063739DF80C3023739DF80D305B
:10666000E3722EB99DF80E30A372284604B070BDB7
:1066700001F022F9FFF7CCFEA072F6E71FB5012367
:106680000A4600936F2103ABFFF750FF20B99DF836
:106690000C0005B05DF804FB0020FAE708B5032103
:1066A000FFF7ECFFC0F3401008BD38B500230C46DF
:1066B0000A4619460546FFF7B4FF30B9A37A23B15D
:1066C0002846BDE83840FFF7E9BF002038BD7FB558
:1066D000024601A8FFF728FE01A91046FFF7E5FFD3
:1066E00028B101A8FFF76CFE07B05DF804FB00209D
:1066F0000146F9E7D0B5044686B0406801F0C0FE17
:1067000001F0A0F8E8B9E37A9B071AD52046FFF715
:10671000DEFF06460F4656EA070312D000F099FF47
:106720000A4B0B491B68009332463B4602A801F016
:1067300047F80848029A0849FEF756FE02A800F0FA
:10674000FDFD0123237206B0D0BD00BFA8E30320E6
:10675000F8E50320D4E5032086980D002DE9F84FD5
:106760000646884691469A4600250A9B9D4229D2B4
:106770007068414601F0B6FE706809EB0501FFF74D
:10678000C1F80A9B5F1B1F2F28BF1F270AEB0504B8
:1067900007EB040B706814F8011B026892689047BD
:1067A000A345F7D17068012101F0A3FE044638B17A
:1067B000024605490548FEF717FE2046BDE8F88F5A
:1067C0003D44D2E70024F8E79B980D00D4E5032070
:1067D0002DE9F34101EB03081E4603689B6805465B
:1067E0000C461746984780450DD8203468680096B7
:1067F0003B46E2B26F21FFF7B1FFB0FA80F04009EB
:1068000002B0BDE8F0810020FAE71FB5137C8DF8D7
:106810000830D37B8DF80930937B8DF80A30537B99
:106820008DF80B30137B8DF80C30D37A8DF80D304A
:10683000937A8DF80E30072300930A4602AB6F213E
:10684000FFF78CFF05B05DF804FB10B588B0044677
:1068500003A80193FFF768FD019B03A8FFF727FE3C
:106860009DF81C30A27A63F07F038DF81C309DF8F0
:1068700019306AB143F0080303AA002120468DF8BD
:106880001930FFF7C2FFB0FA80F0400908B010BD20
:1068900003F0F703F0E70000F0B587B0054600F01D
:1068A000D1FF0446E8B100F0EAFFC71702460646EA
:1068B0003B462846FFF7C9FF0C4B0D491B68009368
:1068C00032463B46044602A800F07AFF0948029A85
:1068D0000949FEF789FD02A800F030FD204607B007
:1068E000F0BD06490348FEF77FFDF7E7A8E3032064
:1068F000F8E50320D4E50320B6980D00CC980D00F0
:1069000037B5457A04469DB900F09CFF80B100225E
:10691000002369462846CDE9002300F07BFB38B10F
:10692000E37ADB0702D52046FFF7B6FF0123637247
:1069300003B030BD1FB501238DF80C2000930A462B
:1069400003AB6F21FFF70AFF05B05DF804FBF8B554
:1069500004460D4617461E46FFF790FE00EA070262
:10696000324329462046BDE8F840FFF7E3BF01293E
:1069700008B50CD800294FF0000314BFDF22EF2226
:106980000721FFF7E4FFB0FA80F0400908BD0020BE
:10699000FCE738B5044632256068572101F0A2FDB6
:1069A0006068012101F0A5FD08B1013DF4D138BDB9
:1069B0002DE9F04104460F46164602EB0308B045A8
:1069C00020D06068572101F08DFD39466068FEF7E0
:1069D00099FF606816F8011B03689B689847606818
:1069E000012101F086FD0137054638B1024606490E
:1069F0000648FEF7F9FC2846BDE8F0812046FFF77F
:106A0000C8FFDCE70025F6E7E1980D00D4E5032098
:106A1000F7B5CF181E46036801929B6804460D46E1
:106A2000984787420AD8019A60683346E9B2FFF76F
:106A3000BFFFB0FA80F0400903B0F0BD0020FBE7D3
:106A4000014B024A1A607047D4E5032002990D00F9
:106A500008B5024B1B689B68019308BD68020300E0
:106A600008B5024B1B68DB68019308BD6802030090
:106A700008B5024B1B681B68019308BD2C0203007C
:106A800008B5024B1B689B68019308BD2C020300EC
:106A900008B5024B1B68DB68019308BD2C0203009C
:106AA00008B5024B1B685B69019308BD2C0203000B
:106AB00008B5024B1B689B69019308BD2C020300BB
:106AC00008B5024B1B68DB69019308BD2C0203006B
:106AD00008B5024B1B685B68019308BD18020300F0
:106AE00008B5024B1B689B68019308BD18020300A0
:106AF00008B5024B1B68DB68019308BD1802030050
:106B000008B5024B1B685B69019308BD18020300BE
:106B100008B5024B1B689B6D019308BD180203006A
:106B200008B5024B1B68DB6D019308BD180203001A
:106B300008B5024B1B685B6E019308BD1802030089
:106B400008B5024B1B689B6E019308BD1802030039
:106B500008B5024B1B685B6E019308BD340203004D
:106B600008B5024B1B685B68019308BD480203002F
:106B700008B5024B1B68DB68019308BD480203009F
:106B800008B5024B1B681B6B019308BD480203004C
:106B900008B5024B1B689B6B019308BD48020300BC
:106BA00008B5024B1B681B6C019308BD480203002B
:106BB00008B5024B1B685B6C019308BD48020300DB
:106BC00008B5024B1B689B6C019308BD480203008B
:106BD00008B5024B1B68DB6E019308BD4802030039
:106BE00008B5024B1B685B69019308BD6402030092
:106BF00008B5024B1B681B68019308BD3C020300EB
:106C000008B5024B1B68DB68019308BD3C0203001A
:106C100008B5024B1B681B69019308BD3C020300C9
:106C200008B5024B1B685B69019308BD3C02030079
:106C300008B5024B1B689B69019308BD3C02030029
:106C400008B5024B1B68DB69019308BD3C020300D9
:106C500008B5024B1B681B6A019308BD3C02030088
:106C600008B5024B1B689B6A019308BD3C020300F8
:106C700008B5024B1B68DB68019308BD28020300BE
:106C800008B5024B1B689B69019308BD28020300ED
:106C900008B5024B1B68DB69019308BD280203009D
:106CA00008B5024B1B681B6A019308BD280203004C
:106CB00008B5024B1B685B6A019308BD28020300FC
:106CC00008B5024B1B689B6A019308BD28020300AC
:106CD00008B5024B1B68DB6A019308BD280203005C
:106CE00008B5024B1B681B6B019308BD280203000B
:106CF00008B5024B1B685B6B019308BD28020300BB
:106D000008B5024B1B681B6C019308BD28020300E9
:106D100008B5024B1B689B6C019308BD2802030059
:106D200008B5024B1B68DB6C019308BD2802030009
:106D300008B5024B1B681B6D019308BD28020300B8
:106D400008B5024B1B68DB69019308BD30020300E4
:106D500008B5024B1B681B6A019308BD3002030093
:106D600008B5024B1B681B68019308BD4C02030069
:106D700008B5024B1B681B69019308BD4C02030058
:106D800008B5024B1B685B69019308BD4C02030008
:106D900008B5024B1B689B69019308BD4C020300B8
:106DA00008B5024B1B68DB69019308BD4C02030068
:106DB00008B5024B1B681B6A019308BD4C02030017
:106DC00008B5024B1B685B6B019308BD60020300B2
:106DD00008B5024B1B681B6D019308BD60020300E0
:106DE00008B5024B1B685B6D019308BD6002030090
:106DF00008B5034B1B68D3F89830019308BD000019
:106E00006002030008B5024B1B681B68019308BDB4
:106E10002002030008B5024B1B685B68019308BDA4
:106E20002002030008B5024B1B685B69019308BD93
:106E30002002030008B5024B1B68DB6A019308BD02
:106E40002002030008B5024B1B68DB6C019308BDF0
:106E50002002030008B5024B1B685B6D019308BD5F
:106E60002002030008B5024B1B689B6D019308BD0F
:106E70002002030008B5024B1B68DB6D019308BDBF
:106E80002002030008B5034B1B68D3F88830019338
:106E900008BD00002002030008B5034B1B68D3F8AF
:106EA0009430019308BD00002002030008B5034B95
:106EB0001B68D3F8AC30019308BD0000200203002A
:106EC00008B5034B1B68D3F8B030019308BD000030
:106ED0002002030008B5024B1B685B68019308BDE4
:106EE0004002030008B5024B1B689B68019308BD74
:106EF0004002030008B5024B1B68DB68019308BD24
:106F00004002030008B5024B1B681B69019308BDD2
:106F10004002030008B5024B1B685B69019308BD82
:106F20004002030008B5024B1B689B69019308BD32
:106F30004002030008B5024B1B68DB69019308BDE2
:106F40004002030008B5024B1B681B6A019308BD91
:106F50004002030008B5024B1B681B6B019308BD80
:106F60004002030008B5024B1B685B6B019308BD30
:106F70004002030008B5024B1B681B68019308BD63
:106F80004402030008B5024B1B685B68019308BD0F
:106F90004402030008B5024B1B689B68019308BDBF
:106FA0004402030008B5024B1B68DB68019308BD6F
:106FB0004402030008B5024B1B685B69019308BDDE
:106FC0004402030008B5024B1B68DB69019308BD4E
:106FD0004402030008B5024B1B681B6A019308BDFD
:106FE0004402030008B5024B1B685B6A019308BDAD
:106FF0004402030008B5024B1B68DB6A019308BD1D
:107000004402030008B5024B1B681B6B019308BDCB
:107010004402030008B5024B1B685B6B019308BD7B
:107020004402030008B5024B1B689B6B019308BD2B
:107030004402030008B5024B1B68DB6B019308BDDB
:107040004402030008B5024B1B685B6C019308BD4A
:107050004402030008B5024B1B681B68019308BD7E
:107060001C02030008B5024B1B685B68019308BD56
:107070001C02030008B5024B1B689B68019308BD06
:107080001C02030008B5024B1B681B69019308BD75
:107090001C02030008B5024B1B68DB69019308BDA5
:1070A0001C02030008B5024B1B68DB6A019308BD94
:1070B0001C02030008B5024B1B681B6B019308BD43
:1070C0001C02030008B5024B1B685B6C019308BDF2
:1070D0001C02030008B5024B1B689B6C019308BDA2
:1070E0001C02030008B5024B1B68DB6C019308BD52
:1070F0001C02030008B5024B1B681B6D019308BD01
:107100001C02030008B5024B1B685B6D019308BDB0
:107110001C020300002240681146FFF713BF002243
:1071200040681146FFF71EBF40680022FFF712BFFC
:107130004068002281F00101FFF7FCBE0023406897
:107140001A461946FFF7EEBE002340681A46194654
:10715000FFF7E0BE002240681146FFF7D3BE0022D1
:1071600040681146FFF7BEBE406800220221FFF7CB
:10717000C1BE002340681A46FFF7ACBE024B032293
:107180005A60024A1A607047D8E503207C990D00C6
:1071900010B5044608462170FFF7D2FD0023636056
:1071A000204610BD10B50446006818B1FFF75AFF1D
:1071B0000023236010BD38B5B1F9043083800B463D
:1071C0000D4653F8062FC0F806209B8843810446DD
:1071D000FFF7E8FF2B6813B1236000232B602046E4
:1071E00038BD000038B50C460546FFF7DBFF44B15B
:1071F0002088FFF72FFF286028B12288214601F060
:1072000069FF002038BD0148FCE700BFFCFEFFFF1E
:1072100007B50B4600210246009101208C21FFF7A3
:107220004FFE03B05DF804FB01460020FFF7F0BFFE
:107230000020FFF7F9BF0000F0B52D4D0B7D04468F
:107240008BB00846AF1D002B38D00B681B79002B84
:1072500034D00022274B049302A904300292ADF8E7
:107260000C208DF80E20FFF721FEDDF80E30C5F85A
:10727000063000B2BDF81230ADF80C00A8800299BB
:10728000BB802846FFF7AEFF02A8FFF78BFF002365
:107290002360A380A37123814FF6FF736381B5F947
:1072A0000430A3803B68C4F80630BB88296863813A
:1072B0002046FFF797FF20460BB0F0BD00262023A5
:1072C000CDE902360C4B00930C49334602AA32201A
:1072D000FFF77EFD074B049302A94FF6F2630448C3
:1072E00002968DF80E60ADF80C30FFF764FFCBE727
:1072F000E0E503200000FFFFAF990D00A8990D0005
:1073000010B5094B094C022200201A60084B20607E
:10731000A080A071A360FFF77DFD2046054A0649C5
:10732000BDE8104001F060BAECE50320E0E5032081
:107330000000FFFF10E403209B410D0010B5044640
:107340000068FFF78FFE204610BD10B504460068A8
:1073500008B1FFF787FE0023C4E90133236010BDA5
:1073600038B504460D4600680131FFF783FE10B1C1
:10737000C4E90005012038BD10B50368044623B1F7
:1073800043688B4201D3012010BD2046FFF7E8FF80
:107390000028F9D0A368002BF5D122681370F2E71A
:1073A00037B50D46114601920446FFF7E5FF019AF5
:1073B00028B92046FFF7C9FF204603B030BDA260C0
:1073C0002946206801F086FE2268A3680021D15476
:1073D000F2E7002313B5C0E900330446836003736A
:1073E00041B10846019101F0F8FE0199024620469C
:1073F000FFF7D6FF204602B010BD884210B5044604
:1074000005D00B682BB18A681946FFF7C9FF2046E3
:1074100010BDFFF79AFFFAE710B500230446C0E954
:10742000003383600373FFF7E8FF204610BD70B59B
:1074300005460E4609B9002070BD6AB1846814443F
:107440002146FFF799FF0028F5D02868AB68314640
:10745000184401F09DFEAC600120EDE713B5044631
:1074600029B92046FFF771FF204602B010BD08463B
:10747000019101F0B2FE019902462046FFF7D7FFC5
:107480000028EED0F0E708B582683AB921B1087853
:10749000B0FA80F0400900E0012008BD006809B999
:1074A0000078F5E701F06AFEF2E710B503680446DC
:1074B0009B689847A368013BA3602BB923682046CB
:1074C000DB68BDE81040184710BD10B504460068E1
:1074D00008B1FFF775FB204610BD0B68036013B1C0
:1074E0005A6801325A60704710B50446006828B1E6
:1074F0004368013B43600BB9FFF7D7FF204610BD3F
:1075000010B5064C002320462360FFF751FB2046B0
:10751000034A0449BDE8104001F066B9F0E50320D4
:1075200010E40320CB740D00F8B506460D468F1805
:107530000024BD420CD0336815F8011B9B6830460F
:107540009847031E01DB1C44F3E7002C08BF1C46D0
:107550002046F8BD13B50446084659B1019101F023
:107560003CFE23680199DB680246204602B0BDE874
:107570001040184702B010BD03689B68184730B52B
:107580008BB000238DF82430012A98BF0A2209AC61
:107590000D46B1FBF2F101FB125303F0FF03092B7F
:1075A00094BF30333733DBB2AA4204F8013DEFD940
:1075B0002146FFF7CFFF0BB030BD0000014B024A60
:1075C0001A607047F4E50320D6990D002DE9F041CB
:1075D000154ADFF86080D2E90032C01842EB0101A1
:1075E000124AD2E90032C61841EB0207D8E900235B
:1075F000BB4208BFB2428CB013D003A96846CDE9A4
:107600000067FFF76FFD089B094D03F26C7303AC35
:1076100008930FCC0FC50FCC0FC5C8E900672368CE
:107620002B600CB0BDE8F08130E6032028E6032093
:1076300000E6032038E6032008B50020FFF7E2FC4F
:1076400028B1FFF7B7FC80F00100C0B208BD0120EF
:10765000FCE71FB502460B4668460021CDE9002332
:10766000CDE90211FFF76CFA024610B90146FFF7A7
:1076700001FC05B05DF804FB30B504461848D0E9BC
:107680000010521840EB03031648D0E900105218BE
:1076900093B040EB0303CDE9002324220DEB02005D
:1076A000002101F03FFD002509A96846FFF71AFDFA
:1076B0001622294603A8029501F034FD02A909A863
:1076C00001F0BEFC02A801F088FD12AB184402A92B
:1076D00000F8415C2046FFF77CFE204613B030BD29
:1076E00030E6032028E603202DE9F04FA5B0074639
:1076F000884614A811463F221D4601F076FD00235E
:1077000014A88DF88F3001F068FD04465DBB2A494E
:1077100003A801F03DFD14AE002504F1FF3BAB458D
:1077200036D9B14605F1010A19F8013B252B17D1CD
:1077300073787A2B14D103A801F04FFD14AB0446E3
:1077400028181844ABEB0502B11C01F0C3FC22461B
:1077500003A9304601F0BEFC14A801F03EFD04462A
:107760004E465546D9E73C2195FBF1F3002BB8BFB7
:107770005B42B3FBF1F201FB123300930F4A4FF46B
:107780006163102103A895FBF3F3FFF783FCC2E7C5
:1077900000212E2208A8079101F0C4FC434614AA38
:1077A000322107A8FFF796FC07A93846FFF711FE1C
:1077B000384625B0BDE8F08FDA990D00DC990D0050
:1077C000F0B58DB0CDE90023129D044615B9194BD3
:1077D0001D682DB1184B2846196801F0CFFC38B947
:1077E000DDE900232046FFF747FF20460DB0F0BD3E
:1077F000124E0099124FD6E900325B18019941EB05
:107800000202D7E900011B1841EB0202CDE9003268
:107810000021242203A801F085FC03A96846FFF794
:1078200061FC32683B6803A9134420462A46FFF7EF
:107830005BFFDAE7FCE50320A8E3032030E6032042
:1078400028E6032010B50020FFF762F90446A0B92E
:10785000FFF7D8FA012810D12046FFF703FB60B9E3
:10786000FFF7EAFE10B9FFF795FBF9E7FFF7E4FE33
:10787000BDE810400020FFF74BB9204610BD1FB5F2
:10788000FFF7E0FF10220021684601F04BFC0021C9
:107890006846FFF74DF9009805B05DF804FB00005D
:1078A00008B5FFF7ECFFC117FFF790FE014B986892
:1078B00008BD00BF00E6032008B5FFF7E0FFC117D1
:1078C000FFF784FE014B586908BD00BF00E60320A6
:1078D000024B1A68024B1A60704700BFA8E30320EE
:1078E000FCE503200021FFF79DBA10B50446FDF723
:1078F00025FD204610BD13B50B460246D0E9000118
:107900006C4684E8030093E8030082E8030094E8EF
:10791000030083E8030002B010BD00000348044ADE
:1079200004490023836000F05FBF00BF40E60320EE
:1079300010E40320EB780D00014B1860704700BF86
:10794000ACE3032008B50B4B43B100F027FC036800
:107950001B699847002801DDAFF30080064B43B157
:1079600000F012FD03681B699847002801DDAFF3A2
:10797000008008BD000000000000000008B5FFF70F
:10798000E1FFFFF7BDF8014B186008BDD4E7032005
:107990000248034A0349121A01F09CBB00F4032079
:1079A00004FC0320B09C0D0007B5002300931A4689
:1079B0006FF07701FFF770FA03B05DF804FB000089
:1079C00007B543880A2B08D0502B0BD1094B1B68F5
:1079D0004BB103B05DF804EB1847FFF7E5FF03B0C8
:1079E0005DF804FB002300931A466FF07701FFF760
:1079F00053FAF4E754E6032038B5124C1248134DFD
:107A00000021FFF75FFB2368AB42114B0CBF012243
:107A100000221A7002D0FFF7BBFF2560FFF758F86D
:107A2000044601F087FB0B4B13B12046AFF30080F7
:107A300000210848FFF7FEFABDE83840064800215B
:107A4000FFF720BA00FC032039790D001E1C279A8D
:107A500050E6032000000000C1790D0070470020AF
:107A6000704710B51021044600F0C3FE204610BD3B
:107A700008B5FFF7F6FF08BD30B500224FF69C743D
:107A8000026084808D888C800C68858004600A6028
:107A900030BD10B504460068FFF7E4FA204610BD7B
:107AA00038B5C468F4B12378022B03D104F10C007B
:107AB000FFF7EFFF656835B12846FDF73FFC102161
:107AC000284600F096FEA56835B12846FDF736FC3D
:107AD0001021284600F08DFE20461421BDE83840D4
:107AE00000F087BE38BD10B588B004466846FFF781
:107AF00070FC694604A8FFF78FFC04A8A047044661
:107B000004A8FFF71BFC6846FFF718FC204608B0E6
:107B100010BD1FB50023CDE90201019210241A46C1
:107B200069461846ADF80230ADF80040FFF72AFA72
:107B300004B010BD07B50823ADF8003003688DF818
:107B40000230037A8DF803300021436801936846C0
:107B5000FFF778FA03B05DF804FB73B50E460446F0
:107B600056F8043B00930D4601A83146FFF7B5FCDB
:107B7000019A009B6260236001A800230193009397
:107B8000FFF7B2FC3046FFF7AFFC2846082100F0B3
:107B900030FE204602B070BD826810B50AB900F010
:107BA0002EFEBDE81040C368184708B5006800F114
:107BB0001001FFF7F1FF08BD826810B50AB900F0A7
:107BC0001EFEBDE81040C368184708B5006800F104
:107BD0001001FFF7F1FF08BD38B50023044603602C
:107BE00010200D46FCF757FA28B10123C0E90133F4
:107BF000024B0360C5602060204638BD0C9A0D0022
:107C000038B5002383608B6804460D462BB10222F1
:107C10009847EB68E360AB68A360204638BD00007E
:107C2000F0B589B004686846FFF726FF4FF00203FD
:107C3000D4E84F2F002A03D1C4E8413F0029F7D1EF
:107C400025D104F10C0569462846FFF715FFBFF35F
:107C50005B8F01236370002004F10803BFF35B8F87
:107C600053E8006F43E80002002AF9D1BFF35B8FAD
:107C70006EB1FFF7E7F878B129463046FFF78CFF81
:107C80003046FDF75BFB1021304600F0B2FD684640
:107C9000FFF7FFFE09B0F0BD314602A8FFF7B0FFC5
:107CA000E068B4F9105008B101F07AFA069010209B
:107CB000ADF81C50FCF7EFF90546E8B100278760E6
:107CC0001820FCF7E8F9044688B10146876002A84D
:107CD000FFF711FE049BA268A360059B049206A90E
:107CE000E268E36004F110000592FFF7C5FE084B5F
:107CF000EB60084B2C60AB6006A8FFF7CAFE02A839
:107D0000FDF71CFB002229460348FFF7A3F8B7E75D
:107D1000AB7B0D00417E0D00DD830D002DE9F047AA
:107D20008AB005469DF848900C4617469846FFF7DE
:107D300041F907AE824638BB4FF62E73059005A970
:107D40003046ADF81830FFF797FE1420FCF7A3F982
:107D5000044648B1022303700123C0E901AA43701D
:107D600031460C30FFF788FE2846214640F8044B88
:107D7000FFF732FF3046FFF78CFE05A8FFF789FEBC
:107D800028460AB0BDE8F0870C234FF0000A142003
:107D9000CDE908AA0793FCF77EF9014628B1C0E9AE
:107DA00001AA80F800A080F801A004A80391FFF7C1
:107DB00013FF224B08930820FCF76DF9824628B187
:107DC000039B40F8043B04A9FFF787FB00965FFA8A
:107DD00089F3424639462046CDF824A0FFF7FAF849
:107DE000B8B9039B5B7803F0FF0293B94FF69C731D
:107DF00005A903A80592ADF81830FFF711FF05A8F3
:107E0000FFF747FE05A80999FFF7A7FE06A8FFF7A9
:107E10006BFB039B059304A906A8FFF75EFB059B7C
:107E2000069A2B606A60002306A806930593FFF765
:107E30005BFB04A8FFF758FBA2E700BF057F0D001E
:107E4000022AF8B5054607D0032A18D0012A01D125
:107E50000B6803600020F8BD18200E68FCF71BF9C2
:107E6000044650B13146FFF7CBFE3069B6F91470C5
:107E700008B101F095F92061A7822C60EAE7046857
:107E8000002CE7D004F11000FFF703FE2046FDF7B9
:107E900055FA1821204600F0ACFCDBE738B500238A
:107EA00083608B6804460D462BB102229847EB682D
:107EB000E360AB68A360204638BD022A70B5044673
:107EC00007D0032A12D0012A01D10B6803600020D9
:107ED00070BD14200E68FCF7DEF8054620B131466F
:107EE000FFF7DCFF337C2B742560F0E70468002C7F
:107EF000EDD02046FDF722FA1421204600F079FC4F
:107F0000E5E70000F0B589B004460D4601A811462A
:107F1000FFF723FEA4B124B21DB1284601F040F9B9
:107F2000054601A803A90395ADF81040FFF778FEB8
:107F300003A8FFF7AEFD02A8FFF7D6FA09B0F0BD1F
:107F4000019D0123D5E84F2F002A03D1C5E8413F09
:107F50000029F7D1EFD12B73BFF35B8F6B702B1D13
:107F6000BFF35B8F53E8006F43E80042002AF9D16A
:107F7000BFF35B8F002EDED02046FEF763FF07467F
:107F800060B105F10C013046FFF716FE3046FDF7F3
:107F9000D5F91021304600F02CFCCCE7314603A87F
:107FA000FFF77CFF2B7B8DF81C301020FCF773F85B
:107FB0000546D0B187601420FCF76DF8044678B10F
:107FC0008760014603A8FFF796FC059BA268A360A3
:107FD000069B0592E268E3609DF81C3006922374CC
:107FE000064BEB60064B2C60AB6003A8FDF7A6F9CF
:107FF000002229460348FEF72DFFC7E7CB7B0D0083
:10800000BB7E0D00DD830D00704710B518210446BE
:1080100000F0EFFB204610BDF0B5037D062B8DB0C0
:108020000E4600F104074FF0000412D000F10805DD
:1080300015F8011D0A223046FFF7A1FAAF420444A9
:1080400019D0002CF4D02E213046FFF795FA0444C5
:10805000EEE72F236A4639460A208DF80040FEF7E6
:10806000BFFD684601F0B9F833680246DB6869462F
:1080700030469847044620460DB0F0BD10B5054B7C
:108080000446112240F8043B002101F04BF8204641
:1080900010BD00BF289A0D000346074A10B543F8EB
:1080A000042B01F1100251F8044B43F8044B9142A8
:1080B000F9D10A781A7010BD289A0D0010B59DF8F4
:1080C000084044EA032343EA024242EA01610423EE
:1080D0004160037510BD13B5CB7800938B784A7857
:1080E0000978FFF7EBFF02B010BD4174704770478D
:1080F00008B50021007CFEF74BFE40EAE07008BDA9
:1081000008B50121007CFEF743FE40EAE07008BD9F
:1081100008B5007CFEF734FE20EAE07008BD08B523
:10812000007CFEF725FE20EAE07008BD13B504468A
:10813000007C0191FEF724FE0028019901DC607C9F
:1081400020B1207CFEF72CFE20EAE07002B010BDCA
:10815000007CFEF72DBE10B51421044600F049FB4B
:10816000204610BD10B54FF47A730446084600212E
:10817000C4E90113044B2360012320746374114686
:10818000FEF7EEFD204610BD3C9A0D0010B51422FE
:108190000446002100F0C6FF204610BD10B5104C6B
:1081A00088B003A8FFF7F2FF2178BFF35B8F11F0CF
:1081B000010111D120460191FBF77EFF019958B1D1
:1081C00003AA0848FFF7CEFF2046FBF77AFF064ACE
:1081D0000649044800F008FB024808B010BD00BF83
:1081E00058E603205CE6032010E40320EF800D0036
:1081F000004700002DE9FF4100241D460F46904630
:108200000646FEF75DFCA5424FF00403ADF80D40B5
:108210008DF80C308DF80F40A2BF9DF828308DF8F6
:108220000E3003AC0749009443463A463046A8BF97
:108230008DF80D50FEF73CFCB0FA80F0400904B018
:10824000BDE8F081F1810D00002240681146FEF783
:1082500059BE002240681146FEF774BE00224068F5
:108260001146FEF77FBE40680022FEF773BE4068ED
:10827000002281F00101FEF75DBE002340681A462E
:108280001946FEF74FBE002340681A461946FEF70E
:1082900041BE002240681146FEF724BE406800221D
:1082A0000221FEF727BE002340681A46FEF712BEE1
:1082B000084B10B5282422461846002100F032FF52
:1082C000054B04804FF0FF32426004225A60034A9B
:1082D0001A6010BD78E6032070E603206C9A0D004A
:1082E00070474174704708B5007CFEF7B9FC20EA7E
:1082F000E07008BD08B5007CFEF78AFC20EAE0705B
:1083000008BD08B5007CFEF793FC40EAE07008BDAC
:1083100008B5007CFEF784FC40EAE07008BD007CF4
:10832000FEF78EBC37B5457C04462DB1207C03B0EA
:10833000BDE83040FEF764BC007C0191FEF790FC84
:1083400000280199F2DC284603B030BD10B5142195
:10835000044600F04EFA204610BD000010B54FF064
:10836000000C0446084611464FF47A72C4E901C273
:10837000044A22600122207462741A46FEF738FC17
:10838000204610BDA09A0D0013B50E4C2178BFF306
:108390005B8F11F0010112D120460191FBF78CFE99
:1083A000019960B1084A094B0948FFF7D7FF2046F9
:1083B000FBF787FE074A0849054800F015FA04480C
:1083C00002B010BDA0E60320A4E6032028E70320A6
:1083D000ACE7032010E40320E1820D0010B58368B0
:1083E00004460BB900F00BFAC3689847A3681BB1A9
:1083F000032221462046984720461021BDE8104020
:1084000000F0F7B97047F8B5064615460C468F18C8
:10841000BC4206D0336814F8011B9B68304698476D
:10842000F6E72846F8BD007C0022FEF739BC007C48
:108430000021FEF73DBC007C0021FEF741BC007C22
:108440000021FEF745BC007C0021FEF749BC10B5B9
:108450001421044600F0CDF9204610BD10B54FF4AC
:108460007A73044608460021C4E90113034B2360D4
:1084700020741146FEF744FC204610BDD09A0D0032
:108480000023007C1A461946FEF7F2BB7FB5002296
:108490001423CDE90122ADF804300B788DF80830B3
:1084A0004B680393CB680493007C0B7A059301A976
:1084B000FEF73EFC07B05DF804FB1FB5003B8DF8EE
:1084C00000104FF06401039118BF01236946019227
:1084D0008DF80830FFF7DAFF05B05DF804FB0123E3
:1084E000FFF7EBBF007C0022FEF7CABBC9B2FFF763
:1084F000F9BF007C0022FEF7CBBB0121FFF7F9BFDB
:1085000008B50021007CFEF703FCB0FA80F04009BA
:1085100008BD08B50021007CFEF702FCB0FA80F02F
:10852000400908BD002340681A46FEF7D3BC4068E6
:1085300000220221FEF7DEBC002240681146FEF751
:10854000D1BC002240681146FEF7DCBC0023406825
:108550001A461946FEF7DEBC002340681A46194643
:10856000FEF7E0BC4068002281F00101FEF7E2BCAA
:1085700040680022FEF7EEBC002240681146FEF77C
:10858000F1BC002240681146FEF7DCBC2DE9F04347
:10859000002495B016460D460746FFF76FFD2146AD
:1085A00018220EA8009400F0BDFD4023CDE90C3444
:1085B00021466B460CAA3046FEF752FA04460028C4
:1085C00046D1024601216868FEF79CFC02218046E4
:1085D00022466868FEF796FC009E81462146002EE2
:1085E00036D0002934D17368022B03D00A2B0BD06C
:1085F000F669F4E7B8F1000F04D071693846043128
:10860000FFF769FD4146F3E7B9F1000F01D1494693
:10861000EEE77469102201A800F084FD06238DF8AE
:10862000143001AD04F108031834186859682A465B
:1086300003C20833A3421546F7D101A906A807AD26
:10864000FFF72AFD0FCD3C1D0FC42B682370DEE71A
:108650000098FEF7FDF9384615B0BDE8F08300003C
:10866000024B034A1A6000225A607047C0E7032099
:10867000F89A0D0008B5024B1B681B68019308BDF2
:108680005C02030008B5024B1B685B68019308BDE0
:108690005C02030008B5024B1B689B68019308BD90
:1086A0005C020300232813B502D9002002B010BDDC
:1086B000A0F10B03022B1AD8174C2178BFF35B8F64
:1086C00011F001010BD120460191FBF7F5FC019956
:1086D00028B11248FEF75CFD2046FBF7F2FC0F4B79
:1086E0001878FEF735FB0028DFD10120DEE70128EE
:1086F00009D800F051F80021007CFEF7F9FA80F06B
:108700000100C0B2D2E709380128EED8FFF73CFEDD
:10871000007CFEF79DFAF2E7C8E70320CCE70320D0
:10872000232838B504460D460AD8FF2908D0FFF79C
:10873000B9FF28B129462046BDE83840FEF7A0B968
:1087400038BD10B50446FEF7A3F9031FDBB2012BB9
:1087500008D92046FFF7A6FF20B12046BDE810400B
:10876000FEF79EB9002010BD38B5002320254380B8
:10877000142304460380856005610649284600F0FD
:108780003CF804496060284600F037F8E060204675
:1087900038BD00BF249B0D0030B50F4D2978BFF3C5
:1087A0005B8F11F0010487B013D12846FBF784FCDE
:1087B00078B101A8FFF7D8FF01AA21460748FFF7C3
:1087C0004DFE2846FBF77DFC054A0649034800F0AC
:1087D0000BF8024807B030BDD8E70320DCE70320E0
:1087E00010E4032005840D000B460146184600F0F6
:1087F00051BCFBF754BCFBF74EBCFBF74EBC08B5B5
:10880000FEF750FC81F0004102E000BF83F000431E
:1088100030B54FEA41044FEA430594EA050F08BF1B
:1088200090EA020F1FBF54EA000C55EA020C7FEADF
:10883000645C7FEA655C00F0E2804FEA5454D4EB5C
:108840005555B8BF6D420CDD2C4480EA020281EA26
:10885000030382EA000083EA010180EA020281EA5E
:108860000303362D88BF30BD11F0004F4FEA0131B0
:108870004FF4801C4CEA113102D0404261EB4101BF
:1088800013F0004F4FEA03334CEA133302D0524245
:1088900063EB430394EA050F00F0A780A4F1010401
:1088A000D5F1200E0DDB02FA0EFC22FA05F280183B
:1088B00041F1000103FA0EF2801843FA05F3594121
:1088C0000EE0A5F120050EF1200E012A03FA0EFCA0
:1088D00028BF4CF0020C43FA05F3C01851EBE371CA
:1088E00001F0004507D54FF0000EDCF1000C7EEBE7
:1088F00000006EEB0101B1F5801F1BD3B1F5001F25
:108900000CD349085FEA30004FEA3C0C04F1010443
:108910004FEA445212F5800F80F09A80BCF1004F6C
:1089200008BF5FEA500C50F1000041EB045141EAEE
:10893000050130BD5FEA4C0C404141EB0101013CB7
:1089400028BFB1F5801FE9D291F0000F04BF0146A6
:108950000020B1FA81F308BF2033A3F10B03B3F178
:1089600020020CDA0C3208DD02F1140CC2F10C0208
:1089700001FA0CF021FA02F10CE002F11402D8BF66
:10898000C2F1200C01FA02F120FA0CFCDCBF41EA32
:108990000C019040E41AA2BF01EB0451294330BD01
:1089A0006FEA04041F3C1CDA0C340EDC04F11404DE
:1089B000C4F1200220FA04F001FA02F340EA0300B5
:1089C00021FA04F345EA030130BDC4F10C04C4F1FB
:1089D000200220FA02F001FA04F340EA03002946DB
:1089E00030BD21FA04F0294630BD94F0000F83F425
:1089F000801306BF81F480110134013D4EE77FEA08
:108A0000645C18BF7FEA655C29D094EA050F08BF53
:108A100090EA020F05D054EA000C04BF1946104634
:108A200030BD91EA030F1EBF0021002030BD5FEA78
:108A3000545C05D14000494128BF41F0004130BDA0
:108A400014F580043CBF01F5801130BD01F00045F4
:108A500045F0FE4141F470014FF0000030BD7FEA67
:108A6000645C1ABF194610467FEA655C1CBF0B4662
:108A7000024650EA013406BF52EA033591EA030F79
:108A800041F4002130BD00BF90F0000F04BF002171
:108A9000704730B54FF4806404F132044FF00005A4
:108AA0004FF0000150E700BF90F0000F04BF00211D
:108AB000704730B54FF4806404F1320410F0004583
:108AC00048BF40424FF000013EE700BF42004FEA7E
:108AD000E2014FEA31014FEA02701FBF12F07F43FB
:108AE00093F07F4F81F06051704732F07F4208BFB2
:108AF000704793F07F4F04BF41F40021704730B5B9
:108B00004FF4607401F0004521F000411CE700BF04
:108B100050EA010208BF704730B54FF000050AE087
:108B200050EA010208BF704730B511F0004502D588
:108B3000404261EB41014FF4806404F132045FEA8A
:108B4000915C3FF4D8AE4FF003025FEADC0C18BF33
:108B500003325FEADC0C18BF033202EBDC02C2F125
:108B6000200300FA03FC20FA02F001FA03FE40EAB7
:108B70000E0021FA02F11444BDE600BF70B54FF0BB
:108B8000FF0C4CF4E06C1CEA11541DBF1CEA135599
:108B900094EA0C0F95EA0C0F00F0DEF82C4481EA01
:108BA000030621EA4C5123EA4C5350EA013518BF21
:108BB00052EA033541F4801143F4801338D0A0FB0E
:108BC00002CE4FF00005E1FB02E506F00042E0FBBB
:108BD00003E54FF00006E1FB03569CF0000F18BFC1
:108BE0004EF0010EA4F1FF04B6F5007F64F5407469
:108BF00004D25FEA4E0E6D4146EB060642EAC621FC
:108C000041EA55514FEAC52040EA5E504FEACE2E68
:108C1000B4F1FD0C88BFBCF5E06F1ED8BEF1004F6B
:108C200008BF5FEA500E50F1000041EB045170BDE7
:108C300006F0004646EA010140EA020081EA03012B
:108C4000B4EB5C04C2BFD4EB0C0541EA045170BD27
:108C500041F480114FF0000E013C00F3AB8014F1A1
:108C6000360FDEBF002001F0004170BDC4F10004EA
:108C7000203C35DA0C341BDC04F11404C4F120056B
:108C800000FA05F320FA04F001FA05F240EA0200C6
:108C900001F0004221F0004110EBD37021FA04F6FC
:108CA00042EB06015EEA430E08BF20EAD37070BDB6
:108CB000C4F10C04C4F1200500FA04F320FA05F015
:108CC00001FA04F240EA020001F0004110EBD37017
:108CD00041F100015EEA430E08BF20EAD37070BD87
:108CE000C4F1200500FA05F24EEA020E20FA04F360
:108CF00001FA05F243EA020321FA04F001F000410F
:108D000021FA04F220EA020000EBD3705EEA430E7F
:108D100008BF20EAD37070BD94F0000F0FD101F0AE
:108D20000046400041EB010111F4801F08BF013CE7
:108D3000F7D041EA060195F0000F18BF704703F025
:108D40000046520043EB030313F4801F08BF013DAC
:108D5000F7D043EA0603704794EA0C0F0CEA135568
:108D600018BF95EA0C0F0CD050EA410618BF52EA22
:108D70004306D1D181EA030101F000414FF0000028
:108D800070BD50EA410606BF1046194652EA430636
:108D900019D094EA0C0F02D150EA013613D195EAAA
:108DA0000C0F05D152EA03361CBF104619460AD1F2
:108DB00081EA030101F0004141F0FE4141F47001FC
:108DC0004FF0000070BD41F0FE4141F4780170BDEC
:108DD00070B54FF0FF0C4CF4E06C1CEA11541DBF51
:108DE0001CEA135594EA0C0F95EA0C0F00F0A7F853
:108DF000A4EB050481EA030E52EA03354FEA013180
:108E000000F088804FEA03334FF0805545EA131392
:108E100043EA12634FEA022245EA111545EA10655A
:108E20004FEA00260EF000419D4208BF964244F1F1
:108E3000FD0404F5407402D25B084FEA3202B61A10
:108E400065EB03055B084FEA32024FF480104FF4E4
:108E5000002CB6EB020E75EB030E22BFB61A754658
:108E600040EA0C005B084FEA3202B6EB020E75EBEB
:108E7000030E22BFB61A754640EA5C005B084FEA53
:108E80003202B6EB020E75EB030E22BFB61A754620
:108E900040EA9C005B084FEA3202B6EB020E75EB2B
:108EA000030E22BFB61A754640EADC0055EA060EEC
:108EB00018D04FEA051545EA16754FEA06164FEA2F
:108EC000C30343EA52734FEAC2025FEA1C1CC0D1DB
:108ED00011F4801F0BD141EA00014FF000004FF068
:108EE000004CB6E711F4801F04BF01430020B4F129
:108EF000FD0C88BFBCF5E06F3FF6AFAEB5EB030CE1
:108F000004BFB6EB020C5FEA500C50F1000041EBDD
:108F1000045170BD0EF0004E4EEA113114EB5C04AA
:108F2000C2BFD4EB0C0541EA045170BD41F480117D
:108F30004FF0000E013C90E645EA060E8DE60CEA85
:108F4000135594EA0C0F08BF95EA0C0F3FF43BAFA2
:108F500094EA0C0F0AD150EA01347FF434AF95EA59
:108F60000C0F7FF425AF104619462CE795EA0C0F3D
:108F700006D152EA03353FF4FDAE1046194622E70A
:108F800050EA410618BF52EA43067FF4C5AE50EAE4
:108F900041047FF40DAF52EA43057FF4EBAE12E7D4
:108FA0004FEA4102B2F1E04324BFB3F5001CDCF10B
:108FB000FE5C0DD901F0004C4FEAC0024CEA507043
:108FC000B2F1004F40EB830008BF20F00100704772
:108FD00011F0804F21D113F13872BCBF01F0004075
:108FE000704741F480114FEA5252C2F11802C2F1A7
:108FF000200C10FA0CF320FA02F018BF40F0010028
:109000004FEAC1234FEAD32303FA0CFC40EA0C00D9
:1090100023FA02F34FEA4303CCE77FEA625307D116
:1090200050EA01331EBF4FF0FE4040F4400070474D
:1090300001F0004040F0FE4040F40000704700BFE7
:1090400010B50C4641690369826986B001F26C7102
:109050000491016803914168029181680191C1689E
:109060000091074903EB43030B44064902EB42021C
:109070000A4420460449FEF705F8204606B010BD14
:109080005A9B0D00459B0D00259B0D000A220021D7
:1090900000F038B910B5054C13462CB10A4601460C
:1090A0000220AFF3008010BD2046FCE70000000066
:1090B00038B5074B1D68EB6B04461BB92420FDF740
:1090C000C9FFE863E96B2046BDE83840FEF712B8F7
:1090D000ACE303200A44914200F1FF3300D1704712
:1090E00010B511F8014B03F8014F9142F9D110BDB1
:1090F000884210B501EB020402D98442234607D806
:10910000431EA14208D011F8012B03F8012FF8E704
:10911000024401468A4200D110BD13F8014D02F805
:10912000014DF7E702440346934200D1704703F82C
:10913000011BF9E738B50D4B1D68AB6B04467BB9D5
:109140001820FDF787FF0A4A0A4BA863C0E90023ED
:10915000094B83600B23838101220023C0E9042390
:10916000AB6B00221C615A6138BD00BFACE3032029
:109170000E33CDAB34126DE6ECDE050010F8012B9A
:1091800011F8013B012A28BF9A42F7D0D01A704744
:10919000034611F8012B03F8012B002AF9D170477F
:1091A000024B0146186800F003B800BFACE303208F
:1091B00037B5044608460D4600F00FF8421C11462C
:1091C00020460192FDF776FF044618B1019A294620
:1091D000FFF780FF204603B030BD034613F8012B94
:1091E000002AFBD1181A0138704710B5013903461F
:1091F00032B111F8014F03F8014B013A002CF7D1BD
:109200001A440021934200D110BD03F8011BF9E775
:109210002DE9F0473A4E86468C4660461CF8014BD5
:10922000A55D15F00805F8D12D2C33D19CF8004030
:109230004FF0010800F1020C002B5CD0102B0CD178
:10924000302C0AD19CF8000000F0DF0058284DD1E6
:109250009CF8014010230CF1020C08F10047013F7B
:109260000026B7FBF3F9304603FB197AA4F1300569
:10927000092D18D82C46A34224DD751C07D0814542
:109280001DD301D1A2451ADB00FB034001261CF8C7
:10929000014BEBE72B2C08BF9CF80040A84608BF09
:1092A00000F1020CC8E7A4F14105192D01D8373CA3
:1092B000E1E7A4F16105192D04D8573CDBE74FF035
:1092C000FF36E4E7731C06D12223CEF8003038467F
:1092D00042B9BDE8F087B8F1000F00D04042002A43
:1092E000F7D00EB10CF1FF311160F2E73024002B02
:1092F000B3D10823B1E7302CA4D00A23ADE700BFD7
:109300007F9B0D0013460A46014602480068FFF79E
:109310007FBF00BFACE3032021400D005D400D0086
:1093200085400D0089400D0000000000556E6B6EF9
:109330006F776E004E6F74204368617267696E6765
:1093400000436861726765640044697363686172B1
:1093500067696E67004661756C74004469636F6E7F
:109360006E65637465640031352E30300031004E17
:109370006F204461746100526573706F6E73652075
:10938000526563656976656400556E6B6E6F776EC6
:1093900020726573706F6E736520726563657669A0
:1093A000656420256900556269646F747320486F95
:1093B0006F6B0053657420566572626F7365204D44
:1093C0006F646500436C6561726564205665726206
:1093D0006F7365204D6F64650053657420746F2052
:1093E0003372642050617274792053696D00536543
:1093F0007420746F205061727469636C65205369C6
:109400006D004B65657020416C69766520736574ED
:1094100020746F20256920736563004B656570209B
:10942000416C697665004C6F6164696E67205379A1
:109430007374656D2044656661756C7473007B227E
:1094400074656D7065726174757265223A25342E8B
:1094500031662C202268756D6964697479223A2519
:10946000342E31662C2020226C7578223A25342E39
:1094700031662C2020227768697465223A25342EC3
:1094800031662C202022616C73223A25342E3166FD
:109490002C2262617474657279223A25697D0065B7
:1094A0006E7669726F6E6D656E74616C2D686F6F2C
:1094B0006B0046726F6D20257320746F202573003A
:1094C0005374617465205472616E736974696F6E50
:1094D000004C6F7720506F776572204D6F64650088
:1094E00054727565004E6F726D616C204F706572BD
:1094F0006174696F6E730046616C73650025342E6C
:1095000031662A430025342E31662525004C7578B6
:10951000203A2025342E3166005768697465203A58
:109520002025342E316600414C53203A2025342E1C
:109530003166002569202525004572726F722074FE
:10954000616B696E67204D6561737572656D656EDF
:10955000747300537461746500737061726B2F646F
:1095600065766963652F73657373696F6E2F656EBA
:1095700064004572726F72205374617465202D20EF
:109580005265736574002F686F6F6B2D7265737011
:109590006F6E73652F656E7669726F6E6D656E7432
:1095A000616C2D686F6F6B2F0052656C6561736520
:1095B0000074656D70657261747572650068756DB3
:1095C0006964697479004C7578005768697465003E
:1095D00052617720414C5300426174746572790086
:1095E00042617474657279436F6E74657874004B70
:1095F00065657020416C69766520536563006C6F0A
:1096000077506F7765724D6F6465004D6561737556
:1096100072652D4E6F7700566572626F73652D4DC2
:109620006F646500536574204C6F7720506F7765C9
:1096300072004572726F72202D20534854333120CE
:10964000496E697469616C697A6174696F6E00450D
:1096500072726F72202D2056454D4C20496E6974F0
:1096600069616C697A6174696F6E005374617274B8
:1096700075700000000000000000000039410D007E
:109680004D410D0051530D000D550D00CD540D00F1
:10969000AB540D0053560D00F3540D0000000000B4
:1096A0000000000061410D0075410D00A5590D003D
:1096B0003B5A0D00BD5A0D002C930D0034930D0044
:1096C00038930D0041930D0049930D0055930D0003
:1096D0005B930D00537461727475702053756363EE
:1096E00065737366756C00000000000000000000E8
:1096F000000000000000000000000000000000006A
:109700000000000000000000000000000000000059
:1097100000000000050000005075626C697368511C
:10972000756575654173796E6300717565756569F9
:109730006E67206576656E744E616D653D2573209C
:10974000646174613D25732074746C3D25642066EA
:109750006C616773313D256420666C616773323DCF
:1097600025642073697A653D2564007075626C69B3
:109770007368696E672025732025732074746C3DAF
:10978000256420666C6167733D2578007075626C96
:109790006973686564207375636365737366756C5C
:1097A0006C79007075626C697368656420666169C4
:1097B0006C65642C2077696C6C20726574727920FA
:1097C000696E20256C75206D73006170702E707548
:1097D00062710000000000000000000000000000B6
:1097E0000000000051530D00A5400D00A5400D00E4
:1097F000A5400D00A5400D00A5400D000000000093
:109800000000000069540D007D540D0051530D00FF
:109810000D550D00CD540D00AB540D0053560D00E9
:10982000F3540D0077726974654461746120666158
:10983000696C656420647572696E67206572617316
:1098400065206672616D416464723D25750000009B
:109850000000000000000000F5580D00F7580D0052
:10986000A5590D003B5A0D00BD5A0D00646576697F
:10987000636552656164206661696C656420737418
:1098800061743D2564007365742054696D652066BC
:10989000726F6D20525443202573006465766963AE
:1098A000655772697465206661696C6564207374BC
:1098B00061743D25640073657420525443206672C0
:1098C0006F6D20636C6F756420257300636C6F751A
:1098D000642074696D65206E6F742076616C6964B4
:1098E00000646576696365577269746545455052D1
:1098F0004F4D206661696C656420737461743D2509
:1099000064006170702E727463000000000000003B
:109910000000000089620D009F620D0079620D0059
:109920007D620D00C9620D00B1650D00D1670D00AB
:1099300000000000000000008D620D0091620D002B
:1099400000000000000000008B620D00AD620D0001
:1099500081620D0085620D00C9620D00EB650D008E
:10996000116A0D0000000000000000008F620D0071
:10997000BB620D00000000000000000073710D00CC
:1099800069710D005F710D0055710D0049710D0079
:109990003D710D0031710D0029710D001F710D0019
:1099A00015710D008D850D00776972696E67005322
:1099B000797374656D20736C65657020636F6E6676
:1099C000696775726174696F6E20697320696E765C
:1099D000616C69642E00617070005A00252B303371
:1099E000643A253032750025592D256D2D25645496
:1099F00025483A254D3A2553257A006173637469E9
:109A00006D65000000000000000000005D7A0D00A0
:109A1000637A0D00A17A0D00717A0D005F7A0D0056
:109A2000000000000000000019800D0009800D00FA
:109A30000B800D000000000000000000EF800D0012
:109A400057810D002D810D0029750D001F810D001E
:109A5000F1800D0001810D0051810D0011810D007B
:109A6000EB800D000000000000000000A7820D0048
:109A70009D820D0093820D0049820D0087820D00AA
:109A80007B820D006F820D0067820D005D820D00EC
:109A900053820D008D850D000000000000000000C5
:109AA000E1820D004D830D0025830D0029750D0009
:109AB000F5820D0011830D0003830D001F830D003F
:109AC000E3820D00E7820D000000000000000000AE
:109AD00005840D004F840D0027840D0007840D00C0
