:02000002D0002C
:1040000000400D004CA70D00000006000D0005014A
:084010000401DB0700000000C1
:0440180014940D00EF
:1040200009480A49884208B505D0094A824202D0A7
:10403000121A05F0CDF80748074A0021121A05F0B8
:10404000EFF8014808BD00BF6CE20320E4A50D00B5
:10405000A8E30320A8E30320F0E7032070B5074E90
:10406000074C04F013FBA41BA4080025A54200D1B3
:1040700070BD56F8043B98470135F7E7AC9D0D003D
:10408000D89D0D0000F080BE08B500F009FDBDE828
:10409000084004F0BDBA02F079BF02F077BF02F029
:1040A0007DBF000008B5034A00210C2002F024FE69
:1040B000FEE700BF396A0D000078B0FA80F04009D1
:1040C0007047012303707047014B01221A7070473B
:1040D000A4E5032010B503682F2B044604D9074A32
:1040E00000210A2002F008FE23681F2B83BF03F083
:1040F0001F03034823604FF0A04010BD396A0D0034
:104100000003005008B5044903F0DDFE18B1034B6D
:1041100003221A70012008BD9A940D0024E50320A3
:1041200038B50446006928B185680C2104F0DFFB2E
:104130002846F8E7204638BD10B5034B0360044617
:1041400002F0DCF9204610BD80970D0010B5044642
:10415000FFF7F2FF2046382104F0C9FB204610BDCE
:1041600010B5034B0360044601F0D6FB204610BD9A
:10417000A8970D0010B50446FFF7F2FF2046102166
:1041800004F0B5FB204610BD10B50446006818B118
:1041900002F004FF0023236010BD10B50446FFF7B2
:1041A000F3FF204610BD0023042202F02FBE0000C2
:1041B00070B5037D05460E46CBB10368DB6823B1BD
:1041C0009A88042A17D09B68F9E70C49102004F05C
:1041D00090FB044668B11022002105F021F8084B3D
:1041E00023600423A3802B692C61C4E9023628468E
:1041F00070BD2875FBE7DE60F9E700BF509C0D003D
:104200001000030007B508220023ADF800204FF48A
:104210007A710122019241436A461846ADF8023094
:1042200002F04CFE03B05DF804FB0000F7B5324D20
:10423000324C2B78BFF35B8F060171B3D80709D4DA
:104240002846FFF739FF28B102F026FC20602846F7
:10425000FFF737FF23689B5D5F012B78BFF35B8F10
:10426000D90709D42448FFF727FF28B102F014FC2E
:1042700020602148FFF725FF2068064401A87378D5
:1042800003F01F033B430193FFF724FF019A01232F
:104290009340C0F8083503B0F0BDDA0709D42846CA
:1042A000FFF70AFF28B102F0F7FB20602846FFF76E
:1042B00008FF23689B5D5F012B78BFF35B8FDB07F3
:1042C00009D40D48FFF7F8FE28B102F0E5FB2060A5
:1042D0000948FFF7F6FE2068064401A8737803F04A
:1042E0001F033B430193FFF7F5FE019A012393401F
:1042F000C0F80C35CFE700BFACE30320B0E30320E8
:1043000037B504689DF818508DF800308DF80450CA
:10431000E4683C23A04703B030BD000037B5174D1B
:104320000C4659B96B7AF3B1154B8DF800101B7818
:10433000144A15491548FFF7E3FF14E0084604F056
:1043400023FFC83801286B7A0FD84BB100238DF8B2
:1043500000300B4B0E4A1B780E490C48FFF7D0FF7C
:104360000D4B00221A7003B030BD002BFBD0002390
:104370008DF80030024B22461B78DAE728E503204F
:1043800011E403209C940D00A4940D0094E40320F8
:10439000B1940D00C3940D004CE4032037B51649C9
:1043A000054603F090FD044688B1144B144A1549A4
:1043B000154801245C7200238DF80030134B1B78E4
:1043C000FFF79EFF124B20461C7003B030BD114911
:1043D000284603F078FD0028F7D0084B0E4A5C729F
:1043E0000A4B8DF800401B7806490748FFF788FF05
:1043F000074B01201870E8E79A940D0028E5032088
:10440000C9940D00EA940D0094E4032011E4032004
:1044100044E5032098940D00DA940D0037B518494F
:10442000054603F050FD0446B8B1164B012258680A
:104430005A70FFF7E7FE02F009FD48B100238DF83E
:104440000030114B114A1B7811491248FFF758FFF1
:10445000114B0120187003B030BD1049284603F0FD
:1044600032FD0028F7D0074B5C7002F0EFFC00280B
:10447000EED0054B8DF800401B78094AE4E700BFF9
:104480009A940D0028E5032011E40320EF940D0019
:10449000EA940D0094E4032044E5032098940D0071
:1044A00004950D0010B5C4B000680A2203A904F0F9
:1044B000A7FFB0F5966F1AD80E4C606002F0C6FCEC
:1044C00080B163680C4A4FF4807104A802F07EFD4D
:1044D00000238DF80030094B09491B78094804AACC
:1044E000FFF70EFF084B0120187044B010BD0020EC
:1044F000FBE700BF28E5032018950D0011E4032019
:1045000031950D0094E4032044E5032007B502F043
:104510009DFC48B100238DF800300C4B0C4A1B78F1
:104520000C490D48FFF7ECFE0C4A0D487823536008
:1045300040F20113138000235372937201211C2354
:1045400003B05DF804EB01F0A2BA00BF11E4032050
:104550003C950D00EA940D0094E4032028E5032027
:1045600050E4032010B5124C237A012B04D902F039
:104570006DFCD8B1012323726368B3F5966F84BFD5
:104580004FF416736360637A012B84BF0023637258
:10459000A37A012B84BF0023A3726369FF2B84BF1E
:1045A00000236361034B01221A7010BD2072E3E700
:1045B00028E5032044E5032008B501210520FFF785
:1045C00035FE00210520FFF731FE024B00221A7054
:1045D00008BD00BFA4E5032010B51A4CA6B0236A9D
:1045E000E0690A9304F0F0FACDE90801A06904F04B
:1045F000EBFACDE90601606904F0E6FACDE90401C1
:10460000206904F0E1FACDE90201E06804F0DCFA87
:104610000D4ACDE9000164210DA802F0D7FC00236A
:104620008DF80030094B0A491B780A480DAAFFF79C
:1046300067FE094B01221A7002F006FA074B186058
:1046400026B010BDF0E4032054950D0011E40320C2
:10465000B5950D0094E403204CE40320A8E5032065
:1046600030B5114D114C12492A7820788DB01A239B
:1046700003FB0212009203FB00130E4A282102A83A
:1046800002F0A4FC2B78237002F0E0FB48B1002379
:104690008DF80030084B09491B78094802AAFFF73A
:1046A0002FFE0DB030BD00BF24E5032090E40320B1
:1046B00070E20320BE950D0011E40320CC950D009F
:1046C00094E403202DE9F84F1F48DFF888A04068E4
:1046D00000231A46194602F029FC02F0AFFB4FF402
:1046E00096744FF0000B40F2E7384FF000090020BD
:1046F00002F0BAF90546002002F0B6F9461B61EB5C
:104700000B07B94508BFB04505D302F09FFB10B9B0
:1047100002F08CFBEFE702F099FB20B102F096FB70
:1047200060B9BDE8F88F02F08FF9CAF8000002F016
:104730007DFBFFF741FF013CD9D1EFE7034A01239D
:104740001372034A1370ECE7C8E5032028E5032041
:1047500044E50320BCE7032008B502F077FB80F0B6
:104760000100C0B208BD00002DE9F04385B000246F
:1047700001A8CDE901448DF80C4002F075FD2046FA
:1047800002F072F943F6972805464FF00009002021
:1047900002F06AF9461B61EB0407B94508BFB04552
:1047A00005D3FFF7D9FF10B902F040FBEFE7FFF7A1
:1047B000D3FF0A48002319461A46406802F0BEFBA0
:1047C000074B00221A72074B01244FF4FA601C7049
:1047D00002F03CFC204605B0BDE8F083C8E50320AC
:1047E00028E5032044E5032030B585B00D460022BE
:1047F0006946009202F098FAB0B9009C0CB12369A6
:1048000023B90A4A00210A2002F076FA0023ADF803
:1048100006300C23ADF8043004230393029523697A
:1048200001AA01212046984705B030BD396A0D0024
:1048300030B50E4D0FCD89B001AC0FC495E807001F
:1048400084E8070069460720FFF7CEFF0028A8BFCD
:104850000098074A08AB03EB8000102150F81C3C7D
:10486000044802F0B3FB09B030BD00BFBC970D0097
:1048700054960D0012E4032007B5032001A9FFF7A9
:10488000B3FF40B9BDF8043000EE103ABBEECC0ADD
:1048900003B05DF804FBBFEE000AF9E770B5644CA5
:1048A00064488AB00025257001F01AF8B5EE400A78
:1048B000F1EE10FA00F0B9805E485F4E01F010F89A
:1048C00010EE100A84ED030A04F07EF95B4ACDE98C
:1048D000000110215A4802F079FB564801F00EF809
:1048E00010EE100A84ED040A04F06EF9554ACDE981
:1048F00000011021544802F069FB544800F000FE0A
:10490000524884ED050A00F01BFE504884ED060A6B
:1049100000F096FD07EE900AF8EE677A6069C4ED44
:10492000077A04F051F94A4ACDE9000110214948BB
:1049300002F04CFBA06904F047F9474ACDE90001B9
:104940001021464802F042FBE06904F03DF9444A78
:10495000CDE900011021434802F038FBFFF78CFF3E
:10496000FDEEC07A404A4148C4ED087A17EE903A0D
:10497000102102F02BFB0FCE04AD0FC596E803000B
:1049800085E80300012102A803F025F902A803F03D
:10499000A2F9374A03461021364802F017FB02A855
:1049A00003F06CF9344A03461021344802F00EFB40
:1049B00002A803F06FF9324A03461021314802F091
:1049C00005FB02A803F073F92F4A034610212F4874
:1049D00002F0FCFA03A91820FFF706FF0028A8BF81
:1049E00003982B4A0AAB03EB8000202150F8183CB7
:1049F000284802F0EBFAFFF71BFFFFF73DFFFDEE43
:104A0000C07A254A17EE903A1D2BCCBF0023012314
:104A100001259372C2ED037A257003F0A2FC1F4BAF
:104A2000606002A81D7003F0E5F828460AB070BD6A
:104A3000F0E4032018E50320D8970D00DD950D0064
:104A400045E50320E5950D0060E4032058E50320CB
:104A5000ED950D0080E40320F9950D00ACE50320F1
:104A600007960D00B4E3032013960D0022E4032003
:104A700019960D0094E5032026960D0070E403209E
:104A800033960D00C4E303203C960D00D4E30320CD
:104A900046960D00E4E3032028E50320ECE4032020
:104AA00070B5874C2378013B86B0062B40D8DFE8F1
:104AB00013F0B1000700200061008600D9002F012B
:104AC000804D6A7A2AB1804B1B78022B01D0FFF708
:104AD000C7FDAB7A0BB10723237003F042FC4FF400
:104AE000966390FBF3F202FB13030BBB03232370CB
:104AF0001EE0744E727A2AB1734B1B78032B01D0DF
:104B0000FFF7AEFDFFF7CAFE0546002830D10123AE
:104B1000237001F099FF6D4B1860737A43B16C4BB1
:104B20008DF800501B786B4A6B496C48FFF7E8FB27
:104B30006B4801F089FB6B4B1B780BB1FFF73CFD19
:104B4000694C23783BB11C235E4A6848012100F080
:104B50009EFF00232370664C23783BB12823654ACF
:104B60006248A02100F093FF0023237006B070BDBF
:104B70000423BCE7534D6A7A2AB1534B1B78042BAC
:104B800001D0FFF76DFD2B7A0BB9FFF79BFD02F00B
:104B90005DF968B103F0F6FB0C2805D102F056F977
:104BA00010B1002002F072F9FFF716FD05239EE711
:104BB0000123237001F048FF444B1860B8E7414BD4
:104BC0005B7A2BB1404B1B78052B01D0FFF748FDDA
:104BD000494B1B780BB9062389E701F035FF474B9A
:104BE0001B68C01A4AF6C8739842A1D901F02CFF7D
:104BF000364D434A286000238DF80030344B41493C
:104C00001B783648FFF77CFB0123237001F01CFF63
:104C100028608DE72B4B5B7A2BB12B4B1B78012B3C
:104C200001D0FFF71DFD01F00FFF284B1B6803F5B6
:104C3000922303F578738342BFF47AAF02F006F94A
:104C400048B100238DF80030214B2F4A1B782249B0
:104C50002248FFF755FB4FF4FA6002F0F7F903F032
:104C6000A1F965E7174D6A7A2AB1174B1B78062B15
:104C700001D0FFF7F5FC2B7A0BB1FFF775FD03F0C0
:104C800070FB4FF4966190FBF1F303FB11001F4B97
:104C9000081A1A7D8842A8BF08460AB102221A7271
:104CA0004FF47A7141431948FFF782FA174903A874
:104CB00003F07CF903A8FFF767FA022317E700BFA8
:104CC00024E5032028E5032090E40320CCE403201E
:104CD00011E4032057960D00C3940D0094E40320C3
:104CE000D0E40320A4E5032044E5032050E403209E
:104CF000ECE40320F0E403204CE40320A8E50320C7
:104D0000709C0D0071960D008A960D0034E403200E
:104D10001A4D6A7A2AB11A4B1B78072B01D0FFF77C
:104D20009FFC2B7A0BB1FFF71FFD03F01AFB4FF42A
:104D3000966190FBF1F303FB1100124B081A1A7DE8
:104D40008842A8BF08460AB102221A724FF47A714B
:104D500041430C48FFF72CFA0A4903A803F026F94F
:104D600003A8FFF711FA03A8064903F01FF902236D
:104D700003A82370FFF708FADAE600BF28E503204E
:104D800090E4032034E40320F0B50021B9B00820FA
:104D900003F004FD0121052003F000FD00210420A3
:104DA00003F0FCFCFFF708FC0023009301224FF006
:104DB000FF339449082002F0BBFD934B08AA03F18E
:104DC0001005164618685968144603C40833AB42E8
:104DD0002246F7D119889B78A37021802D220021CB
:104DE0008A4C0DF1330004F01BFA022704A80025B9
:104DF000277002F033F800237D2218A904A803F0DD
:104E000074F82A4682492B46CDE9005518A802F0CD
:104E100035F8804B80481968FFF7C5F97F4980480D
:104E2000FFF7C1F97F498048FFF7BDF97F49804806
:104E3000FFF7B9F97F498048FFF7B5F97F49804806
:104E4000FFF7B1F97F498048FFF7ADF97F49804806
:104E5000FFF7A9F97F498048FFF7A5F97F49804806
:104E6000FFF7A1F97F498048FFF79DF97F49804806
:104E7000FFF799F97F498048FFF795F97F49804806
:104E80002B463A4601F0C2FF2B467E497E4801225E
:104E900001F0BCFF7D4A7E497E4802F0D4F97E4A8B
:104EA0007E497C4802F0CFF97D4A7E49794802F07C
:104EB000CAF9754A7C49774802F0C5F97B4801F088
:104EC000BDF82946794801F0F6F97948442100F007
:104ED00072FC48B97749304604F0D8F901232370B1
:104EE00001F0B2FD744B186003F0ACFC014673484E
:104EF00000F049FB60B901F0A7FD6F4D70492860D3
:104F0000304604F0C3F90123237001F09DFD2860B1
:104F10006A48002100F0AEFA0C21684800F0A1FABE
:104F2000664800F0AAFA654800F09EFA634842F22B
:104F3000107100F011FC614844F6206100F010FC93
:104F400001215E4800F087FA5E4800F013FD01235E
:104F50005C480DF10F02002100F04EFD9DF80F306E
:104F6000042B25D0574800F00FFD574A554804231D
:104F7000002100F08CFD012352480DF10F020021A9
:104F800000F03AFD9DF80F30042B0ED00123237062
:104F90004E4DFFF7E7FAFFF795FB6B78A3B101F0F1
:104FA00055FF60B901F042FFF9E7FFF7AFFAEFE70D
:104FB000464A44481C23012100F01EFDE8E701F0A9
:104FC00045FF6868FFF71EF9042003F0F8FB08B9F5
:104FD000FFF79CFAFFF762FC6B7A4BB100238DF868
:104FE00000303B4B3B491B783B483246FFF788F982
:104FF00023780BB90223237004A802F0EBFE39B02A
:10500000F0BD00BFC9400D00F0970D0024E503205E
:105010001D430D006CE203209E960D0045E5032024
:10502000A6960D0060E40320B2960D0080E40320F4
:10503000BB960D00ACE50320BF960D00B4E3032042
:10504000C5960D0094E50320CD960D0070E4032075
:10505000D6960D00C4E30320DF960D00D4E30320B1
:10506000E5960D00E4E30320EC960D0022E4032016
:10507000F8960D0012E4032000970D002CE50320A4
:105080000F970D0029E50320F6940D001E970D00E3
:1050900005410D001B720D002A970D009D430D0068
:1050A00031950D00A5440D001D440D00D0E40320F2
:1050B00018E5032037970D00CCE4032058E50320C2
:1050C00054970D0050E4032030980D0028E503208C
:1050D00011E4032070970D0094E40320F8B5394BD8
:1050E000394E01271F70394B02251D7003F000FB5C
:1050F00000231A4642F6987103F002FB03F0F8FA17
:1051000000231A460E2103F003FB0024304BB3604A
:105110002846304D3460B480B47101F017FE2A4641
:105120002D49304603F0DEFB2146384601F01EFED5
:105130003946042001F068FC28482949A0F80940B4
:105140000346021D43F8092B9C70264B43602A46F8
:10515000C0E903440775047203F0C4FB2248234EE0
:1051600000F06DF9224800F003FB03F06BFB2346CF
:1051700001464FF40052304600F0F2FB1D4B336005
:105180002A461D491D4C304603F0ACFB03F05AFB88
:105190000146204600F05AFE2046194C19492A467D
:1051A00003F0A0FB18494FF40062204601F0CEFA4C
:1051B000164B23602A4620461549BDE8F84003F007
:1051C00091BB00BF11E4032004E4032010E403209A
:1051D0000000FFFFA8E303209B410D0034E40320FF
:1051E00021410D001000030058E5032050E4032086
:1051F00018E50320A8970D0061410D00D0E40320BD
:1052000094E40320D75B0D0000F4032080970D0089
:1052100039410D004260002201700272704710B5E2
:10522000037A044653B12178606802F047FB606856
:1052300002F067FBB0FA80F0400910BD00F003F8FF
:105240000028F0D1F9E710B50446406802F004FBED
:10525000012323722046BDE81040FFF7E0BF2DE98F
:10526000F843DDE908961F469319202B044688462B
:10527000154602D90020BDE8F8830178406802F0A5
:105280001DFB7EB9606803682A46DB684146984783
:105290008542EFD16068394602F02FFBB0FA80F00A
:1052A0004009E8E7B9F1000FECD0606803683246C6
:1052B000DB6849469847B042DCD1E3E7202A70B565
:1052C00006460C4615460FD80178406802F0E1FA10
:1052D000A84209D12518A54208D0706803685B6907
:1052E000984704F8010BF6E7002070BD0120FCE7A9
:1052F00073B51D460023CDE900339DF81C30069E92
:105300000446FFF7ACFF40B1012332462946204650
:1053100002B0BDE87040FFF7D1BF02B070BD10B55C
:10532000016082809DF80C109DF80820C171027206
:10533000837110BD1FB58388ADF80C30C37901931C
:1053400003AB009300680123FFF789FF05B05DF808
:1053500004FBF0B40C4602B98279042A13D800F198
:10536000090583182946834209D0077AE6B227B98E
:105370002E70240A0135013BF5E71E72F9E7F0BCF7
:105380001846FFF7D7BF0020F0BC704713B504469E
:105390000B46818804F8091F0021CDE90021012274
:1053A00021460068FFF7A4FF02B010BD38B500F138
:1053B0000905827929460446FFF7E8FF78B1A2790A
:1053C000294622440020A2420BD00302207A20B9B1
:1053D000107A1843013A0131F5E70878F9E74FF000
:1053E000FF3038BD10B501600271437110BD10B5BA
:1053F00004460068FFF7DAFF23795A1C0123934023
:105400006279013BD040184010BD70B50446006879
:105410000E46FFF7CBFF2379012201339A40531E3A
:10542000627903FA02F520EA050503EA060120681D
:10543000914029438279BDE87040FFF78ABF7047E9
:1054400008B54068FFF7B2FF80B208BDC06981F0BF
:105450000101FFF7DABF006AFFF7D7BF406AFFF725
:10546000D4BF806AFFF7D1BF08B5806AFFF7BFFFDE
:10547000C0B208BDC06AFFF7C8BF08B5C06AFFF771
:10548000B6FFC0B208BD10B52DED028B0446B0EEDC
:10549000408AFFF7F2FF022818D0032813D0012812
:1054A00003D1F6EE007A28EE278A2046FFF7DCFFCC
:1054B00001380B2814D8DFE800F0181B1E13131353
:1054C00013111313130CF1EE007AECE7F2EE007AED
:1054D000E9E7F1EE007A28EE278A01E038EE088A43
:1054E000B0EE480ABDEC028B10BDF6EE007AF2E792
:1054F000F5EE007AEFE7F4EE007AECE7000000004A
:1055000010B504464068FFF751FF07EE900A2046A9
:10551000B8EE670AFFF7B7FF10EE100A03F054FB6E
:1055200005A3D3E9002303F0A7FB03F0B7FD00EECA
:10553000100A10BDAFF3008092CB7F48BF7DAD3F16
:1055400010B504468068FFF731FF07EE900A204649
:10555000B8EE670AFFF797FF10EE100A03F034FB6E
:1055600005A3D3E9002303F087FB03F097FD00EECA
:10557000100A10BDAFF3008092CB7F48BF7DAD3FD6
:10558000006BFFF742BF7FB504460C200391FEF786
:1055900082FD054618B1039A1021FFF73BFEA56373
:1055A0002846FFF750FE0546002800F0D280102064
:1055B000FEF771FD064638B101230022CDE9002334
:1055C000A16B0223FFF7ABFE26601020FEF763FD00
:1055D000064638B100230122CDE90032A16B022337
:1055E000FFF79DFEE6601020FEF755FD064640B130
:1055F00000230122CDE900320223A16B1A46FFF7F6
:105600008EFE26611020FEF746FD064648B10023B7
:105610004FF0010ECDE9003EA16B02230322FFF7FC
:105620007EFE66611020FEF736FD064648B1002377
:105630004FF0010CCDE9003CA16B02230422FFF7DF
:105640006EFE66601020FEF726FD064640B1002380
:105650000121CDE900310522A16B0223FFF75FFE96
:10566000A6601020FEF717FD064640B10023012278
:10567000CDE90032A16B02230622FFF750FEA6619E
:105680000820FEF708FD064620B12168002301220C
:10569000FFF7A8FEE6610820FEF7FDFC064620B1F4
:1056A000012321681A46FFF79DFE26620820FEF7B7
:1056B000F2FC064620B1216804230222FFF792FE85
:1056C00066620820FEF7E7FC064620B12168062343
:1056D0000422FFF787FEA6620820FEF7DCFC0646E0
:1056E00020B121680B230222FFF77CFEE66208202E
:1056F000FEF7D1FC064620B1616900230122FFF7C5
:1057000071FE26630820FEF7C6FC064620B16169DB
:1057100001230222FFF766FE002120466663FFF7A1
:1057200095FE00212046FFF796FE00212046FFF758
:1057300095FE00212046FFF79DFE00212046FFF741
:1057400090FE00212046FFF71BFF01212046FFF7B6
:105750007DFE284604B070BD00690022FFF7F9BD48
:10576000C0680022FFF7F5BD0368C9B29B681847FF
:10577000704738B505460C4603F064F8297802F006
:105780009DF803F05FF8210AFFF7EEFF03F05AF8E7
:10579000E1B2FFF7E9FF03F055F8BDE8384002F049
:1057A000B0B808B543F2A201FFF7E3FFBDE8084037
:1057B0000A2001F04BBC38B504460D4603F042F810
:1057C00002F04AF820462570FFF7EBFF012038BDB4
:1057D0000A44FF2091420ED011F8013B58400823A3
:1057E00010F0800F4FEA400018BF80F03100013BFD
:1057F000C0B2F5D1EEE7704773B54FF410510546CE
:10580000FFF7B7FF4FF4FA7001F020FC03F01AF82D
:105810002978062202F04FF803F014F803681B6998
:10582000984706284BD16E46044603F00BF80368F0
:105830005B699847013C14F0FF0406F8010B6946C8
:10584000F3D102222846FFF7C3FF9DF8026086428B
:1058500035D102220DF103012846FFF7B9FF9DF86B
:10586000056086422BD1BDF80000BDF8034040BA68
:1058700080B203F087F918A3D3E9002303F0FCF901
:1058800011A3D3E9002303F021FB114B002203F005
:105890003BF803F003FCA86060BA80B203F072F931
:1058A0000C4B002203F0E8F907A3D3E9002303F02F
:1058B0000DFB03F0F3FB6860012002B070BD002017
:1058C000FBE700BFAFF3008000000000E0FFEF4007
:1058D00000804640000059400000000000E06540A4
:1058E00010B50446FFF788FF10B194ED020A10BD11
:1058F0009FED010AFBE700BF0000C07F10B5044622
:10590000FFF77AFF10B194ED010A10BD9FED010A77
:10591000FBE700BF0000C07F704710B510210446B0
:1059200002F0E5FF204610BD0368C9B29B68184726
:105930000EB410B58DB00FAA016852F8044B039253
:1059400000232020CDE90403CDE900421E2004AA53
:1059500001F0E2F90DB0BDE8104003B0704700005F
:1059600030B5034DC0E90223C0E9005130BD00BF8E
:1059700068980D00406801F06FBF10B504460068DC
:1059800001F0CBFF204610BD2DE9F0418AB004465E
:105990004068019001F0B8FF1E22002102A8A7680C
:1059A00003F03EFC0026EFB123681E2FB84628BF47
:1059B0004FF01E08DD6802AA434631462046A8473C
:1059C000054658B90A480B493246FFF7B1FF01A80E
:1059D000FFF7D3FF28460AB0BDE8F081A7EB080720
:1059E0004644E0E701A8FFF7C8FF0125F2E700BF42
:1059F00000E6032034980D002DE9F7430446406883
:105A000001900D4616461F4601F07EFFA7B1E168E2
:105A1000606841F0500101F055FF290A6068FFF706
:105A200083FF29466068FFF77FFF6068002101F06F
:105A300064FF48B1002400E0012401A8FFF79DFFA6
:105A4000204603B0BDE8F083202F217B6068B84674
:105A500028BF4FF020080123424641F0500101F0D9
:105A600018FF02F0EFFE03681B6998474045E1DB31
:105A700006EB080902F0E6FE03685B69984706F842
:105A8000010B4E45F6D14544A7EB0807BEE72DE9CB
:105A9000F74F0446406801900E4690461D4601F0BF
:105AA00033FF4FF00109B9F1000F2AD04DB3E1687F
:105AB000606841F0500101F005FF310A6068FFF7AE
:105AC00033FF60683146FFF72FFFA5F11E0A4746F6
:105AD000A6EB080B606817F8011B0368013D9B6883
:105AE000984755450BEB0706B84601D0002DF1D17C
:105AF0006068012101F001FF0028D7D04FF00009B4
:105B0000D1E701A8FFF739FF484603B0BDE8F08FA1
:105B10002DE9F0438BB00E46154680464068019053
:105B20001C4601F0F1FEAE4229D2264425448CB138
:105B30001E2C2746D8F8003028BF1E27F61BD3F8A6
:105B4000089002AA3B4631464046ED1BC84748B97B
:105B5000002400E0012401A8FFF70FFF20460BB04E
:105B6000BDE8F083D8F8003002AAD3F80C9029469B
:105B70003B464046C8470028EAD0E41BD7E7E9D9AE
:105B8000002CE7D0D8F800301E2C274628BF1E274F
:105B9000D3F8089002AA3B4631464046C847002841
:105BA000D6D0D8F8003002AAD3F80C9029463B464C
:105BB0004046C8470028CBD03E443D44E41BDFE7C5
:105BC000402070470020704780207047FF207047BA
:105BD000704770477047704710B51421044602F0B3
:105BE00086FE204610BD10B50821044602F07FFE57
:105BF000204610BD10B50821044602F078FE20466C
:105C000010BD10B51C21044602F071FE204610BDE7
:105C10002DE9FF410368DB680446984710220146DE
:105C2000684603F0FDFA236820469B6898470025E4
:105C300007462846BD420ED27E1B2368102E28BF81
:105C40001026D3F818806A46334629462046C047B6
:105C500008B13544EEE704B0BDE8F0814FF480733D
:105C6000438140F20113C3600023038270470000A8
:105C700008B5064B0360064B436040F20473038192
:105C800000234374FFF7EAFF08BD00BF48990D00E9
:105C90000001020303090A2200F00F0002FB0300C7
:105CA000704708B5807AFFF7F5FF00F5FA6008BD88
:105CB000C07A00F01F00FFF7EDBF007B00F03F004F
:105CC000FFF7E8BF08B5817B4A060DD501F01F003C
:105CD000FFF7E0FF8B0603D50C2800D00C3008BD81
:105CE0000C2808BF0020FAE7BDE8084001F03F009B
:105CF000FFF7D0BFC07B00F07F00FFF7CBBF007C79
:105D000000F07F00FFF7C6BF10B58AB0242204461A
:105D1000002101A803F084FA2046FFF7C2FFA0F299
:105D20006C7006902046FFF7C3FF013805902046AF
:105D3000FFF7C3FF04902046FFF7C4FF03902046FF
:105D4000FFF7D8FF02902046FFF7D9FF019001A886
:105D500001F074F90AB010BD0A2190FBF1F292FB38
:105D6000F1F301FB13231B01DBB201FB120018430B
:105D7000C0B27047642310B5044691FBF3F000FBFA
:105D80001310FFF7E9FFA07210BD10B504460846D6
:105D9000FFF7E2FFE07210BD10B504460846FFF7BA
:105DA000DBFF237B23F03F031843207310BD10B5A6
:105DB0000446481CFFF7D0FF637B23F0070318431A
:105DC000607310BD10B504460846FFF7C5FFA07309
:105DD00010BD10B504460846FFF7BEFFE07310BDC6
:105DE00010B504460846FFF7B7FF237C23F07F0376
:105DF0001843207410BD37B504466846CDE900232A
:105E000003F0D4F9054641692046FFF7B3FF29693D
:105E100020460131FFF7B9FFE9682046FFF7BCFFD4
:105E2000A9692046FFF7C3FFA9682046FFF7CAFF0C
:105E300069682046FFF7CDFF29683B29A8BF3B21B1
:105E40002046FFF7CDFF03B030BD0000054A0061DA
:105E5000C0E90021044A8260044AC260044A8061A9
:105E6000426170477C990D000000010324990D00E8
:105E700058990D002DE9F84F04460F469046994673
:105E800000260A9B9E4231D26068394601F016FD19
:105E900008EB06016068FFF747FD6068002101F02C
:105EA0002CFD0546D0B90A9B60689A1B202A4FF04A
:105EB000010328BF2022394601F0EBFC09EB060B59
:105EC00005460BEB000ADA4506D0606803685B699B
:105ED00098470BF8010BF6E72E44D2E70246044937
:105EE0000448FFF725FD2846BDE8F88F0025FAE7AE
:105EF0007C980D00BCE503202DE9F34101EB03087C
:105F00001E4603689B6805460C4617469847804521
:105F10000DD82034686800963B46E2B26F21FFF747
:105F2000A9FFB0FA80F0400902B0BDE8F08100207E
:105F3000FAE72DE9F34101EB03081E4603689B686D
:105F400004460D461746984780450CD86068009671
:105F50003B46EAB25721FFF78DFFB0FA80F04009C7
:105F600002B0BDE8F0810020FAE77FB51E1E0CBF2D
:105F7000072306230093144602AB0A466F21FFF75E
:105F800079FF0546A8B99DF8083023749DF80930BB
:105F9000E3739DF80A30A3739DF80B3063739DF88B
:105FA0000C3023739DF80D30E3722EB99DF80E303E
:105FB000A372284604B070BD02F0F0F9FFF7CCFEE2
:105FC000A072F6E71FB501230A4600936F2103ABC9
:105FD000FFF750FF20B99DF80C0005B05DF804FBF9
:105FE0000020FAE708B50321FFF7ECFFC0F34010EB
:105FF00008BD38B500230C460A4619460546FFF78A
:10600000B4FF30B9A37A23B12846BDE83840FFF782
:10601000E9BF002038BD7FB5024601A8FFF728FE82
:1060200001A91046FFF7E5FF28B101A8FFF76CFEB4
:1060300007B05DF804FB00200146F9E7D0B504463F
:1060400086B0406801F008FC02F06EF9E8B9E37A26
:106050009B071AD52046FFF7DEFF06460F4656EA95
:10606000070312D002F067F80A4B0B491B68009334
:1060700032463B4602A802F015F90848029A084940
:10608000FFF756FC02A801F0A5FE0123237206B01B
:10609000D0BD00BF40E303202CE60320BCE5032075
:1060A00096980D002DE9F84F0646884691469A4687
:1060B00000250A9B9D4229D27068414601F0FEFBF3
:1060C000706809EB0501FFF72FFC0A9B5F1B1F2F70
:1060D00028BF1F270AEB050407EB040B706814F8B0
:1060E000011B026892689047A345F7D170680121AF
:1060F00001F003FC044638B1024605490548FFF7A4
:1061000017FC2046BDE8F88F3D44D2E70024F8E7AD
:10611000AB980D00BCE503202DE9F34101EB03082A
:106120001E4603689B6805460C46174698478045FF
:106130000DD82034686800963B46E2B26F21FFF725
:10614000B1FFB0FA80F0400902B0BDE8F081002054
:10615000FAE71FB5137C8DF80830D37B8DF8093032
:10616000937B8DF80A30537B8DF80B30137B8DF8C1
:106170000C30D37A8DF80D30937A8DF80E300723DA
:1061800000930A4602AB6F21FFF78CFF05B05DF864
:1061900004FB10B588B0044603A80193FFF768FD1F
:1061A000019B03A8FFF727FE9DF81C30A27A63F03D
:1061B0007F038DF81C309DF819306AB143F0080355
:1061C00003AA002120468DF81930FFF7C2FFB0FA6C
:1061D00080F0400908B010BD03F0F703F0E70000BD
:1061E000F0B587B0054602F09FF80446E8B102F02A
:1061F000B8F8C717024606463B462846FFF7C9FFD0
:106200000C4B0D491B68009332463B46044602A8DE
:1062100002F048F80948029A0949FFF789FB02A8E9
:1062200001F0D8FD204607B0F0BD06490348FFF74E
:106230007FFBF7E740E303202CE60320BCE50320C7
:10624000C6980D00DC980D0037B5457A04469DB917
:1062500002F06AF880B10022002369462846CDE9A1
:10626000002300F023FE38B1E37ADB0702D5204695
:10627000FFF7B6FF0123637203B030BD1FB50123E2
:106280008DF80C2000930A4603AB6F21FFF70AFF3D
:1062900005B05DF804FBF8B504460D4617461E46EA
:1062A000FFF790FE00EA0702324329462046BDE888
:1062B000F840FFF7E3BF012908B50CD800294FF0DB
:1062C000000314BFDF22EF220721FFF7E4FFB0FA3B
:1062D00080F0400908BD0020FCE738B504463225AF
:1062E0006068572101F0EAFA6068012101F005FBBE
:1062F00008B1013DF4D138BD2DE9F04104460F4607
:10630000164602EB0308B04520D06068572101F023
:10631000D5FA39466068FFF707FB606816F8011B7D
:1063200003689B6898476068012101F0E6FA01372D
:10633000054638B1024606490648FFF7F9FA2846ED
:10634000BDE8F0812046FFF7C8FFDCE70025F6E74F
:10635000F1980D00BCE50320F7B5CF181E46036881
:1063600001929B6804460D46984787420AD8019AD5
:1063700060683346E9B2FFF7BFFFB0FA80F040092A
:1063800003B0F0BD0020FBE7014B024A1A607047E2
:10639000BCE5032012990D00012A034602D10160D9
:1063A00000207047022A04BFD1E90001C3E90001BF
:1063B000F6E710B5012303748368044643B1C0684F
:1063C0009847012363740020BDE8104000F014BB1F
:1063D00000680028F5D083680BB902F08EFAC36814
:1063E000EEE710B442680346541001EB6200D20796
:1063F00048BF0A591B685DF8044B48BFD35818477B
:1064000010B58368044613B103220146984720461D
:1064100010BD00000123F7B580F82930064608308A
:1064200000F0C2FA0420FDF736FE054698B31B497A
:10643000142002F05EFA30B10023C0E90033C0E955
:106440000233037443742860A0B1154B1549C0E9A9
:1064500002364FF40063CDE900030222124B0430F0
:1064600000F092FA30B92B681B7CA3B9012000F030
:10647000DBFAF8E72C6800232B6064B1276837B19A
:106480003846FFF7BDFF1021384602F030FA1421DC
:10649000204602F02CFA756003B0F0BD509C0D0050
:1064A000B3660D0084990D00B3630D0047F23051BF
:1064B000084AC160084902600022C0E90412074985
:1064C000C16107494260C0E908228161028580F804
:1064D0002A207047489A0D001D680D00E3630D00E7
:1064E00099630D0010B5044B044640F8103BFFF7CC
:1064F00087FF204610BD00BF489A0D0010B5034B22
:1065000003600446FFF7EEFF204610BD709A0D00B1
:1065100010B50446FFF7F2FF2046382102F0E7F9F4
:10652000204610BD806800F047BA806800F04CBA81
:1065300010B504460068FFF7F8FF204610BD13B5FC
:1065400004460190FFF7EEFFE36ADC88A4B20CB1C9
:1065500003F1080401A8FFF7EBFF204602B010BDCD
:1065600013B504460190FFF7DDFF94F8283043B9D6
:10657000E26A0124D38001A8FFF7DAFF204602B0C7
:1065800010BD0024F7E713B504460190FFF7CAFFDA
:10659000E36A01A8DC88FFF7CBFF204602B010BDFC
:1065A0002DE9F047994686B090F829309DF838A03B
:1065B0009DF83C8004460F46164613B903689B6855
:1065C0009847314B3846002E08BF1E4602F083FE26
:1065D0000546304602F07FFE284400F10A05AB076D
:1065E0001CBF25F0030504353346CDE90285CDE90E
:1065F000009A264926483A46FFF79AF9238E083B27
:10660000AB4212D20024204606B0BDE8F087CB880A
:10661000012B36D005A8FFF78BFF236894F82810CC
:106620009B69204698470028ECD020460594FFF748
:1066300079FFE16A228E636B0A44D21AAA42E6D33A
:1066400048EA0A0883F80480C3F80090636B03F1FA
:1066500008083946404602F019FE404602F03BFE6B
:1066600001303146404402F011FE636BE26A1D4482
:106670006563D3880133D380012405A8FFF758FF51
:10668000C1E70024F9E700BF709C0D0096990D004A
:10669000C0E5032008B5044600F11005A3690BB955
:1066A00002F02BF9E36921462846984700F074F977
:1066B000F4E708B5FFF7EEFF68B501F108050646F7
:1066C000284602F008FE01300544284602F003FE89
:1066D000F36A01302844C31A13F003031CBFC3F14B
:1066E0000403C01868BDF7B504460E460190FFF7D5
:1066F00019FFE76AFB8807F10805E6B1012B22D9EB
:1067000029462046FFF7D8FF054629462046FFF7D1
:10671000D3FF228E3A44121A0146A0EB050602D09E
:10672000284602F063FD636B9B1B6363FB88013BA0
:10673000FB80012601E0002BE7D101A8FFF7F8FE5E
:10674000304603B0F0BD0026F7E700002DE9F04722
:106750000D4604462F461646FFF7A8FE154B57F880
:10676000082B2360144BE5629A422686984617D17F
:10677000AB889BB2B34213D105EB060A67634FF0B7
:106780000009EB881FFA89F29BB29A420ED2616B24
:106790002046FFF791FF5045606309F10109F0D9E8
:1067A0000023C5F800806763AE80EB802046BDE81B
:1067B000F08700BF709A0D0061AB9CD110B5D1E994
:1067C000002386B00021044604910AB9D90705D5F3
:1067D000CDE902230F4B05930F4B049302AB93E8D3
:1067E00003006A4682E8030094E8030083E803009C
:1067F00092E80300049A84E80300A168A260059A65
:1068000004911846E168E2600591FFF7F9FD204622
:1068100006B010BDE3630D0099630D0007B5054B8D
:1068200000936946002310300193FFF7C7FF03B0C0
:106830005DF804FB65680D0013B5044600F004F92B
:10684000636AC01AE368984208D3054B009369460F
:10685000002304F110000193FFF7B0FF02B010BD58
:1068600065680D002DE9F04190F82A3086B00446A5
:10687000002B64D100F0EAFA002860D000F0E4F8C0
:10688000636AC01A40F2F133984258D9236820460F
:106890005B6998470546002851D000F1080701239D
:1068A00084F82830384602F016FD95F80480CDF8BB
:1068B000048001302B682B4900933E1833462A4848
:1068C0003A46FFF735F82B688DF800803246394696
:1068D00002A800F0CFFD029D6B781BB9012000F0EB
:1068E000B5FBF8E7002000F049FA20B16B7813B946
:1068F00000F09CFAFAE72B78012B23D11B491A48A8
:10690000FFF716F8236800219B692046984700236B
:1069100084F8283000F098F86062039C7CB16368CA
:10692000013B63605BB9236820469B689847A36876
:10693000013BA3601BB923682046DB68984706B07B
:10694000BDE8F081E2680A490748FEF7F1FF094B0C
:10695000049304A9002304F110000593FFF72EFF10
:10696000D5E700BFD7990D00C0E50320F8990D00C9
:106970000F9A0D0039680D00014B024A1A607047EA
:10698000C0E50320369A0D0008B5024B1B685B6812
:10699000019308BD4802030008B5024B1B68DB6881
:1069A000019308BD4802030008B5024B1B681B6B2E
:1069B000019308BD4802030008B5024B1B689B6B9E
:1069C000019308BD4802030008B5024B1B681B6C0D
:1069D000019308BD4802030008B5024B1B685B6CBD
:1069E000019308BD4802030008B5024B1B689B6C6D
:1069F000019308BD4802030008B5024B1B68DB6E1B
:106A0000019308BD4802030008B5024B1B685B6E8A
:106A1000019308BD3402030008B5024B1B685B6894
:106A2000019308BD1802030008B5024B1B689B6860
:106A3000019308BD1802030008B5024B1B68DB6810
:106A4000019308BD1802030008B5024B1B685B697F
:106A5000019308BD1802030008B5024B1B689B6D2B
:106A6000019308BD1802030008B5024B1B68DB6DDB
:106A7000019308BD1802030008B5024B1B685B6E4A
:106A8000019308BD1802030008B5024B1B689B6EFA
:106A9000019308BD1802030008B5024B1B681B6870
:106AA000019308BD2C02030008B5024B1B689B68CC
:106AB000019308BD2C02030008B5024B1B68DB687C
:106AC000019308BD2C02030008B5024B1B685B69EB
:106AD000019308BD2C02030008B5024B1B689B699B
:106AE000019308BD2C02030008B5024B1B68DB694B
:106AF000019308BD2C02030008B5024B1B68DB683C
:106B0000019308BD2802030008B5024B1B689B696E
:106B1000019308BD2802030008B5024B1B68DB691E
:106B2000019308BD2802030008B5024B1B681B6ACD
:106B3000019308BD2802030008B5024B1B685B6A7D
:106B4000019308BD2802030008B5024B1B689B6A2D
:106B5000019308BD2802030008B5024B1B68DB6ADD
:106B6000019308BD2802030008B5024B1B681B6B8C
:106B7000019308BD2802030008B5024B1B685B6B3C
:106B8000019308BD2802030008B5024B1B681B6C6B
:106B9000019308BD2802030008B5024B1B689B6CDB
:106BA000019308BD2802030008B5024B1B68DB6C8B
:106BB000019308BD2802030008B5024B1B681B6D3A
:106BC000019308BD2802030008B5024B1B685B69EE
:106BD000019308BD6402030008B5024B1B689B6863
:106BE000019308BD6802030008B5024B1B68DB680F
:106BF000019308BD6802030008B5024B1B68DB69FE
:106C0000019308BD3002030008B5024B1B681B6AE4
:106C1000019308BD3002030008B5024B1B681B68D6
:106C2000019308BD3C02030008B5024B1B68DB68FA
:106C3000019308BD3C02030008B5024B1B681B69A9
:106C4000019308BD3C02030008B5024B1B685B6959
:106C5000019308BD3C02030008B5024B1B689B6909
:106C6000019308BD3C02030008B5024B1B68DB69B9
:106C7000019308BD3C02030008B5024B1B681B6A68
:106C8000019308BD3C02030008B5024B1B689B6AD8
:106C9000019308BD3C02030008B5024B1B681B684A
:106CA000019308BD4C02030008B5024B1B681B6929
:106CB000019308BD4C02030008B5024B1B685B69D9
:106CC000019308BD4C02030008B5024B1B689B6989
:106CD000019308BD4C02030008B5024B1B68DB6939
:106CE000019308BD4C02030008B5024B1B681B6AE8
:106CF000019308BD4C02030008B5024B1B685B6B97
:106D0000019308BD6002030008B5024B1B681B6DB0
:106D1000019308BD6002030008B5024B1B685B6D60
:106D2000019308BD6002030008B5034B1B68D3F84C
:106D30009830019308BD00006002030008B5024BC3
:106D40001B681B68019308BD2002030008B5024BB5
:106D50001B685B68019308BD2002030008B5024B65
:106D60001B685B69019308BD2002030008B5024B54
:106D70001B68DB6A019308BD2002030008B5024BC3
:106D80001B68DB6C019308BD2002030008B5024BB1
:106D90001B685B6D019308BD2002030008B5024B20
:106DA0001B689B6D019308BD2002030008B5024BD0
:106DB0001B68DB6D019308BD2002030008B5034B7F
:106DC0001B68D3F88830019308BD0000200203003F
:106DD00008B5034B1B68D3F89430019308BD00003D
:106DE0002002030008B5034B1B68D3F8AC300193B5
:106DF00008BD00002002030008B5034B1B68D3F850
:106E0000B030019308BD00002002030008B5024B1A
:106E10001B681B68019308BD4402030008B5024BC0
:106E20001B685B68019308BD4402030008B5024B70
:106E30001B689B68019308BD4402030008B5024B20
:106E40001B68DB68019308BD4402030008B5024BD0
:106E50001B685B69019308BD4402030008B5024B3F
:106E60001B68DB69019308BD4402030008B5024BAF
:106E70001B681B6A019308BD4402030008B5024B5E
:106E80001B685B6A019308BD4402030008B5024B0E
:106E90001B68DB6A019308BD4402030008B5024B7E
:106EA0001B681B6B019308BD4402030008B5024B2D
:106EB0001B685B6B019308BD4402030008B5024BDD
:106EC0001B689B6B019308BD4402030008B5024B8D
:106ED0001B68DB6B019308BD4402030008B5024B3D
:106EE0001B685B6C019308BD4402030008B5024BAC
:106EF0001B685B68019308BD4002030008B5024BA4
:106F00001B689B68019308BD4002030008B5024B53
:106F10001B68DB68019308BD4002030008B5024B03
:106F20001B681B69019308BD4002030008B5024BB2
:106F30001B685B69019308BD4002030008B5024B62
:106F40001B689B69019308BD4002030008B5024B12
:106F50001B68DB69019308BD4002030008B5024BC2
:106F60001B681B6A019308BD4002030008B5024B71
:106F70001B681B6B019308BD4002030008B5024B60
:106F80001B685B6B019308BD4002030008B5024B10
:106F90001B681B68019308BD1C02030008B5024B67
:106FA0001B685B68019308BD1C02030008B5024B17
:106FB0001B689B68019308BD1C02030008B5024BC7
:106FC0001B681B69019308BD1C02030008B5024B36
:106FD0001B68DB69019308BD1C02030008B5024B66
:106FE0001B68DB6A019308BD1C02030008B5024B55
:106FF0001B681B6B019308BD1C02030008B5024B04
:107000001B685B6C019308BD1C02030008B5024BB2
:107010001B689B6C019308BD1C02030008B5024B62
:107020001B68DB6C019308BD1C02030008B5024B12
:107030001B681B6D019308BD1C02030008B5024BC1
:107040001B685B6D019308BD1C0203000021FFF764
:1070500085BE10B5836804460BB901F04EFCC368C9
:107060009847A3681BB10322214620469847204633
:107070001021BDE8104001F03ABC10B50368044689
:107080009B689847A368013BA3602BB923682046FF
:10709000DB68BDE81040184710BD10B50446006815
:1070A00008B1FFF7A1FC204610BD0B68036013B1C7
:1070B0005A6801325A60704710B50446006828B11A
:1070C0004368013B43600BB9FFF7D7FF204610BD73
:1070D00010B5064C002320462360FFF77DFC2046B8
:1070E000034A0449BDE8104001F0FCBBC4E503209D
:1070F000A8E303209B700D00002240681146FFF7B3
:107100000DBF002240681146FFF728BF00224068EB
:107110001146FFF733BF40680022FFF727BF4068E2
:10712000002281F00101FFF711BF002340681A46D9
:107130001946FFF703BF002340681A461946FFF7B8
:10714000F5BE002240681146FFF7D8BE4068002215
:107150000221FFF7DBBE002340681A46FFF7C6BED8
:10716000084B10B5282422461846002102F058F892
:10717000054B04804FF0FF32426004225A60034AFC
:107180001A6010BDD0E50320C8E50320989A0D00D1
:1071900070470020704710B51021044601F0A7FB8E
:1071A000204610BD08B5FFF7F6FF08BD30B5002238
:1071B0004FF69C74026084808D888C800C6885807A
:1071C00004600A6030BD10B504460068FFF7E6FEB3
:1071D000204610BD38B5C468F4B12378022B03D122
:1071E00004F10C00FFF7EFFF656835B12846FFF7A3
:1071F00007F91021284601F07AFBA56835B1284629
:10720000FFF7FEF81021284601F071FB20461421FB
:10721000BDE8384001F06BBB38BD10B588B00446FE
:10722000684600F022FE694604A800F041FE04A86A
:10723000A047044604A800F0CDFD684600F0CAFD52
:10724000204608B010BD1FB50023CDE90201019210
:1072500010241A4669461846ADF80230ADF80040D1
:10726000FFF7DCFD04B010BD07B50823ADF8003012
:1072700003688DF80230037A8DF8033000214368EB
:1072800001936846FFF72AFE03B05DF804FB73B56F
:107290000E46044656F8043B00930D4601A83146BD
:1072A000FFF703FF019A009B6260236001A800239F
:1072B00001930093FFF700FF3046FFF7FDFE2846DD
:1072C000082101F014FB204602B070BD13B50B4637
:1072D0000246D0E900016C4684E8030093E803000D
:1072E00082E8030094E8030083E8030002B010BDC5
:1072F000826810B50AB901F000FBBDE81040C36810
:10730000184708B5006800F11001FFF7F1FF08BD4C
:10731000826810B50AB901F0F0FABDE81040C36800
:10732000184708B5006800F11001FFF7F1FF08BD2C
:1073300038B500230446036010200D46FCF7ABFE71
:1073400028B10123C0E90133024B0360C56020600E
:10735000204638BDCC9A0D0038B5002383608B6879
:1073600004460D462BB102229847EB68E360AB68F8
:10737000A360204638BD0000F0B589B004686846B7
:10738000FFF714FF4FF00203D4E84F2F002A03D178
:10739000C4E8413F0029F7D125D104F10C05694625
:1073A0002846FFF703FFBFF35B8F012363700020C4
:1073B00004F10803BFF35B8F53E8006F43E800025A
:1073C000002AF9D1BFF35B8F6EB1FFF7D7FC78B11C
:1073D00029463046FFF78CFF3046FFF711F81021A1
:1073E000304601F084FA6846FFF7EDFE09B0F0BDC3
:1073F000314602A8FFF7B0FFE068B4F9105008B1B9
:1074000001F04CFF06901020ADF81C50FCF743FE35
:107410000546E8B1002787601820FCF73CFE0446CB
:1074200088B10146876002A8FFF750FF049BA2685D
:10743000A360059B049206A9E268E36004F11000D2
:107440000592FFF7B3FE084BEB60084B2C60AB6076
:1074500006A8FFF7B8FE02A8FEF7D2FF00222946D1
:107460000348FFF793FCB7E703730D0099750D0010
:1074700053700D002DE9F0478AB005469DF84890FD
:107480000C4617469846FFF7E1FC07AE824638BB2C
:107490004FF62E73059005A93046ADF81830FFF76A
:1074A00085FE1420FCF7F7FD044648B10223037063
:1074B0000123C0E901AA437031460C30FFF776FE84
:1074C0002846214640F8044BFFF732FF3046FFF7CD
:1074D0007AFE05A8FFF777FE28460AB0BDE8F087D8
:1074E0000C234FF0000A1420CDE908AA0793FCF7FB
:1074F000D2FD014628B1C0E901AA80F800A080F8B9
:1075000001A004A80391FFF713FF224B0893082062
:10751000FCF7C1FD824628B1039B40F8043B04A957
:10752000FFF7C3FD00965FFA89F3424639462046CD
:10753000CDF824A0FFF79AFCB8B9039B5B7803F061
:10754000FF0293B94FF69C7305A903A80592ADF805
:107550001830FFF711FF05A8FFF735FE05A80999B8
:10756000FFF795FE06A8FFF7A7FD039B059304A967
:1075700006A8FFF79AFD059B069A2B606A60002318
:1075800006A806930593FFF797FD04A8FFF794FD5F
:10759000A2E700BF5D760D00022AF8B5054607D0C8
:1075A000032A18D0012A01D10B6803600020F8BD1E
:1075B00018200E68FCF76FFD044650B13146FFF706
:1075C000CBFE3069B6F9147008B101F067FE206196
:1075D000A7822C60EAE70468002CE7D004F11000D1
:1075E000FFF7F1FD2046FEF70BFF1821204601F0C2
:1075F0007EF9DBE738B5002383608B6804460D46CF
:107600002BB102229847EB68E360AB68A360204689
:1076100038BD022A70B5044607D0032A12D0012AC9
:1076200001D10B680360002070BD14200E68FCF7C8
:1076300032FD054620B13146FFF7DCFF337C2B7469
:107640002560F0E70468002CEDD02046FEF7D8FE58
:107650001421204601F04BF9E5E70000F0B589B0B0
:1076600004460D4601A81146FFF711FEA4B124B24D
:107670001DB1284601F012FE054601A803A9039595
:10768000ADF81040FFF778FE03A8FFF79CFD02A8B5
:10769000FFF712FD09B0F0BD019D0123D5E84F2F82
:1076A000002A03D1C5E8413F0029F7D1EFD12B7360
:1076B000BFF35B8F6B702B1DBFF35B8F53E8006FC5
:1076C00043E80042002AF9D1BFF35B8F002EDED0E1
:1076D0002046FFF753FB074660B105F10C01304629
:1076E000FFF716FE3046FEF78BFE1021304601F004
:1076F000FEF8CCE7314603A8FFF77CFF2B7B8DF823
:107700001C301020FCF7C7FC0546D0B18760142060
:10771000FCF7C1FC044678B18760014603A8FFF777
:10772000D5FD059BA268A360069B0592E268E36015
:107730009DF81C3006922374064BEB60064B2C60C0
:10774000AB6003A8FEF75CFE002229460348FFF762
:107750001DFBC7E723730D0013760D0053700D005A
:10776000002240681146FFF7F9BB0022406811462D
:10777000FFF704BC40680022FFF7F8BB4068002216
:1077800081F00101FFF7E2BB002340681A46194669
:10779000FFF7D4BB002340681A461946FFF7C6BB63
:1077A000002240681146FFF7B9BB0022406811462D
:1077B000FFF7A4BB406800220221FFF7A7BB00230C
:1077C00040681A46FFF792BB024B03225A60024AF6
:1077D0001A607047F8E50320E89A0D007047F8B585
:1077E000064615460C468F18BC4206D0336814F87E
:1077F000011B9B6830469847F6E72846F8BD007C99
:107800000022FFF791B9007C0021FFF795B9007CB9
:107810000021FFF799B9007C0021FFF79DB9007C9A
:107820000021FFF7A1B910B51421044601F05FF85B
:10783000204610BD10B54FF47A7304460846002167
:10784000C4E90113034B236020741146FFF79CF930
:10785000204610BD1C9B0D000023007C1A461946D3
:10786000FFF74AB97FB500221423CDE90122ADF814
:1078700004300B788DF808304B680393CB68049381
:10788000007C0B7A059301A9FFF796F907B05DF824
:1078900004FB1FB5003B8DF800104FF0640103910D
:1078A00018BF0123694601928DF80830FFF7DAFF0F
:1078B00005B05DF804FB0123FFF7EBBF007C00225D
:1078C000FFF722B9C9B2FFF7F9BF7FB50023CDE9B1
:1078D00001334A6803921423CA68ADF804300B7868
:1078E00004920A7A0592007C8DF8083001AA1946A4
:1078F000FFF70AF907B05DF804FB007C0022FFF7F0
:107900000BB90121FFF7F9BF08B50021007CFFF793
:1079100043F9B0FA80F0400908BD08B50021007CA9
:10792000FFF742F9B0FA80F0400908BD00470000B7
:107930002DE9FF4100241D460F4690460646FFF7FD
:10794000D3F8A5424FF00403ADF80D408DF80C308C
:107950008DF80F40A2BF9DF828308DF80E3003AC93
:107960000749009443463A463046A8BF8DF80D506B
:10797000FFF7B2F8B0FA80F0400904B0BDE8F0813A
:107980002D790D00704710B51821044600F0AFFFA7
:10799000204610BDF0B5037D062B8DB00E4600F1DC
:1079A00004074FF0000412D000F1080515F8011D7E
:1079B0000A22304600F0D1F9AF42044419D0002C1D
:1079C000F4D02E21304600F0C5F90444EEE72F2311
:1079D0006A4639460A208DF80040FFF7F5F86846F8
:1079E00001F079FC33680246DB6869463046984707
:1079F000044620460DB0F0BD10B5054B04461122DB
:107A000040F8043B002101F00BFC204610BD00BFF4
:107A1000449B0D000346074A10B543F8042B01F1BF
:107A2000100251F8044B43F8044B9142F9D10A7803
:107A30001A7010BD449B0D0010B59DF8084044EA33
:107A4000032343EA024242EA0161042341600375D1
:107A500010BD13B5CB7800938B784A780978FFF77F
:107A6000EBFF02B010BD0000014B024A1A607047E4
:107A700000E60320509B0D00002340681A46FFF7E4
:107A800035BA406800220221FFF740BA0022406860
:107A90001146FFF733BA002240681146FFF73EBA9D
:107AA000002340681A461946FFF740BA0023406891
:107AB0001A461946FFF742BA4068002281F00101D8
:107AC000FFF744BA40680022FFF750BA002240682E
:107AD0001146FFF753BA002240681146FFF73EBA3D
:107AE0002DE9F043002495B016460D460746FFF7F2
:107AF00083FF214618220EA8009401F091FB402339
:107B0000CDE90C3421466B460CAA3046FFF76CF8E1
:107B10000446002846D1024601216868FFF7FEF9B5
:107B20000221804622466868FFF7F8F9009E8146E8
:107B30002146002E36D0002934D17368022B03D0A1
:107B40000A2B0BD0F669F4E7B8F1000F04D0716985
:107B500038460431FFF77DFF4146F3E7B9F1000FE6
:107B600001D14946EEE77469102201A801F058FBE3
:107B700006238DF8143001AD04F108031834186899
:107B800059682A4603C20833A3421546F7D101A912
:107B900006A807ADFFF73EFF0FCD3C1D0FC42B68B5
:107BA0002370DEE70098FFF717F8384615B0BDE8F8
:107BB000F0830000024B034A1A6000225A607047AB
:107BC00004E603205C9B0D0008B500F063FEBDE8F1
:107BD0000840FFF799BE10B50446017009B1FFF7E0
:107BE000F3FF204610BD08B500F054FEBDE8084084
:107BF000FFF793BE10B5037804460BB1FFF7F3FF10
:107C0000204610BD10B504460068FFF7ECFF204683
:107C100010BD30B587B00D460190FFF7D5FF6B233F
:107C20008DF808300023012403930A2305938DF86F
:107C3000104000F02FFE02A9FFF747FE00F02AFED9
:107C4000036829469B68984700F024FE2146FFF709
:107C500054FE039400F01EFE02A9FFF703FE00F09D
:107C600019FE03685B699847044601A8FFF7CAFF3D
:107C7000E0B207B030BD0021FFF7CBBF08B5FFF77A
:107C8000FAFF034B00F0070033F8100008BD00BFF7
:107C9000889B0D0008B50221FFF7BBFFC0F38700EA
:107CA000800100F5007008BD0421FFF7B2BF10B5D8
:107CB000FFF7FAFF02234FF45B62102140FA03F44E
:107CC000013304F00104082B01FB04224FEA4101B7
:107CD000F4D190B210BD13B504460190FFF774FFC4
:107CE00000212046FFF795FFC0F3C70401A8FFF766
:107CF00089FF04F00F0000EB8000000100F62870FF
:107D000002B010BDF8B506460D468F180024BD42DE
:107D10000CD0336815F8011B9B6830469847031E4A
:107D200001DB1C44F3E7002C08BF1C462046F8BDCD
:107D300013B50446084659B1019101F0CCFA236805
:107D40000199DB680246204602B0BDE810401847A2
:107D500002B010BD03689B68184730B58BB0002394
:107D60008DF82430012A98BF0A2209AC0D46B1FBD8
:107D7000F2F101FB125303F0FF03092B94BF3033E0
:107D80003733DBB2AA4204F8013DEFD92146FFF7B1
:107D9000CFFF0BB030BD10B50446FEF731FB2046D7
:107DA00010BD00000348044A04490023836000F02A
:107DB00099BD00BF0CE60320A8E30320977D0D00CA
:107DC00010B5044608462170FEF716FF00236360D5
:107DD000204610BD10B504460068FFF7DFF82046C6
:107DE00010BD10B50446006808B1FFF7D7F80023AE
:107DF000C4E90133236010BD38B504460D46006860
:107E00000131FFF7D3F810B1C4E90005012038BDF6
:107E100010B50368044623B143688B4201D30120A7
:107E200010BD2046FFF7E8FF0028F9D0A368002B1B
:107E3000F5D122681370F2E737B50D46114601926D
:107E40000446FFF7E5FF019A28B92046FFF7C9FF6E
:107E5000204603B030BDA2602946206801F0B8F981
:107E60002268A3680021D154F2E7002313B5C0E9CA
:107E7000003304468360037341B10846019101F069
:107E80002AFA019902462046FFF7D6FF204602B0A3
:107E900010BD884210B5044605D00B682BB18A6826
:107EA0001946FFF7C9FF204610BDFFF79AFFFAE712
:107EB00010B500230446C0E9003383600373FFF765
:107EC000E8FF204610BD08B582683AB921B10878AC
:107ED000B0FA80F0400900E0012008BD006809B94F
:107EE0000078F5E701F0C8F9F2E758B50E462AB177
:107EF00021B184689C4202D800230B7058BDE41A5B
:107F0000013A0168944228BF14461944224630467B
:107F100001F0E9F900233355F0E710B50446006895
:107F200018B1FFF73BF80023236010BD38B5B1F955
:107F3000043083800B460D4653F8062FC0F8062008
:107F40009B8843810446FFF7E8FF2B6813B1236049
:107F500000232B60204638BD38B50C460546FFF798
:107F6000DCFF44B12088FFF711F8286028B122888F
:107F7000214601F02DF9002038BD0148FCE700BF83
:107F8000FCFEFFFF07B50B460021024600910120D1
:107F90008C21FEF731FF03B05DF804FB01460020A1
:107FA000FFF7F0BF0020FFF7F9BF0000F0B52D4D3F
:107FB0000B7D04468BB00846AF1D002B38D00B68F4
:107FC0001B79002B34D00022274B049302A90430E4
:107FD0000292ADF80C208DF80E20FEF703FFDDF8BD
:107FE0000E30C5F8063000B2BDF81230ADF80C0006
:107FF000A8800299BB802846FFF7AEFF02A8FFF7D2
:108000008CFF00232360A380A37123814FF6FF73AD
:108010006381B5F90430A3803B68C4F80630BB889F
:10802000296863812046FFF797FF20460BB0F0BD1B
:1080300000262023CDE902360C4B00930C49334631
:1080400002AA3220FEF760FE074B049302A94FF606
:10805000F263044802968DF80E60ADF80C30FFF71D
:1080600065FFCBE71CE603200000FFFF9F9B0D0090
:10807000989B0D0010B5094B094C022200201A6094
:10808000084B2060A080A071A360FEF75FFE204631
:10809000054A0649BDE8104000F024BC28E603204C
:1080A0001CE603200000FFFFA8E303209B410D0016
:1080B0002DE9F041154ADFF86080D2E90032C0189E
:1080C00042EB0101124AD2E90032C61841EB020725
:1080D000D8E90023BB4208BFB2428CB013D003A939
:1080E0006846CDE90067FEF799FF089B094D03F24A
:1080F0006C7303AC08930FCC0FC50FCC0FC5C8E948
:10810000006723682B600CB0BDE8F08160E60320B7
:1081100058E6032034E6032068E6032008B5002073
:10812000FEF7BCFE28B1FEF791FE80F00100C0B260
:1081300008BD0120FCE71FB502460B46684600213A
:10814000CDE90023CDE90211FEF79EFC024610B9ED
:108150000146FEF72BFE05B05DF804FB30B5044682
:108160001848D0E90010521840EB03031648D0E934
:108170000010521893B040EB0303CDE900232422F2
:108180000DEB0200002101F04BF8002509A968461B
:10819000FEF744FF1622294603A8029501F040F895
:1081A00002A909A800F0CAFF02A801F094F812ABD6
:1081B000184402A900F8415C2046FFF756FE20460D
:1081C00013B030BD60E6032058E603202DE9F04FE0
:1081D000A5B00746884614A811463F221D4601F067
:1081E00082F8002314A88DF88F3001F074F804464B
:1081F0005DBB2A4903A801F049F814AE002504F13B
:10820000FF3BAB4536D9B14605F1010A19F8013BF0
:10821000252B17D173787A2B14D103A801F05BF8C2
:1082200014AB044628181844ABEB0502B11C00F04F
:10823000CFFF224603A9304600F0CAFF14A801F080
:108240004AF804464E465546D9E73C2195FBF1F3E2
:10825000002BB8BF5B42B3FBF1F201FB123300937A
:108260000F4A4FF46163102103A895FBF3F3FEF767
:10827000ADFEC2E700212E2208A8079100F0D0FF32
:10828000434614AA322107A8FEF7C0FE07A93846C4
:10829000FFF7EBFD384625B0BDE8F08FC69B0D001B
:1082A000C89B0D00F0B58DB0CDE90023129D0446AA
:1082B00015B9194B1D682DB1184B2846196800F0E7
:1082C000DBFF38B9DDE900232046FFF747FF2046F2
:1082D0000DB0F0BD124E0099124FD6E900325B1876
:1082E000019941EB0202D7E900011B1841EB0202A0
:1082F000CDE900320021242203A800F091FF03A958
:108300006846FEF78BFE32683B6803A9134420469B
:108310002A46FFF75BFFDAE730E6032040E303205D
:1083200060E6032058E6032010B50020FEF794FB1A
:108330000446A0B9FEF702FD012810D12046FEF741
:108340002DFD60B9FFF7EAFE10B9FEF76FFDF9E702
:10835000FFF7E4FEBDE810400020FEF77DBB20469D
:1083600010BD1FB5FFF7E0FF10220021684600F0A6
:1083700057FF00216846FEF77FFB009805B05DF8C7
:1083800004FB000008B5FFF7ECFFC117FFF790FEF4
:10839000014B986808BD00BF34E6032008B5FFF71D
:1083A000E0FFC117FFF784FE014B586908BD00BF0D
:1083B00034E60320024B1A68024B1A60704700BF74
:1083C00040E3032030E6032070474174704708B54E
:1083D000007CFEF759FC20EAE07008BD08B5007C7F
:1083E000FEF72AFC20EAE07008BD08B5007CFEF725
:1083F00033FC40EAE07008BD08B5007CFEF724FCC1
:1084000040EAE07008BD007CFEF72EBC37B5457C25
:1084100004462DB1207C03B0BDE83040FEF704BC1B
:10842000007C0191FEF730FC00280199F2DC28461F
:1084300003B030BD10B51421044600F058FA2046B0
:1084400010BD000010B54FF0000C04460846114660
:108450004FF47A72C4E901C2044A226001222074F6
:1084600062741A46FEF7D8FB204610BDF89B0D003B
:1084700013B50E4C2178BFF35B8F11F0010112D1BF
:1084800020460191FBF718FE019960B1084A094B9B
:108490000948FFF7D7FF2046FBF713FE074A0849B4
:1084A000054800F01FFA044802B010BD70E6032032
:1084B00074E60320F8E603207CE70320A8E303200A
:1084C000C9830D0041747047704708B50021007CD6
:1084D000FEF7FAFB40EAE07008BD08B50121007C18
:1084E000FEF7F2FB40EAE07008BD08B5007CFEF73D
:1084F000E3FB20EAE07008BD08B5007CFEF7D4FB82
:1085000020EAE07008BD13B50446007C0191FEF737
:10851000D3FB0028019901DC607C20B1207CFEF7B0
:10852000DBFB20EAE07002B010BD007CFEF7DCBB94
:1085300010B51421044600F0DAF9204610BD000001
:1085400010B54FF47A73044608460021C4E90113BC
:10855000044B23600123207463741146FEF79CFBD7
:10856000204610BD289C0D0010B5142204460021A1
:1085700000F056FE204610BD10B5104C88B003A880
:10858000FFF7F2FF2178BFF35B8F11F0010111D1EA
:1085900020460191FBF790FD019958B103AA0848C4
:1085A000FFF7CEFF2046FBF78CFD064A064904483C
:1085B00000F098F9024808B010BD00BF90E7032012
:1085C00094E70320A8E30320C9840D00014B186041
:1085D000704700BF44E3032008B50B4B43B1FFF7DE
:1085E000CBFF03681B699847002801DDAFF30080CB
:1085F000064B43B1FFF73CFF03681B69984700280F
:1086000001DDAFF3008008BD0000000000000000A5
:1086100008B5FFF7E1FFFEF717FA014B186008BD38
:10862000BCE703200248034A0349121A00F0D0BDF8
:1086300000F4032004FC0320E09D0D0007B5002397
:1086400000931A466FF07701FEF7C2FB03B05DF8A6
:1086500004FB000007B543880A2B08D0502B0BD130
:10866000094B1B684BB103B05DF804EB1847FFF7EB
:10867000E5FF03B05DF804FB002300931A466FF09A
:108680007701FEF7A5FBF4E7ACE7032038B5124C01
:108690001248134D0021FEF7B1FC2368AB42114B89
:1086A0000CBF012200221A7002D0FFF7BBFF256029
:1086B000FEF7B2F9044600F0BBFD0B4B13B12046A8
:1086C000AFF3008000210848FEF700FCBDE8384009
:1086D00006480021FEF772BB00FC0320CD850D008B
:1086E0001E1C279AA8E703200000000055860D00F5
:1086F00008B5024B1B681B68019308BD5C020300B0
:1087000008B5024B1B685B68019308BD5C0203005F
:1087100008B5024B1B689B68019308BD5C0203000F
:10872000232813B502D9002002B010BDA0F10B031D
:10873000022B1AD8174C2178BFF35B8F11F001017F
:108740000BD120460191FBF7B7FC019928B11248E3
:10875000FFF736FB2046FBF7B4FC0F4B1878FEF70B
:1087600053FA0028DFD10120DEE7012809D800F004
:1087700069F80021007CFEF7FFF980F00100C0B22B
:10878000D2E709380128EED8FFF772FE007CFEF729
:1087900073FAF2E7B0E70320B4E70320232838B5E3
:1087A00004460D460AD8FF2908D0FFF7B9FF28B1C3
:1087B00029462046BDE83840FEF776B938BD10B5E9
:1087C0000446FEF779F9031FDBB2012B08D92046D6
:1087D000FFF7A6FF20B12046BDE81040FEF774B9B0
:1087E000002010BD38B50023202543801423044603
:1087F0000380856005610649284600F07CF804493D
:108800006060284600F077F8E060204638BD00BF81
:10881000509C0D0038B500232025438014230446C6
:108820000380856005610649284600F064F8044924
:108830006060284600F05FF8E060204638BD00BF69
:10884000509C0D0030B50F4D2978BFF35B8F11F0B0
:10885000010487B013D12846FBF72EFC78B101A89C
:10886000FFF7C0FF01AA21460748FEF7E3FF2846AD
:10887000FBF727FC054A0649034800F033F8024895
:1088800007B030BDC0E70320C8E70320A8E30320FA
:10889000DD770D0010B50F4C2378BFF35B8FDB073E
:1088A00086B013D42046FBF707FC78B101A8FFF788
:1088B000B1FF01AA01210848FEF7BCFF2046FBF7E3
:1088C00000FC064A0649044800F00CF8024806B0CD
:1088D00010BD00BFC4E70320DCE70320A8E30320AA
:1088E000DD770D000B460146184600F051BCFBF742
:1088F000D6BBFBF7D0BBFBF7D0BB08B5FEF76EFBD2
:1089000081F0004102E000BF83F0004330B54FEA40
:1089100041044FEA430594EA050F08BF90EA020FAD
:108920001FBF54EA000C55EA020C7FEA645C7FEA40
:10893000655C00F0E2804FEA5454D4EB5555B8BF63
:108940006D420CDD2C4480EA020281EA030382EAD4
:10895000000083EA010180EA020281EA0303362D66
:1089600088BF30BD11F0004F4FEA01314FF4801C39
:108970004CEA113102D0404261EB410113F0004F4B
:108980004FEA03334CEA133302D0524263EB430302
:1089900094EA050F00F0A780A4F10104D5F1200EA0
:1089A0000DDB02FA0EFC22FA05F2801841F10001FB
:1089B00003FA0EF2801843FA05F359410EE0A5F1CF
:1089C00020050EF1200E012A03FA0EFC28BF4CF000
:1089D000020C43FA05F3C01851EBE37101F00045B6
:1089E00007D54FF0000EDCF1000C7EEB00006EEBC3
:1089F0000101B1F5801F1BD3B1F5001F0CD349084D
:108A00005FEA30004FEA3C0C04F101044FEA4452A3
:108A100012F5800F80F09A80BCF1004F08BF5FEA2A
:108A2000500C50F1000041EB045141EA050130BD0A
:108A30005FEA4C0C404141EB0101013C28BFB1F51C
:108A4000801FE9D291F0000F04BF01460020B1FA67
:108A500081F308BF2033A3F10B03B3F120020CDA3A
:108A60000C3208DD02F1140CC2F10C0201FA0CF018
:108A700021FA02F10CE002F11402D8BFC2F1200C7D
:108A800001FA02F120FA0CFCDCBF41EA0C01904033
:108A9000E41AA2BF01EB0451294330BD6FEA04047C
:108AA0001F3C1CDA0C340EDC04F11404C4F1200267
:108AB00020FA04F001FA02F340EA030021FA04F379
:108AC00045EA030130BDC4F10C04C4F1200220FAD0
:108AD00002F001FA04F340EA0300294630BD21FA0E
:108AE00004F0294630BD94F0000F83F4801306BFD4
:108AF00081F480110134013D4EE77FEA645C18BFC8
:108B00007FEA655C29D094EA050F08BF90EA020F5E
:108B100005D054EA000C04BF1946104630BD91EA56
:108B2000030F1EBF0021002030BD5FEA545C05D159
:108B30004000494128BF41F0004130BD14F5800498
:108B40003CBF01F5801130BD01F0004545F0FE410C
:108B500041F470014FF0000030BD7FEA645C1ABF41
:108B6000194610467FEA655C1CBF0B46024650EA78
:108B7000013406BF52EA033591EA030F41F40021A4
:108B800030BD00BF90F0000F04BF0021704730B52A
:108B90004FF4806404F132044FF000054FF00001FF
:108BA00050E700BF90F0000F04BF0021704730B5C0
:108BB0004FF4806404F1320410F0004548BF404295
:108BC0004FF000013EE700BF42004FEAE2014FEAEA
:108BD00031014FEA02701FBF12F07F4393F07F4FC5
:108BE00081F06051704732F07F4208BF704793F0C8
:108BF0007F4F04BF41F40021704730B54FF46074DB
:108C000001F0004521F000411CE700BF50EA0102DD
:108C100008BF704730B54FF000050AE050EA010286
:108C200008BF704730B511F0004502D5404261EBF6
:108C300041014FF4806404F132045FEA915C3FF437
:108C4000D8AE4FF003025FEADC0C18BF03325FEAD4
:108C5000DC0C18BF033202EBDC02C2F1200300FA85
:108C600003FC20FA02F001FA03FE40EA0E0021FAAA
:108C700002F11444BDE600BF70B54FF0FF0C4CF498
:108C8000E06C1CEA11541DBF1CEA135594EA0C0F4A
:108C900095EA0C0F00F0DEF82C4481EA030621EA85
:108CA0004C5123EA4C5350EA013518BF52EA0335C0
:108CB00041F4801143F4801338D0A0FB02CE4FF072
:108CC0000005E1FB02E506F00042E0FB03E54FF0A2
:108CD0000006E1FB03569CF0000F18BF4EF0010E9A
:108CE000A4F1FF04B6F5007F64F5407404D25FEA96
:108CF0004E0E6D4146EB060642EAC62141EA555149
:108D00004FEAC52040EA5E504FEACE2EB4F1FD0C8A
:108D100088BFBCF5E06F1ED8BEF1004F08BF5FEA08
:108D2000500E50F1000041EB045170BD06F00046BA
:108D300046EA010140EA020081EA0301B4EB5C0467
:108D4000C2BFD4EB0C0541EA045170BD41F480115F
:108D50004FF0000E013C00F3AB8014F1360FDEBF84
:108D6000002001F0004170BDC4F10004203C35DA60
:108D70000C341BDC04F11404C4F1200500FA05F3E3
:108D800020FA04F001FA05F240EA020001F0004284
:108D900021F0004110EBD37021FA04F642EB0601FA
:108DA0005EEA430E08BF20EAD37070BDC4F10C0424
:108DB000C4F1200500FA04F320FA05F001FA04F2E8
:108DC00040EA020001F0004110EBD37041F10001D4
:108DD0005EEA430E08BF20EAD37070BDC4F12005DF
:108DE00000FA05F24EEA020E20FA04F301FA05F247
:108DF00043EA020321FA04F001F0004121FA04F2EF
:108E000020EA020000EBD3705EEA430E08BF20EABE
:108E1000D37070BD94F0000F0FD101F000464000F8
:108E200041EB010111F4801F08BF013CF7D041EA7A
:108E3000060195F0000F18BF704703F0004652007E
:108E400043EB030313F4801F08BF013DF7D043EA4F
:108E50000603704794EA0C0F0CEA135518BF95EA05
:108E60000C0F0CD050EA410618BF52EA4306D1D18C
:108E700081EA030101F000414FF0000070BD50EAAB
:108E8000410606BF1046194652EA430619D094EA35
:108E90000C0F02D150EA013613D195EA0C0F05D11F
:108EA00052EA03361CBF104619460AD181EA030173
:108EB00001F0004141F0FE4141F470014FF000002B
:108EC00070BD41F0FE4141F4780170BD70B54FF0C6
:108ED000FF0C4CF4E06C1CEA11541DBF1CEA135546
:108EE00094EA0C0F95EA0C0F00F0A7F8A4EB050428
:108EF00081EA030E52EA03354FEA013100F088801F
:108F00004FEA03334FF0805545EA131343EA1263E7
:108F10004FEA022245EA111545EA10654FEA00269C
:108F20000EF000419D4208BF964244F1FD0404F555
:108F3000407402D25B084FEA3202B61A65EB0305B1
:108F40005B084FEA32024FF480104FF4002CB6EB6E
:108F5000020E75EB030E22BFB61A754640EA0C00EE
:108F60005B084FEA3202B6EB020E75EB030E22BF2E
:108F7000B61A754640EA5C005B084FEA3202B6EB6F
:108F8000020E75EB030E22BFB61A754640EA9C002E
:108F90005B084FEA3202B6EB020E75EB030E22BFFE
:108FA000B61A754640EADC0055EA060E18D04FEABC
:108FB000051545EA16754FEA06164FEAC30343EA5C
:108FC00052734FEAC2025FEA1C1CC0D111F4801F29
:108FD0000BD141EA00014FF000004FF0004CB6E722
:108FE00011F4801F04BF01430020B4F1FD0C88BFC1
:108FF000BCF5E06F3FF6AFAEB5EB030C04BFB6EBCC
:10900000020C5FEA500C50F1000041EB045170BDBE
:109010000EF0004E4EEA113114EB5C04C2BFD4EBEB
:109020000C0541EA045170BD41F480114FF0000E6F
:10903000013C90E645EA060E8DE60CEA135594EAEB
:109040000C0F08BF95EA0C0F3FF43BAF94EA0C0FEE
:109050000AD150EA01347FF434AF95EA0C0F7FF463
:1090600025AF104619462CE795EA0C0F06D152EAB7
:1090700003353FF4FDAE1046194622E750EA41069B
:1090800018BF52EA43067FF4C5AE50EA41047FF4AC
:109090000DAF52EA43057FF4EBAE12E74FEA41020F
:1090A000B2F1E04324BFB3F5001CDCF1FE5C0DD946
:1090B00001F0004C4FEAC0024CEA5070B2F1004F90
:1090C00040EB830008BF20F00100704711F0804F93
:1090D00021D113F13872BCBF01F00040704741F458
:1090E00080114FEA5252C2F11802C2F1200C10FA5C
:1090F0000CF320FA02F018BF40F001004FEAC12340
:109100004FEAD32303FA0CFC40EA0C0023FA02F3E3
:109110004FEA4303CCE77FEA625307D150EA0133B9
:109120001EBF4FF0FE4040F44000704701F0004089
:1091300040F0FE4040F40000704700BF10B50C4600
:1091400041690369826986B001F26C71049101681A
:1091500003914168029181680191C16800910749BA
:1091600003EB43030B44064902EB42020A44204648
:109170000449FDF723FF204606B010BD869C0D0074
:10918000719C0D00519C0D000A22002100F038B99D
:1091900010B5054C13462CB10A4601460220AFF328
:1091A000008010BD2046FCE70000000038B5074BEA
:1091B0001D68EB6B04461BB92420FDF7E7FEE8634E
:1091C000E96B2046BDE83840FDF730BF44E303209B
:1091D0000A44914200F1FF3300D1704710B511F8F5
:1091E000014B03F8014F9142F9D110BD884210B5EF
:1091F00001EB020402D98442234607D8431EA14250
:1092000008D011F8012B03F8012FF8E702440146BA
:109210008A4200D110BD13F8014D02F8014DF7E765
:1092200002440346934200D1704703F8011BF9E75B
:1092300038B50D4B1D68AB6B04467BB91820FDF7A4
:10924000A5FE0A4A0A4BA863C0E90023094B8360C4
:109250000B23838101220023C0E90423AB6B00228E
:109260001C615A6138BD00BF44E303200E33CDAB0F
:1092700034126DE6ECDE050010F8012B11F8013B0D
:10928000012A28BF9A42F7D0D01A7047034611F836
:10929000012B03F8012B002AF9D17047024B01463C
:1092A000186800F003B800BF44E3032037B5044654
:1092B00008460D4600F00FF8421C11462046019268
:1092C000FDF794FE044618B1019A2946FFF780FF86
:1092D000204603B030BD034613F8012B002AFBD112
:1092E000181A0138704710B50139034632B111F828
:1092F000014F03F8014B013A002CF7D11A44002129
:10930000934200D110BD03F8011BF9E72DE9F047A6
:109310003A4E86468C4660461CF8014BA55D15F01A
:109320000805F8D12D2C33D19CF800404FF00108EE
:1093300000F1020C002B5CD0102B0CD1302C0AD188
:109340009CF8000000F0DF0058284DD19CF8014047
:1093500010230CF1020C08F10047013F0026B7FB77
:10936000F3F9304603FB197AA4F13005092D18D81A
:109370002C46A34224DD751C07D081451DD301D1A5
:10938000A2451ADB00FB034001261CF8014BEBE76A
:109390002B2C08BF9CF80040A84608BF00F1020C27
:1093A000C8E7A4F14105192D01D8373CE1E7A4F144
:1093B0006105192D04D8573CDBE74FF0FF36E4E791
:1093C000731C06D12223CEF80030384642B9BDE8DE
:1093D000F087B8F1000F00D04042002AF7D00EB15C
:1093E0000CF1FF311160F2E73024002BB3D10823D8
:1093F000B1E7302CA4D00A23ADE700BFAB9C0D0031
:1094000013460A46014602480068FFF77FBF00BFC7
:1094100044E3032021400D005D400D0085400D0018
:1094200089400D0000000000756E6B6E6F776E0056
:1094300076696E0075736220686F7374007573626D
:10944000206164617074657200757362206F746767
:10945000006261747465727900556E6B6E6F776E21
:10946000004E6F74204368617267696E67004368DD
:109470006172676564004469736368617267696EED
:1094800067004661756C74004469636F6E6E656356
:109490007465640031342E30300031004E6F20444A
:1094A00061746100556269646F747320486F6F6BFB
:1094B00000526573706F6E736520526563656976DF
:1094C0006564005374617465005365742056657259
:1094D000626F7365204D6F646500436C65617265F2
:1094E0006420566572626F7365204D6F646500532A
:1094F000657420746F203372642050617274792017
:1095000053696D0053657420746F205061727469E3
:10951000636C652053696D004B65657020416C6913
:1095200076652073657420746F20256920736563E8
:10953000004B65657020416C697665004C6F616415
:10954000696E672053797374656D20446566617533
:109550006C7473007B2254656D70657261747572F2
:1095600065223A25342E31662C202248756D6964B7
:10957000697479223A25342E31662C2020224C75CC
:1095800078223A25342E31662C20202257686974BF
:1095900065223A25342E31662C202022414C53225C
:1095A0003A25342E31662C22426174746572792218
:1095B0003A25697D00474C455F484F4F4B00467246
:1095C0006F6D20257320746F2025730053746174B0
:1095D00065205472616E736974696F6E0025342E54
:1095E00031662A430025342E31662525004C7578D6
:1095F000203A2025342E3166005768697465203A78
:109600002025342E316600414C53203A2025342E3B
:1096100031660025692025250056494E20566D6982
:109620006E3A2025750056494E20496D61783A20E2
:10963000257500496368673A20257500497465728D
:109640006D3A20257500506F77657220736F7572C3
:1096500063653A202573004572726F722074616BE6
:10966000696E67204D6561737572656D656E7473A3
:1096700000737061726B2F6465766963652F736523
:109680007373696F6E2F656E64004572726F72201E
:109690005374617465202D205265736574005265A2
:1096A0006C656173650074656D7065726174757267
:1096B000650068756D6964697479004C7578005748
:1096C000686974650052617720414C530056494ED9
:1096D00020566D696E0056494E20496D61780049EB
:1096E0006368672000497465726D2000506F77656C
:1096F00072536F75726365004261747465727900AC
:1097000042617474657279436F6E74657874004B4E
:1097100065657020416C69766520536563004D6511
:1097200061737572652D4E6F7700566572626F7347
:10973000652D4D6F6465004572726F72202D205348
:109740004854333120496E697469616C697A617477
:10975000696F6E004572726F72202D2056454D4C18
:1097600020496E697469616C697A6174696F6E0011
:1097700053746172747570000000000000000000F6
:1097800039410D004D410D0015640D00A1650D001E
:1097900061650D003F650D00E7660D0087650D00F2
:1097A000000000000000000061410D0075410D0047
:1097B000F9590D008F5A0D00115B0D0059940D00E1
:1097C00061940D0065940D006E940D0076940D006B
:1097D00082940D0088940D0028940D0030940D00A3
:1097E00034940D003D940D0049940D0051940D00EA
:1097F0005374617274757020537563636573736617
:10980000756C000000000000000000000000000077
:109810000000000000000000000000000000000048
:109820000000000000000000000000000000000038
:109830000400000077726974654461746120666198
:10984000696C656420647572696E67206572617306
:1098500065206672616D416464723D25750000008B
:10986000000000000000000019590D001B590D00F8
:10987000F9590D008F5A0D00115B0D006465766972
:10988000636552656164206661696C656420737408
:1098900061743D2564007365742054696D652066AC
:1098A000726F6D205254432025730064657669639E
:1098B000655772697465206661696C6564207374AC
:1098C00061743D25640073657420525443206672B0
:1098D0006F6D20636C6F756420257300636C6F750A
:1098E000642074696D65206E6F742076616C6964A4
:1098F00000646576696365577269746545455052C1
:109900004F4D206661696C656420737461743D25F8
:1099100064006170702E727463000000000000002B
:1099200000000000D15B0D00E75B0D00C15B0D0086
:10993000C55B0D00115C0D00F95E0D0019610D0095
:109940000000000000000000D55B0D00D95B0D0099
:109950000000000000000000D35B0D00F55B0D006F
:10996000C95B0D00CD5B0D00115C0D00335F0D0078
:1099700059630D000000000000000000D75B0D00DF
:10998000035C0D005075626C69736851756575658F
:109990004173796E63007175657565696E672065E1
:1099A00076656E744E616D653D25732064617461EA
:1099B0003D25732074746C3D256420666C6167736B
:1099C000313D256420666C616773323D25642073E8
:1099D000697A653D2564007075626C697368696EAB
:1099E000672025732025732074746C3D25642066E0
:1099F0006C6167733D2578007075626C697368658A
:109A000064207375636365737366756C6C7900703D
:109A100075626C6973686564206661696C65642C45
:109A20002077696C6C20726574727920696E2025CC
:109A30006C75206D73006170702E7075627100001E
:109A40000000000000000000000000000000000016
:109A500015640D00A5400D00A5400D00A5400D00AA
:109A6000A5400D00A5400D00000000000000000012
:109A7000FD640D0011650D0015640D00A1650D005C
:109A800061650D003F650D00E7660D0087650D00FF
:109A9000000000000000000057710D004D710D0026
:109AA00043710D00F9700D0037710D002B710D0021
:109AB0001F710D0017710D000D710D0003710D0068
:109AC000E17A0D00000000000000000091710D001F
:109AD00097710D00D5710D00A5710D0093710D00EA
