:02000002D0002C
:1040000000400D00ECA50D00000006000D000501AC
:084010000401DB0700000000C1
:04401800E8920D001D
:1040200009480A49884208B505D0094A824202D0A7
:10403000121A05F037F80748074A0021121A05F04E
:1040400059F8014808BD00BFD4E2032084A40D0044
:1040500010E4032010E40320F0E7032070B5074EBE
:10406000074C04F0BDFAA41BA4080025A54200D10A
:1040700070BD56F8043B98470135F7E7509C0D009A
:104080007C9C0D0000F0E0BE08B500F03DFDBDE8F1
:10409000084004F067BA02F0C5BF02F0C3BF02F0E7
:1040A000C9BF000008B5034A00210C2002F070FED1
:1040B000FEE700BFD16A0D000078B0FA80F0400939
:1040C0007047012303707047014B01221A7070473B
:1040D000B8E5032010B503682F2B044604D9074A1E
:1040E00000210A2002F054FE23681F2B83BF03F037
:1040F0001F03034823604FF0A04010BDD16A0D009C
:104100000003005008B5044903F09FFE18B1034BAB
:1041100003221A70012008BD3D930D0040E50320E5
:1041200038B50446006928B185680C2104F049FBC4
:104130002846F8E7204638BD10B5034B0360044617
:1041400002F050F9204610BD4C960D0010B5044603
:10415000FFF7F2FF2046382104F033FB204610BD64
:1041600010B5034B0360044601F04AFB204610BD26
:1041700074960D0010B50446FFF7F2FF204610219B
:1041800004F01FFB204610BD10B50446006818B1AE
:1041900002F050FF0023236010BD10B50446FFF766
:1041A000F3FF204610BD0023042202F07BBE000076
:1041B000F8B5037D05460F4616468BB10368DB68EC
:1041C00083B19A88012A06D09B68F9E79B684BB1B6
:1041D0009A88012AFAD12BB19A89BA42F6D19E73F4
:1041E0002846F8BD0A49102004F0EDFA044668B1EB
:1041F0001022002104F07EFF064B23600123A380E0
:104200002B69A360A781A6732C61E9E72875E7E70E
:10421000F49A0D001000030070B5037D05460E46AC
:10422000CBB10368DB6823B19A88042A17D09B6856
:10423000F9E70C49102004F0C6FA044668B11022D0
:10424000002104F057FF084B23600423A3802B694F
:104250002C61C4E90236284670BD2875FBE7DE6094
:10426000F9E700BFF49A0D001000030007B508221B
:104270000023ADF800204FF47A71012201924143EE
:104280006A461846ADF8023002F064FE03B05DF8ED
:1042900004FB0000F7B5324D324C2B78BFF35B8F37
:1042A000060171B3D80709D42846FFF705FF28B1E6
:1042B00002F03EFC20602846FFF703FF23689B5D69
:1042C0005F012B78BFF35B8FD90709D42448FFF730
:1042D000F3FE28B102F02CFC20602148FFF7F1FE2C
:1042E0002068064401A8737803F01F033B43019341
:1042F000FFF7F0FE019A01239340C0F8083503B0A0
:10430000F0BDDA0709D42846FFF7D6FE28B102F03F
:104310000FFC20602846FFF7D4FE23689B5D5F01F9
:104320002B78BFF35B8FDB0709D40D48FFF7C4FE82
:1043300028B102F0FDFB20600948FFF7C2FE2068AB
:10434000064401A8737803F01F033B430193FFF772
:10435000C1FE019A01239340C0F80C35CFE700BF9E
:1043600014E4032018E4032037B504689DF81850BE
:104370008DF800308DF80450E4683C23A04703B06A
:1043800030BD000010B50B7892B00C467BB91949CE
:1043900002A804F0E5FE00238DF80030164B174903
:1043A0001B78174802AAFFF7DFFF12B010BD0846BE
:1043B00004F054FEC8280ED1124902A804F0D0FE21
:1043C00003F079FF104B9861104B01221A70104BCB
:1043D00000221A70DFE7204604F040FEC928EBD027
:1043E000204604F03BFE0B4A0346402102A802F09F
:1043F00039FED0E73F930D0039E4032076930D009A
:10440000B0E4032047930D004CE5032068E503204A
:1044100074E4032059930D0037B51649054603F09F
:1044200014FD044688B1144B144A1549154801245B
:104430005C7200238DF80030134B1B78FFF794FF5C
:10444000124B20461C7003B030BD1149284603F0C2
:10445000FCFC0028F7D0084B0E4A5C720A4B8DF822
:1044600000401B7806490748FFF77EFF074B0120F5
:104470001870E8E73D930D004CE5032083930D0091
:10448000A4930D00B0E4032039E4032068E5032081
:104490003B930D0094930D0037B51849054603F082
:1044A000D4FC0446B8B1164B012258685A70FFF785
:1044B000DDFE02F017FD48B100238DF80030114BEE
:1044C000114A1B7811491248FFF74EFF114B01208A
:1044D000187003B030BD1049284603F0B6FC002820
:1044E000F7D0074B5C7002F0FDFC0028EED0054BC6
:1044F0008DF800401B78094AE4E700BF3D930D00AA
:104500004CE5032039E40320A9930D00A4930D008A
:10451000B0E4032068E503203B930D00BE930D003B
:1045200010B5C4B000680A2203A904F0D3FEB0F5A8
:10453000966F1AD80E4C606002F0D4FC80B16368AC
:104540000C4A4FF4807104A802F08CFD00238DF812
:104550000030094B09491B78094804AAFFF704FFFA
:10456000084B0120187044B010BD0020FBE700BFCD
:104570004CE50320D2930D0039E40320EB930D00AA
:10458000B0E4032068E5032007B502F0ABFC48B1B6
:1045900000238DF800300B4B0B4A1B780B490C485D
:1045A000FFF7E2FE0B4A0C487823536000230121F9
:1045B000537293721C23118003B05DF804EB01F079
:1045C000DAB900BF39E40320F6930D00A4930D007F
:1045D000B0E403204CE5032078E40320084B5A683C
:1045E000B2F5966F84BF4FF416725A605A69FF2A6B
:1045F00084BF00225A61034B01221A70704700BF2A
:104600004CE5032068E5032008B501210520FFF7EC
:1046100041FE00210520FFF73DFE024B00221A70EB
:1046200008BD00BFB8E5032010B51A4CA6B0236A38
:10463000E0690A9304F032FACDE90801A06904F0B8
:104640002DFACDE90601606904F028FACDE90401EC
:10465000206904F023FACDE90201E06804F01EFAB3
:104660000D4ACDE9000164210DA802F0FBFC0023F6
:104670008DF80030094B0A491B780A480DAAFFF74C
:1046800073FE094B01221A7002F02AFA074B1860D8
:1046900026B010BD0CE503200E940D0039E4032074
:1046A0006F940D00B0E4032074E40320BCE5032004
:1046B00030B5114D114C12492A7820788DB01A234B
:1046C00003FB0212009203FB00130E4A282102A8EA
:1046D00002F0C8FC2B78237002F004FC48B10023E0
:1046E0008DF80030084B09491B78094802AAFFF7EA
:1046F0003BFE0DB030BD00BF40E50320AEE403201B
:10470000D8E2032082940D0039E4032090940D0038
:10471000B0E403202DE9F84F1F48DFF888A0406877
:1047200000231A46194602F04DFC02F0D3FB4FF469
:1047300096744FF0000B40F2E7384FF0000900206C
:1047400002F0DEF90546002002F0DAF9461B61EBC3
:104750000B07B94508BFB04505D302F0C3FB10B93C
:1047600002F0B0FBEFE702F0BDFB20B102F0BAFBB4
:1047700060B9BDE8F88F02F0B3F9CAF8000002F0A2
:10478000A1FBFFF741FF013CD9D1EFE7034A012329
:104790001372034A1370ECE7DCE503204CE50320B9
:1047A00068E50320D4E7032037B52749044603F022
:1047B0004CFB40B32449204603F047FB58BB234938
:1047C000204603F042FB00283AD002F08BFB204C3D
:1047D00018B9FFF79FFF0123237200251D4B8DF8A9
:1047E00000501B781C4A1D491D48FFF7BDFD4FF4C2
:1047F0007A7002F077FC1B4A1B4B11689288E572B5
:1048000019609A801CE01149204603F01EFB002825
:10481000D0D103B030BD02F065FB48B100238DF864
:1048200000300C4B114A1B780C490D48FFF79CFDDA
:10483000074B0F490C480122DA72062204F0BDFC36
:104840000C4B01201870E4E73D930D003B930D00E5
:104850004CE5032039E40320B5940D00A4930D002A
:10486000B0E40320C7940D0098E40320A1940D0048
:10487000B0940D0068E5032008B502F033FB80F02A
:104880000100C0B208BD00002DE9F04385B000244E
:1048900001A8CDE901448DF80C4002F031FD20461D
:1048A00002F02EF943F6972805464FF00009002044
:1048B00002F026F9461B61EB0407B94508BFB04575
:1048C00005D3FFF7D9FF10B902F0FCFAEFE7FFF7C5
:1048D000D3FF0A48002319461A46406802F07AFBC3
:1048E000074B00221A72074B01244FF4FA601C7028
:1048F00002F0F8FB204605B0BDE8F083DCE50320BC
:104900004CE5032068E5032030B585B00D46002254
:104910006946009202F054FAB0B9009C0CB12369C8
:1049200023B90A4A00210A2002F032FA0023ADF826
:1049300006300C23ADF80430042303930295236959
:1049400001AA01212046984705B030BDD16A0D006B
:1049500030B50E4D0FCD89B001AC0FC495E80700FE
:1049600084E8070069460720FFF7CEFF0028A8BFAC
:104970000098074A08AB03EB8000102150F81C3C5C
:10498000044802F06FFB09B030BD00BF88960D00EF
:104990005C970D003AE4032007B5032001A9FFF757
:1049A000B3FF40B9BDF8043000EE103ABBEECC0ABC
:1049B00003B05DF804FBBFEE000AF9E737B5414CE0
:1049C00041480025257002F00FF8B5EE400AF1EEDF
:1049D00010FA74D03C4802F007F810EE100A84ED8B
:1049E000030A04F05BF8394ACDE900011021384888
:1049F00002F038FB344802F005F810EE100A84ED9E
:104A0000040A04F04BF8334ACDE900011021324882
:104A100002F028FB314800F0BFFD304884ED050A64
:104A200000F0DAFD2D4884ED060A00F057FD07EE90
:104A3000900AF8EE677A6069C4ED077A04F02EF800
:104A4000274ACDE900011021264802F00BFBA0699E
:104A500004F024F8244ACDE900011021234802F093
:104A600001FBE06904F01AF8214ACDE900011021A8
:104A7000204802F0F7FAFFF78FFFFDEEC07A1E4ADA
:104A80001E48C4ED087A17EE903A102102F0EAFAB7
:104A9000FFF75EFFFFF780FFFDEEC07A184A17EEC2
:104AA000903A1D2BCCBF0023012301259372C2ED48
:104AB000037A257003F0FFFB124B60601D702846DF
:104AC00003B030BD0CE5032034E50320CD940D0088
:104AD00069E50320D5940D0088E403207CE50320DC
:104AE000DD940D009EE40320E9940D00C0E5032051
:104AF000F7940D001CE4032003950D004AE4032005
:104B00004CE5032008E5032070B5964C2378013B63
:104B100086B0062B4DD8DFE813F0C50007002D0046
:104B20006E009300ED0053018F4D6B7A2BB18F4BCC
:104B30001B78022B01D0FFF7BBFDEB7A53B101F0DC
:104B4000CFFF8B4B1B68C01A8A4B1B68984284BFEF
:104B500006232370AB7A0BB10723237003F0ABFB62
:104B60004FF4966390FBF3F202FB13030BBB03239A
:104B700023701EE07C4E727A2AB17C4B1B78032B8B
:104B800001D0FFF795FDFFF719FF0546002830D14A
:104B90000123237001F0A4FF774B1860737A43B1AF
:104BA000764B8DF800501B78754A76497648FFF7AA
:104BB000DBFB764801F0BCFA754B1B780BB1FFF7B5
:104BC00023FD744C23783BB11C23674A72480121B2
:104BD00000F0D1FE00232370704C23783BB12823D2
:104BE0006F4A6D48A02100F0C6FE0023237006B076
:104BF00070BD0423BCE75C4D6A7A2AB15B4B1B781D
:104C0000042B01D0FFF754FD2B7A0BB9FFF782FD7F
:104C100002F068F968B103F05FFB0C2805D102F0DF
:104C200061F910B1002002F07DF9FFF7FDFC0523CA
:104C30009EE70123237001F053FF4F4B1860B8E744
:104C4000494B5B7A2BB1494B1B78052B01D0FFF701
:104C50002FFD544B1B7843B902232370454B524A16
:104C60001A6001F03DFF424BE8E701F039FF4F4B7E
:104C70001B68C01A4AF6C87398429AD901F030FFEF
:104C80003D4D4B4A286000238DF800303B4B49498D
:104C90001B783D48FFF768FB0123237001F020FFDC
:104CA000286086E7304B5B7A2BB1304B1B78012BA9
:104CB00001D0FFF7FDFC01F013FF2F4B1B6803F53C
:104CC000922303F578738342BFF473AF02F00AF9BD
:104CD00048B100238DF80030284B374A1B7829490A
:104CE0002948FFF741FB4FF4FA6002F0FBF903F0AB
:104CF00003F95EE71C4D6A7A2AB11C4B1B78062B20
:104D000001D0FFF7D5FC2B7A0BB1FFF7BDFD194B96
:104D10004FF47A721A6003F0CEFA4FF4966590FB66
:104D2000F5F303FB1505254BC5F596651A7DB5F51D
:104D3000966FA8BF4FF496650AB102221A7200223C
:104D400004211E48FFF734FA4FF47A716943FFF7E4
:104D500063FA1A4903A803F0D3F803A8FFF714FA7B
:104D6000022305E740E503204CE50320AEE40320E1
:104D700048E5032044E50320E8E4032039E4032068
:104D800009950D0023950D00B0E40320ECE4032009
:104D9000B8E5032068E5032078E4032008E5032054
:104DA0000CE5032074E40320905F0100BCE50320C0
:104DB000149B0D0029950D0042950D005CE4032025
:104DC0001E4D6A7A2AB11E4B1B78072B01D0FFF7C4
:104DD0006FFC2B7A0BB1FFF757FDFFF715FC03F0C3
:104DE0006AFA4FF4966590FBF5F303FB1505154B36
:104DF000C5F596651A7DB5F5966FA8BF4FF4966513
:104E00000AB102221A72002204210E48FFF7D0F9DB
:104E10004FF47A716943FFF7FFF90A4903A803F0D9
:104E20006FF803A8FFF7B0F903A8064903F068F884
:104E3000022303A82370FFF7A7F9BAE64CE5032085
:104E4000AEE403205CE40320F0B500219BB0082011
:104E500003F04EFC0121052003F04AFC0021042050
:104E600003F046FCFFF7D0FB0023009301224FF034
:104E7000FF339049082002F08FFD8F4B0AAA03F1FF
:104E80001005164618685968144603C40833AB4227
:104E90002246F7D119889B78A3702D2221800DF12D
:104EA0003B000021854C04F025F9022702A8277059
:104EB00002F020F802A906A8002502F08FFF804921
:104EC00006A802F0ADFFCDE900552A467D490068ED
:104ED0002B4602F01FF806A802F012FF02A802F00B
:104EE0000FFF794B79481968FFF75DF978497948E0
:104EF000FFF759F978497948FFF755F97849794822
:104F0000FFF751F978497948FFF74DF97849794821
:104F1000FFF749F978497948FFF745F97849794821
:104F2000FFF741F9784979482B463A4601F0BAFF34
:104F30002B4601227649774801F0B4FF764977483D
:104F4000FFF731F9764A7749774802F0C8F9774A8E
:104F50007749754802F0C3F9764A7749724802F0FA
:104F6000BEF96C4A7549704802F0B9F9744A75493E
:104F70006D4802F0B4F9744800F0D4FF2946724835
:104F800001F00DF97148442101F099FC48B97049CC
:104F9000304604F0E5F80123237001F0A1FD6D4BCC
:104FA000186003F0E1FB01466B4800F038FB60B984
:104FB00001F096FD674D69492860304604F0D0F84D
:104FC0000123237001F08CFD28606348002100F06C
:104FD0009FFA0C21604800F092FA5F4800F09BFABB
:104FE0005D4800F08FFA5C4842F2107100F000FC5E
:104FF000594844F6206100F0FFFB0121564800F0BB
:1050000078FA574800F02AFC0123554806AA0021E7
:1050100000F066FC9DF81830052B24D0504800F0B5
:1050200027FC504A4E480423002100F0A4FC012331
:105030004B4806AA002100F053FC9DF81830052BC0
:105040000ED001232370484DFFF7C8FAFFF762FB2B
:105050006B78A3B101F046FF60B901F033FFF9E7C7
:10506000FFF792FAEFE7404A3D481C23012100F088
:1050700037FCE8E701F036FF6868FFF7F7F804202F
:1050800003F047FB08B9FFF77FFAFFF797FC6B7A4D
:105090004BB100238DF80030344B35491B7835482F
:1050A0003246FFF761F923780BB9022323701BB056
:1050B000F0BD00BFC9400D00A4960D0040E50320DF
:1050C00056950D0085430D00D4E2032079950D001F
:1050D00069E5032081950D0088E403208D950D007E
:1050E0009EE4032096950D00C0E503209A950D00DF
:1050F0001CE40320A0950D004AE40320A8950D00B0
:105100003AE40320B0950D0050E50320BF950D0053
:105110004DE50320B0930D0098E40320CE950D00DB
:10512000DB950D0005410D00B3720D00E7950D00F4
:1051300019440D00EB930D0021450D0099440D001D
:10514000F4950D00A9470D00ECE4032034E503209D
:1051500002960D00E8E403207CE503201F960D0075
:1051600078E40320E4960D004CE5032039E40320A5
:105170003B960D00B0E40320F8B5394B394E0127BA
:105180001F70394B02251D7003F05CFA00231A468C
:1051900043F2720103F05EFA03F054FA00231A4658
:1051A0000F2103F05FFA0024304BB3602846304DE6
:1051B0003460B480B47101F015FE2A462D493046A2
:1051C00003F0FAFA2146384601F01CFE3946042065
:1051D00001F066FC28482949A0F809400346021D51
:1051E00043F8092B9C70264B43602A46C0E90344D0
:1051F0000775047203F0E0FA2248234E00F06DF9BF
:10520000224801F039FB03F0AFFA234601464FF480
:105210000052304600F018FB1D4B33602A461D49F2
:105220001D4C304603F0C8FA03F09EFA01462046B2
:1052300000F080FD2046194C19492A4603F0BCFABB
:1052400018494FF40062204601F0F4F9164B236030
:105250002A4620461549BDE8F84003F0ADBA00BF24
:1052600039E403202CE4032038E403200000FFFF8E
:1052700010E403209B410D005CE4032021410D005C
:10528000100003007CE5032078E4032034E50320CC
:1052900074960D0061410D00ECE40320B0E403209E
:1052A000BF5A0D0000F403204C960D0039410D004B
:1052B0004260002201700272704710B5037A044602
:1052C00053B12178606802F045FB606802F04DFB45
:1052D000B0FA80F0400910BD00F003F80028F0D1CA
:1052E000F9E710B50446406802F002FB012323727F
:1052F0002046BDE81040FFF7E0BF2DE9F843DDE9A7
:1053000008961F469319202B04468846154602D955
:105310000020BDE8F8830178406802F01BFB7EB9ED
:10532000606803682A46DB68414698478542EFD1AA
:105330006068394602F015FBB0FA80F04009E8E7F2
:10534000B9F1000FECD0606803683246DB6849466B
:105350009847B042DCD1E3E7202A70B506460C46F8
:1053600015460FD80178406802F0DFFAA84209D14B
:105370002518A54208D0706803685B69984704F84F
:10538000010BF6E7002070BD0120FCE773B51D4658
:105390000023CDE900339DF81C30069E0446FFF73C
:1053A000ACFF40B1012332462946204602B0BDE899
:1053B0007040FFF7D1BF02B070BD10B501608280B0
:1053C0009DF80C109DF80820C1710272837110BD08
:1053D0001FB58388ADF80C30C379019303AB0093FC
:1053E00000680123FFF789FF05B05DF804FBF0B406
:1053F0000C4602B98279042A13D800F109058318F2
:105400002946834209D0077AE6B227B92E70240ACA
:105410000135013BF5E71E72F9E7F0BC1846FFF7CE
:10542000D7BF0020F0BC704713B504460B468188F7
:1054300004F8091F0021CDE900210122214600685E
:10544000FFF7A4FF02B010BD38B500F1090582795D
:1054500029460446FFF7E8FF78B1A279294622449D
:105460000020A2420BD00302207A20B9107A184300
:10547000013A0131F5E70878F9E74FF0FF3038BD20
:1054800010B501600271437110BD10B5044600688B
:10549000FFF7DAFF23795A1C012393406279013B1D
:1054A000D040184010BD70B5044600680E46FFF7A6
:1054B000CBFF2379012201339A40531E627903FA0C
:1054C00002F520EA050503EA060120689140294318
:1054D0008279BDE87040FFF78ABF704708B5406821
:1054E000FFF7B2FF80B208BDC06981F00101FFF78C
:1054F000DABF006AFFF7D7BF406AFFF7D4BF806A00
:10550000FFF7D1BF08B5806AFFF7BFFFC0B208BD83
:10551000C06AFFF7C8BF08B5C06AFFF7B6FFC0B2E0
:1055200008BD10B52DED028B0446B0EE408AFFF7A2
:10553000F2FF022818D0032813D0012803D1F6EE79
:10554000007A28EE278A2046FFF7DCFF01380B2877
:1055500014D8DFE800F0181B1E13131313111313D4
:10556000130CF1EE007AECE7F2EE007AE9E7F1EEE7
:10557000007A28EE278A01E038EE088AB0EE480A61
:10558000BDEC028B10BDF6EE007AF2E7F5EE007A84
:10559000EFE7F4EE007AECE710B504464068FFF759
:1055A00053FF07EE900A2046B8EE670AFFF7B9FFEF
:1055B00010EE100A03F072FA05A3D3E9002303F0FA
:1055C000C5FA03F0D5FC00EE100A10BDAFF3008061
:1055D00092CB7F48BF7DAD3F10B504468068FFF792
:1055E00033FF07EE900A2046B8EE670AFFF799FFEF
:1055F00010EE100A03F052FA05A3D3E9002303F0DA
:10560000A5FA03F0B5FC00EE100A10BDAFF3008060
:1056100092CB7F48BF7DAD3F006BFFF744BF7FB5A6
:1056200004460C200391FEF736FD054618B1039A97
:105630001021FFF73DFEA5632846FFF752FE054601
:10564000002800F0D2801020FEF725FD064638B174
:1056500001230022CDE90023A16B0223FFF7ADFE59
:1056600026601020FEF717FD064638B10023012200
:10567000CDE90032A16B0223FFF79FFEE660102008
:10568000FEF709FD064640B100230122CDE90032B4
:105690000223A16B1A46FFF790FE26611020FEF749
:1056A000FAFC064648B100234FF0010ECDE9003E5A
:1056B000A16B02230322FFF780FE66611020FEF734
:1056C000EAFC064648B100234FF0010CCDE9003C4E
:1056D000A16B02230422FFF770FE66601020FEF724
:1056E000DAFC064640B100230121CDE90031052254
:1056F000A16B0223FFF761FEA6601020FEF7CBFC32
:10570000064640B100230122CDE90032A16B0223FD
:105710000622FFF752FEA6610820FEF7BCFC0646F3
:1057200020B1216800230122FFF7AAFEE6610820CC
:10573000FEF7B1FC064620B1012321681A46FFF7A7
:105740009FFE26620820FEF7A6FC064620B12168CF
:1057500004230222FFF794FE66620820FEF79BFCFA
:10576000064620B1216806230422FFF789FEA662BF
:105770000820FEF790FC064620B121680B23022288
:10578000FFF77EFEE6620820FEF785FC064620B1A4
:10579000616900230122FFF773FE26630820FEF7EC
:1057A0007AFC064620B1616901230222FFF768FEF8
:1057B000002120466663FFF797FE00212046FFF791
:1057C00098FE00212046FFF797FE00212046FFF7B4
:1057D0009FFE00212046FFF792FE00212046FFF7A2
:1057E0001BFF01212046FFF77FFE284604B070BD55
:1057F00000690022FFF7FBBDC0680022FFF7F7BD7C
:10580000704710B51021044602F0DBFF204610BDA2
:105810000368C9B29B6818470EB410B58DB00FAAC3
:10582000016852F8044B039200232020CDE90403C1
:10583000CDE900421E2004AA01F0BAFA0DB0BDE87D
:10584000104003B07047000030B5034DC0E902239B
:10585000C0E9005130BD00BF1C970D00406802F048
:1058600047B810B50446006802F08BF8204610BD1A
:105870002DE9F0418AB004464068019002F078F8C2
:105880001E22002102A8A76803F034FC0026EFB115
:1058900023681E2FB84628BF4FF01E08DD6802AAF5
:1058A000434631462046A847054658B90A480B49A1
:1058B0003246FFF7B1FF01A8FFF7D3FF28460AB031
:1058C000BDE8F081A7EB08074644E0E701A8FFF731
:1058D000C8FF0125F2E700BF14E60320E8960D009B
:1058E0002DE9F7430446406801900D4616461F46D1
:1058F00002F03EF8A7B1E168606841F0500102F0A3
:105900002DF8290A6068FFF783FF29466068FFF7D2
:105910007FFF6068002102F024F848B1002400E015
:10592000012401A8FFF79DFF204603B0BDE8F083E6
:10593000202F217B6068B84628BF4FF02008012344
:10594000424641F0500101F0F0FF02F00DFF036804
:105950001B6998474045E1DB06EB080902F004FFAC
:1059600003685B69984706F8010B4E45F6D145443C
:10597000A7EB0807BEE72DE9F74F04464068019002
:105980000E4690461D4601F0F3FF4FF00109B9F1B4
:10599000000F2AD04DB3E168606841F0500101F07A
:1059A000DDFF310A6068FFF733FF60683146FFF7BB
:1059B0002FFFA5F11E0A4746A6EB080B606817F8F3
:1059C000011B0368013D9B68984755450BEB070693
:1059D000B84601D0002DF1D16068012101F0C1FF6E
:1059E0000028D7D04FF00009D1E701A8FFF739FF11
:1059F000484603B0BDE8F08F2DE9F0438BB00E466A
:105A000015468046406801901C4601F0B1FFAE4249
:105A100029D2264425448CB11E2C2746D8F80030C4
:105A200028BF1E27F61BD3F8089002AA3B46314632
:105A30004046ED1BC84748B9002400E0012401A8F6
:105A4000FFF70FFF20460BB0BDE8F083D8F8003019
:105A500002AAD3F80C9029463B464046C847002886
:105A6000EAD0E41BD7E7E9D9002CE7D0D8F800301A
:105A70001E2C274628BF1E27D3F8089002AA3B46B3
:105A800031464046C8470028D6D0D8F8003002AA90
:105A9000D3F80C9029463B464046C8470028CBD057
:105AA0003E443D44E41BDFE7402070470020704740
:105AB00080207047FF2070477047704770477047DD
:105AC00010B51421044602F07CFE204610BD10B52E
:105AD0000821044602F075FE204610BD10B50821CD
:105AE000044602F06EFE204610BD10B51C2104468F
:105AF00002F067FE204610BD2DE9FF410368DB6818
:105B00000446984710220146684603F0F3FA2368DA
:105B100020469B689847002507462846BD420ED27E
:105B20007E1B2368102E28BF1026D3F818806A46E3
:105B3000334629462046C04708B13544EEE704B055
:105B4000BDE8F0814FF48073438140F20113C360DC
:105B5000002303827047000008B5064B0360064B24
:105B6000436040F20473038100234374FFF7EAFFAC
:105B700008BD00BFFC970D000001020303090A22C3
:105B800000F00F0002FB0300704708B5807AFFF7B2
:105B9000F5FF00F5FA6008BDC07A00F01F00FFF7BE
:105BA000EDBF007B00F03F00FFF7E8BF08B5817B49
:105BB0004A060DD501F01F00FFF7E0FF8B0603D565
:105BC0000C2800D00C3008BD0C2808BF0020FAE7D4
:105BD000BDE8084001F03F00FFF7D0BFC07B00F0F8
:105BE0007F00FFF7CBBF007C00F07F00FFF7C6BF50
:105BF00010B58AB024220446002101A803F07AFAE5
:105C00002046FFF7C2FFA0F26C7006902046FFF717
:105C1000C3FF013805902046FFF7C3FF04902046DC
:105C2000FFF7C4FF03902046FFF7D8FF02902046FD
:105C3000FFF7D9FF019001A801F04CFA0AB010BD9E
:105C40000A2190FBF1F292FBF1F301FB13231B01FC
:105C5000DBB201FB12001843C0B27047642310B5D9
:105C6000044691FBF3F000FB1310FFF7E9FFA0726D
:105C700010BD10B504460846FFF7E2FFE07210BD04
:105C800010B504460846FFF7DBFF237B23F03F03F4
:105C90001843207310BD10B50446481CFFF7D0FF11
:105CA000637B23F007031843607310BD10B50446EF
:105CB0000846FFF7C5FFA07310BD10B5044608469F
:105CC000FFF7BEFFE07310BD10B504460846FFF7AE
:105CD000B7FF237C23F07F031843207410BD37B532
:105CE00004466846CDE9002303F0CAF90546416938
:105CF0002046FFF7B3FF296920460131FFF7B9FFBE
:105D0000E9682046FFF7BCFFA9692046FFF7C3FFFB
:105D1000A9682046FFF7CAFF69682046FFF7CDFF54
:105D200029683B29A8BF3B212046FFF7CDFF03B0E0
:105D300030BD0000054A0061C0E90021044A8260CC
:105D4000044AC260044A80614261704730980D0085
:105D500000000103D8970D000C980D002DE9F84FB5
:105D600004460F469046994600260A9B9E4231D231
:105D70006068394601F0EEFD08EB06016068FFF748
:105D800047FD6068002101F0ECFD0546D0B90A9B93
:105D900060689A1B202A4FF0010328BF2022394651
:105DA00001F0C3FD09EB060B05460BEB000ADA45D3
:105DB00006D0606803685B6998470BF8010BF6E74B
:105DC0002E44D2E7024604490448FFF725FD284641
:105DD000BDE8F88F0025FAE730970D00D0E50320E5
:105DE0002DE9F34101EB03081E4603689B68054655
:105DF0000C461746984780450DD8203468680096B1
:105E00003B46E2B26F21FFF7A9FFB0FA80F04009EC
:105E100002B0BDE8F0810020FAE72DE9F34101EB83
:105E200003081E4603689B6804460D4617469847BC
:105E300080450CD8606800963B46EAB25721FFF7D0
:105E40008DFFB0FA80F0400902B0BDE8F08100207B
:105E5000FAE77FB51E1E0CBF0723062300931446E6
:105E600002AB0A466F21FFF779FF0546A8B99DF8F6
:105E7000083023749DF80930E3739DF80A30A3734A
:105E80009DF80B3063739DF80C3023739DF80D3033
:105E9000E3722EB99DF80E30A372284604B070BD8F
:105EA00002F026FAFFF7CCFEA072F6E71FB5012339
:105EB0000A4600936F2103ABFFF750FF20B99DF80E
:105EC0000C0005B05DF804FB0020FAE708B50321DB
:105ED000FFF7ECFFC0F3401008BD38B500230C46B7
:105EE0000A4619460546FFF7B4FF30B9A37A23B135
:105EF0002846BDE83840FFF7E9BF002038BD7FB530
:105F0000024601A8FFF728FE01A91046FFF7E5FFAA
:105F100028B101A8FFF76CFE07B05DF804FB002074
:105F20000146F9E7D0B5044686B0406801F0E0FCD0
:105F300002F0A4F9E8B9E37A9B071AD52046FFF7E7
:105F4000DEFF06460F4656EA070312D002F09DF820
:105F50000A4B0B491B68009332463B4602A802F0ED
:105F60004BF90848029A0849FFF756FC02A801F0CD
:105F7000C7FE0123237206B0D0BD00BFA8E30320F3
:105F800040E60320D0E503204A970D002DE9F84FA5
:105F90000646884691469A4600250A9B9D4229D28C
:105FA0007068414601F0D6FC706809EB0501FFF707
:105FB0002FFC0A9B5F1B1F2F28BF1F270AEB05041E
:105FC00007EB040B706814F8011B02689268904795
:105FD000A345F7D17068012101F0C3FC044638B134
:105FE000024605490548FFF717FC2046BDE8F88F33
:105FF0003D44D2E70024F8E75F970D00D0E5032089
:106000002DE9F34101EB03081E4603689B68054632
:106010000C461746984780450DD82034686800968E
:106020003B46E2B26F21FFF7B1FFB0FA80F04009C2
:1060300002B0BDE8F0810020FAE71FB5137C8DF8AF
:106040000830D37B8DF80930937B8DF80A30537B71
:106050008DF80B30137B8DF80C30D37A8DF80D3022
:10606000937A8DF80E30072300930A4602AB6F2116
:10607000FFF78CFF05B05DF804FB10B588B004464F
:1060800003A80193FFF768FD019B03A8FFF727FE14
:106090009DF81C30A27A63F07F038DF81C309DF8C8
:1060A00019306AB143F0080303AA002120468DF895
:1060B0001930FFF7C2FFB0FA80F0400908B010BDF8
:1060C00003F0F703F0E70000F0B587B0054602F0F3
:1060D000D5F80446E8B102F0EEF8C71702460646C6
:1060E0003B462846FFF7C9FF0C4B0D491B68009340
:1060F00032463B46044602A802F07EF80948029A5E
:106100000949FFF789FB02A801F0FAFD204607B014
:10611000F0BD06490348FFF77FFBF7E7A8E303203C
:1061200040E60320D0E503207A970D0090970D00FC
:1061300037B5457A04469DB902F0A0F880B1002237
:10614000002369462846CDE9002300F0FBFE38B164
:10615000E37ADB0702D52046FFF7B6FF012363721F
:1061600003B030BD1FB501238DF80C2000930A4603
:1061700003AB6F21FFF70AFF05B05DF804FBF8B52C
:1061800004460D4617461E46FFF790FE00EA07023A
:10619000324329462046BDE8F840FFF7E3BF012916
:1061A00008B50CD800294FF0000314BFDF22EF22FE
:1061B0000721FFF7E4FFB0FA80F0400908BD002096
:1061C000FCE738B5044632256068572101F0C2FB70
:1061D0006068012101F0C5FB08B1013DF4D138BD73
:1061E0002DE9F04104460F46164602EB0308B04580
:1061F00020D06068572101F0ADFB39466068FFF799
:1062000007FB606816F8011B03689B689847606885
:10621000012101F0A6FB0137054638B102460649C7
:106220000648FFF7F9FA2846BDE8F0812046FFF757
:10623000C8FFDCE70025F6E7A5970D00D0E50320B1
:10624000F7B5CF181E46036801929B6804460D46B9
:10625000984787420AD8019A60683346E9B2FFF747
:10626000BFFFB0FA80F0400903B0F0BD0020FBE7AB
:10627000014B024A1A607047D0E50320C6970D0013
:10628000012A034602D1016000207047022A04BFA0
:10629000D1E90001C3E90001F6E710B50123037459
:1062A0008368044643B1C0689847012363740020A3
:1062B000BDE8104000F0ECBB00680028F5D0836812
:1062C0000BB902F084FAC368EEE710B442680346E3
:1062D000541001EB6200D20748BF0A591B685DF8F1
:1062E000044B48BFD358184710B58368044613B110
:1062F000032201469847204610BD00000123F7B550
:1063000080F829300646083000F09AFB0420FDF79B
:10631000C2FE054698B31B49142002F054FA30B16E
:106320000023C0E90033C0E90233037443742860DA
:10633000A0B1154B1549C0E902364FF40063CDE911
:1063400000030222124B043000F06AFB30B92B68C4
:106350001B7CA3B9012000F0B3FBF8E72C680023F5
:106360002B6064B1276837B13846FFF7BDFF1021B5
:10637000384602F026FA1421204602F022FA75600F
:1063800003B0F0BDF49A0D009B650D0038980D0028
:106390009B620D0047F23051084AC1600849026013
:1063A0000022C0E904120749C16107494260C0E9FF
:1063B00008228161028580F82A207047FC980D0030
:1063C00005670D00CB620D0081620D0010B5044B16
:1063D000044640F8103BFFF787FF204610BD00BF82
:1063E000FC980D0010B5034B03600446FFF7EEFF69
:1063F000204610BD24990D0010B50446FFF7F2FFAA
:106400002046382102F0DDF9204610BD806800F0FA
:106410001FBB806800F024BB10B504460068FFF77E
:10642000F8FF204610BD13B504460190FFF7EEFFBC
:10643000E36ADC88A4B20CB103F1080401A8FFF7F9
:10644000EBFF204602B010BD13B504460190FFF7E4
:10645000DDFF94F8283043B9E26A0124D38001A813
:10646000FFF7DAFF204602B010BD0024F7E713B5AE
:1064700004460190FFF7CAFFE36A01A8DC88FFF732
:10648000CBFF204602B010BD2DE9F047994686B0FB
:1064900090F829309DF838A09DF83C8004460F46BE
:1064A000164613B903689B689847314B3846002E4F
:1064B00008BF1E4602F079FE0546304602F075FE22
:1064C000284400F10A05AB071CBF25F0030504357D
:1064D0003346CDE90285CDE9009A264926483A4659
:1064E000FFF79AF9238E083BAB4212D200242046D4
:1064F00006B0BDE8F087CB88012B36D005A8FFF7A2
:106500008BFF236894F828109B6920469847002841
:10651000ECD020460594FFF779FFE16A228E636B89
:106520000A44D21AAA42E6D348EA0A0883F8048049
:10653000C3F80090636B03F108083946404602F047
:106540000FFE404602F031FE01303146404402F079
:1065500007FE636BE26A1D446563D3880133D38011
:10656000012405A8FFF758FFC1E70024F9E700BFA1
:10657000149B0D004A980D00D4E5032008B504468D
:1065800000F11005A3690BB902F021F9E369214676
:106590002846984700F04CFAF4E708B5FFF7EEFFFD
:1065A00068B501F108050646284602F0FEFD0130F7
:1065B0000544284602F0F9FDF36A01302844C31A65
:1065C00013F003031CBFC3F10403C01868BDF7B583
:1065D00004460E460190FFF719FFE76AFB8807F1B2
:1065E0000805E6B1012B22D929462046FFF7D8FF3E
:1065F000054629462046FFF7D3FF228E3A44121A59
:106600000146A0EB050602D0284602F059FD636B57
:106610009B1B6363FB88013BFB80012601E0002B91
:10662000E7D101A8FFF7F8FE304603B0F0BD002621
:10663000F7E700002DE9F0470D4604462F461646C1
:10664000FFF7A8FE154B57F8082B2360144BE562A3
:106650009A422686984617D1AB889BB2B34213D193
:1066600005EB060A67634FF00009EB881FFA89F211
:106670009BB29A420ED2616B2046FFF791FF5045C4
:10668000606309F10109F0D90023C5F80080676350
:10669000AE80EB802046BDE8F08700BF24990D0056
:1066A00061AB9CD110B5D1E9002386B0002104462E
:1066B00004910AB9D90705D5CDE902230F4B0593FB
:1066C0000F4B049302AB93E803006A4682E8030091
:1066D00094E8030083E8030092E80300049A84E846
:1066E0000300A168A260059A04911846E168E2607F
:1066F0000591FFF7F9FD204606B010BDCB620D00F5
:1067000081620D0007B5054B0093694600231030E8
:106710000193FFF7C7FF03B05DF804FB4D670D0061
:1067200013B5044600F0DCF9636AC01AE3689842C6
:1067300008D3054B00936946002304F11000019330
:10674000FFF7B0FF02B010BD4D670D002DE9F0411D
:1067500090F82A3086B00446002B64D100F0C2FBCA
:10676000002860D000F0BCF9636AC01A40F2F1332F
:10677000984258D9236820465B6998470546002807
:1067800051D000F10807012384F82830384602F080
:106790000CFD95F80480CDF8048001302B682B495E
:1067A00000933E1833462A483A46FFF735F82B68DF
:1067B0008DF800803246394602A800F0A7FE029DFF
:1067C0006B781BB9012000F08DFCF8E7002000F089
:1067D00021FB20B16B7813B900F074FBFAE72B783A
:1067E000012B23D11B491A48FFF716F82368002113
:1067F0009B6920469847002384F8283000F070F900
:106800006062039C7CB16368013B63605BB9236891
:1068100020469B689847A368013BA3601BB9236887
:106820002046DB68984706B0BDE8F081E2680A4977
:106830000748FEF7F1FF094B049304A9002304F174
:1068400010000593FFF72EFFD5E700BF8B980D00D2
:10685000D4E50320AC980D00C3980D0021670D000E
:10686000014B024A1A607047D4E50320EA980D00F4
:106870000368C9B29B681847704738B505460C468F
:1068800001F072FF297801F065F801F06DFF210A2F
:10689000FFF7EEFF01F068FFE1B2FFF7E9FF01F05B
:1068A00063FFBDE8384001F060B808B543F2A201CB
:1068B000FFF7E3FFBDE808400A2000F013BC38B53D
:1068C00004460D4601F050FF01F012F820462570F5
:1068D000FFF7EBFF012038BD0A44FF2091420ED0A4
:1068E00011F8013B5840082310F0800F4FEA400098
:1068F00018BF80F03100013BC0B2F5D1EEE7704720
:1069000073B54FF410510546FFF7B7FF4FF4FA7017
:1069100000F0E8FB01F028FF2978062201F017F8C3
:1069200001F022FF03681B69984706284BD16E4689
:10693000044601F019FF03685B699847013C14F0B5
:10694000FF0406F8010B6946F3D102222846FFF73F
:10695000C3FF9DF80260864235D102220DF103018A
:106960002846FFF7B9FF9DF8056086422BD1BDF898
:106970000000BDF8034040BA80B202F06DF818A3E1
:10698000D3E9002302F0E2F811A3D3E9002302F0D7
:1069900007FA114B002201F021FF02F0E9FAA8608A
:1069A00060BA80B202F058F80C4B002202F0CEF828
:1069B00007A3D3E9002302F0F3F902F0D9FA6860E3
:1069C000012002B070BD0020FBE700BFAFF30080E4
:1069D00000000000E0FFEF4000804640000059400A
:1069E0000000000000E0654010B50446FFF788FF96
:1069F00010B194ED020A10BD9FED010AFBE700BF44
:106A00000000C07F10B50446FFF77AFF10B194ED87
:106A1000010A10BD9FED010AFBE700BF0000C07F27
:106A200008B5024B1B685B68019308BD4802030070
:106A300008B5024B1B68DB68019308BD48020300E0
:106A400008B5024B1B681B6B019308BD480203008D
:106A500008B5024B1B689B6B019308BD48020300FD
:106A600008B5024B1B681B6C019308BD480203006C
:106A700008B5024B1B685B6C019308BD480203001C
:106A800008B5024B1B689B6C019308BD48020300CC
:106A900008B5024B1B68DB6E019308BD480203007A
:106AA00008B5024B1B685B6E019308BD34020300FE
:106AB00008B5024B1B685B68019308BD1802030010
:106AC00008B5024B1B689B68019308BD18020300C0
:106AD00008B5024B1B68DB68019308BD1802030070
:106AE00008B5024B1B685B69019308BD18020300DF
:106AF00008B5024B1B689B6D019308BD180203008B
:106B000008B5024B1B68DB6D019308BD180203003A
:106B100008B5024B1B685B6E019308BD18020300A9
:106B200008B5024B1B689B6E019308BD1802030059
:106B300008B5024B1B681B68019308BD2C020300BB
:106B400008B5024B1B689B68019308BD2C0203002B
:106B500008B5024B1B68DB68019308BD2C020300DB
:106B600008B5024B1B685B69019308BD2C0203004A
:106B700008B5024B1B689B69019308BD2C020300FA
:106B800008B5024B1B68DB69019308BD2C020300AA
:106B900008B5024B1B68DB68019308BD280203009F
:106BA00008B5024B1B689B69019308BD28020300CE
:106BB00008B5024B1B68DB69019308BD280203007E
:106BC00008B5024B1B681B6A019308BD280203002D
:106BD00008B5024B1B685B6A019308BD28020300DD
:106BE00008B5024B1B689B6A019308BD280203008D
:106BF00008B5024B1B68DB6A019308BD280203003D
:106C000008B5024B1B681B6B019308BD28020300EB
:106C100008B5024B1B685B6B019308BD280203009B
:106C200008B5024B1B681B6C019308BD28020300CA
:106C300008B5024B1B689B6C019308BD280203003A
:106C400008B5024B1B68DB6C019308BD28020300EA
:106C500008B5024B1B681B6D019308BD2802030099
:106C600008B5024B1B685B69019308BD6402030011
:106C700008B5024B1B689B68019308BD68020300BE
:106C800008B5024B1B68DB68019308BD680203006E
:106C900008B5024B1B68DB69019308BD3002030095
:106CA00008B5024B1B681B6A019308BD3002030044
:106CB00008B5024B1B681B68019308BD3C0203002A
:106CC00008B5024B1B68DB68019308BD3C0203005A
:106CD00008B5024B1B681B69019308BD3C02030009
:106CE00008B5024B1B685B69019308BD3C020300B9
:106CF00008B5024B1B689B69019308BD3C02030069
:106D000008B5024B1B68DB69019308BD3C02030018
:106D100008B5024B1B681B6A019308BD3C020300C7
:106D200008B5024B1B689B6A019308BD3C02030037
:106D300008B5024B1B681B68019308BD4C02030099
:106D400008B5024B1B681B69019308BD4C02030088
:106D500008B5024B1B685B69019308BD4C02030038
:106D600008B5024B1B689B69019308BD4C020300E8
:106D700008B5024B1B68DB69019308BD4C02030098
:106D800008B5024B1B681B6A019308BD4C02030047
:106D900008B5024B1B685B6B019308BD60020300E2
:106DA00008B5024B1B681B6D019308BD6002030010
:106DB00008B5024B1B685B6D019308BD60020300C0
:106DC00008B5034B1B68D3F89830019308BD000049
:106DD0006002030008B5024B1B681B68019308BDE5
:106DE0002002030008B5024B1B685B68019308BDD5
:106DF0002002030008B5024B1B685B69019308BDC4
:106E00002002030008B5024B1B68DB6A019308BD32
:106E10002002030008B5024B1B68DB6C019308BD20
:106E20002002030008B5024B1B685B6D019308BD8F
:106E30002002030008B5024B1B689B6D019308BD3F
:106E40002002030008B5024B1B68DB6D019308BDEF
:106E50002002030008B5034B1B68D3F88830019368
:106E600008BD00002002030008B5034B1B68D3F8DF
:106E70009430019308BD00002002030008B5034BC5
:106E80001B68D3F8AC30019308BD0000200203005A
:106E900008B5034B1B68D3F8B030019308BD000060
:106EA0002002030008B5024B1B681B68019308BD54
:106EB0004402030008B5024B1B685B68019308BDE0
:106EC0004402030008B5024B1B689B68019308BD90
:106ED0004402030008B5024B1B68DB68019308BD40
:106EE0004402030008B5024B1B685B69019308BDAF
:106EF0004402030008B5024B1B68DB69019308BD1F
:106F00004402030008B5024B1B681B6A019308BDCD
:106F10004402030008B5024B1B685B6A019308BD7D
:106F20004402030008B5024B1B68DB6A019308BDED
:106F30004402030008B5024B1B681B6B019308BD9C
:106F40004402030008B5024B1B685B6B019308BD4C
:106F50004402030008B5024B1B689B6B019308BDFC
:106F60004402030008B5024B1B68DB6B019308BDAC
:106F70004402030008B5024B1B685B6C019308BD1B
:106F80004402030008B5024B1B685B68019308BD0F
:106F90004002030008B5024B1B689B68019308BDC3
:106FA0004002030008B5024B1B68DB68019308BD73
:106FB0004002030008B5024B1B681B69019308BD22
:106FC0004002030008B5024B1B685B69019308BDD2
:106FD0004002030008B5024B1B689B69019308BD82
:106FE0004002030008B5024B1B68DB69019308BD32
:106FF0004002030008B5024B1B681B6A019308BDE1
:107000004002030008B5024B1B681B6B019308BDCF
:107010004002030008B5024B1B685B6B019308BD7F
:107020004002030008B5024B1B681B68019308BDB2
:107030001C02030008B5024B1B685B68019308BD86
:107040001C02030008B5024B1B689B68019308BD36
:107050001C02030008B5024B1B681B69019308BDA5
:107060001C02030008B5024B1B68DB69019308BDD5
:107070001C02030008B5024B1B68DB6A019308BDC4
:107080001C02030008B5024B1B681B6B019308BD73
:107090001C02030008B5024B1B685B6C019308BD22
:1070A0001C02030008B5024B1B689B6C019308BDD2
:1070B0001C02030008B5024B1B68DB6C019308BD82
:1070C0001C02030008B5024B1B681B6D019308BD31
:1070D0001C02030008B5024B1B685B6D019308BDE1
:1070E0001C0203000021FFF785BE10B5836804462B
:1070F0000BB901F06CFBC3689847A3681BB103226E
:1071000021462046984720461021BDE8104001F056
:1071100058BB10B5036804469B689847A368013BB9
:10712000A3602BB923682046DB68BDE810401847F0
:1071300010BD10B50446006808B1FFF7A1FC204659
:1071400010BD0B68036013B15A6801325A60704772
:1071500010B50446006828B14368013B43600BB991
:10716000FFF7D7FF204610BD10B5064C0023204680
:107170002360FFF77DFC2046034A0449BDE8104028
:1071800001F01ABBD8E5032010E4032033710D0091
:10719000002240681146FFF70DBF002240681146EB
:1071A000FFF728BF002240681146FFF733BF406851
:1071B0000022FFF727BF4068002281F00101FFF79E
:1071C00011BF002340681A461946FFF703BF00238A
:1071D00040681A461946FFF7F5BE0022406811467E
:1071E000FFF7D8BE406800220221FFF7DBBE002374
:1071F00040681A46FFF7C6BE084B10B52824224641
:107200001846002101F076FF054B04804FF0FF3255
:10721000426004225A60034A1A6010BDE4E503206C
:10722000DCE503204C990D0070470020704710B535
:107230001021044601F0C5FA204610BD08B5FFF73D
:10724000F6FF08BD30B500224FF69C7402608480C2
:107250008D888C800C68858004600A6030BD10B514
:1072600004460068FFF7E6FE204610BD38B5C46846
:10727000F4B12378022B03D104F10C00FFF7EFFFE8
:10728000656835B12846FFF72FF81021284601F030
:1072900098FAA56835B12846FFF726F81021284648
:1072A00001F08FFA20461421BDE8384001F089BA78
:1072B00038BD10B588B00446684600F06CFD6946DC
:1072C00004A800F08BFD04A8A047044604A800F021
:1072D00017FD684600F014FD204608B010BD1FB52C
:1072E0000023CDE90201019210241A46694618468E
:1072F000ADF80230ADF80040FFF7DCFD04B010BD82
:1073000007B50823ADF8003003688DF80230037A22
:107310008DF803300021436801936846FFF72AFE89
:1073200003B05DF804FB73B50E46044656F8043B03
:1073300000930D4601A83146FFF703FF019A009B19
:107340006260236001A8002301930093FFF700FF10
:107350003046FFF7FDFE2846082101F032FA2046AC
:1073600002B070BD13B50B460246D0E900016C4671
:1073700084E8030093E8030082E8030094E8030034
:1073800083E8030002B010BD826810B50AB901F0AD
:107390001EFABDE81040C368184708B5006800F140
:1073A0001001FFF7F1FF08BD826810B50AB901F0BE
:1073B0000EFABDE81040C368184708B5006800F130
:1073C0001001FFF7F1FF08BD38B500230446036044
:1073D00010200D46FCF75FFE28B10123C0E9013300
:1073E000024B0360C5602060204638BD80990D00C7
:1073F00038B5002383608B6804460D462BB102220A
:107400009847EB68E360AB68A360204638BD000096
:10741000F0B589B004686846FFF714FF4FF0020327
:10742000D4E84F2F002A03D1C4E8413F0029F7D107
:1074300025D104F10C0569462846FFF703FFBFF389
:107440005B8F01236370002004F10803BFF35B8F9F
:1074500053E8006F43E80002002AF9D1BFF35B8FC5
:107460006EB1FFF7D7FC78B129463046FFF78CFFA5
:107470003046FEF739FF1021304601F0A2F9684688
:10748000FFF7EDFE09B0F0BD314602A8FFF7B0FFEF
:10749000E068B4F9105008B101F06AFE06901020BF
:1074A000ADF81C50FCF7F7FD0546E8B100278760F2
:1074B0001820FCF7F0FD044688B10146876002A859
:1074C000FFF750FF049BA268A360059B049206A9E6
:1074D000E268E36004F110000592FFF7B3FE084B89
:1074E000EB60084B2C60AB6006A8FFF7B8FE02A863
:1074F000FEF7FAFE002229460348FFF793FCB7E7A0
:107500009B730D0031760D00EB700D002DE9F047F7
:107510008AB005469DF848900C4617469846FFF7F6
:10752000E1FC07AE824638BB4FF62E73059005A9E5
:107530003046ADF81830FFF785FE1420FCF7ABFDA0
:10754000044648B1022303700123C0E901AA437035
:1075500031460C30FFF776FE2846214640F8044BB2
:10756000FFF732FF3046FFF77AFE05A8FFF777FEF8
:1075700028460AB0BDE8F0870C234FF0000A14201B
:10758000CDE908AA0793FCF786FD014628B1C0E9BA
:1075900001AA80F800A080F801A004A80391FFF7D9
:1075A00013FF224B08930820FCF775FD824628B193
:1075B000039B40F8043B04A9FFF7C3FD00965FFA64
:1075C00089F3424639462046CDF824A0FFF79AFCBD
:1075D000B8B9039B5B7803F0FF0293B94FF69C7335
:1075E00005A903A80592ADF81830FFF711FF05A80B
:1075F000FFF735FE05A80999FFF795FE06A8FFF7E6
:10760000A7FD039B059304A906A8FFF79AFD059B18
:10761000069A2B606A60002306A806930593FFF77D
:1076200097FD04A8FFF794FDA2E700BFF5760D00D3
:10763000022AF8B5054607D0032A18D0012A01D13D
:107640000B6803600020F8BD18200E68FCF723FDCE
:10765000044650B13146FFF7CBFE3069B6F91470DD
:1076600008B101F085FD2061A7822C60EAE704687B
:10767000002CE7D004F11000FFF7F1FD2046FEF7E3
:1076800033FE1821204601F09CF8DBE738B50023D3
:1076900083608B6804460D462BB102229847EB6845
:1076A000E360AB68A360204638BD022A70B504468B
:1076B00007D0032A12D0012A01D10B6803600020F1
:1076C00070BD14200E68FCF7E6FC054620B131467B
:1076D000FFF7DCFF337C2B742560F0E70468002C97
:1076E000EDD02046FEF700FE1421204601F069F897
:1076F000E5E70000F0B589B004460D4601A8114643
:10770000FFF711FEA4B124B21DB1284601F030FDEF
:10771000054601A803A90395ADF81040FFF778FED0
:1077200003A8FFF79CFD02A8FFF712FD09B0F0BD0A
:10773000019D0123D5E84F2F002A03D1C5E8413F21
:107740000029F7D1EFD12B73BFF35B8F6B702B1D2B
:10775000BFF35B8F53E8006F43E80042002AF9D182
:10776000BFF35B8F002EDED02046FFF753FB0746AA
:1077700060B105F10C013046FFF716FE3046FEF70A
:10778000B3FD1021304601F01CF8CCE7314603A8C8
:10779000FFF77CFF2B7B8DF81C301020FCF77BFC67
:1077A0000546D0B187601420FCF775FC044678B11B
:1077B0008760014603A8FFF7D5FD059BA268A3607B
:1077C000069B0592E268E3609DF81C3006922374E4
:1077D000064BEB60064B2C60AB6003A8FEF784FD04
:1077E000002229460348FFF71DFBC7E7BB730D00C6
:1077F000AB760D00EB700D00002240681146FFF7DC
:10780000F9BB002240681146FFF704BC4068002223
:10781000FFF7F8BB4068002281F00101FFF7E2BBEF
:10782000002340681A461946FFF7D4BB002340687E
:107830001A461946FFF7C6BB002240681146FFF7FB
:10784000B9BB002240681146FFF7A4BB4068002284
:107850000221FFF7A7BB002340681A46FFF792BB3F
:10786000024B03225A60024A1A6070470CE603205A
:107870009C990D007047F8B5064615460C468F18C2
:10788000BC4206D0336814F8011B9B683046984709
:10789000F6E72846F8BD007C0022FFF791B9007C8E
:1078A0000021FFF795B9007C0021FFF799B9007C12
:1078B0000021FFF79DB9007C0021FFF7A1B910B5A9
:1078C0001421044600F07DFF204610BD10B54FF492
:1078D0007A73044608460021C4E90113034B236070
:1078E00020741146FFF79CF9204610BDD0990D0079
:1078F0000023007C1A461946FFF74AB97FB50022DB
:107900001423CDE90122ADF804300B788DF808304E
:107910004B680393CB680493007C0B7A059301A911
:10792000FFF796F907B05DF804FB1FB5003B8DF833
:1079300000104FF06401039118BF012369460192C2
:107940008DF80830FFF7DAFF05B05DF804FB01237E
:10795000FFF7EBBF007C0022FFF722B9C9B2FFF7A7
:10796000F9BF007C0022FFF723B90121FFF7F9BF1F
:1079700008B50021007CFFF75BF9B0FA80F0400900
:1079800008BD08B50021007CFFF75AF9B0FA80F075
:10799000400908BD004700002DE9FF4100241D46B5
:1079A0000F4690460646FFF7EBF8A5424FF004035A
:1079B000ADF80D408DF80C308DF80F40A2BF9DF84A
:1079C00028308DF80E3003AC0749009443463A4600
:1079D0003046A8BF8DF80D50FFF7CAF8B0FA80F016
:1079E000400904B0BDE8F08195790D00704710B5ED
:1079F0001821044600F0E5FE204610BDF0B5037DD9
:107A0000062B8DB00E4600F104074FF0000412D093
:107A100000F1080515F8011D0A22304600F033F97F
:107A2000AF42044419D0002CF4D02E21304600F08F
:107A300027F90444EEE72F236A4639460A208DF8D9
:107A40000040FFF70DF9684601F0AFFB33680246CE
:107A5000DB68694630469847044620460DB0F0BDC5
:107A600010B5054B0446112240F8043B002101F0FB
:107A700041FB204610BD00BFF8990D000346074AA0
:107A800010B543F8042B01F1100251F8044B43F8F0
:107A9000044B9142F9D10A781A7010BDF8990D0083
:107AA00010B59DF8084044EA032343EA024242EA43
:107AB000016104234160037510BD13B5CB780093B9
:107AC0008B784A780978FFF7EBFF02B010BD000011
:107AD000014B024A1A60704714E60320049A0D0015
:107AE000002340681A46FFF74DBA40680022022181
:107AF000FFF758BA002240681146FFF74BBA002240
:107B000040681146FFF756BA002340681A461946E6
:107B1000FFF758BA002340681A461946FFF75ABAC9
:107B20004068002281F00101FFF75CBA4068002242
:107B3000FFF768BA002240681146FFF76BBA0022CF
:107B400040681146FFF756BA2DE9F043002495B07E
:107B500016460D460746FFF783FF214618220EA85A
:107B6000009401F0C7FA4023CDE90C3421466B465E
:107B70000CAA3046FFF784F80446002846D1024696
:107B800001216868FFF716FA0221804622466868DC
:107B9000FFF710FA009E81462146002E36D00029BC
:107BA00034D17368022B03D00A2B0BD0F669F4E7AB
:107BB000B8F1000F04D0716938460431FFF77DFF3A
:107BC0004146F3E7B9F1000F01D14946EEE7746988
:107BD000102201A801F08EFA06238DF8143001ADB1
:107BE00004F108031834186859682A4603C2083398
:107BF000A3421546F7D101A906A807ADFFF73EFF3E
:107C00000FCD3C1D0FC42B682370DEE70098FFF7F3
:107C10002FF8384615B0BDE8F0830000024B034A48
:107C20001A6000225A60704718E60320109A0D006F
:107C3000F8B506460D468F180024BD420CD03368B7
:107C400015F8011B9B6830469847031E01DB1C4456
:107C5000F3E7002C08BF1C462046F8BD13B50446C8
:107C6000084659B1019101F0A0FA23680199DB6837
:107C70000246204602B0BDE81040184702B010BDD1
:107C800003689B68184730B58BB000238DF824300B
:107C9000012A98BF0A2209AC0D46B1FBF2F101FBA3
:107CA000125303F0FF03092B94BF30333733DBB299
:107CB000AA4204F8013DEFD92146FFF7CFFF0BB0F0
:107CC00030BD10B50446FEF70FFB204610BD000086
:107CD0000348044A04490023836000F06DBD00BFDF
:107CE00020E6032010E40320C37C0D0010B50446F9
:107CF00008462170FEF7CCFF00236360204610BDCC
:107D000010B504460068FFF795F9204610BD10B580
:107D10000446006808B1FFF78DF90023C4E9013378
:107D2000236010BD38B504460D4600680131FFF7E9
:107D300089F910B1C4E90005012038BD10B5036808
:107D4000044623B143688B4201D3012010BD204675
:107D5000FFF7E8FF0028F9D0A368002BF5D12268CF
:107D60001370F2E737B50D46114601920446FFF74E
:107D7000E5FF019A28B92046FFF7C9FF204603B066
:107D800030BDA2602946206801F08CF92268A36802
:107D90000021D154F2E7002313B5C0E900330446B3
:107DA0008360037341B10846019101F0FEF9019926
:107DB00002462046FFF7D6FF204602B010BD88429B
:107DC00010B5044605D00B682BB18A681946FFF739
:107DD000C9FF204610BDFFF79AFFFAE710B5002350
:107DE0000446C0E9003383600373FFF7E8FF2046D1
:107DF00010BD70B505460E4609B9002070BD6AB1C8
:107E0000846814442146FFF799FF0028F5D02868BC
:107E1000AB683146184401F0A3F9AC600120EDE7EE
:107E200013B5044629B92046FFF771FF204602B07A
:107E300010BD0846019101F0B8F9019902462046AB
:107E4000FFF7D7FF0028EED0F0E708B582683AB90F
:107E500021B10878B0FA80F0400900E0012008BDA7
:107E6000006809B90078F5E701F070F9F2E710B59C
:107E70000446006818B1FFF7DDF80023236010BD49
:107E800038B5B1F9043083800B460D4653F8062F00
:107E9000C0F806209B8843810446FFF7E8FF2B6863
:107EA00013B1236000232B60204638BD38B50C4643
:107EB0000546FFF7DCFF44B12088FFF7B3F82860E0
:107EC00028B12288214601F0EDF8002038BD014894
:107ED000FCE700BFFCFEFFFF07B50B460021024692
:107EE000009101208C21FEF7D3FF03B05DF804FB65
:107EF00001460020FFF7F0BF0020FFF7F9BF0000A8
:107F0000F0B52D4D0B7D04468BB00846AF1D002B00
:107F100038D00B681B79002B34D00022274B0493F8
:107F200002A904300292ADF80C208DF80E20FEF765
:107F3000A5FFDDF80E30C5F8063000B2BDF81230EE
:107F4000ADF80C00A8800299BB802846FFF7AEFF71
:107F500002A8FFF78CFF00232360A380A371238175
:107F60004FF6FF736381B5F90430A3803B68C4F812
:107F70000630BB88296863812046FFF797FF2046BB
:107F80000BB0F0BD00262023CDE902360C4B009348
:107F90000C49334602AA3220FEF702FF074B049336
:107FA00002A94FF6F263044802968DF80E60ADF810
:107FB0000C30FFF765FFCBE730E603200000FFFF42
:107FC000439A0D003C9A0D0010B5094B094C022252
:107FD00000201A60084B2060A080A071A360FEF70B
:107FE00001FF2046054A0649BDE8104000F0E4BB09
:107FF0003CE6032030E603200000FFFF10E40320EE
:108000009B410D002DE9F041154ADFF86080D2E96F
:108010000032C01842EB0101124AD2E90032C61800
:1080200041EB0207D8E90023BB4208BFB2428CB043
:1080300013D003A96846CDE90067FFF73BF8089B1A
:10804000094D03F26C7303AC08930FCC0FC50FCC32
:108050000FC5C8E9006723682B600CB0BDE8F0814C
:1080600078E6032070E6032048E6032080E603203C
:1080700008B50020FEF75EFF28B1FEF733FF80F061
:108080000100C0B208BD0120FCE71FB502460B4647
:1080900068460021CDE90023CDE90211FEF740FD3D
:1080A000024610B90146FEF7CDFE05B05DF804FBAF
:1080B00030B504461848D0E90010521840EB0303CD
:1080C0001648D0E90010521893B040EB0303CDE9F5
:1080D000002324220DEB0200002101F00BF8002503
:1080E00009A96846FEF7E6FF1622294603A802956D
:1080F00001F000F802A909A800F08AFF02A801F027
:1081000054F812AB184402A900F8415C2046FFF76E
:1081100042FE204613B030BD78E6032070E603200F
:108120002DE9F04FA5B00746884614A811463F2216
:108130001D4601F042F8002314A88DF88F3001F09D
:1081400034F804465DBB2A4903A801F009F814AECF
:10815000002504F1FF3BAB4536D9B14605F1010AD4
:1081600019F8013B252B17D173787A2B14D103A86A
:1081700001F01BF814AB044628181844ABEB0502B9
:10818000B11C00F08FFF224603A9304600F08AFFA1
:1081900014A801F00AF804464E465546D9E73C219A
:1081A00095FBF1F3002BB8BF5B42B3FBF1F201FB8F
:1081B000123300930F4A4FF46163102103A895FB1B
:1081C000F3F3FEF74FFFC2E700212E2208A8079124
:1081D00000F090FF434614AA322107A8FEF762FF81
:1081E00007A93846FFF7D7FD384625B0BDE8F08F20
:1081F0006A9A0D006C9A0D00F0B58DB0CDE90023A0
:10820000129D044615B9194B1D682DB1184B28460F
:10821000196800F09BFF38B9DDE900232046FFF71D
:1082200047FF20460DB0F0BD124E0099124FD6E91F
:1082300000325B18019941EB0202D7E900011B18DB
:1082400041EB0202CDE900320021242203A800F014
:1082500051FF03A96846FEF72DFF32683B6803A96A
:10826000134420462A46FFF75BFFDAE744E6032083
:10827000A8E3032078E6032070E6032010B5002071
:10828000FEF736FC0446A0B9FEF7A4FD012810D184
:108290002046FEF7CFFD60B9FFF7EAFE10B9FEF702
:1082A00011FEF9E7FFF7E4FEBDE810400020FEF7FD
:1082B0001FBC204610BD1FB5FFF7E0FF10220021B4
:1082C000684600F017FF00216846FEF721FC009881
:1082D00005B05DF804FB000008B5FFF7ECFFC1171F
:1082E000FFF790FE014B986808BD00BF48E60320E9
:1082F00008B5FFF7E0FFC117FFF784FE014B58698F
:1083000008BD00BF48E60320024B1A68024B1A6002
:10831000704700BFA8E3032044E603207047417480
:10832000704708B5007CFEF7FBFC20EAE07008BD52
:1083300008B5007CFEF7CCFC20EAE07008BD08B56B
:10834000007CFEF7D5FC40EAE07008BD08B5007C73
:10835000FEF7C6FC40EAE07008BD007CFEF7D0BC2A
:1083600037B5457C04462DB1207C03B0BDE83040D4
:10837000FEF7A6BC007C0191FEF7D2FC0028019913
:10838000F2DC284603B030BD10B51421044600F0DD
:1083900018FA204610BD000010B54FF0000C04463E
:1083A000084611464FF47A72C4E901C2044A2260B9
:1083B0000122207462741A46FEF77AFC204610BD32
:1083C0009C9A0D0013B50E4C2178BFF35B8F11F012
:1083D000010112D120460191FBF76EFE019960B1B7
:1083E000084A094B0948FFF7D7FF2046FBF769FE0B
:1083F000074A0849054800F0DFF9044802B010BDFB
:1084000088E603208CE6032010E7032094E703208E
:1084100010E403201D830D0041747047704708B5B8
:108420000021007CFEF79CFC40EAE07008BD08B526
:108430000121007CFEF794FC40EAE07008BD08B51D
:10844000007CFEF785FC20EAE07008BD08B5007CE2
:10845000FEF776FC20EAE07008BD13B50446007C08
:108460000191FEF775FC0028019901DC607C20B1C8
:10847000207CFEF77DFC20EAE07002B010BD007C9D
:10848000FEF77EBC10B51421044600F09AF9204690
:1084900010BD000010B54FF47A7304460846002161
:1084A000C4E90113044B2360012320746374114653
:1084B000FEF73EFC204610BDCC9A0D0010B51422EC
:1084C0000446002100F016FE204610BD10B5104CE9
:1084D00088B003A8FFF7F2FF2178BFF35B8F11F09C
:1084E000010111D120460191FBF7E6FD019958B138
:1084F00003AA0848FFF7CEFF2046FBF7E2FD064A35
:108500000649044800F058F9024808B010BD00BF01
:10851000A8E70320ACE7032010E403201D840D002E
:10852000014B1860704700BFACE3032008B50B4B4C
:1085300043B1FFF7CBFF03681B699847002801DDB3
:10854000AFF30080064B43B1FFF73CFF03681B69A4
:108550009847002801DDAFF3008008BD000000004F
:108560000000000008B5FFF7E1FFFEF7B9FA014B84
:10857000186008BDD4E703200248034A0349121AD1
:1085800000F090BD00F4032004FC0320809C0D004B
:1085900007B5002300931A466FF07701FEF764FCDD
:1085A00003B05DF804FB000007B543880A2B08D030
:1085B000502B0BD1094B1B684BB103B05DF804EB9A
:1085C0001847FFF7E5FF03B05DF804FB00230093B5
:1085D0001A466FF07701FEF747FCF4E7C4E7032083
:1085E00038B5124C1248134D0021FEF753FD236895
:1085F000AB42114B0CBF012200221A7002D0FFF7D0
:10860000BBFF2560FEF754FA044600F07BFD0B4BE0
:1086100013B12046AFF3008000210848FEF7A2FC0A
:10862000BDE8384006480021FEF714BC00FC0320DA
:1086300021850D001E1C279AC0E7032000000000C2
:10864000A9850D0008B5024B1B681B68019308BD86
:108650005C02030008B5024B1B685B68019308BD10
:108660005C02030008B5024B1B689B68019308BDC0
:108670005C020300232813B502D9002002B010BD0C
:10868000A0F10B03022B1AD8174C2178BFF35B8F94
:1086900011F001010BD120460191FBF70DFD01996D
:1086A00028B11248FFF722FB2046FBF70AFD0F4BCB
:1086B0001878FEF7F5FA0028DFD10120DEE701285F
:1086C00009D800F051F80021007CFEF7A1FA80F0F3
:1086D0000100C0B2D2E709380128EED8FFF772FED8
:1086E000007CFEF715FBF2E7C8E70320CCE7032088
:1086F000232838B504460D460AD8FF2908D0FFF7CD
:10870000B9FF28B129462046BDE83840FEF718BA1F
:1087100038BD10B50446FEF71BFA031FDBB2012B70
:1087200008D92046FFF7A6FF20B12046BDE810403B
:10873000FEF716BA002010BD38B50023202543806F
:10874000142304460380856005610649284600F02D
:108750003CF804496060284600F037F8E0602046A5
:1087600038BD00BFF49A0D0030B50F4D2978BFF326
:108770005B8F11F0010487B013D12846FBF79CFCF6
:1087800078B101A8FFF7D8FF01AA21460748FFF7F3
:108790009DF82846FBF795FC054A0649034800F07A
:1087A0000BF8024807B030BDD8E70320DCE7032010
:1087B00010E4032075780D000B460146184600F0C2
:1087C00051BCFBF76CBCFBF766BCFBF766BC08B59D
:1087D000FEF750FC81F0004102E000BF83F000434F
:1087E00030B54FEA41044FEA430594EA050F08BF4C
:1087F00090EA020F1FBF54EA000C55EA020C7FEA10
:10880000645C7FEA655C00F0E2804FEA5454D4EB8C
:108810005555B8BF6D420CDD2C4480EA020281EA56
:10882000030382EA000083EA010180EA020281EA8E
:108830000303362D88BF30BD11F0004F4FEA0131E0
:108840004FF4801C4CEA113102D0404261EB4101EF
:1088500013F0004F4FEA03334CEA133302D0524275
:1088600063EB430394EA050F00F0A780A4F1010431
:10887000D5F1200E0DDB02FA0EFC22FA05F280186B
:1088800041F1000103FA0EF2801843FA05F3594151
:108890000EE0A5F120050EF1200E012A03FA0EFCD0
:1088A00028BF4CF0020C43FA05F3C01851EBE371FA
:1088B00001F0004507D54FF0000EDCF1000C7EEB17
:1088C00000006EEB0101B1F5801F1BD3B1F5001F55
:1088D0000CD349085FEA30004FEA3C0C04F1010474
:1088E0004FEA445212F5800F80F09A80BCF1004F9D
:1088F00008BF5FEA500C50F1000041EB045141EA1F
:10890000050130BD5FEA4C0C404141EB0101013CE7
:1089100028BFB1F5801FE9D291F0000F04BF0146D6
:108920000020B1FA81F308BF2033A3F10B03B3F1A8
:1089300020020CDA0C3208DD02F1140CC2F10C0238
:1089400001FA0CF021FA02F10CE002F11402D8BF96
:10895000C2F1200C01FA02F120FA0CFCDCBF41EA62
:108960000C019040E41AA2BF01EB0451294330BD31
:108970006FEA04041F3C1CDA0C340EDC04F114040E
:10898000C4F1200220FA04F001FA02F340EA0300E5
:1089900021FA04F345EA030130BDC4F10C04C4F12B
:1089A000200220FA02F001FA04F340EA030029460B
:1089B00030BD21FA04F0294630BD94F0000F83F455
:1089C000801306BF81F480110134013D4EE77FEA38
:1089D000645C18BF7FEA655C29D094EA050F08BF84
:1089E00090EA020F05D054EA000C04BF1946104665
:1089F00030BD91EA030F1EBF0021002030BD5FEAA9
:108A0000545C05D14000494128BF41F0004130BDD0
:108A100014F580043CBF01F5801130BD01F0004524
:108A200045F0FE4141F470014FF0000030BD7FEA97
:108A3000645C1ABF194610467FEA655C1CBF0B4692
:108A4000024650EA013406BF52EA033591EA030FA9
:108A500041F4002130BD00BF90F0000F04BF0021A1
:108A6000704730B54FF4806404F132044FF00005D4
:108A70004FF0000150E700BF90F0000F04BF00214D
:108A8000704730B54FF4806404F1320410F00045B3
:108A900048BF40424FF000013EE700BF42004FEAAE
:108AA000E2014FEA31014FEA02701FBF12F07F432B
:108AB00093F07F4F81F06051704732F07F4208BFE2
:108AC000704793F07F4F04BF41F40021704730B5E9
:108AD0004FF4607401F0004521F000411CE700BF35
:108AE00050EA010208BF704730B54FF000050AE0B8
:108AF00050EA010208BF704730B511F0004502D5B9
:108B0000404261EB41014FF4806404F132045FEABA
:108B1000915C3FF4D8AE4FF003025FEADC0C18BF63
:108B200003325FEADC0C18BF033202EBDC02C2F155
:108B3000200300FA03FC20FA02F001FA03FE40EAE7
:108B40000E0021FA02F11444BDE600BF70B54FF0EB
:108B5000FF0C4CF4E06C1CEA11541DBF1CEA1355C9
:108B600094EA0C0F95EA0C0F00F0DEF82C4481EA31
:108B7000030621EA4C5123EA4C5350EA013518BF51
:108B800052EA033541F4801143F4801338D0A0FB3E
:108B900002CE4FF00005E1FB02E506F00042E0FBEB
:108BA00003E54FF00006E1FB03569CF0000F18BFF1
:108BB0004EF0010EA4F1FF04B6F5007F64F5407499
:108BC00004D25FEA4E0E6D4146EB060642EAC6212C
:108BD00041EA55514FEAC52040EA5E504FEACE2E99
:108BE000B4F1FD0C88BFBCF5E06F1ED8BEF1004F9C
:108BF00008BF5FEA500E50F1000041EB045170BD18
:108C000006F0004646EA010140EA020081EA03015B
:108C1000B4EB5C04C2BFD4EB0C0541EA045170BD57
:108C200041F480114FF0000E013C00F3AB8014F1D1
:108C3000360FDEBF002001F0004170BDC4F100041A
:108C4000203C35DA0C341BDC04F11404C4F120059B
:108C500000FA05F320FA04F001FA05F240EA0200F6
:108C600001F0004221F0004110EBD37021FA04F62C
:108C700042EB06015EEA430E08BF20EAD37070BDE6
:108C8000C4F10C04C4F1200500FA04F320FA05F045
:108C900001FA04F240EA020001F0004110EBD37047
:108CA00041F100015EEA430E08BF20EAD37070BDB7
:108CB000C4F1200500FA05F24EEA020E20FA04F390
:108CC00001FA05F243EA020321FA04F001F000413F
:108CD00021FA04F220EA020000EBD3705EEA430EB0
:108CE00008BF20EAD37070BD94F0000F0FD101F0DF
:108CF0000046400041EB010111F4801F08BF013C18
:108D0000F7D041EA060195F0000F18BF704703F055
:108D10000046520043EB030313F4801F08BF013DDC
:108D2000F7D043EA0603704794EA0C0F0CEA135598
:108D300018BF95EA0C0F0CD050EA410618BF52EA52
:108D40004306D1D181EA030101F000414FF0000058
:108D500070BD50EA410606BF1046194652EA430666
:108D600019D094EA0C0F02D150EA013613D195EADA
:108D70000C0F05D152EA03361CBF104619460AD122
:108D800081EA030101F0004141F0FE4141F470012C
:108D90004FF0000070BD41F0FE4141F4780170BD1C
:108DA00070B54FF0FF0C4CF4E06C1CEA11541DBF81
:108DB0001CEA135594EA0C0F95EA0C0F00F0A7F883
:108DC000A4EB050481EA030E52EA03354FEA0131B0
:108DD00000F088804FEA03334FF0805545EA1313C3
:108DE00043EA12634FEA022245EA111545EA10658B
:108DF0004FEA00260EF000419D4208BF964244F122
:108E0000FD0404F5407402D25B084FEA3202B61A40
:108E100065EB03055B084FEA32024FF480104FF414
:108E2000002CB6EB020E75EB030E22BFB61A754688
:108E300040EA0C005B084FEA3202B6EB020E75EB1B
:108E4000030E22BFB61A754640EA5C005B084FEA83
:108E50003202B6EB020E75EB030E22BFB61A754650
:108E600040EA9C005B084FEA3202B6EB020E75EB5B
:108E7000030E22BFB61A754640EADC0055EA060E1C
:108E800018D04FEA051545EA16754FEA06164FEA5F
:108E9000C30343EA52734FEAC2025FEA1C1CC0D10B
:108EA00011F4801F0BD141EA00014FF000004FF098
:108EB000004CB6E711F4801F04BF01430020B4F159
:108EC000FD0C88BFBCF5E06F3FF6AFAEB5EB030C11
:108ED00004BFB6EB020C5FEA500C50F1000041EB0E
:108EE000045170BD0EF0004E4EEA113114EB5C04DB
:108EF000C2BFD4EB0C0541EA045170BD41F48011AE
:108F00004FF0000E013C90E645EA060E8DE60CEAB5
:108F1000135594EA0C0F08BF95EA0C0F3FF43BAFD2
:108F200094EA0C0F0AD150EA01347FF434AF95EA89
:108F30000C0F7FF425AF104619462CE795EA0C0F6D
:108F400006D152EA03353FF4FDAE1046194622E73A
:108F500050EA410618BF52EA43067FF4C5AE50EA14
:108F600041047FF40DAF52EA43057FF4EBAE12E704
:108F70004FEA4102B2F1E04324BFB3F5001CDCF13B
:108F8000FE5C0DD901F0004C4FEAC0024CEA507073
:108F9000B2F1004F40EB830008BF20F001007047A2
:108FA00011F0804F21D113F13872BCBF01F00040A5
:108FB000704741F480114FEA5252C2F11802C2F1D7
:108FC000200C10FA0CF320FA02F018BF40F0010058
:108FD0004FEAC1234FEAD32303FA0CFC40EA0C000A
:108FE00023FA02F34FEA4303CCE77FEA625307D147
:108FF00050EA01331EBF4FF0FE4040F4400070477E
:1090000001F0004040F0FE4040F40000704700BF17
:1090100010B50C4641690369826986B001F26C7132
:109020000491016803914168029181680191C168CE
:109030000091074903EB43030B44064902EB42024C
:109040000A4420460449FEF705F8204606B010BD44
:109050002A9B0D00159B0D00F59A0D000A22002198
:1090600000F038B910B5054C13462CB10A4601463C
:109070000220AFF3008010BD2046FCE70000000096
:1090800038B5074B1D68EB6B04461BB92420FDF770
:10909000C9FFE863E96B2046BDE83840FEF712B827
:1090A000ACE303200A44914200F1FF3300D1704742
:1090B00010B511F8014B03F8014F9142F9D110BDE1
:1090C000884210B501EB020402D98442234607D836
:1090D000431EA14208D011F8012B03F8012FF8E735
:1090E000024401468A4200D110BD13F8014D02F836
:1090F000014DF7E702440346934200D1704703F85D
:10910000011BF9E738B50D4B1D68AB6B04467BB905
:109110001820FDF787FF0A4A0A4BA863C0E900231D
:10912000094B83600B23838101220023C0E90423C0
:10913000AB6B00221C615A6138BD00BFACE3032059
:109140000E33CDAB34126DE6ECDE050010F8012BCA
:1091500011F8013B012A28BF9A42F7D0D01A704774
:10916000034611F8012B03F8012B002AF9D17047AF
:10917000024B0146186800F003B800BFACE30320BF
:1091800037B5044608460D4600F00FF8421C11465C
:1091900020460192FDF776FF044618B1019A294650
:1091A000FFF780FF204603B030BD034613F8012BC4
:1091B000002AFBD1181A0138704710B5013903464F
:1091C00032B111F8014F03F8014B013A002CF7D1ED
:1091D0001A440021934200D110BD03F8011BF9E7A6
:1091E0002DE9F0473A4E86468C4660461CF8014B06
:1091F000A55D15F00805F8D12D2C33D19CF8004061
:109200004FF0010800F1020C002B5CD0102B0CD1A8
:10921000302C0AD19CF8000000F0DF0058284DD116
:109220009CF8014010230CF1020C08F10047013FAB
:109230000026B7FBF3F9304603FB197AA4F1300599
:10924000092D18D82C46A34224DD751C07D0814572
:109250001DD301D1A2451ADB00FB034001261CF8F7
:10926000014BEBE72B2C08BF9CF80040A84608BF39
:1092700000F1020CC8E7A4F14105192D01D8373CD3
:10928000E1E7A4F16105192D04D8573CDBE74FF065
:10929000FF36E4E7731C06D12223CEF800303846AF
:1092A00042B9BDE8F087B8F1000F00D04042002A73
:1092B000F7D00EB10CF1FF311160F2E73024002B32
:1092C000B3D10823B1E7302CA4D00A23ADE700BF07
:1092D0004F9B0D0013460A46014602480068FFF7FF
:1092E0007FBF00BFACE3032021400D005D400D00B7
:1092F00085400D0089400D0000000000556E6B6E2A
:109300006F776E004E6F74204368617267696E6795
:1093100000436861726765640044697363686172E1
:1093200067696E67004661756C74004469636F6EAF
:109330006E65637465640031352E30300031004E47
:109340006F204461746100526573706F6E736520A5
:10935000526563656976656400556E6B6E6F776EF6
:1093600020726573706F6E736520726563657669D0
:10937000656420256900556269646F747320486FC5
:109380006F6B0053657420566572626F7365204D74
:109390006F646500436C6561726564205665726236
:1093A0006F7365204D6F64650053657420746F2082
:1093B0003372642050617274792053696D00536573
:1093C0007420746F205061727469636C65205369F6
:1093D0006D004B65657020416C697665207365741E
:1093E00020746F20256920736563004B65657020CC
:1093F000416C697665004C6F6164696E67205379D2
:109400007374656D2044656661756C7473007B22AE
:1094100054656D7065726174757265223A25342EDB
:1094200031662C202248756D6964697479223A2569
:10943000342E31662C2020224C7578223A25342E89
:1094400031662C2020225768697465223A25342E13
:1094500031662C202022414C53223A25342E31668D
:109460002C2242617474657279223A25697D006507
:109470006E7669726F6E6D656E74616C2D686F6F5C
:109480006B0046726F6D20257320746F202573006A
:109490005374617465205472616E736974696F6E80
:1094A000004C6F7720506F776572204D6F646500B8
:1094B00054727565004E6F726D616C204F706572ED
:1094C0006174696F6E730046616C73650025342E9C
:1094D00031662A430025342E31662525004C7578E7
:1094E000203A2025342E3166005768697465203A89
:1094F0002025342E316600414C53203A2025342E4D
:109500003166002569202525004572726F7220742E
:10951000616B696E67204D6561737572656D656E0F
:10952000747300537461746500737061726B2F649F
:1095300065766963652F73657373696F6E2F656EEA
:1095400064004572726F72205374617465202D201F
:109550005265736574002F686F6F6B2D7265737041
:109560006F6E73652F656E7669726F6E6D656E7462
:10957000616C2D686F6F6B2F0052656C6561736550
:109580000074656D70657261747572650068756DE3
:109590006964697479004C7578005768697465006E
:1095A00052617720414C53004261747465727900B6
:1095B00042617474657279436F6E74657874004BA0
:1095C00065657020416C69766520536563006C6F3A
:1095D00077506F7765724D6F6465004D6561737587
:1095E00072652D4E6F7700566572626F73652D4DF3
:1095F0006F646500536574204C6F7720506F7765FA
:1096000072004572726F72202D20534854333120FE
:10961000496E697469616C697A6174696F6E00453D
:1096200072726F72202D2056454D4C20496E697420
:1096300069616C697A6174696F6E005374617274E8
:1096400075700000000000000000000039410D00AE
:109650004D410D00FD620D0089640D0049640D004F
:1096600027640D00CF650D006F640D000000000041
:109670000000000061410D0075410D00E1580D0032
:1096800077590D00F9590D00FC920D0004930D005F
:1096900008930D0011930D0019930D0025930D00F3
:1096A0002B930D005374617274757020537563634E
:1096B00065737366756C0000000000000000000018
:1096C000000000000000000000000000000000009A
:1096D000000000000000000000000000000000008A
:1096E0000000000005000000777269746544617431
:1096F00061206661696C656420647572696E6720BB
:109700006572617365206672616D416464723D25A6
:1097100075000000000000000000000001580D006E
:1097200003580D00E1580D0077590D00F9590D004F
:1097300064657669636552656164206661696C651C
:109740006420737461743D256400736574205469EA
:109750006D652066726F6D2052544320257300643E
:1097600065766963655772697465206661696C65C1
:109770006420737461743D256400736574205254D1
:10978000432066726F6D20636C6F756420257300D3
:10979000636C6F75642074696D65206E6F742076DC
:1097A000616C6964006465766963655772697465A4
:1097B000454550524F4D206661696C656420737455
:1097C00061743D2564006170702E72746300000046
:1097D0000000000000000000B95A0D00CF5A0D0033
:1097E000A95A0D00AD5A0D00F95A0D00E15D0D00AA
:1097F00001600D000000000000000000BD5A0D00D7
:10980000C15A0D000000000000000000BB5A0D000E
:10981000DD5A0D00B15A0D00B55A0D00F95A0D0070
:109820001B5E0D0041620D00000000000000000002
:10983000BF5A0D00EB5A0D005075626C6973685188
:10984000756575654173796E6300717565756569D8
:109850006E67206576656E744E616D653D2573207B
:10986000646174613D25732074746C3D25642066C9
:109870006C616773313D256420666C616773323DAE
:1098800025642073697A653D2564007075626C6992
:109890007368696E672025732025732074746C3D8E
:1098A000256420666C6167733D2578007075626C75
:1098B0006973686564207375636365737366756C3B
:1098C0006C79007075626C697368656420666169A3
:1098D0006C65642C2077696C6C20726574727920D9
:1098E000696E20256C75206D73006170702E707527
:1098F0006271000000000000000000000000000095
:1099000000000000FD620D00A5400D00A5400D0007
:10991000A5400D00A5400D00A5400D000000000071
:1099200000000000E5630D00F9630D00FD620D000D
:1099300089640D0049640D0027640D00CF650D009A
:109940006F640D000000000000000000EF710D00CA
:10995000E5710D00DB710D0091710D00CF710D00EF
:10996000C3710D00B7710D00AF710D00A5710D0031
:109970009B710D00497B0D000000000000000000FD
:1099800029720D002F720D006D720D003D720D00D9
:109990002B720D00000000000000000057780D0041
:1099A0004D780D0043780D0039780D002D780D00AD
:1099B00021780D0015780D000D780D0003780D004D
:1099C000F9770D00497B0D00000000000000000049
:1099D00075780D00BF780D0097780D0077780D0031
:1099E0009F780D00A7780D00AF780D00B7780D00B7
:1099F0000000000000000000FD790D00ED790D0071
:109A0000EF790D00617070000000000000000000A0
:109A1000E17A0D00EB7A0D00F57A0D00FF7A0D006A
:109A2000097B0D00157B0D00217B0D002D7B0D00AA
:109A3000357B0D003F7B0D00497B0D007769726916
:109A40006E670053797374656D20736C6565702063
:109A5000636F6E66696775726174696F6E20697392
:109A600020696E76616C69642E005A00252B3033B4
:109A7000643A253032750025592D256D2D25645405
:109A800025483A254D3A2553257A00617363746958
:109A90006D65000000000000000000001D830D0047
:109AA00089830D0061830D00317C0D0031830D0031
:109AB0004D830D003F830D005B830D001F830D0060
:109AC00023830D0000000000000000001D840D0035
:109AD00085840D005B840D00317C0D004D840D00EC
