:02000002D0002C
:1040000000400D0050B10D00000006000D0005013C
:084010000401D50700000000C7
:0440180024A50D00CE
:1040200009480A49884208B505D0094A824202D0A7
:10403000121A03F02BFF0748074A0021121A03F057
:1040400033FF014808BD00BFE0E003200CAE0D00C7
:10405000FCE3032000E40320F1E7032070B5074EE2
:10406000074C02F0C3FEA41BA4080025A54200D102
:1040700070BD56F8043B98470135F7E7DCAD0D00FD
:1040800000AE0D0000F0A2BA08B500F06DFDBDE86D
:10409000084002F06DBE01F055BD01F053BD01F0C6
:1040A00059BD0078B0FA80F04009704701230370D1
:1040B0007047000008B5044902F0E0FB18B1034B5B
:1040C00003221A70012008BD0BA90D0004E503208E
:1040D00010B50446006808B101F03CFD204610BD53
:1040E0000023042201F086BC37B59DF818501D430B
:1040F0008DF800503C23044601F052FF204603B0E7
:1041000030BD00002DE9F84F01F08CFCDFF858A01D
:104110004FF496744FF0000B40F2E7384FF000096F
:10412000002001F0F1FA0546002001F0EDFA461BEF
:1041300061EB0B07B94508BFB04505D301F07AFC28
:1041400010B901F067FCEFE701F074FC18B1BDE8AD
:10415000F84F01F06FBC01F0A7FACAF8000001F0B7
:1041600059FC013CDCD1F2E79CE7032010B584B296
:104170000121204602F0BBFE4FF47A7001F022FDCF
:104180002046002102F0B3FEBDE810404FF47A70E3
:1041900001F018BD08B501F087FA044B1B68C01A7E
:1041A000B0F57A7F34BF0020012008BD5CE4032015
:1041B00008B5FFF7EFFF10B901F02CFCF9E7BDE8F7
:1041C0000840FFF7E7BF000013B5154C206A03F065
:1041D0006DF8144ACDE900011821134801F0D2FC12
:1041E000606A03F063F8114ACDE900011821104814
:1041F00001F0C8FCA06A03F059F80E4ACDE90001AD
:1042000018210D4801F0BEFCE06A03F04FF80B4A9C
:10421000CDE9000118210A4801F0B4FC02B010BD3C
:10422000B8E4032038A50D003BE5032049A50D00A7
:104230007AE403205AA50D0022E503206EA50D00A7
:1042400061E4032038B5046805467CB16368013B2E
:1042500063605BB9236820469B689847A368013B6D
:10426000A3601BB923682046DB689847284638BD01
:1042700030B5284CCDB0082502F052FE284625491D
:104280004022643501F028FAB5F5CC7FF4D1A06B5B
:1042900003F00CF8CDE90801606B03F007F8CDE9F5
:1042A0000601206B03F002F8CDE90401D4E90623EE
:1042B000CDE90223D4E904234FF48071CDE9002332
:1042C0000CA8154A154C01F05DFC00238DF8003058
:1042D000134B14491B780CAA0AA8FFF705FF0BA87B
:1042E000FFF7B0FF02F098FBC117C4E9000102F02C
:1042F00017FE2178032001F0E7F902F09DFB0A4B3D
:1043000018700A4B01221A7001F0CEF9084B1860A0
:104310004DB030BDB8E4032083A50D0040E4032078
:1043200025E40320D7A50D0048E40320E0E00320A6
:1043300090E5032030B51E4D85B00C4681B92B7831
:1043400043B3FFF735FF1B4B8DF800401B781A4A2B
:104350001A4902A8FFF7C8FE03A8FFF773FF19E088
:10436000084603F08AFCC83801282B7814D873B1AA
:10437000FFF71EFF00238DF800300E4B104A1B780C
:10438000104902A8FFF7B0FE03A8FFF75BFF0E4B32
:1043900000221A7005B030BD002BFBD0FFF708FFDC
:1043A00000238DF80030034B22461B78D0E700BF76
:1043B000BCE1032025E40320E0A50D00E8A50D00E5
:1043C000F5A50D0007A60D00E0E003202DE97F43D1
:1043D000664C67480025257001F02AF9B5EE400AC1
:1043E000F1EE10FA00F0AF8002F016FB614BC1173E
:1043F000C3E9000102F02CFB1E2800F0A0802D284C
:1044000000F09F800F2814BF03262E46584801F065
:104410000FF910EE100A02F049FF574AC4E90401EF
:10442000CDE900011021554801F0ACFB504801F0E6
:104430000DF910EE100A02F039FF514AC4E90601E5
:10444000CDE9000110214F4801F09CFB4E4800F0DF
:10445000FFFE4D4884ED0C0A00F01AFF4A4884ED37
:104460000D0A00F095FE07EE900AF8EE677A206BD1
:10447000C4ED0E7A02F01AFF444ACDE90001102182
:10448000434801F07FFB606B02F010FF414ACDE929
:1044900000011021404801F075FBA06B02F006FFFF
:1044A0003E4ACDE9000110213D4801F06BFB3D4B38
:1044B000606AD3E9008902F0F9FE42464B4603F0F8
:1044C000DDF910B1384B01221A70206A02F0EEFEBD
:1044D00002460B464046494603F0D0F910B1334B33
:1044E00001221A70324BE06AD3E9008902F0DEFE45
:1044F00042464B4603F0C2F910B12E4B01221A700E
:10450000A06A02F0D3FE02460B464046494603F03D
:10451000B5F910B1284B01221A700125257002F05F
:104520007BFA606002F0FCFC642070430F4940227B
:10453000083001F0D9F8284604B0BDE870830126A0
:1045400064E7022662E71D4B8DF800501B781C4A79
:104550001C4902A8FFF7C8FD03A8FFF773FE02F08D
:1045600069FB194902F0A5F8E5E700BFB8E40320AC
:10457000F8E4032040E403200DA60D0010E503201D
:1045800015A60D0049E4032054E503201DA60D00E7
:1045900092E4032029A60D0094E5032037A60D0020
:1045A00004E4032008E5032079E403203AE503202E
:1045B000A8E4032060E4032021E5032024E4032091
:1045C00043A60D0060A60D0064A60D0070B5BCB03A
:1045D00002F030FB4FF4E13102F020FB02F02AFB45
:1045E000AC4902F066F8AC4B0CAA03F11005164674
:1045F00018685968144603C40833AB422246F7D101
:1046000019889B7821802D22A3700021A34D0DF1E4
:10461000430003F049FC0223012107202B7002F024
:1046200055FC0121052002F051FC04A801F00AFA12
:1046300000237D221CA904A802F032F900231A46A7
:10464000CDE9003396491CA801F00CFA954B964829
:104650001968FFF745FD95499548FFF741FD9549D4
:104660009548FFF73DFD93499448FFF739FD91497F
:104670009348FFF735FD8F499248FFF731FD924986
:104680009248FFF72DFD92499248FFF729FD924984
:104690009248FFF725FD92499248FFF721FD924984
:1046A0009248FFF71DFD924A9249934801F074FB2E
:1046B000924A9349904801F06FFB924A92498E4882
:1046C00001F06AFB914A92498B4801F065FB914ADF
:1046D0009149894801F060FB9049914A864801F070
:1046E0005BFB9048442100F00EFF88B900F0DCFF2E
:1046F0008D4C8E492060304603F00CFC02F09AFA93
:104700008B4901F0D6FF01232B7000F0CDFF206014
:1047100002F034FC0146874800F0DDFD88B900F066
:10472000C3FF814C84492060304603F0F3FB02F064
:1047300081FA824901F0BDFF01232B7000F0B4FF24
:10474000206041F2883001F03DFA02F017FC01468A
:1047500078487B4C00F0BFFD58B100238DF8003045
:1047600008A82378774A7849FFF7BEFC09A8FFF725
:1047700069FD7048002100F025FD6E48032100F01E
:1047800018FD6C4800F021FD032817D8DFE800F081
:10479000023033330A22012108A802F05CF800231A
:1047A0008DF800302378089A684902A8FFF79CFC2E
:1047B00003A8FFF747FD08A801F0C2FF00238DF80A
:1047C00000302378624A634908A8FFF78DFC09A8E6
:1047D000FFF738FD574800F0EFFC0C2822D8DFE83F
:1047E00000F0C6C9CCD021212121C32121210D00F7
:1047F0000A220221D0E70A220021CDE70A2219214C
:1048000008A802F028F800238DF800302378089AD1
:104810004F4902A8FFF768FC03A8FFF713FD08A89B
:1048200001F08EFF434842F2107100F03DFE414816
:1048300044F6206100F03CFE01213E4800F0B3FC4C
:10484000FFF7C4FDFFF7C0FCFFF75CFC48B901238C
:104850002B7000F029FF344B3F491860304603F0BD
:1048600059FB3E4B1B785BB100238DF8003008A844
:1048700023783B493246FFF737FC09A8FFF7E2FCF3
:1048800000F012FF374B186004A801F059FF3CB04C
:1048900070BD00BF7CA60D000DA90D0004E503202E
:1048A00035430D00E4E0032087A60D0010E503204A
:1048B0008FA60D0049E403209BA60D00A4A60D00C1
:1048C000A8A60D00AEA60D003BE50320B6A60D0080
:1048D0007AE40320C8A60D0022E50320DAA60D0025
:1048E00061E40320E9A60D002CE40320F8A60D00E6
:1048F00000A70D00B5400D006D5D0D000CA70D006B
:10490000794A0D0019A70D00A94D0D002AA70D0029
:10491000FD4D0D003BA70D00A54E0D00514E0D00A5
:1049200050A70D00F8E40320B0E4032064A70D00B5
:1049300081A70D0054E5032095A70D00B1A70D0038
:1049400025E40320C4A70D00D5A70D00DCA70D00AA
:10495000E1A70D00BFA70D00F2A70D00BCE10320E9
:1049600004A80D005CE403200A22322148E70A2251
:10497000642145E70A22C82142E70A224FF4C871A0
:104980003EE70A224FF448713AE700BF30B52D4B9D
:104990002D4C1B788DB013B92C4B1B78EBB12C4BE5
:1049A000D3E900232021CDE9002304A8294A01F0FE
:1049B000E9F80520FFF7DAFBFFF7FAFB00238DF893
:1049C0000030254B25491B7804AA02A8FFF78CFB71
:1049D00003A8FFF737FC01232370214D2A7812B971
:1049E000204B1B78EBB1204BD3E900232021CDE9EC
:1049F000002304A81D4A01F0C5F80720FFF7B6FB05
:104A0000FFF7D6FB00238DF80030134B13491B78BA
:104A100004AA02A8FFF768FB03A8FFF713FC012311
:104A2000237002F015F8124B1860237833B10D4A49
:104A3000002313702B700F4B00221A6001200DB061
:104A400030BD00BF79E4032020E503203AE50320D0
:104A500008E503200CA80D0025E4032028A80D007C
:104A600021E5032060E40320A8E4032039A80D0019
:104A700020E40320B8E1032030B5144985B0054691
:104A800001F0FCFE044690B1114B124A01241C7047
:104A900000238DF80030104B1B78104902A8FFF757
:104AA00023FB03A8FFF7CEFB012005B030BD0C4966
:104AB000284601F0E3FE0028F7D0054B094A1C7098
:104AC000054B8DF800401B78E7E700BF0BA90D00F0
:104AD000BCE1032052A80D0025E4032075A80D00B9
:104AE00063A80D0065A80D0030B5184D184C194984
:104AF0002A7820788FB01A2303FB0212009203FB5E
:104B00000013154A282104A801F03CF82B782370E3
:104B100000F090FF90B1FFF74BFB00238DF80030C1
:104B20000E4B0F491B7804AA02A8FFF7DDFA03A871
:104B3000FFF788FB00F0B8FD0A4B186002F07AF826
:104B400004A901F0B6FD0FB030BD00BF04E503209D
:104B5000A2E40320E8E003207AA80D0025E4032066
:104B600088A80D005CE403207FB57B4C2378013BD3
:104B7000052B1CD8DFE813F0C40006004B003900F9
:104B800076009600754B1B782BB1754B1B78022B6A
:104B900001D0FFF7A9FF01F04FFF724B724D1B7858
:104BA000984206D001F054FF03232860237004B01C
:104BB00070BD01F04DFF2B68C01A0428F2DC6B4B6E
:104BC0001B784BB96A4B1B7833B96A4B1B781BB9FE
:104BD000694B1B78002BEAD001F03AFF674B1B684A
:104BE000C01A0428E3DD0423E0E75C4B1B782BB1FB
:104BF0005B4B1B78042B01D0FFF776FFFFF7E6FB3A
:104C000018B1FFF7C3FE0223D0E70123CEE7534ECE
:104C100032782AB1524B1B78032B01D0FFF764FF87
:104C2000FFF7D4FB0546D8B90123237000F03CFD03
:104C3000534B18603378002BB9D0FFF7B9FA514BBA
:104C40008DF800501B78504A504902A8FFF74CFAE3
:104C500003A8FFF7F7FA00F027FD4D4B1860A6E711
:104C60000523A3E73D4B1B782BB13D4B1B78052B50
:104C700001D0FFF739FF00F0DDFE68B101F0DCFE86
:104C80000C2805D100F0D6FE10B1002000F0F2FE95
:104C9000FFF7EEFA062389E70123237000F004FDF5
:104CA000374BDBE72D4B1B782BB12D4B1B78062B9D
:104CB00001D0FFF719FF374B1B78002BA3D000F072
:104CC000F3FC354B1B68C01A4AF6C87398427FF64E
:104CD0006EAF00F0E9FC2A4D304A286000238DF8C1
:104CE0000030284B2E491B7802A8FFF7FDF903A8D6
:104CF000FFF7A8FA0123237000F0D6FC286056E7DE
:104D0000164B1B782BB1164B1B78012B01D0FFF7EC
:104D1000EBFE00F0C9FC1A4B1B6803F5922303F568
:104D200078738342BFF443AF00F084FE60B1002388
:104D30008DF80030134B1B4A1B78144902A8FFF76B
:104D4000D3F903A8FFF77EFA4FF4FA6000F03AFFB8
:104D500001F0E0FD2BE700BF04E50320BCE10320E8
:104D6000A2E4032048E4032028E403203AE50320DA
:104D700079E4032021E5032060E4032020E40320FC
:104D8000B0E4032025E4032099A80D0007A60D0038
:104D90005CE40320E0E0032090E503207BA60D0007
:104DA000B3A80D00CCA80D0000B58BB0039001F0A6
:104DB0008FFD0F4B83ED080AFFF7FAF9039906A858
:104DC00001F02CFD00238DF800300A4B069A1B7869
:104DD000094904A8FFF788F905A8FFF733FA06A8E0
:104DE00001F0AEFCFFF7F0F901200BB05DF804FB19
:104DF000B8E4032025E40320E0A80D0000B58BB043
:104E0000039001F065FD0F4B83ED090AFFF7D0F920
:104E1000039906A801F002FD00238DF800300A4B2B
:104E2000069A1B78094904A8FFF75EF905A8FFF761
:104E300009FA06A801F084FCFFF7C6F901200BB0BF
:104E40005DF804FBB8E4032025E40320F4A80D007A
:104E500000B58BB0039001F03BFD0F4B83ED0A0AC8
:104E6000FFF7A6F9039906A801F0D8FC00238DF8F6
:104E700000300A4B069A1B78094904A8FFF734F959
:104E800005A8FFF7DFF906A801F05AFCFFF79CF927
:104E900001200BB05DF804FBB8E4032025E40320F7
:104EA000E0A80D0000B58BB0039001F011FD0F4B91
:104EB00083ED0B0AFFF77CF9039906A801F0AEFC1D
:104EC00000238DF800300A4B069A1B78094904A884
:104ED000FFF70AF905A8FFF7B5F906A801F030FCBD
:104EE000FFF772F901200BB05DF804FBB8E4032072
:104EF00025E40320F4A80D00124B134870B50024DC
:104F00001C70124B124D01261E7000F040F9114822
:104F100000F0D6FA104BAB6002202C60AC80AC7174
:104F200000F01AFD0D4A0E49284602F04FF82146BE
:104F3000304600F021FD31460420BDE8704000F00D
:104F4000A3BB00BF24E4032054E5032025E4032091
:104F500014E40320F8E403200000FFFF00E4032032
:104F6000D1400D004260002201700272704710B5FE
:104F7000037A044653B12178606801F035FA60681D
:104F800001F03AFAB0FA80F0400910BD00F003F8E1
:104F90000028F0D1F9E710B50446406801F0F2F9B5
:104FA000012323722046BDE81040FFF7E0BF2DE942
:104FB000F843DDE908961F469319202B04468846DE
:104FC000154602D90020BDE8F8830178406801F059
:104FD0000BFA7EB9606803682A46DB684146984749
:104FE0008542EFD16068394601F002FAB0FA80F0EC
:104FF0004009E8E7B9F1000FECD060680368324679
:10500000DB6849469847B042DCD1E3E7202A70B517
:1050100006460C4615460FD80178406801F0CFF9D6
:10502000A84209D12518A54208D0706803685B69B9
:10503000984704F8010BF6E7002070BD0120FCE75B
:1050400073B51D460023CDE900339DF81C30069E44
:105050000446FFF7ACFF40B1012332462946204603
:1050600002B0BDE87040FFF7D1BF02B070BD10B50F
:10507000016082809DF80C109DF80820C1710272B9
:10508000837110BD1FB58388ADF80C30C3790193CF
:1050900003AB009300680123FFF789FF05B05DF8BB
:1050A00004FBF0B40C4602B98279042A13D800F14B
:1050B000090583182946834209D0077AE6B227B941
:1050C0002E70240A0135013BF5E71E72F9E7F0BCAA
:1050D0001846FFF7D7BF0020F0BC704713B5044651
:1050E0000B46818804F8091F0021CDE90021012227
:1050F00021460068FFF7A4FF02B010BD38B500F1EB
:105100000905827929460446FFF7E8FF78B1A279BC
:10511000294622440020A2420BD00302207A20B963
:10512000107A1843013A0131F5E70878F9E74FF0B2
:10513000FF3038BD10B501600271437110BD10B56C
:1051400004460068FFF7DAFF23795A1C01239340D5
:105150006279013BD040184010BD70B5044600682C
:105160000E46FFF7CBFF2379012201339A40531EED
:10517000627903FA02F520EA050503EA06012068D0
:10518000914029438279BDE87040FFF78ABF70479C
:1051900008B54068FFF7B2FF80B208BDC06981F072
:1051A0000101FFF7DABF006AFFF7D7BF406AFFF7D8
:1051B000D4BF806AFFF7D1BF08B5806AFFF7BFFF91
:1051C000C0B208BDC06AFFF7C8BF08B5C06AFFF724
:1051D000B6FFC0B208BD10B52DED028B0446B0EE8F
:1051E000408AFFF7F2FF022818D0032813D00128C5
:1051F00003D1F6EE007A28EE278A2046FFF7DCFF7F
:1052000001380B2814D8DFE800F0181B1E13131305
:1052100013111313130CF1EE007AECE7F2EE007A9F
:10522000E9E7F1EE007A28EE278A01E038EE088AF5
:10523000B0EE480ABDEC028B10BDF6EE007AF2E744
:10524000F5EE007AEFE7F4EE007AECE700000000FC
:1052500010B504464068FFF751FF07EE900A20465C
:10526000B8EE670AFFF7B7FF10EE100A02F01EF85B
:1052700005A3D3E9002302F071F802F029FB00EE48
:10528000100A10BDAFF3008092CB7F48BF7DAD3FC9
:1052900010B504468068FFF731FF07EE900A2046FC
:1052A000B8EE670AFFF797FF10EE100A01F0FEFF55
:1052B00005A3D3E9002302F051F802F009FB00EE48
:1052C000100A10BDAFF3008092CB7F48BF7DAD3F89
:1052D000006BFFF742BF7FB504460C200391FEF739
:1052E000DAFE054618B1039A1021FFF73BFEA563CD
:1052F0002846FFF750FE0546002800F0D280102017
:10530000FEF7C9FE064638B101230022CDE900238D
:10531000A16B0223FFF7ABFE26601020FEF7BBFE59
:10532000064638B100230122CDE90032A16B0223E9
:10533000FFF79DFEE6601020FEF7ADFE064640B189
:1053400000230122CDE900320223A16B1A46FFF7A8
:105350008EFE26611020FEF79EFE064648B1002311
:105360004FF0010ECDE9003EA16B02230322FFF7AF
:105370007EFE66611020FEF78EFE064648B10023D1
:105380004FF0010CCDE9003CA16B02230422FFF792
:105390006EFE66601020FEF77EFE064640B10023DA
:1053A0000121CDE900310522A16B0223FFF75FFE49
:1053B000A6601020FEF76FFE064640B100230122D2
:1053C000CDE90032A16B02230622FFF750FEA66151
:1053D0000820FEF760FE064620B121680023012266
:1053E000FFF7A8FEE6610820FEF755FE064620B14D
:1053F000012321681A46FFF79DFE26620820FEF76A
:105400004AFE064620B1216804230222FFF792FEDD
:1054100066620820FEF73FFE064620B1216806239B
:105420000422FFF787FEA6620820FEF734FE064638
:1054300020B121680B230222FFF77CFEE6620820E0
:10544000FEF729FE064620B1616900230122FFF71D
:1054500071FE26630820FEF71EFE064620B1616934
:1054600001230222FFF766FE002120466663FFF754
:1054700095FE00212046FFF796FE00212046FFF70B
:1054800095FE00212046FFF79DFE00212046FFF7F4
:1054900090FE00212046FFF71BFF01212046FFF769
:1054A0007DFE284604B070BD00690022FFF7F9BDFB
:1054B000C0680022FFF7F5BD0368C9B29B681847B2
:1054C000704738B505460C4601F058FD297800F0C4
:1054D0008BFF01F053FD210AFFF7EEFF01F04EFDB7
:1054E000E1B2FFF7E9FF01F049FDBDE8384000F007
:1054F00083BF08B543F2A201FFF7E3FFBDE8084010
:105500000A2000F05FBB38B504460D4601F036FDB9
:1055100000F038FF20462570FFF7EBFF012038BD73
:105520000A44FF2091420ED011F8013B5840082355
:1055300010F0800F4FEA400018BF80F03100013BAF
:10554000C0B2F5D1EEE7704773B54FF41051054680
:10555000FFF7B7FF4FF4FA7000F034FB01F00EFDD7
:105560002978062200F03DFF01F008FD03681B6961
:10557000984706284BD16E46044601F0FFFC0368AD
:105580005B699847013C14F0FF0406F8010B69467B
:10559000F3D102222846FFF7C3FF9DF8026086423E
:1055A00035D102220DF103012846FFF7B9FF9DF81E
:1055B000056086422BD1BDF80000BDF8034040BA1B
:1055C00080B201F051FE18A3D3E9002301F0C6FE1A
:1055D00011A3D3E9002301F0EBFF114B002201F0EE
:1055E00005FD02F075F9A86060BA80B201F03CFEDA
:1055F0000C4B002201F0B2FE07A3D3E9002301F017
:10560000D7FF02F065F96860012002B070BD00208C
:10561000FBE700BFAFF3008000000000E0FFEF40B9
:1056200000804640000059400000000000E0654056
:1056300010B50446FFF788FF10B194ED020A10BDC3
:105640009FED010AFBE700BF0000C07F10B50446D4
:10565000FFF77AFF10B194ED010A10BD9FED010A2A
:10566000FBE700BF0000C07F08B5024B1B685B6C06
:10567000019308BD4802030008B5024B1B689B6CF0
:10568000019308BD4802030008B5024B1B685B6E1E
:10569000019308BD3402030008B5024B1B685B6828
:1056A000019308BD1802030008B5024B1B685B6933
:1056B000019308BD1802030008B5024B1B689B6AE2
:1056C000019308BD1802030008B5024B1B681B6B51
:1056D000019308BD1802030008B5024B1B685B6C00
:1056E000019308BD1802030008B5024B1B689B6CB0
:1056F000019308BD1802030008B5024B1B689B6D9F
:10570000019308BD1802030008B5024B1B68DB6D4E
:10571000019308BD1802030008B5024B1B685B6EBD
:10572000019308BD1802030008B5024B1B689B6873
:10573000019308BD2C02030008B5024B1B68DB680F
:10574000019308BD2C02030008B5024B1B681B69BE
:10575000019308BD2C02030008B5024B1B68DB68EF
:10576000019308BD2802030008B5024B1B689B6922
:10577000019308BD2802030008B5024B1B68DB69D2
:10578000019308BD2802030008B5024B1B681B6A81
:10579000019308BD2802030008B5024B1B685B6A31
:1057A000019308BD2802030008B5024B1B689B6AE1
:1057B000019308BD2802030008B5024B1B68DB6A91
:1057C000019308BD2802030008B5024B1B681B6B40
:1057D000019308BD2802030008B5024B1B685B6BF0
:1057E000019308BD2802030008B5024B1B681B6C1F
:1057F000019308BD2802030008B5024B1B681B6D0E
:10580000019308BD2802030008B5024B1B685B69C1
:10581000019308BD6402030008B5024B1B689B6836
:10582000019308BD6802030008B5024B1B68DB68E2
:10583000019308BD6802030008B5024B1B68DB69D1
:10584000019308BD3002030008B5024B1B681B6AB8
:10585000019308BD3002030008B5024B1B681B68AA
:10586000019308BD3C02030008B5024B1B68DB68CE
:10587000019308BD3C02030008B5024B1B681B697D
:10588000019308BD3C02030008B5024B1B685B692D
:10589000019308BD3C02030008B5024B1B689B69DD
:1058A000019308BD3C02030008B5024B1B68DB698D
:1058B000019308BD3C02030008B5024B1B681B6A3C
:1058C000019308BD3C02030008B5024B1B689B6AAC
:1058D000019308BD3C02030008B5024B1B681B681E
:1058E000019308BD4C02030008B5024B1B685B68BE
:1058F000019308BD4C02030008B5024B1B681B69ED
:10590000019308BD4C02030008B5024B1B685B699C
:10591000019308BD4C02030008B5024B1B689B694C
:10592000019308BD4C02030008B5024B1B68DB69FC
:10593000019308BD4C02030008B5024B1B681B6AAB
:10594000019308BD4C02030008B5024B1B681B689D
:10595000019308BD2002030008B5024B1B685B6879
:10596000019308BD2002030008B5024B1B685B6968
:10597000019308BD2002030008B5024B1B68DB6AD7
:10598000019308BD2002030008B5024B1B68DB6CC5
:10599000019308BD2002030008B5024B1B685B6D34
:1059A000019308BD2002030008B5024B1B689B6DE4
:1059B000019308BD2002030008B5034B1B68D3F810
:1059C0008830019308BD00002002030008B5034B96
:1059D0001B68D3F89430019308BD00002002030037
:1059E00008B5034B1B68D3F8B030019308BD000025
:1059F0002002030008B5024B1B681B68019308BD19
:105A00004402030008B5024B1B685B68019308BDA4
:105A10004402030008B5024B1B689B68019308BD54
:105A20004402030008B5024B1B68DB68019308BD04
:105A30004402030008B5024B1B685B69019308BD73
:105A40004402030008B5024B1B68DB69019308BDE3
:105A50004402030008B5024B1B681B6A019308BD92
:105A60004402030008B5024B1B685B6A019308BD42
:105A70004402030008B5024B1B68DB6A019308BDB2
:105A80004402030008B5024B1B681B6B019308BD61
:105A90004402030008B5024B1B68DB6B019308BD91
:105AA0004402030008B5024B1B685B68019308BD04
:105AB0004002030008B5024B1B689B68019308BDB8
:105AC0004002030008B5024B1B68DB68019308BD68
:105AD0004002030008B5024B1B681B69019308BD17
:105AE0004002030008B5024B1B685B69019308BDC7
:105AF0004002030008B5024B1B689B69019308BD77
:105B00004002030008B5024B1B68DB69019308BD26
:105B10004002030008B5024B1B681B6A019308BDD5
:105B20004002030008B5024B1B681B6B019308BDC4
:105B30004002030008B5024B1B685B6B019308BD74
:105B40004002030008B5024B1B681B68019308BDA7
:105B50001C02030008B5024B1B685B68019308BD7B
:105B60001C02030008B5024B1B689B68019308BD2B
:105B70001C02030008B5024B1B689B69019308BD1A
:105B80001C02030008B5024B1B68DB69019308BDCA
:105B90001C02030008B5024B1B68DB6A019308BDB9
:105BA0001C02030008B5024B1B681B6B019308BD68
:105BB0001C02030008B5024B1B685B6C019308BD17
:105BC0001C0203000021FFF7CFBE10B58368044616
:105BD0000BB901F004FAC3689847A3681BB103220C
:105BE00021462046984720461021BDE8104001F08C
:105BF000F2B910B50446006808B1FFF73DFD204634
:105C000010BD0B68036013B15A6801325A607047C7
:105C100010B5064C002320462360FFF725FD2046E3
:105C2000034A0449BDE8104001F0D0B9A4E50320BF
:105C300000E40320F35B0D00002240681146FFF7EB
:105C400049BF002240681146FFF764BF0022406848
:105C50001146FFF76FBF40680022FFF763BF40683F
:105C6000002281F00101FFF74DBF002340681A4672
:105C70001946FFF73FBF002340681A461946FFF751
:105C800031BF002240681146FFF714BF4068002270
:105C90000221FFF717BF002340681A46FFF702BF33
:105CA000084B10B5282422461846002102F0FCF8C3
:105CB000054B04804FF0FF32426004225A60034AD1
:105CC0001A6010BDB0E50320A8E5032058A90D0017
:105CD00070470020704710B51021044601F07BF991
:105CE000204610BD08B5FFF7F6FF08BD10B5836864
:105CF000044613B1032201469847204610BD30B533
:105D000000224FF69C74026084808D888C800C6821
:105D1000858004600A6030BD10B504460068FFF756
:105D200019FF204610BD38B5C468F4B12378022BA2
:105D300003D104F10C00FFF7EFFF656835B1284689
:105D4000FFF7D4FF1021284601F045F9A56835B1C9
:105D50002846FFF7CBFF1021284601F03CF92046EA
:105D60001421BDE8384001F036B938BD10B588B00F
:105D70000446684600F02FFD694604A800F04EFD79
:105D800004A8A047044604A800F0DAFC684600F026
:105D9000D7FC204608B010BD1FB50023CDE9020195
:105DA000019210241A4669461846ADF80230ADF843
:105DB0000040FFF727FE04B010BD73B50E46044641
:105DC00056F8043B00930D4601A83146FFF719FF32
:105DD000019A009B6260236001A800230193009355
:105DE000FEF730FA3046FEF72DFA2846082101F07A
:105DF000F2F8204602B070BD13B50B460246D0E95A
:105E000000016C4684E8030093E8030082E8030085
:105E100094E8030083E8030002B010BD826810B567
:105E20000AB901F0DCF8BDE81040C368184708B5AE
:105E3000006800F11001FFF7F1FF08BD826810B59E
:105E40000AB901F0CCF8BDE81040C368184708B59E
:105E5000006800F11001FFF7F1FF08BD38B500231D
:105E60000446036010200D46FEF715F928B1012302
:105E7000C0E90133024B0360C5602060204638BD95
:105E80008CA90D0038B5002383608B6804460D464D
:105E90002BB102229847EB68E360AB68A360204611
:105EA00038BD0000F0B589B004686846FFF727FFE9
:105EB0004FF00203D4E84F2F002A03D1C4E8413F3A
:105EC0000029F7D125D104F10C0569462846FFF7D2
:105ED00016FFBFF35B8F01236370002004F10803FA
:105EE000BFF35B8F53E8006F43E80002002AF9D14B
:105EF000BFF35B8F6EB1FFF747FD78B1294630469F
:105F0000FFF78CFF3046FFF7F1FE1021304601F01D
:105F100062F86846FFF700FF09B0F0BD314602A8FD
:105F2000FFF7B0FFE068B4F9105008B101F0FAFFD4
:105F300006901020ADF81C50FEF7ADF80546E8B10C
:105F4000002787601820FEF7A6F8044688B10146AE
:105F5000876002A8FFF750FF049BA268A360059B1F
:105F6000049206A9E268E36004F110000592FFF7CD
:105F7000C6FE084BEB60084B2C60AB6006A8FFF731
:105F8000CBFE02A8FFF7B2FE002229460348FFF726
:105F900003FDB7E72F5E0D00C5600D00CB5B0D0064
:105FA0002DE9F0478AB005469DF848900C46174603
:105FB0009846FFF73FFD07AE824638BB4FF62E737B
:105FC000059005A93046ADF81830FFF798FE14206B
:105FD000FEF761F8044648B1022303700123C0E9CB
:105FE00001AA437031460C30FFF789FE284621464E
:105FF00040F8044BFFF732FF3046FFF78DFE05A84F
:10600000FFF78AFE28460AB0BDE8F0870C234FF060
:10601000000A1420CDE908AA0793FEF73CF80146D0
:1060200028B1C0E901AA80F800A080F801A004A866
:106030000391FFF713FF224B08930820FEF72BF87C
:10604000824628B1039B40F8043B04A9FFF7D9FD21
:1060500000965FFA89F3424639462046CDF824A0DF
:10606000FFF7F8FCB8B9039B5B7803F0FF0293B924
:106070004FF69C7305A903A80592ADF81830FFF7F9
:1060800011FF05A8FFF748FE05A80999FFF795FE3F
:1060900006A8FEF7D7F8039B059304A906A8FFF707
:1060A000B0FD059B069A2B606A60002306A8069344
:1060B0000593FEF7C7F804A8FEF7C4F8A2E700BFEF
:1060C00089610D00022AF8B5054607D0032A18D0C9
:1060D000012A01D10B6803600020F8BD18200E686A
:1060E000FDF7D9FF044650B13146FFF7CBFE3069CA
:1060F000B6F9147008B101F015FF2061A7822C6079
:10610000EAE70468002CE7D004F11000FFF704FE72
:106110002046FFF7EBFD1821204600F05CFFDBE78F
:1061200038B5002383608B6804460D462BB10222EC
:106130009847EB68E360AB68A360204638BD022A4D
:1061400070B5044607D0032A12D0012A01D10B688A
:106150000360002070BD14200E68FDF79CFF05460B
:1061600020B13146FFF7DCFF337C2B742560F0E76C
:106170000468002CEDD02046FFF7B8FD142120461E
:1061800000F029FFE5E70000F0B589B004460D46B0
:1061900001A81146FFF711FEA4B124B21DB1284693
:1061A00001F0C0FE054601A803A90395ADF8104013
:1061B000FFF778FE03A8FFF7AFFD02A8FEF742F84D
:1061C00009B0F0BD019D0123D5E84F2F002A03D16E
:1061D000C5E8413F0029F7D1EFD12B73BFF35B8FA7
:1061E0006B702B1DBFF35B8F53E8006F43E80042D9
:1061F000002AF9D1BFF35B8F002EDED02046FFF7D7
:10620000C3FB074660B105F10C013046FFF716FEEF
:106210003046FFF76BFD1021304600F0DCFECCE786
:10622000314603A8FFF77CFF2B7B8DF81C30102034
:10623000FDF731FF0546D0B187601420FDF72BFF35
:10624000044678B18760014603A8FFF7D5FD059B9A
:10625000A268A360069B0592E268E3609DF81C308B
:1062600006922374064BEB60064B2C60AB6003A8D0
:10627000FFF73CFD002229460348FFF78DFBC7E7E7
:106280004F5E0D003F610D00CB5B0D0000224068AA
:106290001146FFF73FBC002240681146FFF74ABC99
:1062A00040680022FFF73EBC4068002281F00101F7
:1062B000FFF728BC002340681A461946FFF71ABCAE
:1062C000002340681A461946FFF70CBC00224068BC
:1062D0001146FFF7FFBB002240681146FFF7EABBFB
:1062E000406800220221FFF7EDBB002340681A46F8
:1062F000FFF7D8BB024B03225A60024A1A6070476C
:10630000D8E50320A8A90D007047F8B50646154644
:106310000C468F18BC4206D0336814F8011B9B68EA
:1063200030469847F6E72846F8BD007C0022FFF784
:106330002BBA007C0021FFF72FBA007C0021FFF769
:1063400033BA007C0021FFF737BA007C0021FFF749
:106350003BBA10B51421044600F03DFE204610BDA6
:1063600010B54FF47A73044608460021C4E90113BE
:10637000034B236020741146FFF736FA204610BD08
:10638000DCA90D000023007C1A461946FFF7E4B98A
:106390007FB500221423CDE90122ADF804300B783B
:1063A0008DF808304B680393CB680493007C0B7A1C
:1063B000059301A9FFF720FA07B05DF804FB1FB5AC
:1063C000003B8DF800104FF06401039118BF0123CA
:1063D000694601928DF80830FFF7DAFF05B05DF8E5
:1063E00004FB0123FFF7EBBF007C0022FFF7BCB9E1
:1063F000007C0022FFF7C0B90121FFF7F9BF704709
:1064000010B51821044600F0E6FD204610BDF0B599
:10641000037D062B8DB00E4600F104074FF00004FB
:1064200012D000F1080515F8011D0A22304600F0CF
:106430004AF9AF42044419D0002CF4D02E21304642
:1064400000F028F90444EEE72F236A4639460A2073
:106450008DF80040FFF7D8F9684601F080FD3368F9
:106460000246DB68694630469847044620460DB030
:10647000F0BD000010B5054B0446112240F8043B66
:10648000002101F011FD204610BD00BF04AA0D003F
:106490000346074A10B543F8042B01F1100251F8E6
:1064A000044B43F8044B9142F9D10A781A7010BD9D
:1064B00004AA0D0010B59DF8084044EA032343EAFE
:1064C000024242EA016104234160037510BD13B525
:1064D000CB7800938B784A780978FFF7EBFF02B00E
:1064E00010BD0000014B024A1A607047E0E503202E
:1064F00010AA0D00002340681A46FFF7D3BA40687F
:1065000000220221FFF7DEBA002240681146FFF7A1
:10651000D1BA002240681146FFF7DCBA0023406878
:106520001A461946FFF7DEBA002340681A46194694
:10653000FFF7E0BA4068002281F00101FFF7E2BAFC
:1065400040680022FFF7EEBA002240681146FFF7CC
:10655000F1BA002240681146FFF7DCBA2DE9F0439A
:10656000002495B016460D460746FFF783FF2146E7
:1065700018220EA8009401F097FC4023CDE90C34BA
:1065800021466B460CAA3046FFF74EF90446002818
:1065900046D1024601216868FFF79CFA0221804635
:1065A00022466868FFF796FA009E81462146002E33
:1065B00036D0002934D17368022B03D00A2B0BD0BC
:1065C000F669F4E7B8F1000F04D071693846043178
:1065D000FFF77DFF4146F3E7B9F1000F01D14946CE
:1065E000EEE77469102201A801F05EFC06238DF825
:1065F000143001AD04F108031834186859682A46AC
:1066000003C20833A3421546F7D101A906A807AD76
:10661000FFF73EFF0FCD3C1D0FC42B682370DEE754
:106620000098FFF7F9F8384615B0BDE8F083000090
:10663000024B034A1A6000225A607047E4E50320C7
:106640001CAA0D00F8B506460D468F180024BD4261
:106650000CD0336815F8011B9B6830469847031E21
:1066600001DB1C44F3E7002C08BF1C462046F8BDA4
:1066700013B50446084659B1019101F070FC236836
:106680000199DB680246204602B0BDE81040184779
:1066900002B010BD03689B68184738B50D21054648
:1066A000FFF7F8FF0A2104462846FFF7F3FF2044CE
:1066B00038BD38B50546FFF7DBFF04462846FFF72F
:1066C000ECFF204438BD30B58BB000238DF824306A
:1066D000012A98BF0A2209AC0D46B1FBF2F101FB79
:1066E000125303F0FF03092B94BF30333733DBB26F
:1066F000AA4204F8013DEFD92146FFF7B9FF0BB0DC
:1067000030BD10B50446FFF7F1FA204610BD000079
:106710000348044A04490023836000F057BC00BFCB
:10672000ECE5032000E4032003670D0010B50446E8
:1067300008462170FFF780F800236360204610BDF3
:1067400010B504460068FFF705FA204610BD10B5E5
:106750000446006808B1FFF7FDF90023C4E90133DE
:10676000236010BD38B504460D4600680131FFF7BF
:10677000F9F910B1C4E90005012038BD10B503686E
:10678000044623B143688B4201D3012010BD20464B
:10679000FFF7E8FF0028F9D0A368002BF5D12268A5
:1067A0001370F2E737B50D46114601920446FFF724
:1067B000E5FF019A28B92046FFF7C9FF204603B03C
:1067C00030BDA2602946206801F060FB2268A36802
:1067D0000021D154F2E7002313B5C0E90033044689
:1067E0008360037341B10846019101F0B8FB019940
:1067F00002462046FFF7D6FF204602B010BD884271
:1068000010B5044605D00B682BB18A681946FFF70E
:10681000C9FF204610BDFFF79AFFFAE710B5002325
:106820000446C0E9003383600373FFF7E8FF2046A6
:1068300010BD13B5044659B10846019101F08FFB14
:10684000019902462046FFF7ADFF204602B010BD79
:10685000FFF77DFFF9E710B504468AB00023C4E9CD
:106860000033A3602373084601A900F049FA01A987
:106870002046FFF7DEFF20460AB010BD08B582684B
:106880003AB921B10878B0FA80F0400900E001205F
:1068900008BD006809B90078F5E701F031FBF2E7BF
:1068A00058B50E462AB121B184689C4202D8002313
:1068B0000B7058BDE41A013A0168944228BF14468F
:1068C00019442246304601F064FB00233355F0E7BB
:1068D00008B5006840B101F0CDF951EC100B00F0A3
:1068E000F7FF00EE100A08BD9FED010AFBE700BFAD
:1068F0000000000007B50B46002102460091012070
:106900008C21FFF76DF803B05DF804FB0146002011
:10691000FFF7F0BF0020FFF7F9BF000010B5094BEB
:10692000094C022200201A60084B2060A080A07150
:10693000A360FFF711F82046054A0649BDE810405C
:1069400000F044BB08E60320FCE503200000FFFF45
:1069500000E40320D1400D002DE9F041154ADFF895
:106960006080D2E90032C01842EB0101124AD2E93C
:106970000032C61841EB0207D8E90023BB4208BF2A
:10698000B2428CB013D003A96846CDE9006701F08C
:1069900087F9089B094D03F26C7303AC08930FCC85
:1069A0000FC50FCC0FC5C8E9006723682B600CB07A
:1069B000BDE8F08140E6032038E6032010E603201E
:1069C00048E6032008B50020FFF75CF828B1FFF780
:1069D00031F880F00100C0B208BD0120FCE710B51D
:1069E0000020FEF789FE0446A0B9FEF7ADFF01289E
:1069F00010D12046FEF7D8FF60B9FFF7E3FF10B9CA
:106A0000FFF708F8F9E7FFF7DDFFBDE810400020C9
:106A1000FEF772BE204610BD1FB5FFF7E0FF102243
:106A20000021684601F040FA00216846FEF774FE36
:106A3000009805B05DF804FB08B5FFF7EDFFC1173E
:106A4000FFF78AFF014B986808BD00BF10E60320DE
:106A500008B5FFF7E1FFC117FFF77EFF014B58684C
:106A600008BD00BF10E60320024B1A68024B1A60F3
:106A7000704700BFC0E103200CE60320704741745B
:106A8000704708B5007CFEF71FFF20EAE07008BDE4
:106A900008B5007CFEF7F0FE20EAE07008BD08B5FE
:106AA000007CFEF7F9FE40EAE07008BD08B5007C06
:106AB000FEF7EAFE40EAE07008BD007CFEF7F4BE97
:106AC00037B5457C04462DB1207C03B0BDE830408D
:106AD000FEF7CABE007C0191FEF7F6FE0028019980
:106AE000F2DC284603B030BD10B51421044600F096
:106AF00072FA204610BD000010B54FF0000C04469D
:106B0000084611464FF47A72C4E901C2044A226071
:106B10000122207462741A46FEF79EFE204610BDC4
:106B20006CAA0D0013B50E4C2178BFF35B8F11F0EA
:106B3000010112D120460191FDF7B3FA019960B12C
:106B4000084A094B0948FFF7D7FF2046FDF7AEFA80
:106B5000074A0849054800F039FA044802B010BD58
:106B600050E6032054E60320D8E603205CE7032028
:106B700000E403207D6A0D0041747047704708B53A
:106B80000021007CFEF7C8FE40EAE07008BD08B5B1
:106B90000121007CFEF7C0FE40EAE07008BD08B5A8
:106BA000007CFEF7B1FE20EAE07008BD08B5007C6D
:106BB000FEF7A2FE20EAE07008BD13B50446007C93
:106BC0000191FEF7A1FE0028019901DC607C20B153
:106BD000207CFEF7A9FE20EAE07002B010BD007C28
:106BE000FEF7AABE10B51421044600F0F4F92046C1
:106BF00010BD000010B54FF47A730446084600211A
:106C0000C4E90113044B236001232074637411460B
:106C1000FEF762FE204610BD9CAA0D00007C0022FB
:106C2000FEF762BE10B514220446002101F03CF9C3
:106C3000204610BD10B5104C88B003A8FFF7F2FF36
:106C40002178BFF35B8F11F0010111D12046019132
:106C5000FDF727FA019958B103AA0848FFF7CAFFC0
:106C60002046FDF723FA064A0649044800F0AEF92B
:106C7000024808B010BD00BF70E7032074E703208E
:106C800000E403207D6B0D0010B5044601F067F9A8
:106C9000013823182046834206D90278197800F873
:106CA000011B03F80129F6E710BD70B50C46911ED3
:106CB0002229054622D820466DB1B5FBF2F602FB2B
:106CC0001655E9B2092D94BF30315731C9B200F8D9
:106CD000011B3546F0E7024623443021934202D996
:106CE00002F8011BFAE71A1A834238BF0022002378
:106CF00083542046FFF7C8FF204670BD0020FCE704
:106D000038B5031E0C4615460EDAB3F1004F4FF0AE
:106D10002D0214BF5842184601230A702A4619440E
:106D2000FFF7C3FF204638BD0123F9E7014B186088
:106D3000704700BFC4E1032008B50B4B43B1FFF718
:106D400079FF03681B699847002801DDAFF30080D5
:106D5000064B43B1FFF7E6FE03681B69984700281E
:106D600001DDAFF3008008BD00000000000000005E
:106D700008B5FFF7E1FFFEF797FC014B186008BD6F
:106D80009CE703200248034A0349121A01F07EB827
:106D900000F4032004F4032008AE0D0007B500231F
:106DA00000931A466FF07701FEF710FE03B05DF80E
:106DB00004FB000007B543880A2B08D0502B0BD1E9
:106DC000094B1B684BB103B05DF804EB1847FFF7A4
:106DD000E5FF03B05DF804FB002300931A466FF053
:106DE0007701FEF7F3FDF4E78CE7032038B5124C8A
:106DF0001248134D0021FEF7DDFE2368AB42114B14
:106E00000CBF012200221A7002D0FFF7BBFF2560E1
:106E1000FEF742FC044601F04FF80B4B13B120463D
:106E2000AFF3008000210848FEF734FEBDE838408B
:106E300006480021FEF7C0BD00F403202D6D0D00B3
:106E40001E1C279A88E7032000000000B56D0D0086
:106E5000232813B502D9002002B010BDA0F10B0306
:106E6000022B1AD8174C2178BFF35B8F11F0010168
:106E70000BD120460191FDF714F9019928B1124870
:106E8000FFF754FC2046FDF711F90F4B1878FEF779
:106E9000DBFC0028DFD10120DEE7012809D800F063
:106EA0006DF80021007CFEF797FC80F00100C0B275
:106EB000D2E709380128EED8FFF734FE007CFEF750
:106EC000FBFCF2E790E7032094E70320232838B582
:106ED00004460D460AD8FF2908D0FFF7B9FF28B1AC
:106EE00029462046BDE83840FEF71EBC38BD38B5FF
:106EF00004460D46FEF720FCFF2810D0062804D8D3
:106F00004D2323FA00F0C30709D42046FFF7A0FF62
:106F100028B129462046BDE83840FEF715BC38BDEB
:106F200010B5084C2378BFF35B8FDB0708D42046ED
:106F3000FDF7B7F820B1FEF7BFFB2046FDF7B6F826
:106F4000014810BDA0E70320A4E7032038B50023C3
:106F5000202543801423044603808560056106498B
:106F6000284600F03AF804496060284600F035F8F9
:106F7000E060204638BD00BFC4AA0D0030B50F4DFB
:106F80002978BFF35B8F11F0010487B013D1284635
:106F9000FDF787F878B101A8FFF7D8FF01AA2146CD
:106FA0000748FFF7DDF92846FDF780F8054A06494E
:106FB000034800F00BF8024807B030BDA8E70320F3
:106FC000ACE7032000E4032009630D000B460146F3
:106FD000184600F057BEFDF762B8FDF75EB808B579
:106FE000FEF7D8FD81F0004102E000BF83F00043CE
:106FF00030B54FEA41044FEA430594EA050F08BF54
:1070000090EA020F1FBF54EA000C55EA020C7FEA17
:10701000645C7FEA655C00F0E2804FEA5454D4EB94
:107020005555B8BF6D420CDD2C4480EA020281EA5E
:10703000030382EA000083EA010180EA020281EA96
:107040000303362D88BF30BD11F0004F4FEA0131E8
:107050004FF4801C4CEA113102D0404261EB4101F7
:1070600013F0004F4FEA03334CEA133302D052427D
:1070700063EB430394EA050F00F0A780A4F1010439
:10708000D5F1200E0DDB02FA0EFC22FA05F2801873
:1070900041F1000103FA0EF2801843FA05F3594159
:1070A0000EE0A5F120050EF1200E012A03FA0EFCD8
:1070B00028BF4CF0020C43FA05F3C01851EBE37102
:1070C00001F0004507D54FF0000EDCF1000C7EEB1F
:1070D00000006EEB0101B1F5801F1BD3B1F5001F5D
:1070E0000CD349085FEA30004FEA3C0C04F101047C
:1070F0004FEA445212F5800F80F09A80BCF1004FA5
:1071000008BF5FEA500C50F1000041EB045141EA26
:10711000050130BD5FEA4C0C404141EB0101013CEF
:1071200028BFB1F5801FE9D291F0000F04BF0146DE
:107130000020B1FA81F308BF2033A3F10B03B3F1B0
:1071400020020CDA0C3208DD02F1140CC2F10C0240
:1071500001FA0CF021FA02F10CE002F11402D8BF9E
:10716000C2F1200C01FA02F120FA0CFCDCBF41EA6A
:107170000C019040E41AA2BF01EB0451294330BD39
:107180006FEA04041F3C1CDA0C340EDC04F1140416
:10719000C4F1200220FA04F001FA02F340EA0300ED
:1071A00021FA04F345EA030130BDC4F10C04C4F133
:1071B000200220FA02F001FA04F340EA0300294613
:1071C00030BD21FA04F0294630BD94F0000F83F45D
:1071D000801306BF81F480110134013D4EE77FEA40
:1071E000645C18BF7FEA655C29D094EA050F08BF8C
:1071F00090EA020F05D054EA000C04BF194610466D
:1072000030BD91EA030F1EBF0021002030BD5FEAB0
:10721000545C05D14000494128BF41F0004130BDD8
:1072200014F580043CBF01F5801130BD01F000452C
:1072300045F0FE4141F470014FF0000030BD7FEA9F
:10724000645C1ABF194610467FEA655C1CBF0B469A
:10725000024650EA013406BF52EA033591EA030FB1
:1072600041F4002130BD00BF90F0000F04BF0021A9
:10727000704730B54FF4806404F132044FF00005DC
:107280004FF0000150E700BF90F0000F04BF002155
:10729000704730B54FF4806404F1320410F00045BB
:1072A00048BF40424FF000013EE700BF42004FEAB6
:1072B000E2014FEA31014FEA02701FBF12F07F4333
:1072C00093F07F4F81F06051704732F07F4208BFEA
:1072D000704793F07F4F04BF41F40021704730B5F1
:1072E0004FF4607401F0004521F000411CE700BF3D
:1072F00050EA010208BF704730B54FF000050AE0C0
:1073000050EA010208BF704730B511F0004502D5C0
:10731000404261EB41014FF4806404F132045FEAC2
:10732000915C3FF4D8AE4FF003025FEADC0C18BF6B
:1073300003325FEADC0C18BF033202EBDC02C2F15D
:10734000200300FA03FC20FA02F001FA03FE40EAEF
:107350000E0021FA02F11444BDE600BF70B54FF0F3
:10736000FF0C4CF4E06C1CEA11541DBF1CEA1355D1
:1073700094EA0C0F95EA0C0F00F0DEF82C4481EA39
:10738000030621EA4C5123EA4C5350EA013518BF59
:1073900052EA033541F4801143F4801338D0A0FB46
:1073A00002CE4FF00005E1FB02E506F00042E0FBF3
:1073B00003E54FF00006E1FB03569CF0000F18BFF9
:1073C0004EF0010EA4F1FF04B6F5007F64F54074A1
:1073D00004D25FEA4E0E6D4146EB060642EAC62134
:1073E00041EA55514FEAC52040EA5E504FEACE2EA1
:1073F000B4F1FD0C88BFBCF5E06F1ED8BEF1004FA4
:1074000008BF5FEA500E50F1000041EB045170BD1F
:1074100006F0004646EA010140EA020081EA030163
:10742000B4EB5C04C2BFD4EB0C0541EA045170BD5F
:1074300041F480114FF0000E013C00F3AB8014F1D9
:10744000360FDEBF002001F0004170BDC4F1000422
:10745000203C35DA0C341BDC04F11404C4F12005A3
:1074600000FA05F320FA04F001FA05F240EA0200FE
:1074700001F0004221F0004110EBD37021FA04F634
:1074800042EB06015EEA430E08BF20EAD37070BDEE
:10749000C4F10C04C4F1200500FA04F320FA05F04D
:1074A00001FA04F240EA020001F0004110EBD3704F
:1074B00041F100015EEA430E08BF20EAD37070BDBF
:1074C000C4F1200500FA05F24EEA020E20FA04F398
:1074D00001FA05F243EA020321FA04F001F0004147
:1074E00021FA04F220EA020000EBD3705EEA430EB8
:1074F00008BF20EAD37070BD94F0000F0FD101F0E7
:107500000046400041EB010111F4801F08BF013C1F
:10751000F7D041EA060195F0000F18BF704703F05D
:107520000046520043EB030313F4801F08BF013DE4
:10753000F7D043EA0603704794EA0C0F0CEA1355A0
:1075400018BF95EA0C0F0CD050EA410618BF52EA5A
:107550004306D1D181EA030101F000414FF0000060
:1075600070BD50EA410606BF1046194652EA43066E
:1075700019D094EA0C0F02D150EA013613D195EAE2
:107580000C0F05D152EA03361CBF104619460AD12A
:1075900081EA030101F0004141F0FE4141F4700134
:1075A0004FF0000070BD41F0FE4141F4780170BD24
:1075B00070B54FF0FF0C4CF4E06C1CEA11541DBF89
:1075C0001CEA135594EA0C0F95EA0C0F00F0A7F88B
:1075D000A4EB050481EA030E52EA03354FEA0131B8
:1075E00000F088804FEA03334FF0805545EA1313CB
:1075F00043EA12634FEA022245EA111545EA106593
:107600004FEA00260EF000419D4208BF964244F129
:10761000FD0404F5407402D25B084FEA3202B61A48
:1076200065EB03055B084FEA32024FF480104FF41C
:10763000002CB6EB020E75EB030E22BFB61A754690
:1076400040EA0C005B084FEA3202B6EB020E75EB23
:10765000030E22BFB61A754640EA5C005B084FEA8B
:107660003202B6EB020E75EB030E22BFB61A754658
:1076700040EA9C005B084FEA3202B6EB020E75EB63
:10768000030E22BFB61A754640EADC0055EA060E24
:1076900018D04FEA051545EA16754FEA06164FEA67
:1076A000C30343EA52734FEAC2025FEA1C1CC0D113
:1076B00011F4801F0BD141EA00014FF000004FF0A0
:1076C000004CB6E711F4801F04BF01430020B4F161
:1076D000FD0C88BFBCF5E06F3FF6AFAEB5EB030C19
:1076E00004BFB6EB020C5FEA500C50F1000041EB16
:1076F000045170BD0EF0004E4EEA113114EB5C04E3
:10770000C2BFD4EB0C0541EA045170BD41F48011B5
:107710004FF0000E013C90E645EA060E8DE60CEABD
:10772000135594EA0C0F08BF95EA0C0F3FF43BAFDA
:1077300094EA0C0F0AD150EA01347FF434AF95EA91
:107740000C0F7FF425AF104619462CE795EA0C0F75
:1077500006D152EA03353FF4FDAE1046194622E742
:1077600050EA410618BF52EA43067FF4C5AE50EA1C
:1077700041047FF40DAF52EA43057FF4EBAE12E70C
:107780004FF0FF3C06E000BF4FF0010C02E000BFED
:107790004FF0010C4DF804CD4FEA410C7FEA6C5CD0
:1077A0004FEA430C18BF7FEA6C5C1BD001B050EA73
:1077B000410C0CBF52EA430C91EA030F02BF90EA5E
:1077C000020F0020704710F1000F91EA030F58BF1D
:1077D000994208BF90422CBFD8176FEAE37040F07F
:1077E000010070474FEA410C7FEA6C5C02D150EA1D
:1077F000013C07D14FEA430C7FEA6C5CD6D152EAD8
:10780000033CD3D05DF8040B704700BF844610469C
:1078100062468C461946634600E000BF01B5FFF79B
:10782000B7FF002848BF10F1000F01BD4DF808ED6B
:10783000FFF7F4FF0CBF012000205DF808FB00BF3C
:107840004DF808EDFFF7EAFF34BF012000205DF896
:1078500008FB00BF4DF808EDFFF7E0FF94BF0120E3
:1078600000205DF808FB00BF4DF808EDFFF7CEFFE4
:1078700094BF012000205DF808FB00BF4DF808ED23
:10788000FFF7C4FF34BF012000205DF808FB00BFF4
:107890004A0011D212F5001211D20DD56FF478738F
:1078A000B3EB62520ED44FEAC12343F0004343EAE4
:1078B000505323FA02F070474FF00000704750EA2F
:1078C000013002D14FF0FF3070474FF00000704799
:1078D0004FEA4102B2F1E04324BFB3F5001CDCF1F2
:1078E000FE5C0DD901F0004C4FEAC0024CEA50702A
:1078F000B2F1004F40EB830008BF20F00100704759
:1079000011F0804F21D113F13872BCBF01F000405B
:10791000704741F480114FEA5252C2F11802C2F18D
:10792000200C10FA0CF320FA02F018BF40F001000E
:107930004FEAC1234FEAD32303FA0CFC40EA0C00C0
:1079400023FA02F34FEA4303CCE77FEA625307D1FD
:1079500050EA01331EBF4FF0FE4040F44000704734
:1079600001F0004040F0FE4040F40000704700BFCE
:10797000D0B50C4B002206460F46FFF7EFFCFFF791
:1079800087FF0446FFF770FC074B0022FFF7E6FC79
:1079900002460B4630463946FFF728FBFFF778FFD3
:1079A0002146D0BD0000F03D0000F0412DE9F04738
:1079B000089D04468C46002B40F083808A4217467F
:1079C00047D9B2FA82F242B1C2F1200024FA00F0A3
:1079D0009140974040EA010C94404FEA1748230C2D
:1079E000BCFBF8F61FFA87FE08FB16C143EA014309
:1079F00006FB0EF1994209D9FB1806F1FF3080F021
:107A00001981994240F21681023E3B445B1AA4B2AE
:107A1000B3FBF8F008FB103344EA034400FB0EFE0E
:107A2000A64509D93C1900F1FF3380F00581A64530
:107A300040F2028102383C4440EA0640A4EB0E04C6
:107A400000261DB1D4400023C5E900433146BDE8FE
:107A5000F08702B9FFDEB2FA82F2002A50D1CB1BC6
:107A60004FEA174E1FFA87F80126B3FBFEFC210CE4
:107A70000EFB1C3341EA034108FB0CF38B4207D990
:107A800079180CF1FF3002D28B4200F2E980844673
:107A9000C91AA3B2B1FBFEF00EFB101143EA014478
:107AA00008FB00F8A04507D93C1900F1FF3302D2CA
:107AB000A04500F2D9801846A4EB080440EA0C4027
:107AC000BFE78B4209D9002D00F0B1800026C5E93F
:107AD000000130463146BDE8F087B3FA83F6002E48
:107AE0004AD18B4202D3824200F2B880841A61EB01
:107AF000030101208C46002DA8D0C5E9004CA5E764
:107B0000C2F1200320FA03F6974001FA02F04FEA8F
:107B1000174ED9403043030CB1FBFEF61FFA87F82D
:107B20000EFB161143EA014306FB08F1994204FAE1
:107B300002F409D9FB1806F1FF3C80F08D809942D0
:107B400040F28A80023E3B445B1A81B2B3FBFEF0F6
:107B50000EFB103341EA034100FB08F38B4207D9C7
:107B6000791800F1FF3C73D28B4271D90238394445
:107B7000CB1A40EA064678E7C6F1200C03FA06F471
:107B800022FA0CF31C4320FA0CF701FA06F34FEA31
:107B9000144E21FA0CF11F433B0CB1FBFEF91FFA06
:107BA00084F80EFB191143EA014109FB08FA8A45E2
:107BB00002FA06F200FA06F308D9611809F1FF305B
:107BC00048D28A4546D9A9F102092144A1EB0A010C
:107BD000BFB2B1FBFEF00EFB101147EA014700FBFC
:107BE00008F8B84507D9E71900F1FF312ED2B8459A
:107BF0002CD90238274440EA0940A7EB0807A0FB2C
:107C000002894F45C64649461AD317D05DB1B3EB3A
:107C10000E0267EB010707FA0CFCF2404CEA020285
:107C2000F740C5E9002700263146BDE8F0872E461B
:107C300028460BE70646E9E61846FDE64345E5D249
:107C4000B8EB020E69EB04010138DFE70846D2E722
:107C500060468DE78146B9E7664675E730464AE7F4
:107C6000ACF1020C394413E702383C4424E700BF6E
:107C7000704700BF002100F0C5BF0A22002101F0BB
:107C800047B8000010B5054C13462CB10A46014612
:107C90000220AFF3008010BD2046FCE7000000008A
:107CA0002DE9F3410746019101F098FE01998046C4
:107CB000384601F097FE43699A07044603F26C7652
:107CC00005D1642296FBF2F302FB13637BBB4FF4F6
:107CD000C87396FBF3F503FB1565B5FA85F56D09D9
:107CE000684B302202FB053501F04AF901F054F9E6
:107CF000654B1B6853B3D8F80430B34219D1D8F898
:107D00000010D7E90067D8E90823D1B9964277EB8C
:107D1000030323DAD8E91223964277EB0303B4BFB7
:107D20000123002323621BDBD8F828101AE0012569
:107D3000D6E7304601F07CF80028E0D14FF0FF3361
:107D400004E0964277EB030302DA00232362EBE7B9
:107D5000D8E91223964277EB0303F6DA0123236274
:107D6000D8F850104FF461633C2091FBF3F603FB0D
:107D70001613616893FBF0F200FB12302368891A36
:107D8000A26861601B1A921B3B2B2360A26035DD49
:107D9000013161603C3B236063683B2B34DD013281
:107DA000A2603C3B6360A368172B33DDE2690132BC
:107DB000E261A2690132062AC8BF0022A261E2681C
:107DC000183B0132A3602369E26055F823108A4210
:107DD0000EDD0B2BA2EB0102E26003F1010209BFF1
:107DE000636922610022013302BF22616361E261A3
:107DF00001F0CCF8204602B0BDE8F081002BCBDAD0
:107E0000013961603C33C6E7002BCCDA013AA2604D
:107E10003C33C7E7002BEBDAE269013AE261A26981
:107E2000013A48BF0622A261E2681833013AE260D3
:107E3000A360002ADCD12369013B05D423612369B7
:107E400055F82330E360D3E70B23236163695A1E9F
:107E5000626103F26B72930705D1642192FBF1F327
:107E600001FB132363B94FF4C87192FBF1F301FBDB
:107E70001323B3FA83F35B0903F5B673E361DEE71B
:107E80000123F9E7C8AA0D00DCE703200A44914268
:107E900000F1FF3300D1704710B511F8014B03F822
:107EA000014F9142F9D110BD02440346934200D1E3
:107EB000704703F8011BF9E738B50D4B1D68AB6B34
:107EC00004467BB91820FDF73DFE0A4A0A4BA86319
:107ED000C0E90023094B83600B2383810122002327
:107EE000C0E90423AB6B00221C615A6138BD00BF9E
:107EF000C4E103200E33CDAB34126DE6ECDE050099
:107F000010F8012B11F8013B012A28BF9A42F7D043
:107F1000D01A7047034611F8012B03F8012B002AF1
:107F2000F9D17047024B0146186800F003B800BF52
:107F3000C4E1032037B5044608460D4600F00FF8AB
:107F4000421C114620460192FDF72CFE044618B152
:107F5000019A2946FFF79AFF204603B030BD034639
:107F600013F8012B002AFBD1181A0138704710B5FD
:107F70006AB10139841810F8013B11F8012F9342BE
:107F800003D1A04201D0002BF5D1981A10BD1046A4
:107F9000FCE710B50139034632B111F8014F03F87F
:107FA000014B013A002CF7D11A440021934200D131
:107FB00010BD03F8011BF9E770B504460D4645EC0A
:107FC000104B164602F0D0F851EC100B7EB1C5F301
:107FD0000A53C3F16B03002B09DD1B0503F17F5529
:107FE000002405F5401522462B46FFF7B7F970BD72
:107FF0002DE9F04FA3B01F4600231E93A44B199206
:108000001B680793044618468846FFF7A8FF4FF001
:10801000000A05464FF0000BCDF874801D9B1A78BE
:108020002B2A4CD039D80D2A32D8082A32D8002A27
:108030003CD000230E931D9E3378302B40F0B4804B
:10804000737803F0DF03582B6CD10E9B01931EABAA
:10805000029700938F4A1FAB1DA9204601F086F9B5
:1080600010F00707054605D0062F2AD10136002358
:108070001D960E93199B002B40F096850E9BDBB14D
:1080800052460BF1004343EC102B23B0BDE8F08FB8
:10809000202ACED101331D93C0E72D2AC9D1012258
:1080A0000E925A1C1D925B78002BC4D1199BCDF8FF
:1080B0007480002B40F0768552465B46E3E7002251
:1080C000EEE71E9A3AB1352120A802F04CF91E992C
:1080D000204601F081FD013F052F07D8DFE807F0BA
:1080E0000E0B181D0E034FF0000BDA462807C1D502
:1080F0004BF0004BBEE7DDE920ABF7E7DDE920A35D
:108100001F9A23F4801302F2334243EA025BEDE745
:10811000DFF884B14FF0000AE8E76FF0004B4FF052
:10812000FF3AE3E71D9B5A1C1D925B78302BF9D078
:10813000002B9FD001234FF0000904931D9B0A934D
:10814000CDF824904F460A221D980678A6F13003F8
:10815000D9B209292AD907992A46FFF708FF98B307
:10816000002033463D4607900246652B01D0452B43
:1081700018D11DB9049B034398D00025DDF8748005
:1081800008F101031D9398F801302B2B75D02D2B8E
:108190007BD04FF0000CA3F13001092940F282801E
:1081A000CDF8748000269DE00023C4E7082FD8BFD7
:1081B000099900F10100DABF02FB0133099302FBC8
:1081C000093901371D90BFE71D9B5A191D925B5D50
:1081D000002F37D007903D46A3F13002092A12D96B
:1081E0000122C2E71D9B5A1C1D925B780130302B87
:1081F000F8D0A3F13102082A00F2DB841D9A07901F
:1082000000200A920546303B00F1010214D0079984
:10821000114407912A4600EB050E0A21724513D13D
:108220002A18082A05F1010505441CDC09990A22CF
:1082300002FB0133099300221D9B591C1D915B78A1
:108240001046C9E73846D2E7082A04DC099E4E43A7
:1082500009960132E2E702F1010CBCF1100FD8BF20
:1082600001FB09F9F5E7102DDCBF0A2202FB0939F1
:10827000E1E70023079301227CE74FF0000C08F1AF
:1082800002031D9398F8023085E74FF0010CF6E7E2
:10829000C8AC0D0034AB0D000000F07F1D9B591CD5
:1082A0001D915B78302BF9D0A3F1310108293FF6FD
:1082B00079AFA3F1300E1D9B08931D9B591C1D9196
:1082C0005B78A3F13006092E37D9089E891B08294F
:1082D00044F61F6602DC7645A8BF7646BCF1000F67
:1082E00000D07642002D4FD1049901437FF4C2AEF5
:1082F000002A7FF4DBAE692B27D024DC492B24D065
:108300004E2B7FF4D3AE9E491DA801F075FA0028CC
:108310003FF4CCAE1D9B1B78282B2DD1994920AA68
:108320001DA801F07DFA052826D1219BDDF880A04B
:1083300043F0FF4B4BF4E00B9CE60A2101FB0E3EA1
:10834000AEF1300EB9E76E2BDBE78F491DA801F0C7
:1083500053FA00283FF4AAAE1D9B8C49013B1DA88F
:108360001D9301F049FA10B91D9B01331D93DFF8ED
:108370002CB24FF0000A7DE6854802F049F88DEDF9
:10838000040BDDE904AB75E6079B0998F31A002F8F
:1083900008BF2F46102D0893A846A8BF4FF010081D
:1083A000FEF762FF092D82468B4613DD794B03EB06
:1083B000C80353E91223FEF7D1FF824648468B4695
:1083C000FEF752FF02460B4650465946FEF710FE96
:1083D00082468B460F2D38DC089B002B3FF44AAEBB
:1083E00024DD162B0BDC6B4D05EBC305D5E9000135
:1083F00052465B46FEF7B2FF82468B463AE6089A43
:10840000C5F12503934220DB624CC5F10F0504EB57
:10841000C50152465B46D1E90001FEF79FFF089B6C
:108420005D1B04EBC504D4E90023E3E7089B163386
:108430000BDB079B574A9E1B02EBC606D6E90023BF
:1084400050465946FFF7B4F8D6E7089BA5EB080855
:108450009844B8F1000F71DD18F00F030AD04D49B0
:1084600001EBC30152465B46D1E90001FEF776FFFE
:1084700082468B4638F00F084DD0B8F59A7F22DD42
:1084800000252E46099507952223DFF810B12360B9
:108490004FF0000A099B002B3FF4ECAD1E992046DB
:1084A00001F09AFB0799204601F096FB31462046E1
:1084B00001F092FB0999204601F08EFB29462046E7
:1084C00001F08AFBD6E500234FEA281850465946AA
:1084D0009946B8F1010F21DC0BB182468B462E4B39
:1084E000ABF1547B03EBC90952465B46D9E9000165
:1084F000FEF734FF294B0A460B4029498B4282463E
:10850000BED8A1F580118B4286BFDFF898B04FF03E
:10851000FF3A02F1547B0023049381E018F0010F2D
:1085200007D01D4B03EBC903D3E90023FEF716FF69
:10853000012309F101094FEA6808CAE7EBD0C8F145
:10854000000818F00F020AD0124B03EBC20350468A
:108550005946D3E90023FFF72BF882468B465FEAA2
:108560002818D8D0B8F11F0F1EDD00252E4609951A
:10857000079522234FF0000A4FF0000B236089E794
:1085800031AB0D0048AB0D0028AB0D002BAB0D003F
:108590007BA60D0008AD0D00E0AC0D000000F07FE3
:1085A0000000A07CFFFFEF7F18F0100318BF6A23C4
:1085B000DFF8B493049350465946002318F0010F96
:1085C00004D0D9E90023FEF7C9FE01235FEA680859
:1085D00009F10809F2D10BB182468B46049BBBB16D
:1085E000CBF30A53C3F16B03002B594610DD1F2B4D
:1085F00040F32881342BDEBF203B4FF0FF3202FADC
:1086000003F34FF0000ACCBF4FF05C7B03EA010B91
:108610000022002350465946FFF708F90028A4D14C
:10862000099B00930A992B463A46204601F029FB04
:10863000099000283FF424AF079B9E1B089B002B4A
:10864000B4BF334600231093089B002523EAE3734D
:1086500018932E46099B2046596801F089FA079025
:1086600000283FF411AF099B1A69023203F10C0193
:1086700092000C30FFF70AFC4BEC10AB20AA1FA9AC
:108680002046CDE90AAB01F0EBFD1E9000283FF437
:10869000FBAE0121204601F082FB064600283FF494
:1086A000F3AE1F9B0499002BABBF109A189A189F2A
:1086B000DDF84090ACBF03EB0209D71A209AA3EB78
:1086C00001089044A34B08F1FF389845C2F13602E7
:1086D00080F2CC80A3EB08031F2BA2EB03024FF028
:1086E000010100F3B68001FA03F3119300230C9308
:1086F00009EB0208049BC14517441F444B46A8BF21
:108700004346BB42A8BF3B46002BC2BFA8EB0308B1
:10871000FF1AA9EB0309109B002B17DD31461A46FF
:10872000204601F0E1FB064600283FF4ADAE0146CD
:108730001E9A204601F03CFB0F9000283FF4A4AEA7
:108740001E99204601F048FA0F9B1E93B8F1000FC6
:1087500000F39180089B002B08DD189A07992046AA
:1087600001F0C2FB079000283FF48EAE002F08DD19
:1087700007993A46204601F005FC079000283FF48F
:1087800083AEB9F1000F08DD31464A46204601F0BC
:10879000F9FB064600283FF477AE079A1E9920465B
:1087A00001F06BFC054600283FF46EAEC3680F93E2
:1087B0000023C360314601F044FC002865DA0F9BBA
:1087C00053EA0A0340F08780CBF31303002B40F0F9
:1087D00082802BF000431B0D1B05B3F1D66F7AD9B5
:1087E0006B6913B92B69012B75DD294601222046DF
:1087F00001F0C8FB3146054601F023FC00286ADD84
:108800000499554A5B46002900F0858002EA0B0175
:10881000B1F1D66F7FDCB1F15C7F7FF7AAAE4F4A32
:108820000023CDE916325046DDE916235946FEF7FE
:1088300095FD0B46034308BF222382468B4608BFA3
:1088400023602BE64FF0FF3202FA03F303EA0A0A31
:10885000DEE6C8F17F4808F57F0808F57B4808F197
:10886000E20801FA08F30C93119141E700230C93FD
:10887000012311933CE71E994246204601F082FBFA
:108880001E9000287FF466AFFEE55F466ED10F9A1A
:10889000CBF3130342B3324A934228D1049B504690
:1088A000EBB12D4A3A40B2F1D46F4FF0FF3119D8F5
:1088B000120DC2F16B0301FA03F3984217D1294B51
:1088C0009F4202D101303FF4DFAD234B3B4003F523
:1088D000801B4FF0000A049B002BA0D1DEE54FF077
:1088E000FF33EAE70B46E8E753EA0A0388D00C9B1C
:1088F000DBB13B42EFD00F9B049A50465946C3B1BF
:10890000FFF75AFB02460B46DDE90A01FEF770FB52
:1089100082468B46DFE71340A3F580136FEA135BB3
:108920006FEA0B5B4FF0FF3AD5E7119B13EA0A0F92
:10893000E0E7FFF741FB02460B46DDE90A01FEF7DF
:1089400055FB0022002382468B46FEF76FFF00286E
:10895000C1D00EE602FCFFFF0000F07F000050399E
:10896000FFFF0F00FFFFEF7F60AB0D003146284691
:1089700001F0C6FC59EC108B10EE100A00224FF0EB
:1089800080434946FEF766FF00287CD00F9B002BF2
:108990004CD0954B0022CDE90C23DFF84C924FF0E0
:1089A0000008924B3B401193119A914B9A4240F030
:1089B000B280DDE90A23DDE90C01A7F1547B4BEC21
:1089C00010ABCDE91623CDE90C0101F0CDFBDDE9BB
:1089D0000C0153EC102BFEF7C1FC52465B46FEF730
:1089E00007FB0B468149834A1940914282465ED972
:1089F0000B9B02F15472934203D10A9B01333FF463
:108A000043ADDFF8FCB14FF0FF3A1E99204601F06C
:108A1000E3F80799204601F0DFF83146204601F0DF
:108A2000DBF82946204601F0D7F813E6BAF1000F2B
:108A30001BD1CBF31303F3B96B4B002240464946DD
:108A4000FEF7FEFED0B9404649466B4B0022FEF7CA
:108A500085FC8046894609F10043CDF868801B9368
:108A6000DDE91A23CDE90C239BE7BAF1010F02D10E
:108A7000002F3FF47EAD614B00228CE7DFF8789148
:108A80004FF00008E7E75C4B404649460022FEF7FE
:108A900065FC0F9B8046894633B901F10043129073
:108AA0001393DDE91223DDE7CDE91289F9E703F13C
:108AB000547B049B002BA8D12BF00043119A1B0D73
:108AC0001B059A42A1D14046494601F013FDFEF72D
:108AD00017FC02460B4640464946FEF787FA0F9AB6
:108AE000CBF3130343EA0A0313438046894653D06A
:108AF00035A3D3E90023FEF7A3FE00287FF4CEAC14
:108B000033A3D3E9002340464946FEF7B7FE0028C9
:108B10003FF47BAFC2E4049B33B3119BB3F1D46F3A
:108B200022D82DA3D3E9002340464946FEF792FE02
:108B3000A0B149464046FEF7ABFE012838BF0120F0
:108B4000FEF792FB0F9B8046894613BB01F1004361
:108B500014901593DDE91423CDE90C230D9B119A94
:108B600003F1D6639B1A0D93DDE90C019DED0A0B11
:108B7000CDE90C0101F0F8FADDE90C0153EC102B02
:108B8000FEF7ECFBDDE90A23FEF732FA82468B465C
:108B90008FE7CDE91489DDE711A3D3E90023FEF7C0
:108BA0004FFEB4E700230E93199A1D9B1360FFF745
:108BB00065BA652B3FF45DAB452B3FF45AAB012200
:108BC000FFF792BBAFF300809535A094FFFFDF3F26
:108BD00035E5AF350000E03F0000C0FFFFFFDF419B
:108BE0009535A094FFFFCF3F0000F03F0000F07FDD
:108BF0000000E07FFFFF9F7C0000E03F0000F0BF2F
:108C0000FFFFEF7F0A4601460248034B0068FFF76B
:108C1000EFB900BFC4E103208CE203202DE9F04747
:108C20003A4E86468C4660461CF8014BA55D15F011
:108C30000805F8D12D2C33D19CF800404FF00108E5
:108C400000F1020C002B5CD0102B0CD1302C0AD17F
:108C50009CF8000000F0DF0058284DD19CF801403E
:108C600010230CF1020C08F10047013F0026B7FB6E
:108C7000F3F9304603FB197AA4F13005092D18D811
:108C80002C46A34224DD751C07D081451DD301D19C
:108C9000A2451ADB00FB034001261CF8014BEBE761
:108CA0002B2C08BF9CF80040A84608BF00F1020C1E
:108CB000C8E7A4F14105192D01D8373CE1E7A4F13B
:108CC0006105192D04D8573CDBE74FF0FF36E4E788
:108CD000731C06D12223CEF80030384642B9BDE8D5
:108CE000F087B8F1000F00D04042002AF7D00EB153
:108CF0000CF1FF311160F2E73024002BB3D10823CF
:108D0000B1E7302CA4D00A23ADE700BFC5AB0D00FE
:108D100013460A46014602480068FFF77FBF00BFBE
:108D2000C4E103202DE9F0433B4E86468C46604665
:108D30001CF8014BA55D15F00805F8D12D2C34D198
:108D40009CF800404FF0010800F1020C002B5ED0AF
:108D5000102B0CD1302C0AD19CF8000000F0DF0061
:108D600058284FD19CF8014010230CF1020C4FF011
:108D7000FF370025B7FBF3F703FB07F96FEA090993
:108D80002846A4F13006092E18D83446A34224DD23
:108D9000002D1FDB87421DD301D1A1451ADB00FB4B
:108DA000034001251CF8014BEBE72B2C08BF9CF876
:108DB0000040A84608BF00F1020CC7E7A4F1410635
:108DC000192E01D8373CE1E7A4F16106192E04D829
:108DD000573CDBE74FF0FF35E4E7002D07DA2223AD
:108DE000CEF800304FF0FF3042B9BDE8F083B8F163
:108DF000000F00D04042002AF7D00DB10CF1FF3136
:108E00001160F2E73024002BB1D10823AFE7302CFA
:108E1000A2D00A23ABE700BFC5AB0D0013460A463C
:108E2000014602480068FFF77DBF00BFC4E1032090
:108E30002DE9F74F804600F0D1FD40F2B17398451F
:108E400040F398806FF4F66343449B1040F26D1238
:108E5000A8F2B27502FB05356FF06302A8F26D73DC
:108E600093FBF2F31D444FF4C8736FF4C86298FB90
:108E7000F3F703FB17874244B7FA87FCB2FBF3F220
:108E800008F0030315446422C0F8048098FBF2F64E
:108E90004FEA5C1C02FB1686044600F1500B00935F
:108EA0004FF0070E227A63694A2A28D10099EA18FE
:108EB00001B906B90FBB3B2BD4BF002301231344D8
:108EC0005A1EA3692C4901FB0232A36A13441A46B5
:108ED000DB17C4E908232834A345E3D1D0E90845CA
:108EE000D0E91223944275EB0303B4BF012300239E
:108EF0000360012003B0BDE8F08F0023DFE7442AC0
:108F000001D1EA18DDE7009A72BB002E0CBFE046E3
:108F10004FF001081949E26801924FF0300A0AFB4C
:108F200008182A464FF00009A8F10408019909F130
:108F30000109494558F829A018DC02F1040898FBFA
:108F4000FEF9C9EBC909A8EB0909B3EB09092369C3
:108F500003F1FF3348BF09F10709C3EBC3034B44D7
:108F6000534505DA1A44ACE7E046D3E75244DDE75F
:108F7000073BF5E70020BDE780510100C8AA0D00BE
:108F8000014800F0DFBD00BFEFE70320014800F01B
:108F9000DBBD00BFEFE70320014B186800F002B80B
:108FA000C4E103202DE9F04F8DB0074600F016FD17
:108FB000AE49AF4E0546384600F008FD044670B98C
:108FC000AC4BAD4A1860AD4B1860AD4B3068C3E98F
:108FD0000022FCF7BFFD34600DB0BDE8F08F3168B2
:108FE00000295FD13068FCF7B5FD2046FEF7B7FFDA
:108FF000411C3846FCF7D6FD3060002857D1237855
:10900000A04AA1493A2B08BF01340AAE3346204694
:10901000FCF7B0FD0028DFDD0A9BE718E35C2D2B91
:1090200049D101374FF0FF340DF1200A0DF11E0B2D
:109030004FF00008CDE9016A94490396CDF800B0DD
:10904000334607AA3846ADF81E80ADF82080FCF7FD
:1090500091FD4045C0DDBDF81E30BDF82020DFF891
:1090600038923C2101FB0322BDF81C304FF46161B2
:1090700001FB03235C43AC62814C824B23600A9B5F
:1090800081491F444A4633463846FCF773FD404544
:1090900016DC23686360774BAA6A1A60774BC3F8C3
:1090A000008099E7FEF72CFF00289BD194E721462A
:1090B000FEF730FFA3E72B2B08BF01370124B3E7EE
:1090C0000A9BC4F80490FC18FB5C2D2B40F08B80AD
:1090D00001344FF0FF370023ADF81C30ADF81E30DF
:1090E000ADF820300A93CDE902A6CDE900B6674974
:1090F000334607AA2046FCF73DFD002878DCAF6A1E
:10910000A7F561670A9B2F651C442F464FF00009A5
:1091100023782C2B08BF013494F80080B8F14D0F50
:1091200078D10DF12603CDE9016309AB00935849CD
:10913000039633460DF122022046FCF71BFD03285F
:109140007FF44AAFBDF822104B1E0B2B3FF644AF05
:10915000BDF82420531E042B3FF63EAFBDF8263049
:10916000062B3FF639AFC7E9031287F808807B6109
:109170000A9B04EB03080223ADF81C300023ADF872
:109180001E30ADF820300A9398F800302F2B09D10B
:10919000CDE902A6CDE900B63E49334607AA4046CE
:1091A000FCF7E8FCBDF81E30BDF820203C2101FB97
:1091B0000322BDF81C304FF4616101FB0323BB6146
:1091C0000A9C28374444B9F1000F20D06868FFF7A3
:1091D0002FFE284BAA6A1A602B6D9B1A274A18BFCC
:1091E00001231360F8E62B2B08BF0134012772E737
:1091F000BDF81E30BDF820203C2101FB0322BDF844
:109200001C304FF4616101FB03235F437AE74FF0A9
:1092100001097DE7B8F14A0F06BF013443464423F4
:109220000A220BA920460593FFF7F8FDDDF82C80F4
:10923000059BADF82600A04514D14D23B9F1000FD0
:1092400007D12B7203210223C5E90313C5F814903B
:1092500091E785F830300B220123C5E90D23002367
:10926000EB6388E780B23B72786184E788AB0D00DE
:10927000D8E70320E0E703208BAB0D00DCE70320F9
:1092800028E20320CBE703208FAB0D00B2AB0D002B
:109290009EAB0D00B1AB0D00C0E703200369B3EB3B
:1092A000611F2DE9F0434FEA611200F1140445DD1E
:1092B00011F01F0104EB830604EB82050CD100F1D1
:1092C00010072946B14234D39B1A9B00EA1E9642EE
:1092D00038BF0023234415E054F82270C1F1200860
:1092E000CF4005F1040EA1467645F44615D89B1AE9
:1092F0009A00043A0135AE4238BF0022A318A750A5
:1093000007B104331A1BA3424FEAA20208BF00238D
:10931000026108BF4361BDE8F083DCF800C00CFACD
:1093200008FC4CEA070749F8047B5EF8047BCF4051
:10933000DAE751F804CB47F804CFC3E72346E1E767
:10934000A0F13003092B02D82038C0B27047A0F139
:109350006103052B01D84738F7E7A0F14103052B3E
:1093600001D82738F1E70020704700002DE9F04FC1
:109370002DED028B89B008EE100A0493BC4B1B68DC
:10938000019318468B469046FEF7E9FD019BDBF8FA
:1093900000200344824613F8013C0593931CC2F15C
:1093A000FF2202F57F02FE32D1181F4613F8010B8F
:1093B00000913028F8D0FFF7C3FF044600283AD1C7
:1093C000019952463846FEF7D2FD0546002868D17D
:1093D00017F80A0007EB0A06FFF7B2FF002862D071
:1093E0003346187830281F4603F10103F9D0FFF700
:1093F000A7FF0123B0FA80F46409354600933A468A
:10940000164601323078FFF79BFF0028F8D101990A
:1094100052463046FEF7ABFD80B94DB906EB0A0562
:109420002A46164601323078FFF78AFF0028F8D125
:10943000AD1BAD0004E000242546E0E7002DF7D188
:10944000337803F0DF03502B3BD173782B2B2CD0D8
:109450002D2B2ED0711C4FF000090878FFF770FFFC
:10946000431EDBB2182B2CD8A0F1100211F8010F0B
:10947000FFF766FF431EDBB2182B1DD9B9F1000FB1
:1094800000D052421544CBF80010E4B1009B002BF1
:1094900014BF00270627384609B0BDEC028BBDE893
:1094A000F08F3E4625460124CAE74FF00009B11C63
:1094B000D3E74FF00109FAE70A2303FB0202103A4F
:1094C000D4E73146DFE7F31B013B2146072B52DC93
:1094D00018EE100A00F04CFB4FF0000B00F11409DD
:1094E000CAF101030446CDF80890CDF800B0069308
:1094F000B74243D30298009B40F8043BA0EB09001D
:10950000801046012061184600F0F9FB301AD8F8A7
:109510000060B04266DD871B3946204600F046FFFA
:109520008246A8B17B1E591103F01F0259F8211081
:109530004FF0010A0AFA02F20A4209D0534505DD4A
:10954000B91E204600F032FF002848D14FF0020A31
:1095500039462046FFF7A2FE3D44D8F80830AB421A
:109560004FDA18EE100A214600F036FB149A002359
:109570001360A3278FE701315B10A7E7731E059ADD
:10958000039316F8013C934219D0BBF1200F07D189
:10959000029B009A43F8042B0293002300939B46FE
:1095A00016F8010CFFF7CCFE009B00F00F0000FA4C
:1095B0000BF0034300930BF1040B039B0DE0039BA3
:1095C000069A1344BB42E0D31846019907935246CA
:1095D000FEF7CDFC079B0028D7D11E4688E74FF049
:1095E000030AB5E70ADA371A214618EE100A3A4696
:1095F00000F0C8FCED1B044600F114094FF0000A0E
:10960000ABE7D8F80400A8426DDD451BAE4231DC63
:10961000D8F80C30022B23D0032B25D0012B15D1E9
:10962000AE4213D1012E0BD1049AD8F80430136046
:1096300001232361C9F80030149B62271C602AE7CC
:10964000711E204600F0B2FE0028EDD118EE100A7F
:10965000214600F0C1FA149A0023136050271AE73C
:10966000159B002BF2D1DFE7159B002BDCD1EDE73A
:10967000C8AC0D006F1EBAF1000F31D127B13946C9
:10968000204600F093FE82467B11012159F82330D9
:1096900007F01F0701FA07F71F422946204618BFA7
:1096A0004AF0020A761BFFF7F9FDD8F804500227AA
:1096B000BAF1000F48D0D8F80C30022B15D0032B8C
:1096C00017D0012B09D11AF0020F06D0D9F80000EB
:1096D0004AEA000A1AF0010F0ED147F0100733E0F2
:1096E0004FF0010AD0E70127E2E7159BC3F1010320
:1096F0001593159B002BF0D0D4F8109004F11403AF
:109700004FEA890B03EB89014FF0000C184653F820
:10971000042BB2F1FF3F1CD001320260022F04F192
:1097200014033AD1D8F80020013AB2420AD171119B
:10973000012253F8213006F01F0602FA06F61E42F7
:1097400018BF174647F02007149B1C60049B1D6040
:10975000A1E6994243F804CCD8D8A368994514DB14
:10976000616818EE100A013100F002FA2269023233
:1097700004F10C01824692000C30FEF787FB214673
:1097800018EE100A00F028FA544623695A1C04EB1C
:109790008303226101225A61C0E722694A450BDD39
:1097A00001212046FFF77AFDD8F808300135AB4299
:1097B000FFF6D7AE0127C5E716F01F06FAD09B4487
:1097C000C6F120065BF8040C00F099FAB042E7DB22
:1097D000F0E700BFC2F10802920070B5C2F12006A6
:1097E0004368046803FA06F52C43D340046040F84C
:1097F000043F8842F4D370BD30B50368013311F8DB
:10980000014B14B90360012030BD13F8012BA2F104
:109810004105192D98BF2032A242F0D00020F3E775
:109820002DE9F04F0B6801685E1102EB860613F01C
:109830001F0387B018BF04360025371F82469046A5
:10984000019346F8045CB9463C460295AB464A781B
:109850004B1C039342B3104605910492FFF770FD31
:1098600000284FD1049A0599202A18D8029B9B45BD
:1098700013DD4C4506D2072D04DC2A464946204616
:10988000FFF7A8FF444550D90023A4F1040944F888
:10989000043CCDF808B04C461D460399D7E7292A69
:1098A00056D10231CAF80010BBF1000F50D04C4520
:1098B00006D2072D04DC2A4649462046FFF78AFFD8
:1098C000444534D9A8F10402234653F8041B42F856
:1098D000041F9F42F9D23B1B23F0030304330134DE
:1098E000033EB44288BF04234344002243F8042BC0
:1098F0009F42FBD23B681BB9474527D101233B6000
:10990000052026E00135082D0BF1010B06DD44454D
:10991000C3D9002344F8043C0125043C226800F02C
:109920000F0040EA02122260B7E70825B5E7019B65
:10993000002BDFD04FF0FF32C3F1200322FA03F3F4
:1099400056F8042C1A4046F8042CD3E7043FD1E71C
:10995000042007B0BDE8F08F2DE9F84F074689468F
:10996000164600F06BFD184B1C689A4634B14B4606
:10997000984613F8011B39B13D29F9D1384600F05A
:1099800063FD0020BDE8F88FA8EB0908A34654F852
:10999000040B0028F2D042464946FEF7E8FA0028B8
:1099A000F4D154F8043C03EB080513F808303D2BC0
:1099B000ECD1DAF80030ABEB03039B103846336090
:1099C00000F042FD681CDDE7F8E3032007B501AABB
:1099D000FFF7C2FF03B05DF804FB000000487047CA
:1099E00030E203202DE9F041D0E900670C46514AEE
:1099F00000233046394600F02DFD394605464D4AD4
:109A00003046002300F026FD002ABCBF02F5A83234
:109A100002F5C0724FF4616105F52F20B2FBF1F33E
:109A200001FB13224FF03C01ACBF00F66C2000F6A6
:109A30006B20A360B2FBF1F301FB13226360226091
:109A4000C31C072293FBF2F2C2EBC2029B1A48BF6F
:109A500007330028A361B8BFA0F50E333649AEBF67
:109A600090FBF1F1A3F52C7393FBF1F1334B03FB66
:109A7000010048F6AC62B0FBF2F2024440F2B45C82
:109A8000B0FBFCF3D21A40F26D172D4BB0FBF3F391
:109A90006426D31AB3FBF7F5B3FBFCF3B5FBF6F280
:109AA000D31A034407FB1533992003EB830C0CF105
:109AB000020C03F1010EBCFBF0F7784302304FF0CB
:109AC0000508B0FBF8F0AEEB000040F2F95EF4459B
:109AD00094BF4FF0020C6FF0090C67444FF4C87C40
