:02000002D0002C
:1040000000400D0074810D00000006000D00050148
:084010000401D70700000000C5
:04401800A0790D007E
:1040200009480A49884208B505D0094A824202D0A7
:10403000121A03F0ADFB0748074A0021121A03F0D9
:10404000B5FB014808BD00BF4CE3032004800D0010
:1040500090E4032090E40320F0E7032070B5074EBE
:10406000074C02F067FEA41BA4080025A54200D15E
:1040700070BD56F8043B98470135F7E7D07F0D0037
:10408000F47F0D0000F0ACBA08B500F07DFCBDE88F
:10409000084002F011BE01F071BC01F06FBC01F0EC
:1040A00075BC0078B0FA80F04009704701230370B6
:1040B0007047000008B5044902F0FCFA18B1034B40
:1040C00003221A70012008BDA57B0D0074E50320B2
:1040D0000023042201F0AABB37B59DF818501D43F8
:1040E0008DF800503C23044601F076FE204603B0D4
:1040F00030BD10B50446006808B101F047FC204609
:1041000010BD0000F8B5037D05460F461646B3B155
:104110000368DB68ABB19A880E2A06D09B68F9E782
:104120009B6873B19A880E2AFAD153B11A7BBA42AE
:10413000F6D1DA8931888A4201D00A43DA812846E9
:10414000F8BD0B49142002F0ECFE044670B11422B5
:10415000002103F02BFB074B23600E23A3802B6968
:10416000A36033882773E3812C61E8E72875E6E7CD
:10417000CC7E0D00100003002DE9F84F01F06EFB1E
:10418000DFF858A04FF496744FF0000B40F2E73878
:104190004FF00009002001F0BFF90546002001F0B2
:1041A000BBF9461B61EB0B07B94508BFB04505D30A
:1041B00001F05CFB10B901F049FBEFE701F056FBA1
:1041C00018B1BDE8F84F01F051BB01F075F9CAF81C
:1041D000000001F03BFB013CDCD1F2E7CCE703201F
:1041E00008B501F069F9044B1B68C01AB0F57A7F75
:1041F00034BF0020012008BD14E5032008B5FFF7F7
:10420000EFFF10B901F022FBF9E7BDE80840FFF726
:10421000E7BF000030B585B00D4600226946009228
:1042200001F09AFAB0B9009C0CB1236923B90A4A8B
:1042300000210A2001F080FA0023ADF806300C239B
:10424000ADF80430042303930295236901AA0121E8
:104250002046984705B030BDA9540D0030B50E4D2D
:104260000FCD89B001AC0FC495E8070084E80700C2
:1042700069460720FFF7CEFF0028A8BF0098074A2D
:1042800008AB03EB8000102150F81C3C044801F0FF
:104290008DFB09B030BD00BFCC7C0D00377C0D001C
:1042A000D8E4032038B5046805467CB16368013B57
:1042B00063605BB9236820469B689847A368013B0D
:1042C000A3601BB923682046DB689847284638BDA1
:1042D00030B5294CA9B0082502F0C6FD284626496C
:1042E0003822643501F000F9B5F5CC7FF4D1E36AEA
:1042F0000A93A06A02F080FFCDE90801606A02F02B
:104300007BFFCDE90601206A02F076FFCDE90401CA
:10431000D4E90623CDE90223D4E904236421CDE9BD
:1043200000230FA8154A164C01F040FB00238DF81E
:104330000030144B14491B780FAA0DA8FFF7CCFED0
:104340000EA8FFF7AFFF02F00BFBC117C4E9000195
:1043500002F08AFD2178032001F0BEF802F010FB84
:104360000A4B18700A4B01221A7001F0A5F8094B8C
:10437000186029B030BD00BF30E50320F4790D008E
:10438000F8E40320D1E40320557A0D0000E5032072
:104390004CE30320C4E5032030B51E4D85B00C4628
:1043A00081B92B7843B3FFF729FF1B4B8DF80040F1
:1043B0001B781A4A1A4902A8FFF78EFE03A8FFF7D6
:1043C00071FF19E0084603F0D1F9C83801282B78AD
:1043D00014D873B1FFF712FF00238DF800300E4B95
:1043E000104A1B78104902A8FFF776FE03A8FFF7D2
:1043F00059FF0E4B00221A7005B030BD002BFBD0C8
:10440000FFF7FCFE00238DF80030034B22461B789B
:10441000D0E700BF24E40320D1E403205E7A0D003E
:10442000667A0D00737A0D00857A0D004CE3032047
:104430007FB5574C57480025257000F0F9FFB5EEC1
:10444000400AF1EE10FA00F0918002F089FA524B26
:10445000C117C3E9000102F09FFA1E287FD02D2862
:104460007FD00F2814BF03262E464A4800F0E0FFF5
:1044700010EE100A02F0C0FE484AC4E90401CDE97A
:1044800000011021464801F091FA424800F0DEFF99
:1044900010EE100A02F0B0FE424AC4E90601CDE96E
:1044A00000011021404801F081FA404800F0D0FDA1
:1044B0003E4884ED080A00F0EBFD3C4884ED090A13
:1044C00000F066FD07EE900AF8EE677A206AC4ED08
:1044D0000A7A02F091FE364ACDE9000110213548F2
:1044E00001F064FA606A02F087FE334ACDE9000108
:1044F0001021324801F05AFAA06A02F07DFE304ADB
:10450000CDE9000110212F4801F050FA02A9032043
:10451000FFF780FE38BBBDF8083007EE903AFBEE9F
:10452000CC7AFDEEE77A284A2848C4ED0B7A1021B0
:1045300017EE903A012501F039FAFFF78FFE25704A
:1045400002F00EFA606002F08FFC642070431049A4
:104550003822083000F0D0FF284604B070BD012694
:1045600083E7022681E7FFEE007ADAE7184B8DF841
:1045700000501B78174A184902A8FFF7ADFD03A8A1
:10458000FFF790FE02F0FAFA144901F0AEFFE3E7FC
:1045900030E5032068E50320F8E403208B7A0D0062
:1045A00075E50320937A0D0001E5032088E50320DB
:1045B0009B7A0D001AE50320A77A0D00C8E50320B9
:1045C000B57A0D0094E40320C17A0D00E8E40320DD
:1045D000D0E40320C77A0D00E47A0D00E87A0D00DC
:1045E000F0B5BDB002F0CAFA4FF4E13102F0BAFA08
:1045F00002F0C4FA7F4901F078FF7F4B0CAA03F167
:104600001005164618685968144603C40833AB42AF
:104610002246F7D119889B7821802D22A370002192
:10462000764C0DF1430003F0C1F80223012107206D
:10463000237002F007FC0121052002F003FC04A80E
:1046400001F01CF900237D221CA904A802F044F803
:1046500000231A46CDE9003369491CA801F01EF970
:10466000684B69481968FFF733FD68496848FFF7E8
:104670002FFD68496848FFF72BFD68496848FFF738
:1046800027FD68496848FFF723FD68496848FFF738
:104690001FFD68496848FFF71BFD68496848FFF738
:1046A00017FD68496848FFF713FD684A684969487B
:1046B00001F08EFA6849694A664801F089FA68484B
:1046C000442100F020FE88B900F0F6FE654D6649F1
:1046D0002860304603F0A0F802F050FA634901F078
:1046E00004FF0123237000F0E7FE286002F0EAFBDC
:1046F00001465F4800F0EFFC88B900F0DDFE594D3F
:104700005C492860304603F087F802F037FA5A49CE
:1047100001F0EBFE0123237000F0CEFE2860544828
:10472000564D002100F04EFC0C21514800F041FC98
:104730004F4800F04AFC00270A22002108A801F097
:10474000A6FF8DF800702B78089A4D4902A8FFF754
:10475000C3FC03A8FFF7A6FD08A801F00DFF44481D
:1047600000F02AFC0A22192108A801F090FF8DF818
:1047700000702B78089A434902A8FFF7ADFC03A804
:10478000FFF790FD08A801F0F7FE394842F21071DA
:1047900000F08AFD364844F6206100F089FD0121D1
:1047A000334800F000FCFFF743FEFFF7E5FC48B993
:1047B0000123237000F080FE2A4B334918603046F5
:1047C00003F02AF8314B1B785BB100238DF80030E1
:1047D00008A82B782E493246FFF77EFC09A8FFF780
:1047E00061FD00F069FE2B4B186004A801F0C4FEC7
:1047F0003DB0F0BD007B0D00E87C0D0074E50320AA
:1048000099430D0050E303200B7B0D0075E5032059
:10481000137B0D0001E503201F7B0D001AE503202B
:10482000287B0D00C8E503202C7B0D0094E40320B9
:10483000327B0D00E8E403203A7B0D00D8E403202E
:10484000427B0D00A4E40320517B0D005D7B0D0035
:10485000B5400D00A55B0D0099480D00697B0D006A
:1048600068E503202CE50320767B0D00937B0D008B
:1048700088E50320A77B0D00C37B0D00D1E4032056
:10488000D67B0D00DB7B0D00EC7B0D0024E40320C8
:10489000FE7B0D0014E5032030B5144985B00546B4
:1048A00001F008FF044690B1114B124A01241C701C
:1048B00000238DF80030104B1B78104902A8FFF739
:1048C0000BFC03A8FFF7EEFC012005B030BD0C493E
:1048D000284601F0EFFE0028F7D0054B094A1C706E
:1048E000054B8DF800401B78E7E700BFA57B0D0066
:1048F00024E40320067C0D00D1E40320277C0D0076
:10490000F2790D00177C0D0030B5184D184C19497F
:104910002A7820788FB01A2303FB0212009203FB3F
:104920000013154A282104A801F040F82B782370C1
:1049300000F09CFF90B1FFF761FC00238DF8003080
:104940000E4B0F491B7804AA02A8FFF7C5FB03A86A
:10495000FFF7A8FC00F0B0FD0A4B186002F00EF95A
:1049600004A901F0C2FD0FB030BD00BF74E5032003
:104970002AE5032054E303202C7C0D00D1E403201E
:104980003A7C0D0014E503202DE9F0417A4C2378A0
:10499000013B9CB0062B1DD8DFE813F0C2000700D6
:1049A00048003800730093001401744B1B782BB13E
:1049B000734B1B78022B01D0FFF7A6FF01F0E0FF3D
:1049C000704B714D1B78984207D001F0E5FF03232F
:1049D000286023701CB0BDE8F08101F0DDFF2B687A
:1049E000C01A1D28F1DC694B1B784BB9684B1B784A
:1049F00033B9684B1B781BB9674B1B78002BE9D088
:104A000001F0CAFF0428E5DD0423E2E75B4B1B78D5
:104A10002BB15B4B1B78042B01D0FFF775FFFFF721
:104A200007FD08B10223D4E70123D2E7534E3278C1
:104A30002AB1534B1B78032B01D0FFF765FFFFF71B
:104A4000F7FC0546D8B90123237000F035FD534B20
:104A500018603378002BBDD0FFF7D0FB504B8DF89A
:104A600000501B784F4A50490CA8FFF735FB0DA8A2
:104A7000FFF718FC00F020FD4C4B1860AAE7052357
:104A8000A7E73E4B1B782BB13D4B1B78052B01D084
:104A9000FFF73AFF00F0EAFE68B101F071FF0C2861
:104AA00005D100F0E3FE10B1002000F0FFFEFFF79B
:104AB0000FFC06238DE70123237000F0FDFC374B2C
:104AC000DBE72E4B1B782BB12D4B1B78062B01D02F
:104AD000FFF71AFF364B1B780BB9072379E700F075
:104AE000EBFC344B1B68C01A4AF6C87398427FF639
:104AF00071AF00F0E1FC294D2F4A286000238DF8AA
:104B00000030274B2D491B780CA8FFF7E5FA0DA8BC
:104B1000FFF7C8FB0123237000F0CEFC286059E7A3
:104B2000164B1B782BB1164B1B78012B01D0FFF7CE
:104B3000EBFE00F0C1FC194B1B6803F5922303F553
:104B400078738342BFF446AF00F090FE60B100235B
:104B50008DF80030124B1A4A1B7813490CA8FFF746
:104B6000BBFA0DA8FFF79EFB4FF4FA6000F046FF7A
:104B700001F010FE2EE700BF74E5032024E40320BB
:104B80002AE5032000E50320D4E4032086E5032082
:104B900019E5032085E5032018E503202CE5032013
:104BA000D1E403204B7C0D00857A0D0014E5032031
:104BB0004CE30320C4E50320FF7A0D00657C0D0063
:104BC0007E7C0D003B4B1B782BB13B4B1B78072B9E
:104BD00001D0FFF799FE00F049FEDFF8FC8007AD39
:104BE00090B136490CA802F017FEFFF707FB00232F
:104BF0008DF8003006A898F8003031490CAAFFF76C
:104C00006BFA2846FFF74EFB0121072002F01AF944
:104C1000012300268DF82C302A4F2B4906950223BC
:104C20001020CDE90966ADF821608DF82360079763
:104C30008DF8203002F075F90546002836D0102294
:104C4000314602F0B3FD0423AB800A9BAB601F4BDF
:104C50002F60EB600A95012303AA042106A8ADF892
:104C60000C30FFF74FFA03A806A901F097FD03984F
:104C700008B100F08BFE00F0F1FD0023144A154945
:104C80008DF8003003A898F80030FFF725FA04A843
:104C9000FFF708FB02230A98237000283FF49AAE1E
:104CA00084680C2102F03BF92046F6E78DF82C00D1
:104CB000D1E700BF24E403202AE50320927C0D0005
:104CC000B07C0D0010000300CC7E0D00E08C1A00BB
:104CD000B87C0D00C37C0D00D1E40320194B70B5E6
:104CE00000241C70184B194D01261E7002F054F858
:104CF0002346224642F6987102F056F802F04CF82C
:104D000022462346062102F057F8114800F03FF9E9
:104D1000104800F0D5FA104BAB6002202C60AC803C
:104D2000AC7100F02BFD0D4A0D49284602F0F2F857
:104D30002146304600F032FD31460420BDE8704087
:104D400000F0A2BBD0E40320D1E40320C4E403209C
:104D500088E5032068E503200000FFFF90E40320BE
:104D6000F3400D004260002201700272704710B5DE
:104D7000037A044653B12178606801F051FA606803
:104D800001F056FAB0FA80F0400910BD00F003F8C7
:104D90000028F0D1F9E710B50446406801F00EFA9A
:104DA000012323722046BDE81040FFF7E0BF2DE944
:104DB000F843DDE908961F469319202B04468846E0
:104DC000154602D90020BDE8F8830178406801F05B
:104DD00027FA7EB9606803682A46DB68414698472F
:104DE0008542EFD16068394601F01EFAB0FA80F0D2
:104DF0004009E8E7B9F1000FECD06068036832467B
:104E0000DB6849469847B042DCD1E3E7202A70B519
:104E100006460C4615460FD80178406801F0EBF9BC
:104E2000A84209D12518A54208D0706803685B69BB
:104E3000984704F8010BF6E7002070BD0120FCE75D
:104E400073B51D460023CDE900339DF81C30069E46
:104E50000446FFF7ACFF40B1012332462946204605
:104E600002B0BDE87040FFF7D1BF02B070BD10B511
:104E7000016082809DF80C109DF80820C1710272BB
:104E8000837110BD1FB58388ADF80C30C3790193D1
:104E900003AB009300680123FFF789FF05B05DF8BD
:104EA00004FBF0B40C4602B98279042A13D800F14D
:104EB000090583182946834209D0077AE6B227B943
:104EC0002E70240A0135013BF5E71E72F9E7F0BCAC
:104ED0001846FFF7D7BF0020F0BC704713B5044653
:104EE0000B46818804F8091F0021CDE90021012229
:104EF00021460068FFF7A4FF02B010BD38B500F1ED
:104F00000905827929460446FFF7E8FF78B1A279BE
:104F1000294622440020A2420BD00302207A20B965
:104F2000107A1843013A0131F5E70878F9E74FF0B4
:104F3000FF3038BD10B501600271437110BD10B56E
:104F400004460068FFF7DAFF23795A1C01239340D7
:104F50006279013BD040184010BD70B5044600682E
:104F60000E46FFF7CBFF2379012201339A40531EEF
:104F7000627903FA02F520EA050503EA06012068D2
:104F8000914029438279BDE87040FFF78ABF70479E
:104F900008B54068FFF7B2FF80B208BDC06981F074
:104FA0000101FFF7DABF006AFFF7D7BF406AFFF7DA
:104FB000D4BF806AFFF7D1BF08B5806AFFF7BFFF93
:104FC000C0B208BDC06AFFF7C8BF08B5C06AFFF726
:104FD000B6FFC0B208BD10B52DED028B0446B0EE91
:104FE000408AFFF7F2FF022818D0032813D00128C7
:104FF00003D1F6EE007A28EE278A2046FFF7DCFF81
:1050000001380B2814D8DFE800F0181B1E13131307
:1050100013111313130CF1EE007AECE7F2EE007AA1
:10502000E9E7F1EE007A28EE278A01E038EE088AF7
:10503000B0EE480ABDEC028B10BDF6EE007AF2E746
:10504000F5EE007AEFE7F4EE007AECE700000000FE
:1050500010B504464068FFF751FF07EE900A20465E
:10506000B8EE670AFFF7B7FF10EE100A02F0C4F8B7
:1050700005A3D3E9002302F017F902F027FB00EEA5
:10508000100A10BDAFF3008092CB7F48BF7DAD3FCB
:1050900010B504468068FFF731FF07EE900A2046FE
:1050A000B8EE670AFFF797FF10EE100A02F0A4F8B7
:1050B00005A3D3E9002302F0F7F802F007FB00EEA6
:1050C000100A10BDAFF3008092CB7F48BF7DAD3F8B
:1050D000006BFFF742BF7FB504460C200391FEF73B
:1050E000DAFF054618B1039A1021FFF73BFEA563CE
:1050F0002846FFF750FE0546002800F0D280102019
:10510000FEF7C9FF064638B101230022CDE900238E
:10511000A16B0223FFF7ABFE26601020FEF7BBFF5A
:10512000064638B100230122CDE90032A16B0223EB
:10513000FFF79DFEE6601020FEF7ADFF064640B18A
:1051400000230122CDE900320223A16B1A46FFF7AA
:105150008EFE26611020FEF79EFF064648B1002312
:105160004FF0010ECDE9003EA16B02230322FFF7B1
:105170007EFE66611020FEF78EFF064648B10023D2
:105180004FF0010CCDE9003CA16B02230422FFF794
:105190006EFE66601020FEF77EFF064640B10023DB
:1051A0000121CDE900310522A16B0223FFF75FFE4B
:1051B000A6601020FEF76FFF064640B100230122D3
:1051C000CDE90032A16B02230622FFF750FEA66153
:1051D0000820FEF760FF064620B121680023012267
:1051E000FFF7A8FEE6610820FEF755FF064620B14E
:1051F000012321681A46FFF79DFE26620820FEF76C
:105200004AFF064620B1216804230222FFF792FEDE
:1052100066620820FEF73FFF064620B1216806239C
:105220000422FFF787FEA6620820FEF734FF064639
:1052300020B121680B230222FFF77CFEE6620820E2
:10524000FEF729FF064620B1616900230122FFF71E
:1052500071FE26630820FEF71EFF064620B1616935
:1052600001230222FFF766FE002120466663FFF756
:1052700095FE00212046FFF796FE00212046FFF70D
:1052800095FE00212046FFF79DFE00212046FFF7F6
:1052900090FE00212046FFF71BFF01212046FFF76B
:1052A0007DFE284604B070BD00690022FFF7F9BDFD
:1052B000C0680022FFF7F5BD0368C9B29B681847B4
:1052C000704738B505460C4601F0FCFD297800F022
:1052D000A7FF01F0F7FD210AFFF7EEFF01F0F2FD55
:1052E000E1B2FFF7E9FF01F0EDFDBDE8384000F065
:1052F0009FBF08B543F2A201FFF7E3FFBDE80840F6
:105300000A2000F07BBB38B504460D4601F0DAFDFB
:1053100000F054FF20462570FFF7EBFF012038BD59
:105320000A44FF2091420ED011F8013B5840082357
:1053300010F0800F4FEA400018BF80F03100013BB1
:10534000C0B2F5D1EEE7704773B54FF41051054682
:10535000FFF7B7FF4FF4FA7000F050FB01F0B2FD19
:105360002978062200F059FF01F0ACFD03681B69A3
:10537000984706284BD16E46044601F0A3FD03680A
:105380005B699847013C14F0FF0406F8010B69467D
:10539000F3D102222846FFF7C3FF9DF80260864240
:1053A00035D102220DF103012846FFF7B9FF9DF820
:1053B000056086422BD1BDF80000BDF8034040BA1D
:1053C00080B201F0F7FE18A3D3E9002301F06CFFCF
:1053D00011A3D3E9002302F091F8114B002201F050
:1053E000ABFD02F073F9A86060BA80B201F0E2FE92
:1053F0000C4B002201F058FF07A3D3E9002302F071
:105400007DF802F063F96860012002B070BD0020F1
:10541000FBE700BFAFF3008000000000E0FFEF40BB
:1054200000804640000059400000000000E0654058
:1054300010B50446FFF788FF10B194ED020A10BDC5
:105440009FED010AFBE700BF0000C07F10B50446D6
:10545000FFF77AFF10B194ED010A10BD9FED010A2C
:10546000FBE700BF0000C07F08B5024B1B685B6C08
:10547000019308BD4802030008B5024B1B689B6CF2
:10548000019308BD4802030008B5024B1B685B6E20
:10549000019308BD3402030008B5024B1B685B682A
:1054A000019308BD1802030008B5024B1B68DB68B6
:1054B000019308BD1802030008B5024B1B685B6925
:1054C000019308BD1802030008B5024B1B689B6AD4
:1054D000019308BD1802030008B5024B1B681B6B43
:1054E000019308BD1802030008B5024B1B685B6CF2
:1054F000019308BD1802030008B5024B1B689B6CA2
:10550000019308BD1802030008B5024B1B689B6D90
:10551000019308BD1802030008B5024B1B68DB6D40
:10552000019308BD1802030008B5024B1B685B6EAF
:10553000019308BD1802030008B5024B1B689B6865
:10554000019308BD2C02030008B5024B1B68DB6801
:10555000019308BD2802030008B5024B1B689B6934
:10556000019308BD2802030008B5024B1B68DB69E4
:10557000019308BD2802030008B5024B1B681B6A93
:10558000019308BD2802030008B5024B1B685B6A43
:10559000019308BD2802030008B5024B1B689B6AF3
:1055A000019308BD2802030008B5024B1B68DB6AA3
:1055B000019308BD2802030008B5024B1B681B6B52
:1055C000019308BD2802030008B5024B1B685B6B02
:1055D000019308BD2802030008B5024B1B681B6C31
:1055E000019308BD2802030008B5024B1B681B6D20
:1055F000019308BD2802030008B5024B1B685B69D4
:10560000019308BD6402030008B5024B1B689B6848
:10561000019308BD6802030008B5024B1B68DB68F4
:10562000019308BD6802030008B5024B1B68DB69E3
:10563000019308BD3002030008B5024B1B681B6ACA
:10564000019308BD3002030008B5024B1B681B68BC
:10565000019308BD3C02030008B5024B1B68DB68E0
:10566000019308BD3C02030008B5024B1B681B698F
:10567000019308BD3C02030008B5024B1B685B693F
:10568000019308BD3C02030008B5024B1B689B69EF
:10569000019308BD3C02030008B5024B1B68DB699F
:1056A000019308BD3C02030008B5024B1B681B6A4E
:1056B000019308BD3C02030008B5024B1B689B6ABE
:1056C000019308BD3C02030008B5024B1B681B6830
:1056D000019308BD4C02030008B5024B1B685B68D0
:1056E000019308BD4C02030008B5024B1B681B69FF
:1056F000019308BD4C02030008B5024B1B685B69AF
:10570000019308BD4C02030008B5024B1B689B695E
:10571000019308BD4C02030008B5024B1B68DB690E
:10572000019308BD4C02030008B5024B1B681B6ABD
:10573000019308BD4C02030008B5024B1B685B6B6C
:10574000019308BD6002030008B5024B1B681B6D86
:10575000019308BD6002030008B5034B1B68D3F832
:105760009830019308BD00006002030008B5024BA9
:105770001B681B68019308BD2002030008B5024B9B
:105780001B685B68019308BD2002030008B5024B4B
:105790001B685B69019308BD2002030008B5024B3A
:1057A0001B68DB6A019308BD2002030008B5024BA9
:1057B0001B68DB6C019308BD2002030008B5024B97
:1057C0001B685B6D019308BD2002030008B5024B06
:1057D0001B689B6D019308BD2002030008B5034BB5
:1057E0001B68D3F88830019308BD00002002030035
:1057F00008B5034B1B68D3F89430019308BD000033
:105800002002030008B5034B1B68D3F8AC300193AA
:1058100008BD00002002030008B5034B1B68D3F845
:10582000B030019308BD00002002030008B5024B10
:105830001B681B68019308BD4402030008B5024BB6
:105840001B685B68019308BD4402030008B5024B66
:105850001B689B68019308BD4402030008B5024B16
:105860001B68DB68019308BD4402030008B5024BC6
:105870001B685B69019308BD4402030008B5024B35
:105880001B68DB69019308BD4402030008B5024BA5
:105890001B681B6A019308BD4402030008B5024B54
:1058A0001B685B6A019308BD4402030008B5024B04
:1058B0001B68DB6A019308BD4402030008B5024B74
:1058C0001B681B6B019308BD4402030008B5024B23
:1058D0001B68DB6B019308BD4402030008B5024B53
:1058E0001B685B68019308BD4002030008B5024BCA
:1058F0001B689B68019308BD4002030008B5024B7A
:105900001B68DB68019308BD4002030008B5024B29
:105910001B681B69019308BD4002030008B5024BD8
:105920001B685B69019308BD4002030008B5024B88
:105930001B689B69019308BD4002030008B5024B38
:105940001B68DB69019308BD4002030008B5024BE8
:105950001B681B6A019308BD4002030008B5024B97
:105960001B681B6B019308BD4002030008B5024B86
:105970001B685B6B019308BD4002030008B5024B36
:105980001B681B68019308BD1C02030008B5024B8D
:105990001B685B68019308BD1C02030008B5024B3D
:1059A0001B689B68019308BD1C02030008B5024BED
:1059B0001B68DB69019308BD1C02030008B5024B9C
:1059C0001B68DB6A019308BD1C02030008B5024B8B
:1059D0001B681B6B019308BD1C02030008B5024B3A
:1059E0001B685B6C019308BD1C02030008B5024BE9
:1059F0001B68DB6C019308BD1C0203000021FFF74C
:105A0000C5BE10B5836804460BB901F08EFAC368B1
:105A10009847A3681BB10322214620469847204699
:105A20001021BDE8104001F07ABA10B504460068B4
:105A300008B1FFF721FD204610BD0B68036013B1CC
:105A40005A6801325A60704710B5064C0023204650
:105A50002360FFF709FD2046034A0449BDE81040D2
:105A600001F058BAD8E5032090E403202B5A0D002A
:105A7000002240681146FFF749BF002240681146E6
:105A8000FFF764BF002240681146FFF76FBF406810
:105A90000022FFF763BF4068002281F00101FFF799
:105AA0004DBF002340681A461946FFF73FBF002349
:105AB00040681A461946FFF731BF00224068114678
:105AC000FFF714BF406800220221FFF717BF002331
:105AD00040681A46FFF702BF084B10B5282422463B
:105AE0001846002101F062FE054B04804FF0FF32A2
:105AF000426004225A60034A1A6010BDE4E50320A4
:105B0000DCE50320307D0D0070470020704710B5A4
:105B10001021044601F003FA204610BD08B5FFF736
:105B2000F6FF08BD10B58368044613B10322014691
:105B30009847204610BD30B500224FF69C74026095
:105B400084808D888C800C68858004600A6030BDFC
:105B500010B504460068FFF719FF204610BD38B5A0
:105B6000C468F4B12378022B03D104F10C00FFF7D1
:105B7000EFFF656835B12846FFF7D4FF10212846AE
:105B800001F0CDF9A56835B12846FFF7CBFF10210C
:105B9000284601F0C4F920461421BDE8384001F040
:105BA000BEB938BD10B588B00446684600F02FFD78
:105BB000694604A800F04EFD04A8A047044604A8C6
:105BC00000F0DAFC684600F0D7FC204608B010BDB3
:105BD0001FB50023CDE90201019210241A4669463F
:105BE0001846ADF80230ADF80040FFF727FE04B0CC
:105BF00010BD73B50E46044656F8043B00930D469F
:105C000001A83146FFF719FF019A009B62602360EB
:105C100001A8002301930093FEF744FB3046FEF7F2
:105C200041FB2846082101F07AF9204602B070BDF8
:105C300013B50B460246D0E900016C4684E8030028
:105C400093E8030082E8030094E8030083E803007C
:105C500002B010BD826810B50AB901F066F9BDE85E
:105C60001040C368184708B5006800F11001FFF73D
:105C7000F1FF08BD826810B50AB901F056F9BDE818
:105C80001040C368184708B5006800F11001FFF71D
:105C9000F1FF08BD38B500230446036010200D460F
:105CA000FEF7F9F928B10123C0E90133024B036083
:105CB000C5602060204638BD647D0D0038B50023E6
:105CC00083608B6804460D462BB102229847EB682F
:105CD000E360AB68A360204638BD0000F0B589B032
:105CE00004686846FFF727FF4FF00203D4E84F2F00
:105CF000002A03D1C4E8413F0029F7D125D104F19E
:105D00000C0569462846FFF716FFBFF35B8F01239A
:105D10006370002004F10803BFF35B8F53E8006F4A
:105D200043E80002002AF9D1BFF35B8F6EB1FFF7A1
:105D30003DFD78B129463046FFF78CFF3046FFF72E
:105D4000F1FE1021304601F0EAF86846FFF700FF47
:105D500009B0F0BD314602A8FFF7B0FFE068B4F922
:105D6000105008B101F060FD06901020ADF81C50F5
:105D7000FEF791F90546E8B1002787601820FEF785
:105D80008AF9044688B10146876002A8FFF750FFF0
:105D9000049BA268A360059B049206A9E268E360E5
:105DA00004F110000592FFF7C6FE084BEB60084BAC
:105DB0002C60AB6006A8FFF7CBFE02A8FFF7B2FE8F
:105DC000002229460348FFF7F9FCB7E7675C0D009E
:105DD000FD5E0D00035A0D002DE9F0478AB005461F
:105DE0009DF848900C4617469846FFF73FFD07AED2
:105DF000824638BB4FF62E73059005A93046ADF8A4
:105E00001830FFF798FE1420FEF745F9044648B114
:105E1000022303700123C0E901AA437031460C300C
:105E2000FFF789FE2846214640F8044BFFF732FF72
:105E30003046FFF78DFE05A8FFF78AFE28460AB018
:105E4000BDE8F0870C234FF0000A1420CDE908AA22
:105E50000793FEF720F9014628B1C0E901AA80F8AE
:105E600000A080F801A004A80391FFF713FF224BC4
:105E700008930820FEF70FF9824628B1039B40F8EB
:105E8000043B04A9FFF7D9FD00965FFA89F3424667
:105E900039462046CDF824A0FFF7F8FCB8B9039B9B
:105EA0005B7803F0FF0293B94FF69C7305A903A832
:105EB0000592ADF81830FFF711FF05A8FFF748FE6F
:105EC00005A80999FFF795FE06A8FEF7EBF9039BD5
:105ED000059304A906A8FFF7B0FD059B069A2B6061
:105EE0006A60002306A806930593FEF7DBF904A871
:105EF000FEF7D8F9A2E700BFC15F0D00022AF8B58E
:105F0000054607D0032A18D0012A01D10B68036087
:105F10000020F8BD18200E68FEF7BDF8044650B109
:105F20003146FFF7CBFE3069B6F9147008B101F0C5
:105F30007BFC2061A7822C60EAE70468002CE7D094
:105F400004F11000FFF704FE2046FFF7EBFD1821D7
:105F5000204600F0E4FFDBE738B5002383608B6860
:105F600004460D462BB102229847EB68E360AB680C
:105F7000A360204638BD022A70B5044607D0032A24
:105F800012D0012A01D10B680360002070BD1420DB
:105F90000E68FEF780F8054620B13146FFF7DCFFBA
:105FA000337C2B742560F0E70468002CEDD020468C
:105FB000FFF7B8FD1421204600F0B1FFE5E700002F
:105FC000F0B589B004460D4601A81146FFF711FE51
:105FD000A4B124B21DB1284601F026FC054601A853
:105FE00003A90395ADF81040FFF778FE03A8FFF76B
:105FF000AFFD02A8FEF756F909B0F0BD019D0123DF
:10600000D5E84F2F002A03D1C5E8413F0029F7D139
:10601000EFD12B73BFF35B8F6B702B1DBFF35B8FC7
:1060200053E8006F43E80042002AF9D1BFF35B8FC9
:10603000002EDED02046FFF7B9FB074660B105F120
:106040000C013046FFF716FE3046FFF76BFD1021BE
:10605000304600F064FFCCE7314603A8FFF77CFF31
:106060002B7B8DF81C301020FEF715F80546D0B1BB
:1060700087601420FEF70FF8044678B18760014668
:1060800003A8FFF7D5FD059BA268A360069B0592B8
:10609000E268E3609DF81C3006922374064BEB60C7
:1060A000064B2C60AB6003A8FFF73CFD002229469D
:1060B0000348FFF783FBC7E7875C0D00775F0D00A0
:1060C000035A0D00002240681146FFF73FBC002232
:1060D00040681146FFF74ABC40680022FFF73EBC0B
:1060E0004068002281F00101FFF728BC00234068CE
:1060F0001A461946FFF71ABC002340681A4619468B
:10610000FFF70CBC002240681146FFF7FFBB0022DE
:1061100040681146FFF7EABB406800220221FFF702
:10612000EDBB002340681A46FFF7D8BB024B0322A1
:106130005A60024A1A6070470CE60320807D0D0009
:106140007047F8B5064615460C468F18BC4206D077
:10615000336814F8011B9B6830469847F6E72846D9
:10616000F8BD007C0022FFF707BA007C0021FFF792
:106170000BBA007C0021FFF70FBA007C0021FFF76B
:1061800013BA007C0021FFF717BA10B5142104469A
:1061900000F0C5FE204610BD10B54FF47A730446DA
:1061A00008460021C4E90113034B23602074114603
:1061B000FFF712FA204610BDB47D0D000023007CCD
:1061C0001A461946FFF7C0B97FB500221423CDE95E
:1061D0000122ADF804300B788DF808304B6803933A
:1061E000CB680493007C0B7A059301A9FFF7FCF9B7
:1061F00007B05DF804FB1FB5003B8DF800104FF0B1
:106200006401039118BF0123694601928DF808309B
:10621000FFF7DAFF05B05DF804FB0123FFF7EBBFE2
:10622000007C0022FFF798B9007C0022FFF79CB9A0
:106230000121FFF7F9BF704710B51821044600F09F
:106240006EFE204610BDF0B5037D062B8DB00E46C8
:1062500000F104074FF0000412D000F1080515F812
:10626000011D0A22304600F04AF9AF42044419D019
:10627000002CF4D02E21304600F028F90444EEE73B
:106280002F236A4639460A208DF80040FFF7B4F9FB
:10629000684601F0E6FA33680246DB686946304634
:1062A0009847044620460DB0F0BD000010B5054BE0
:1062B0000446112240F8043B002101F077FA204601
:1062C00010BD00BFDC7D0D000346074A10B543F842
:1062D000042B01F1100251F8044B43F8044B914296
:1062E000F9D10A781A7010BDDC7D0D0010B59DF84B
:1062F000084044EA032343EA024242EA01610423DC
:106300004160037510BD13B5CB7800938B784A7844
:106310000978FFF7EBFF02B010BD0000014B024A05
:106320001A60704714E60320E87D0D0000234068E2
:106330001A46FFF7D3BA406800220221FFF7DEBAFF
:10634000002240681146FFF7D1BA0022406811468A
:10635000FFF7DCBA002340681A461946FFF7DEBA99
:10636000002340681A461946FFF7E0BA4068002249
:1063700081F00101FFF7E2BA40680022FFF7EEBAB0
:10638000002240681146FFF7F1BA0022406811462A
:10639000FFF7DCBA2DE9F043002495B016460D4610
:1063A0000746FFF783FF214618220EA8009401F04C
:1063B000FDF94023CDE90C3421466B460CAA30464A
:1063C000FFF72AF90446002846D1024601216868F1
:1063D000FFF79CFA0221804622466868FFF796FA8A
:1063E000009E81462146002E36D0002934D17368A4
:1063F000022B03D00A2B0BD0F669F4E7B8F1000F9B
:1064000004D0716938460431FFF77DFF4146F3E758
:10641000B9F1000F01D14946EEE77469102201A8D5
:1064200001F0C4F906238DF8143001AD04F108031E
:106430001834186859682A4603C20833A34215461F
:10644000F7D101A906A807ADFFF73EFF0FCD3C1D10
:106450000FC42B682370DEE70098FFF7D5F83846A5
:1064600015B0BDE8F0830000024B034A1A60002219
:106470005A60704718E60320F47D0D00F8B5064613
:106480000D468F180024BD420CD0336815F8011B4F
:106490009B6830469847031E01DB1C44F3E7002C41
:1064A00008BF1C462046F8BD13B50446084659B13E
:1064B000019101F0D6F923680199DB680246204674
:1064C00002B0BDE81040184702B010BD03689B68D9
:1064D000184738B50D210546FFF7F8FF0A21044695
:1064E0002846FFF7F3FF204438BD38B50546FFF7CF
:1064F000DBFF04462846FFF7ECFF204438BD30B5EB
:106500008BB000238DF82430012A98BF0A2209ACF1
:106510000D46B1FBF2F101FB125303F0FF03092B0F
:1065200094BF30333733DBB2AA4204F8013DEFD9D0
:106530002146FFF7B9FF0BB030BD10B50446FFF799
:10654000F1FA204610BD00000348044A0449002324
:10655000836000F0DFBC00BF20E6032090E403204E
:106560003B650D0010B5044608462170FFF75CF846
:1065700000236360204610BD10B504460068FFF795
:1065800005FA204610BD10B50446006808B1FFF7B3
:10659000FDF90023C4E90133236010BD38B504467A
:1065A0000D4600680131FFF7F9F910B1C4E90005A3
:1065B000012038BD10B50368044623B143688B42FF
:1065C00001D3012010BD2046FFF7E8FF0028F9D0D5
:1065D000A368002BF5D122681370F2E737B50D469A
:1065E000114601920446FFF7E5FF019A28B92046BB
:1065F000FFF7C9FF204603B030BDA26029462068DE
:1066000001F0C6F82268A3680021D154F2E7002304
:1066100013B5C0E9003304468360037341B10846F3
:10662000019101F01EF9019902462046FFF7D6FFBD
:10663000204602B010BD884210B5044605D00B6854
:106640002BB18A681946FFF7C9FF204610BDFFF736
:106650009AFFFAE710B500230446C0E900338360CF
:106660000373FFF7E8FF204610BD13B5044659B188
:106670000846019101F0F5F8019902462046FFF71E
:10668000ADFF204602B010BDFFF77DFFF9E710B562
:1066900004468AB00023C4E90033A360237308468C
:1066A00001A900F0D1FA01A92046FFF7DEFF20463C
:1066B0000AB010BD08B582683AB921B10878B0FABD
:1066C00080F0400900E0012008BD006809B90078A9
:1066D000F5E701F097F8F2E758B50E462AB121B177
:1066E00084689C4202D800230B7058BDE41A013A1A
:1066F0000168944228BF144619442246304601F0EE
:10670000B8F800233355F0E710B50446006818B117
:10671000FFF73CF90023236010BD38B5B1F9043010
:1067200083800B460D4653F8062FC0F806209B8841
:1067300043810446FFF7E8FF2B6813B12360002371
:106740002B60204638BD000038B50C460546FFF7E3
:10675000DBFF44B12088FFF711F9286028B12288B7
:10676000214601F015F8002038BD0148FCE700BFC4
:10677000FCFEFFFF07B50B460021024600910120F9
:106780008C21FFF749F803B05DF804FB01460020B7
:10679000FFF7F0BF0020FFF7F9BF0000F0B52D4D67
:1067A0000B7D04468BB00846AF1D002B38D00B681C
:1067B0001B79002B34D00022274B049302A904300C
:1067C0000292ADF80C208DF80E20FFF71BF8DDF8D3
:1067D0000E30C5F8063000B2BDF81230ADF80C002E
:1067E000A8800299BB802846FFF7AEFF02A8FFF7FA
:1067F0008BFF00232360A380A37123814FF6FF73D7
:106800006381B5F90430A3803B68C4F80630BB88C7
:10681000296863812046FFF797FF20460BB0F0BD43
:1068200000262023CDE902360C4B00930C49334659
:1068300002AA3220FEF788FF074B049302A94FF605
:10684000F263044802968DF80E60ADF80C30FFF745
:1068500064FFCBE730E603200000FFFF277E0D003A
:10686000207E0D0010B5094B094C022200201A6051
:10687000084B2060A080A071A360FEF77FFF204638
:10688000054A0649BDE8104000F044BB3CE6032041
:1068900030E603200000FFFF90E40320F3400D00EA
:1068A0002DE9F041154ADFF86080D2E90032C018C6
:1068B00042EB0101124AD2E90032C61841EB02074D
:1068C000D8E90023BB4208BFB2428CB013D003A961
:1068D0006846CDE90067FFF789F8089B094D03F288
:1068E0006C7303AC08930FCC0FC50FCC0FC5C8E970
:1068F000006723682B600CB0BDE8F08170E60320D0
:1069000068E6032044E6032078E6032008B500206B
:10691000FEF7D4FF28B1FEF7A9FF80F00100C0B256
:1069200008BD0120FCE710B50020FEF7EDFD044690
:10693000A0B9FEF71BFF012810D12046FEF746FF45
:1069400060B9FFF7E3FF10B9FEF780FFF9E7FFF743
:10695000DDFFBDE810400020FEF7D6BD204610BD8B
:106960001FB5FFF7E0FF10220021684600F01EFF70
:1069700000216846FEF7D8FD009805B05DF804FBDD
:1069800008B5FFF7EDFFC117FFF78AFF014B9868C5
:1069900008BD00BF44E6032008B5FFF7E1FFC117BB
:1069A000FFF77EFF014B586808BD00BF44E6032097
:1069B000024B1A68024B1A60704700BF28E403209C
:1069C00040E6032070474174704708B5007CFEF72D
:1069D00073FE20EAE07008BD08B5007CFEF744FEB7
:1069E00020EAE07008BD08B5007CFEF74DFE40EAE5
:1069F000E07008BD08B5007CFEF73EFE40EAE0709E
:106A000008BD007CFEF748BE37B5457C04462DB175
:106A1000207C03B0BDE83040FEF71EBE007C019133
:106A2000FEF74AFE00280199F2DC284603B030BD8B
:106A300010B51421044600F072FA204610BD000083
:106A400010B54FF0000C0446084611464FF47A7218
:106A5000C4E901C2044A22600122207462741A4609
:106A6000FEF7F2FD204610BD747E0D0013B50E4CEE
:106A70002178BFF35B8F11F0010112D12046019103
:106A8000FDF70FFB019960B1084A094B0948FFF770
:106A9000D7FF2046FDF70AFB074A0849054800F0E2
:106AA00039FA044802B010BD80E6032084E60320D2
:106AB00008E703208CE7032090E40320C5690D005C
:106AC00041747047704708B50021007CFEF71CFE3A
:106AD00040EAE07008BD08B50121007CFEF714FE15
:106AE00040EAE07008BD08B5007CFEF705FE20EA2C
:106AF000E07008BD08B5007CFEF7F6FD20EAE07006
:106B000008BD13B50446007C0191FEF7F5FD002891
:106B1000019901DC607C20B1207CFEF7FDFD20EABC
:106B2000E07002B010BD007CFEF7FEBD10B5142170
:106B3000044600F0F4F9204610BD000010B54FF4F3
:106B40007A73044608460021C4E90113044B23600C
:106B50000123207463741146FEF7B6FD204610BD74
:106B6000A47E0D00007C0022FEF7B6BD10B51422F5
:106B70000446002100F01AFE204610BD10B5104C4E
:106B800088B003A8FFF7F2FF2178BFF35B8F11F005
:106B9000010111D120460191FDF783FA019958B105
:106BA00003AA0848FFF7CAFF2046FDF77FFA064A06
:106BB0000649044800F0AEF9024808B010BD00BF15
:106BC000A0E70320A4E7032090E40320C56A0D009A
:106BD00010B5044600F045FE0138231820468342D4
:106BE00006D90278197800F8011B03F80129F6E7A5
:106BF00010BD70B50C46911E2229054622D82046AC
:106C00006DB1B5FBF2F602FB1655E9B2092D94BF42
:106C100030315731C9B200F8011B3546F0E7024662
:106C200023443021934202D902F8011BFAE71A1AD1
:106C3000834238BF0022002383542046FFF7C8FF59
:106C4000204670BD0020FCE738B5031E0C461546F3
:106C50000EDAB3F1004F4FF02D0214BF5842184620
:106C600001230A702A461944FFF7C3FF204638BDA6
:106C70000123F9E7014B1860704700BF2CE40320A3
:106C800008B50B4B43B1FFF779FF03681B699847C1
:106C9000002801DDAFF30080064B43B1FFF7E6FEAD
:106CA00003681B699847002801DDAFF3008008BD29
:106CB000000000000000000008B5FFF7E1FFFEF74C
:106CC000FBFB014B186008BDCCE703200248034AD8
:106CD0000349121A00F05CBD00F4032004F4032001
:106CE00000800D0007B5002300931A466FF077016E
:106CF000FEF77EFD03B05DF804FB000007B5438896
:106D00000A2B08D0502B0BD1094B1B684BB103B099
:106D10005DF804EB1847FFF7E5FF03B05DF804FBEF
:106D2000002300931A466FF07701FEF761FDF4E748
:106D3000BCE7032038B5124C1248134D0021FEF772
:106D40004DFE2368AB42114B0CBF012200221A708A
:106D500002D0FFF7BBFF2560FEF79EFB044600F064
:106D60002DFD0B4B13B12046AFF3008000210848E6
:106D7000FEF7ACFDBDE8384006480021FEF72EBD09
:106D800000F40320756C0D001E1C279AB8E7032041
:106D900000000000FD6C0D0008B5024B1B681B686D
:106DA000019308BD5C02030008B5024B1B685B68D9
:106DB000019308BD5C02030008B5024B1B689B6889
:106DC000019308BD5C020300232813B502D90020FB
:106DD00002B010BDA0F10B03022B1AD8174C21787A
:106DE000BFF35B8F11F001010BD120460191FDF73C
:106DF00058F9019928B11248FFF7B4FB2046FDF776
:106E000055F90F4B1878FEF717FC0028DFD1012049
:106E1000DEE7012809D800F055F80021007CFEF7D4
:106E2000D3FB80F00100C0B2D2E709380128EED8C8
:106E3000FFF71CFE007CFEF737FCF2E7C0E70320FB
:106E4000C4E70320232838B504460D460AD8FF2995
:106E500008D0FFF7B9FF28B129462046BDE83840E1
:106E6000FEF76ABB38BD000010B5084C2378BFF3AD
:106E70005B8FDB0708D42046FDF713F920B1FEF73E
:106E800023FB2046FDF712F9014810BDD0E703208F
:106E9000D4E7032038B5002320254380142304467B
:106EA0000380856005610649284600F03CF80449E6
:106EB0006060284600F037F8E060204638BD00BF2B
:106EC000CC7E0D0030B50F4D2978BFF35B8F11F0EC
:106ED000010487B013D12846FDF7E3F878B101A883
:106EE000FFF7D8FF01AA21460748FFF755F92846C2
:106EF000FDF7DCF8054A0649034800F00BF80248A4
:106F000007B030BDD8E70320DCE7032090E403207E
:106F100041610D000B460146184600F02BBCFDF701
:106F2000BEB8FDF7B8B8FDF7B8B808B5FEF746FD2E
:106F300081F0004102E000BF83F0004330B54FEA2A
:106F400041044FEA430594EA050F08BF90EA020F97
:106F50001FBF54EA000C55EA020C7FEA645C7FEA2A
:106F6000655C00F0E2804FEA5454D4EB5555B8BF4D
:106F70006D420CDD2C4480EA020281EA030382EABE
:106F8000000083EA010180EA020281EA0303362D50
:106F900088BF30BD11F0004F4FEA01314FF4801C23
:106FA0004CEA113102D0404261EB410113F0004F35
:106FB0004FEA03334CEA133302D0524263EB4303EC
:106FC00094EA050F00F0A780A4F10104D5F1200E8A
:106FD0000DDB02FA0EFC22FA05F2801841F10001E5
:106FE00003FA0EF2801843FA05F359410EE0A5F1B9
:106FF00020050EF1200E012A03FA0EFC28BF4CF0EA
:10700000020C43FA05F3C01851EBE37101F000459F
:1070100007D54FF0000EDCF1000C7EEB00006EEBAC
:107020000101B1F5801F1BD3B1F5001F0CD3490836
:107030005FEA30004FEA3C0C04F101044FEA44528D
:1070400012F5800F80F09A80BCF1004F08BF5FEA14
:10705000500C50F1000041EB045141EA050130BDF4
:107060005FEA4C0C404141EB0101013C28BFB1F506
:10707000801FE9D291F0000F04BF01460020B1FA51
:1070800081F308BF2033A3F10B03B3F120020CDA24
:107090000C3208DD02F1140CC2F10C0201FA0CF002
:1070A00021FA02F10CE002F11402D8BFC2F1200C67
:1070B00001FA02F120FA0CFCDCBF41EA0C0190401D
:1070C000E41AA2BF01EB0451294330BD6FEA040466
:1070D0001F3C1CDA0C340EDC04F11404C4F1200251
:1070E00020FA04F001FA02F340EA030021FA04F363
:1070F00045EA030130BDC4F10C04C4F1200220FABA
:1071000002F001FA04F340EA0300294630BD21FAF7
:1071100004F0294630BD94F0000F83F4801306BFBD
:1071200081F480110134013D4EE77FEA645C18BFB1
:107130007FEA655C29D094EA050F08BF90EA020F48
:1071400005D054EA000C04BF1946104630BD91EA40
:10715000030F1EBF0021002030BD5FEA545C05D143
:107160004000494128BF41F0004130BD14F5800482
:107170003CBF01F5801130BD01F0004545F0FE41F6
:1071800041F470014FF0000030BD7FEA645C1ABF2B
:10719000194610467FEA655C1CBF0B46024650EA62
:1071A000013406BF52EA033591EA030F41F400218E
:1071B00030BD00BF90F0000F04BF0021704730B514
:1071C0004FF4806404F132044FF000054FF00001E9
:1071D00050E700BF90F0000F04BF0021704730B5AA
:1071E0004FF4806404F1320410F0004548BF40427F
:1071F0004FF000013EE700BF42004FEAE2014FEAD4
:1072000031014FEA02701FBF12F07F4393F07F4FAE
:1072100081F06051704732F07F4208BF704793F0B1
:107220007F4F04BF41F40021704730B54FF46074C4
:1072300001F0004521F000411CE700BF50EA0102C7
:1072400008BF704730B54FF000050AE050EA010270
:1072500008BF704730B511F0004502D5404261EBE0
:1072600041014FF4806404F132045FEA915C3FF421
:10727000D8AE4FF003025FEADC0C18BF03325FEABE
:10728000DC0C18BF033202EBDC02C2F1200300FA6F
:1072900003FC20FA02F001FA03FE40EA0E0021FA94
:1072A00002F11444BDE600BF70B54FF0FF0C4CF482
:1072B000E06C1CEA11541DBF1CEA135594EA0C0F34
:1072C00095EA0C0F00F0DEF82C4481EA030621EA6F
:1072D0004C5123EA4C5350EA013518BF52EA0335AA
:1072E00041F4801143F4801338D0A0FB02CE4FF05C
:1072F0000005E1FB02E506F00042E0FB03E54FF08C
:107300000006E1FB03569CF0000F18BF4EF0010E83
:10731000A4F1FF04B6F5007F64F5407404D25FEA7F
:107320004E0E6D4146EB060642EAC62141EA555132
:107330004FEAC52040EA5E504FEACE2EB4F1FD0C74
:1073400088BFBCF5E06F1ED8BEF1004F08BF5FEAF2
:10735000500E50F1000041EB045170BD06F00046A4
:1073600046EA010140EA020081EA0301B4EB5C0451
:10737000C2BFD4EB0C0541EA045170BD41F4801149
:107380004FF0000E013C00F3AB8014F1360FDEBF6E
:10739000002001F0004170BDC4F10004203C35DA4A
:1073A0000C341BDC04F11404C4F1200500FA05F3CD
:1073B00020FA04F001FA05F240EA020001F000426E
:1073C00021F0004110EBD37021FA04F642EB0601E4
:1073D0005EEA430E08BF20EAD37070BDC4F10C040E
:1073E000C4F1200500FA04F320FA05F001FA04F2D2
:1073F00040EA020001F0004110EBD37041F10001BE
:107400005EEA430E08BF20EAD37070BDC4F12005C8
:1074100000FA05F24EEA020E20FA04F301FA05F230
:1074200043EA020321FA04F001F0004121FA04F2D8
:1074300020EA020000EBD3705EEA430E08BF20EAA8
:10744000D37070BD94F0000F0FD101F000464000E2
:1074500041EB010111F4801F08BF013CF7D041EA64
:10746000060195F0000F18BF704703F00046520068
:1074700043EB030313F4801F08BF013DF7D043EA39
:107480000603704794EA0C0F0CEA135518BF95EAEF
:107490000C0F0CD050EA410618BF52EA4306D1D176
:1074A00081EA030101F000414FF0000070BD50EA95
:1074B000410606BF1046194652EA430619D094EA1F
:1074C0000C0F02D150EA013613D195EA0C0F05D109
:1074D00052EA03361CBF104619460AD181EA03015D
:1074E00001F0004141F0FE4141F470014FF0000015
:1074F00070BD41F0FE4141F4780170BD70B54FF0B0
:10750000FF0C4CF4E06C1CEA11541DBF1CEA13552F
:1075100094EA0C0F95EA0C0F00F0A7F8A4EB050411
:1075200081EA030E52EA03354FEA013100F0888008
:107530004FEA03334FF0805545EA131343EA1263D1
:107540004FEA022245EA111545EA10654FEA002686
:107550000EF000419D4208BF964244F1FD0404F53F
:10756000407402D25B084FEA3202B61A65EB03059B
:107570005B084FEA32024FF480104FF4002CB6EB58
:10758000020E75EB030E22BFB61A754640EA0C00D8
:107590005B084FEA3202B6EB020E75EB030E22BF18
:1075A000B61A754640EA5C005B084FEA3202B6EB59
:1075B000020E75EB030E22BFB61A754640EA9C0018
:1075C0005B084FEA3202B6EB020E75EB030E22BFE8
:1075D000B61A754640EADC0055EA060E18D04FEAA6
:1075E000051545EA16754FEA06164FEAC30343EA46
:1075F00052734FEAC2025FEA1C1CC0D111F4801F13
:107600000BD141EA00014FF000004FF0004CB6E70B
:1076100011F4801F04BF01430020B4F1FD0C88BFAA
:10762000BCF5E06F3FF6AFAEB5EB030C04BFB6EBB5
:10763000020C5FEA500C50F1000041EB045170BDA8
:107640000EF0004E4EEA113114EB5C04C2BFD4EBD5
:107650000C0541EA045170BD41F480114FF0000E59
:10766000013C90E645EA060E8DE60CEA135594EAD5
:107670000C0F08BF95EA0C0F3FF43BAF94EA0C0FD8
:107680000AD150EA01347FF434AF95EA0C0F7FF44D
:1076900025AF104619462CE795EA0C0F06D152EAA1
:1076A00003353FF4FDAE1046194622E750EA410685
:1076B00018BF52EA43067FF4C5AE50EA41047FF496
:1076C0000DAF52EA43057FF4EBAE12E74FEA4102F9
:1076D000B2F1E04324BFB3F5001CDCF1FE5C0DD930
:1076E00001F0004C4FEAC0024CEA5070B2F1004F7A
:1076F00040EB830008BF20F00100704711F0804F7D
:1077000021D113F13872BCBF01F00040704741F441
:1077100080114FEA5252C2F11802C2F1200C10FA45
:107720000CF320FA02F018BF40F001004FEAC12329
:107730004FEAD32303FA0CFC40EA0C0023FA02F3CD
:107740004FEA4303CCE77FEA625307D150EA0133A3
:107750001EBF4FF0FE4040F44000704701F0004073
:1077600040F0FE4040F40000704700BF0A220021B4
:1077700000F00CB910B5054C13462CB10A46014671
:107780000220AFF3008010BD2046FCE7000000009F
:107790000A44914200F1FF3300D1704710B511F84F
:1077A000014B03F8014F9142F9D110BD0244034649
:1077B000934200D1704703F8011BF9E738B50D4B30
:1077C0001D68AB6B04467BB91820FEF7D7F80A4A50
:1077D0000A4BA863C0E90023094B83600B23838114
:1077E00001220023C0E90423AB6B00221C615A6113
:1077F00038BD00BF2CE403200E33CDAB34126DE650
:10780000ECDE050010F8012B11F8013B012A28BF1E
:107810009A42F7D0D01A7047034611F8012B03F8AB
:10782000012B002AF9D17047024B0146186800F07D
:1078300003B800BF2CE4032037B5044608460D46C4
:1078400000F00FF8421C114620460192FEF7BEF8E8
:10785000044618B1019A2946FFF79AFF204603B063
:1078600030BD034613F8012B002AFBD1181A01384A
:10787000704710B50139034632B111F8014F03F8D2
:10788000014B013A002CF7D11A440021934200D158
:1078900010BD03F8011BF9E72DE9F0473A4E864683
:1078A0008C4660461CF8014BA55D15F00805F8D123
:1078B0002D2C33D19CF800404FF0010800F1020C50
:1078C000002B5CD0102B0CD1302C0AD19CF800007E
:1078D00000F0DF0058284DD19CF8014010230CF136
:1078E000020C08F10047013F0026B7FBF3F93046D0
:1078F00003FB197AA4F13005092D18D82C46A342B0
:1079000024DD751C07D081451DD301D1A2451ADBAA
:1079100000FB034001261CF8014BEBE72B2C08BFB2
:107920009CF80040A84608BF00F1020CC8E7A4F18B
:107930004105192D01D8373CE1E7A4F16105192D66
:1079400004D8573CDBE74FF0FF36E4E7731C06D161
:107950002223CEF80030384642B9BDE8F087B8F1AE
:10796000000F00D04042002AF7D00EB10CF1FF31D9
:107970001160F2E73024002BB3D10823B1E7302C9B
:10798000A4D00A23ADE700BFCE7E0D0013460A4601
:10799000014602480068FFF77FBF00BF2CE40320C8
:1079A00021400D005D400D0085400D0089400D0017
:1079B00000000000556E6B6E6F776E004E6F742086
:1079C0004368617267696E670043686172676564E6
:1079D000004469736368617267696E670046617528
:1079E0006C74004469636F6E6E6563746564003621
:1079F0002E3030007B2254656D7065726174757233
:107A000065223A25342E31662C202248756D696432
:107A1000697479223A25342E31662C2020224C7547
:107A200078223A25342E31662C202022576869743A
:107A300065223A25342E31662C202022414C5322D7
:107A40003A25342E31662C22426174746572792293
:107A50003A25697D00474C455F484F4F4B004E6FBC
:107A6000204461746100556269646F747320486FCB
:107A70006F6B00526573706F6E736520526563653E
:107A8000697665640053746174650025342E31662F
:107A90002A430025342E31662525004C7578203A7E
:107AA0002025342E3166005768697465203A2025F8
:107AB000342E316600414C53203A2025342E316655
:107AC000002569202525004661696C656420746F76
:107AD00020706572666F726D2072656164696E6791
:107AE000203A28004C6F67004661696C6564207419
:107AF0006F2074616B652072656164696E67210037
:107B0000534854333120746573740052656C656159
:107B100073650074656D7065726174757265006877
:107B2000756D6964697479004C757800576869747B
:107B3000650052617720414C530042617474657254
:107B4000790042617474657279436F6E74657874FC
:107B500000506F776572536F75726365004D656194
:107B6000737572652D4E6F7700566572626F73651F
:107B70002D4D6F6465004572726F72202D20534841
:107B800054333120496E697469616C697A61746932
:107B90006F6E00436F756C646E27742066696E6447
:107BA000205348543331004572726F72202D205695
:107BB000454D4C20496E697469616C697A617469DC
:107BC0006F6E00436F756C646E27742066696E6417
:107BD0002056454D4C004761696E00496E746567DB
:107BE000726174696F6E2054696D65004661696CDD
:107BF000656420746F20636F6E6E656374005374E8
:107C000061727475700053657420566572626F738B
:107C100065204D6F646500436C6561726564205634
:107C20006572626F7365204D6F64650046726F6D9B
:107C300020257320746F20257300537461746520B0
:107C40005472616E736974696F6E004572726F72FF
:107C50002074616B696E67204D6561737572656D27
:107C6000656E747300737061726B2F6465766963FF
:107C7000652F73657373696F6E2F656E640045724F
:107C8000726F72205374617465202D205265736584
:107C90007400476F696E6720746F2074616B652094
:107CA000612039206D696E75746573206E61700096
:107CB0004E617070696E670046726F6D20536C651F
:107CC000657000576F6B655570000000B4790D004A
:107CD000BC790D00C0790D00C9790D00D1790D0076
:107CE000DD790D00E3790D005374617274757020B5
:107CF0005375636365737366756C00000000000064
:107D00000000000000000000000000000000000073
:107D10000000000000000000000000000000000063
:107D20000000000000000000000000000000000053
:107D3000CF5A0D00C55A0D00BB5A0D00715A0D00E7
:107D4000AF5A0D00A35A0D00975A0D008F5A0D001F
:107D5000855A0D007B5A0D0095630D000000000050
:107D600000000000095B0D000F5B0D005F5B0D0064
:107D70001D5B0D000B5B0D0000000000000000000B
:107D800023610D0019610D000F610D0005610D00EB
:107D9000F9600D00ED600D00E1600D00D9600D008F
:107DA000CF600D00C5600D0095630D000000000060
:107DB0000000000041610D008B610D0063610D004A
:107DC00043610D006B610D0073610D007B610D005F
:107DD00083610D00000000000000000047620D00FC
:107DE00037620D0039620D00617070000000000004
:107DF000000000002D630D0037630D0041630D008E
:107E00004B630D0055630D0061630D006D630D0044
:107E100079630D0081630D008B630D0095630D0088
:107E2000776972696E670053797374656D20736C3E
:107E300065657020636F6E66696775726174696FDE
:107E40006E20697320696E76616C69642E00255915
:107E50002D256D2D25645425483A254D3A25532569
:107E60007A0061736374696D6500000000000000B2
:107E700000000000C5690D00316A0D00096A0D009F
:107E80007D640D00D9690D00F5690D00E7690D00ED
:107E9000036A0D00C7690D00CB690D0000000000EA
:107EA00000000000C56A0D002D6B0D00036B0D0076
:107EB0007D640D00F56A0D00C76A0D00D76A0D00DC
:107EC000276B0D00E76A0D00C16A0D00000020203D
:107ED000202020202020202828282828202020207A
:107EE000202020202020202020202020202088103A
:107EF000101010101010101010101010101004049A
:107F000004040404040404041010101010101041A0
:107F10004141414141010101010101010101010111
:107F200001010101010101010110101010101042A6
:107F300042424242420202020202020202020202E1
:107F400002020202020202020210101010200000BF
:107F50000000000000000000000000000000000021
:107F60000000000000000000000000000000000011
:107F70000000000000000000000000000000000001
:107F800000000000000000000000000000000000F1
:107F900000000000000000000000000000000000E1
:107FA00000000000000000000000000000000000D1
:107FB00000000000000000000000000000000000C1
:107FC00000000000000000000000000000000000B1
:107FD000DD4C0D00495A0D00D95A0D002D610D00E0
:107FE0001D630D0069640D0049650D0065680D0095
:107FF000B1690D000000000000000000000000005A
:04800000000000007C
:1080040001000000EF790D00496E697469616C69C3
:108014007A6500000000000000000000000000007D
:1080240000004572726F7200000000000000000042
:1080340000000000000000000000000049646C65BE
:10804400000000000000000000000000000000002C
:108054000000000000004D6561737572696E670071
:10806400000000000000000000000000000000000C
:108074005468726573686F6C642043726F737365C0
:10808400640000000000000000005265706F72740C
:10809400696E67000000000000000000000000009E
:1080A40000000000526573706F6E7365205761693C
:1080B40074000000000000000000000000004E6199
:1080C4007070696E6720537461746500000000006D
:1080D400000000000000000001000000627E0D00AE
:1080E40030E4032000000000000000000000000055
:1080F400000000000000000000000000000000007C
:10810400000000000000000000000000000000006B
:10811400000000000000000000000000000000005B
:10812400000000000000000000000000000000004B
:10813400000000000000000000000000000000003B
:048144000000000037
:10814800FFFFFFFF982F0600000001020304050649
:108158000708090A0B0C0D0E0F101112131415162F
:0C8168001718191A1B1C1D1E1F202800D0
:0481740078563412F3
:04000003D0004020C9
:00000001FF
